:100000000C945B000C9478000C9478000C947800AD
:100010000C9478000C9478000C9478000C94780080
:100020000C9478000C9478000C9478000C94780070
:100030000C9478000C9478000C9478000C94780060
:100040000C9478000C9478000C9478000C94780050
:100050000C9478000C9478000C9478000C94780040
:100060000C9478000C9478000C9478000C94780030
:100070000C9478000C9478000C9478000C94780020
:100080000C9478000C9478000C9478000C94780010
:100090000C9478005402570261026C0277028302CA
:1000A0007402990299028F029902990292029902AE
:1000B00051029902950211241FBECFEFD8E0DEBF96
:1000C000CDBF11E0A0E0B1E0E8ECFEE002C0059099
:1000D0000D92A031B107D9F711E0A0E1B1E001C064
:1000E0001D92AE33B107E1F70E94F3060C9462074C
:1000F0000C94000080917A0084FF05C080917A0002
:10010000806180937A0010927A0010927B001092A6
:100110007C000895819881E680937C00EAE7F0E016
:1001200082EA808380818064808308950E947A00BF
:10013000819A8998089583EC80937C0082E880936B
:100140007A00089590917A00892F807194FF09C0F8
:10015000809178008091790090917A0090619093DD
:100160007A00089580917A0084FFFCCF8091780016
:100170008091790090917A00906190937A0008952F
:1001800080917A0084FF0CC08091780020917900E2
:1001900090917A00906190937A0090E0922B08956C
:1001A00080E090E80895259A549A6B9A10BA2D9899
:1001B0005C98739A0895F894E1E6F0E080E8808313
:1001C00010820895E0E6F0E08081886180838EE00F
:1001D000808308950E94E2000E94DB0085E090E0A9
:1001E0000E941A060E94D3000E948A000E942E03D9
:1001F00085E090E00E941A060E94160681E00E94A7
:10020000CD0360E27EE480E090E00C943106CF9371
:10021000DF93EC018F30910551F460E27EE481E0E0
:1002200090E00E943106882311F0C5E0D0E0CE01B5
:10023000DF91CF9108950C94000008950C9400185C
:100240000895CF93DF9300D01F92CDB7DEB781E042
:1002500089831A828DE08B83CE0101960E948503EB
:100260000F900F900F90DF91CF910895CF93DF9370
:1002700000D01F92CDB7DEB781E089831A828EE06D
:100280008B83CE0101960E9485030F900F900F90F3
:10029000DF91CF910895CF93DF9300D01F92CDB718
:1002A000DEB781E089831A828B83CE0101960E949A
:1002B00085030F900F900F90DF91CF910895CF930A
:1002C000DF9300D01F92CDB7DEB781E089831A8219
:1002D00082E08B83CE0101960E9485030F900F90E0
:1002E0000F90DF91CF910895CF93DF9300D01F92AD
:1002F000CDB7DEB781E089831A8283E08B83CE019C
:1003000001960E9485030F900F900F90DF91CF917F
:100310000895CF93DF9300D01F92CDB7DEB781E071
:1003200089831A8280E18B83CE0101960E94850326
:100330000F900F900F90DF91CF910895CF93DF939F
:1003400000D000D0CDB7DEB782E089831A8286E084
:100350008B83809114018C83CE0101960E948503CA
:100360000F900F900F900F90DF91CF910895CF9342
:10037000DF9300D000D01F92CDB7DEB785E0E0E07C
:10038000F1E0DE01119601900D928A95E1F7CE0120
:1003900001960E9485030F900F900F900F900F9081
:1003A000DF91CF910895CF93DF9300D000D01F92BB
:1003B000CDB7DEB785E0E5E0F1E0DE011196019012
:1003C0000D928A95E1F780911201909113019C831F
:1003D0008D83CE0101960E9485030F900F900F90A0
:1003E0000F900F90DF91CF910895CF93DF9300D0BE
:1003F00000D01F92CDB7DEB785E0EAE0F1E0DE0184
:10040000119601900D928A95E1F7809110019091DB
:1004100011019C838D83CE0101960E9485030F906C
:100420000F900F900F900F90DF91CF910895833030
:10043000910589F040F40097A9F00297A9F4809102
:100440001401862B0CC08831910561F0499761F445
:100450006093140109C060958091140186238093F4
:10046000140102C010921401809114010895CF93D9
:10047000DF93EC010E94AA03FC018081882309F428
:1004800058C0428183819181992309F452C050E080
:100490004131510508F04DC0FA01E65BFF4F0C9465
:1004A0004D070E94360145C00E94CD0342C0CF30A7
:1004B000D10521F40E944B0181E014C00E9421016A
:1004C00038C0CF30D105D1F70E945F0180E090E0C5
:1004D0000E94C60482E006C0CF30D10579F70E94A1
:1004E000740185E090E026C00E949E0122C08091A8
:1004F0001401882319F361E083E090E00E94170261
:100500000E94D30116C0809114018823B9F262E0E1
:1005100083E090E00E9417020E94F5010AC08093D8
:10052000140107C00E94B70104C00E9489010E9403
:100530001E01CE01DF91CF91089583309105B1F076
:1005400058F4009701F1029711F5809112019091F2
:100550001301862B972B12C088319105A1F0499782
:10056000B1F4709313016093120111C060957095FE
:100570008091120190911301862397239093130188
:100580008093120104C01092130110921201809105
:10059000120190911301089583309105B1F058F440
:1005A000009701F1029711F58091100190911101CE
:1005B000862B972B12C088319105A1F04997B1F491
:1005C000709311016093100111C060957095809136
:1005D000100190911101862397239093110180932C
:1005E000100104C0109211011092100180911001AD
:1005F00090911101089590E29093ED00EFEEF0E0FC
:100600008081816080831092F0001092F1009093BD
:10061000F2001092F3001092F4001092F500109284
:10062000F6001092F700808180688083089580E052
:1006300090E09C0144E0220F331F4A95E1F720939C
:10064000ED002091EE001092EE001092EF0010925B
:10065000FA0001968E30910561F70895559A5698E3
:1006600081E08093D8008FEF8093DA001092DB0056
:100670001092DF001092DE000E94170382E1809347
:10068000E2008CE08093E30087E38093E400109223
:10069000E50082E08093D8008091D90082FFFCCFF2
:1006A0000E94FB0260E080E090E00E94170260E0A0
:1006B00070E080E090E00E949D0260E070E080E0E9
:1006C00090E00C94CC0280E18093ED009091EE00DC
:1006D000892F807496FF06C08091EE008F7B8093F7
:1006E000EE0081E008958091EF0080688093EF0034
:1006F0009091EE00892F807295FF06C08091EE00E8
:100700008F7D8093EE0081E0089520E12093ED003D
:100710001092EF00FC012081318132969091EF0020
:10072000822F8F70892B8093EF001092F00010922F
:10073000F1001092F2003093F300222329F081910E
:100740008093FA002150F9CF8091EF00806480936C
:10075000EF00089580E28093ED000E9473038823E8
:10076000B9F08091EF008F70809315019091F300A4
:100770009093160192E0980F82E0891759F020912A
:10078000FA00E82FF0E0EB5EFE4F20838F5FF5CF9D
:100790001092150185E191E0089590E29093ED00AB
:1007A0001092F0001092F1001092F2008093F3008A
:1007B0001092F4001092F5001092F6008FEF8093E3
:1007C000F700EFEEF0E08081806880830895893C37
:1007D000910564F0885C91099C01359527953595C4
:1007E0002795422F8370992729E111C0883C9105F4
:1007F00091F028EC30E0281B390BC90195958795BD
:1008000095958795482F40682370332789E1829F0B
:10081000802D112402C080E040E090E0942B0895E8
:100820008091200181110AC00E949B0065E070E068
:1008300080E090E00E94870681E010C0813099F44A
:1008400065E070E081E090E00E948706882341F037
:1008500080917A00806480937A0082E08093200106
:1008600085E090E008958230D9F70E94C00097FD9E
:10087000F7CF0E94E703BC0189E190E00E94CC021F
:1008800062E082E090E00E941702109220018FE067
:1008900090E008950E9496000E94B20673980E940C
:1008A000E106739A0E94D1060C948A00CF92DF92DF
:1008B000EF92FF92CF93DF9300D000D0CDB7DEB799
:1008C000FC012281822F90E0A0E0B0E04427582F65
:1008D000692F7A2F8181482B2227342F452F562FBD
:1008E0008081282B60E070E087E190E029833A83E3
:1008F0004B835C830E94CC0229813A814B815C81CD
:1009000097FF0AC09F778AEF980260011124EDE0FB
:10091000CE1AE3EFDE0A08C0F6E09F026001112460
:100920008DE0C81A83EFD80AEE24D7FCE094FE2CA1
:10093000A1E7B2E00E94100720E137E240E050E07A
:100940000E942B07CA01B901A70196010E941B074B
:1009500024E130E040E050E00E942B07CA01B901D9
:1009600028EE33E040E050E00E942B072F5D3F4F20
:100970004F4F5F4FC9010F900F900F900F90DF9175
:10098000CF91FF90EF90DF90CF900895AF92BF92FC
:10099000CF92DF92EF92FF920F931F93CF93DF934B
:1009A000CDB7DEB72A970FB6F894DEBF0FBECDBF26
:1009B0008E010F5F1F4F2AE0F80111922A95E9F787
:1009C000009741F41092350161E083E090E00E94CD
:1009D0001702BAC0019709F0B7C0809135018111A3
:1009E00004C00E944A0481E092C08130E9F50E946F
:1009F000B200863E98F4C09BA7C0C09A8091340193
:100A000090E0FC01EE0FFF1FE80FF91FEB5DFE4FBA
:100A100082818F5F8283843008F496C00E94C3066F
:100A200020913401822F90E030919400FC01EE0F70
:100A3000FF1FE80FF91FEB5DFE4F3083809195009B
:100A40008183243010F082E062C068EC70E080E0C6
:100A500090E00E94870684E0809335018091340104
:100A60008F5F8093340170C0823009F053C01092C0
:100A70003401C12CD12C760180913401853060F590
:100A800090E05C01AA0CBB1C8A0D9B1D8B5D9E4FE8
:100A90000E945604F801EA0DFB1D9183808340916A
:100AA0003401242F30E0F901EE0FFF1FD801AE0F03
:100AB000BF1F8D919C91AA2797FDA095BA2FC80EB4
:100AC000D91EEA1EFB1EE20FF31FEB5DFE4F1282E2
:100AD0004F5F40933401D0CFC701B60125E030E02D
:100AE00040E050E00E942B07B90189E190E00E94AC
:100AF0009D0261E082E090E00E94170268EC70E0E5
:100B000080E090E00E9487061092340183E0809399
:100B100035011AC0833069F468EC70E081E090E040
:100B20000E948706882381F0109235018FE090E0C3
:100B30000DC0843049F468EC70E081E090E00E94E0
:100B4000870681111092350182E090E02A960FB657
:100B5000F894DEBF0FBECDBFDF91CF911F910F91F3
:100B6000FF90EF90DF90CF90BF90AF90089580916D
:100B70002401811104C00E944A0481E035C0813003
:100B8000D1F40E94B200863E50F4C09B2FC0C09AA0
:100B9000809123018F5F80932301843038F10E947C
:100BA000C3068091940080932101809195008093E9
:100BB000220182E019C08230E1F481E291E00E94DA
:100BC0005604BC0189E190E00E949D0261E082E050
:100BD00090E00E9417021092230168EC70E080E020
:100BE00090E00E94870683E08093240181E090E0FA
:100BF00008958330D9F768EC70E081E090E00E94BE
:100C00008706882399F3109224018FE090E00895DD
:100C10000000089516BC83E084BD089595B3892F24
:100C2000817090FF02C0A89A81E0089584B58C7FFE
:100C300084BD08950F931F93CF93DF938C010E947F
:100C40000A06C0E0D0E0C017D10734F40E940E06B7
:100C50008823E1F32196F7CFDF91CF911F910F9178
:100C60000895009759F410923D0110923C01709341
:100C70003B0160933A010E940A0602C0019711F0FD
:100C800080E008950E940E068823D1F380913C01F4
:100C900090913D01019690933D0180933C012091FC
:100CA0003A0130913B012817390754F710923D0162
:100CB00010923C0181E008951092B20084E080938C
:100CC000B000089597B3892F817090FF02C0B89A41
:100CD00081E00895E0EBF0E080818B7F80830895D0
:100CE0000F931F93CF93DF938C010E945C06C0E0AB
:100CF000D0E0C017D10734F40E9462068823E1F3E4
:100D00002196F7CFDF91CF911F910F910895009712
:100D100059F41092390110923801709337016093A1
:100D200036010E945C0602C0019711F080E0089530
:100D30000E9462068823D1F3809138019091390195
:100D400001969093390180933801209136013091BA
:100D500037012817390754F71092390110923801DA
:100D600081E0089582E88093800088E1809381008B
:100D70001092870080E8809386001092890080E4BA
:100D80008093880008951092910008951092900029
:100D9000109291001092950010929400C09AC19AFE
:100DA00008950E94C60680E38093990010929800EF
:100DB0001092900081E080939100C19BFECFC19A78
:100DC0000895809181008160809381008FE181503E
:100DD00021F0B19BFECFB19AFACF809181008E7F36
:100DE0008093810008950E94EA0085E090E0A89534
:100DF0000E9407010E9437028230910549F0853038
:100E0000910559F08130910591F70E94B705EFCF18
:100E100081E090E00E94C604EACF0E941004E7CF70
:100E20000E945307A59F900DB49F900DA49F800D25
:100E3000911D11240895DB018F939F930E94100749
:100E4000BF91AF91A29F800D911DA39F900DB29F66
:100E5000900D11240895A1E21A2EAA1BBB1BFD01BF
:100E60000DC0AA1FBB1FEE1FFF1FA217B307E40789
:100E7000F50720F0A21BB30BE40BF50B661F771FE1
:100E8000881F991F1A9469F76095709580959095C1
:100E90009B01AC01BD01CF010895EE0FFF1F05902E
:100EA000F491E02D0994A29FB001B39FC001A39FCC
:100EB000700D811D1124911DB29F700D811D112493
:080EC000911D0895F894FFCF85
:100EC80003000C01110300040000030005000000EA
:00000001FF
