:100000000C94DA010C9400020C9400020C9400028F
:100010000C9400020C9400020C9400020C94000258
:100020000C9400020C9400020C9400020C94000248
:100030000C9400020C9400020C9400020C94000238
:100040000C9400020C9400020C9400020C94000228
:100050000C9400020C9400020C9400020C94000218
:100060000C9400020C9400020C9400020C94000208
:100070000C9400020C9400020C9400020C940002F8
:100080000C9400020C9400020C9400020C940002E8
:100090000C9400020C9400020C9400020C940002D8
:1000A0000C9400020C9400020C9400020C940002C8
:1000B0000C9400020C9400020C9400020C940002B8
:1000C0000C9400020C9400020C9400020C940002A8
:1000D0000C9400020C9400020C9400020C94000298
:1000E0000C9400020C9400020C9400020C94000288
:1000F0000C9400020C9400020C9400020C94000278
:100100000C9400020C9400020C9400020C94000267
:100110000C9400020C9400020C9400020C94000257
:100120000C9400020C9400020C9400020C94000247
:100130000C9400020C9400020C9400020C94000237
:100140000C9400020C9400020C9400020C94000227
:100150000C9400020C9400020C9400020C94000217
:100160000C9400020C9400020C9400020C94000207
:100170000C9400020C9400020C9400020C940002F7
:100180000C9400020C9400020C9400020C940002E7
:100190000C9400020C9400020C9400020C940002D7
:1001A0000C9400020C9400020C9400020C940002C7
:1001B0000C9400020C9400020C9400020C940002B7
:1001C0000C9400020C9400020C9400020C940002A7
:1001D0000C9400020C9400020C9400020C94000297
:1001E0000C9400020C9400020C94757A0C9400029A
:1001F0000C94000277037A037D0380038303860354
:1002000089038C038F039203950398039B039E033A
:10021000A103A403A703AA03AD03B003B303B6036A
:10022000B903BC03BF03C203C503C803CB03CE039A
:10023000D103D603E803EB03EE03F103F403F70362
:10024000FA03FD0300040304060409040C040F046C
:100250001204150418041B041E042104240427049A
:100260002A042D0430043304360439043C043F04CA
:1002700042044704EC3CF13CF63CFB3C003D053DB0
:100280000A3D113D183D1D3D223D293DB03CB53C88
:10029000BA3CBF3CC43CC93CCE3CD33CD83CDD3C22
:1002A000E23CE73CC341C641C941CC41CF41D241C8
:1002B000D741DA41E041E341E641DD41E941EC412A
:1002C000144217421A421D4220422342264229422A
:1002D0002C422F423242354238423B42F1410342E6
:1002E000F441F741FA41FD410042064209420C4205
:1002F0000F4240424342464249424C424F425242E0
:10030000554258429B489D48C048C3489F48A14811
:10031000C648C948A348A548A748A948AB48CC48FF
:10032000CF48D248D548AD48AF48B148B448B7489F
:100330001349BA48BD48D848DB48DE48E148E4489C
:100340000E49E748EA48ED480249054908490B4982
:10035000FC48FF48F048F348F648F9482649284940
:100360004B494E492A492C49514954492E49304953
:1003700032493449364957495A495D4960493849F3
:100380003A493C493F4942499E49454948496349A0
:10039000664969496C496F49994972497549784973
:1003A0008D4990499349964987498A497B497E49B5
:1003B0008149844911241FBECFEFDFE3DEBFCDBFEB
:1003C00000E00CBF18BE19BE1ABE1BBE1CE3A0E0A5
:1003D000B0E2ECE0F6EF00E00BBF02C007900D9238
:1003E000AE36B107D9F71BBE1DE3AEE6BCE301C0D4
:1003F0001D92AC3CB107E1F70E94A2410C94047B32
:100400000C9400001F93CF93DF93C0E0D6E010E27E
:100410001983882321F41D8382E090E003C01D83AB
:100420008CE390E00E9484591E8384E190E00E9456
:100430008459DF91CF911F9108950F931F93CF930C
:10044000DF93C0E0D0E00EEF17E0C8010C2E02C031
:10045000959587950A94E2F781700E940202219691
:10046000CC30D10591F7DF91CF911F910F91089575
:100470000F931F93CF93DF93C0E0D0E001E018E02B
:10048000C8010C2E02C0959587950A94E2F78170F9
:100490000E9402022196CC30D10591F7DF91CF91D5
:1004A0001F910F9108950F931F93CF93DF93C0E097
:1004B000D0E001E010E0C8010C2E02C0880F991FA7
:1004C0000A94E2F780780E9402022196C830D10592
:1004D00091F7DF91CF911F910F9108950F931F9383
:1004E000CF93DF93C0E0D0E007E310E0C8010C2E0B
:1004F00002C0880F991F0A94E2F780780E940202D6
:100500002196C830D10591F7DF91CF911F910F91BE
:1005100008950F931F93CF93DF93C0E0D0E002E1E3
:1005200010E0C8010C2E02C0959587950A94E2F759
:1005300081700E9402022196C630D10591F7DF91A9
:10054000CF911F910F9108950E9438020E94890255
:100550000E9453020E941D0208950F931F93CF9390
:10056000DF93C0E0D0E00AE110E0C8010C2E02C029
:10057000959587950A94E2F781700E940202219670
:10058000C630D10591F7DF91CF911F910F9108955A
:100590000E9438020E94AD020E946E020E941D025B
:1005A00008950E94C8020E94A4020895CF93DF9389
:1005B000AAECB1E052E05C93E0E2F0E0E4911C923E
:1005C00020E032E0E901EC875C93E1E2F0E0E491C5
:1005D0001C92ED875C93E4E2F0E0E4911C9280E4ED
:1005E00092E0EC01EC875C93E5E2F0E0E4911C9290
:1005F000ED87F901118240E24283548351E0508338
:1006000019824A835C83588350A348E141A350A7D1
:1006100040E141A758A340E349A350AB88E381AB35
:10062000DF91CF910895AAECB1E092E09C93E82F7E
:10063000F0E0E4911C928E2F0895E0E0F2E091E06A
:1006400090A388E181A390A780E181A70895E0E4C9
:10065000F2E081E080A380E381A30895E0E0F2E08E
:1006600081E080AB88E381AB0895809100028061D6
:10067000809300028091060282FFFCCF80910602E7
:100680008460E0E0F2E0868380911402909115028C
:10069000845C9940CCF480916E3C90916F3C0196C3
:1006A00080936E3C90936F3C039711F40E945C4DD5
:1006B00080916E3C90916F3C815D92404CF0109225
:1006C0006E3C10926F3C089510926E3C10926F3CFD
:1006D0000895FC018032910540F4E650FF4FEE0F83
:1006E000FF1F0590F491E02D199480E0089580E0BB
:1006F00090E059C081E090E056C082E090E053C0A5
:1007000083E090E050C084E090E04DC085E090E050
:100710004AC086E090E047C087E090E044C088E0AF
:1007200090E041C089E090E03EC08AE090E03BC0AC
:100730008BE090E038C08CE090E035C08DE090E038
:1007400032C08EE090E02FC08FE090E02CC080E1BE
:1007500090E029C081E190E026C082E190E023C0D2
:1007600083E190E020C084E190E01DC085E190E04D
:100770001AC086E190E017C087E190E014C088E1DC
:1007800090E011C089E190E00EC08AE190E00BC0DA
:100790008BE190E008C08CE190E005C08DE190E035
:1007A00002C08EE190E00E94AE0408958FE190E0D7
:1007B0000E94AE040895FC018032910508F06BC0E0
:1007C000E65EFE4FEE0FFF1F0590F491E02D1994A9
:1007D00080E090E059C081E090E056C082E090E077
:1007E00053C083E090E050C084E090E04DC085E0CD
:1007F00090E04AC086E090E047C087E090E044C0C7
:1008000088E090E041C089E090E03EC08AE090E05E
:100810003BC08BE090E038C08CE090E035C08DE0CC
:1008200090E032C08EE090E02FC08FE090E02CC0CE
:1008300080E190E029C081E190E026C082E190E073
:1008400023C083E190E020C084E190E01DC085E1F9
:1008500090E01AC086E190E017C087E190E014C0F4
:1008600088E190E011C089E190E00EC08AE190E05B
:100870000BC08BE190E008C08CE190E005C08DE1F9
:1008800090E002C08EE190E00E94740408958FE130
:1008900090E00E9474040895DF93CF93CDB7DEB744
:1008A000C258D040CDBFDEBF99838A8390E09E01BD
:1008B0002D5F3F4FE92FF0E0D901AE0FBF1FE60FCC
:1008C000F71F80818C939F5F9038A1F780E5BE0170
:1008D0006F5F7F4F42E80E94C278CE57DF4FCDBF97
:1008E000DEBFCF91DF910895DF93CF9300D0CDB7D6
:1008F000DEB7DE011196E0E0F0E223E001900D9218
:100900002150E1F799838A836B8380E5BE016F5F95
:100910007F4F43E00E94C2782396CDBFDEBFCF91C8
:10092000DF910895DF93CF930F920F92CDB7DEB78B
:1009300099838A8380E5BE016F5F7F4F42E00E940A
:10094000C27880E568E00E9400799C012F5F3F4FEC
:10095000C9010F900F90CF91DF910895DF93CF934E
:100960000F920F92CDB7DEB799838A8380E5BE01DF
:100970006F5F7F4F42E00E94C27880E561E00E9495
:100980000079FC0181810F900F90CF91DF91089544
:10099000CF93DF93C0E0D0E0CE016BE00E947404FF
:1009A0008AE090E00E948D592196C032D105A1F7CE
:1009B000DF91CF9108958BECE0E5F0E0828388E051
:1009C000809350008091510083FFFCCF88ED84BF5D
:1009D00083E080934000089588ED84BF8BE280938C
:1009E00080000895A89508950E94C8040E94634657
:1009F0000E946C4A0E9489430E94341108950E940B
:100A0000DB040E946B520E94D60278940E942D7AD9
:100A10000E9402780E944A780E9433230E94A859BB
:100A20000E94A1240E94A8590E94923288ED84BF9E
:100A30008BE2809380000E94E0430E94D1020E94DA
:100A400071090E940B4C0E94A85989E190E00E9414
:100A5000215B81E190E00E94A10604C00E943B5B03
:100A6000882321F40E94A5050E97C1F70E94B25A6F
:100A700082E090E00E94E05B089580E660E00E94E2
:100A8000934280E06FEF0E94934281E06FEF0E94FB
:100A9000934280E260E00E94934281E260E00E9423
:100AA000934286E660E00E9493420895EF92FF929F
:100AB0000F931F93DF93CF930F92CDB7DEB7E1E88B
:100AC000FCE311922CE3EB38F207D9F78CE20E9499
:100AD000F54280FF2EC085E60E94F542182F1F7058
:100AE0001093813C81E60E94F5428093823C86E629
:100AF0000E94F5428093833C93E0012F10E00F5F4A
:100B00001F4F0DC0892F8C5999830E94F542E1E84F
:100B1000FCE3EE0EFF1EF701808399819F5FE92EB3
:100B2000FF240E151F0574F78CE260E00E949342CB
:100B300002C01092813C81E89CE30F90CF91DF913D
:100B40001F910F91FF90EF9008950E945605FC01B0
:100B50008081882309F45CC082818D30C9F18E3098
:100B600040F4823029F1833059F1813009F050C0CE
:100B700017C0803109F444C0813120F48E3009F06F
:100B800047C006C08231A1F1833109F041C028C0BD
:100B900080917E3C8F5F80937E3C2EE030E03AC0B7
:100BA00080917E3C8F5F80937E3C21E030E032C0BC
:100BB00080917E3C8F5F80937E3C22E030E02AC0B3
:100BC00080917E3C8F5F80937E3C23E030E022C0AA
:100BD00080917E3C8F5F80937E3C2DE030E01AC098
:100BE00080917E3C8F5F80937E3C23E130E012C099
:100BF00080917E3C8F5F80937E3C22E130E00AC092
:100C000080917E3C8F5F80937E3C20E130E002C08B
:100C10002FE030E0C9010895FF920F931F93CF9307
:100C2000DF938C01FC01F08085E36F2D0E949342DD
:100C300081E3F80161810E94934282E360E00E94B7
:100C40009342E80100E007C0FA94802F8A5C698132
:100C50000E9493420F5F2196FF20B1F780E368E086
:100C60000E94934224C080E30E94F542807F31F0CD
:100C700010927F3C1092803C81E023C080917F3CA9
:100C80009091803CF3E0893E9F0764F010927F3C96
:100C90001092803C8DE390E060E070E00E94373A73
:100CA00082E00FC0019680937F3C9093803C8CE261
:100CB0000E94F54282FFD7CF10927F3C1092803C79
:100CC00080E0DF91CF911F910F91FF900895DF9306
:100CD000CF9300D0CDB7DEB791E099838A838EE0C1
:100CE0008B83CE0101960E940C068AE090E00E9460
:100CF000215B06C00E943B5B882311F080E005C0A9
:100D00000E94A505892BB1F381E02396CDBFDEBFFC
:100D1000CF91DF910895DF93CF9300D00F92CDB79D
:100D2000DEB791E099839A8399E09B838C83CE010F
:100D300001960E940C062496CDBFDEBFCF91DF91B5
:100D40000895DF93CF9300D0CDB7DEB791E09983BC
:100D50009A838B83CE0101960E940C062396CDBF09
:100D6000DEBFCF91DF910895CF92DF92FF920F9374
:100D70001F93DF93CF93CDB7DEB7C058D040CDBF20
:100D8000DEBF8230910561F41092713C84E690E000
:100D90000E94215B83E190E00E94A10681E01CC0DB
:100DA000019709F07BC08091713C8130C1F40E94B1
:100DB0003B5B882319F08BE08093713C0E94A50572
:100DC000439709F06BC084E690E00E94215B83E1C9
:100DD00090E00E94A10682E08093713C5FC0823067
:100DE00009F05CC000E010E06E010894C11CD11C49
:100DF00081E162E3A8010E94732AFF2406C00E94D9
:100E00003B5B882311F08CE026C00E945605AC01A4
:100E1000FC018081882399F3DA018F2D90E0F6019F
:100E2000E80FF91F9C01285F3F4F2C0D3D1D1296C6
:100E30008C91129781931196E217F307C1F7002363
:100E400069F4FF2059F4FA0182818C3039F08381F2
:100E5000843921F08DE08093713C22C084E690E0DB
:100E60000E94215B83E190E00E94A106F8E0FF0E62
:100E700080E8F81651F6A8950F5F1F4F80E0902F7D
:100E8000B6010E944C040032110509F0B1CF84E094
:100E90008093713C8EE090E00E94A1068091713CAD
:100EA000C058DF4FCDBFDEBFCF91DF911F910F91B3
:100EB000FF90DF90CF9008958230910569F41092F1
:100EC000753C1092723C89E190E00E94215B8CE0BD
:100ED00090E00E94A10628C0019731F50E943B5B7B
:100EE000882371F08091753C8F5F8093753C8530CD
:100EF00018F08BE08093723C8CE090E00E94A10699
:100F00000E945605FC018081882371F082818C301B
:100F100059F483818093733C84818093743C81E095
:100F20008093723C0E944B5B82E79CE30895823081
:100F3000910569F41092793C1092763C89E190E039
:100F40000E94215B83E090E00E94A10682C001978D
:100F500009F07FC08091763C882321F50E943B5B9D
:100F6000882371F08091793C8F5F8093793C853044
:100F700018F08AE08093763C83E090E00E94A1061E
:100F80000E94A505833041F41092793C81E0809362
:100F9000763C86E090E02DC08D3009F05AC010926A
:100FA000793C29C0813061F50E943B5B882371F058
:100FB0008091793C8F5F8093793C853018F08BE08D
:100FC0008093763C86E090E00E94A1060E94560540
:100FD000FC0180818823E9F182818630D1F583810B
:100FE00081FF37C01092793C82E08093763C85E0A7
:100FF00090E00E94A10689E190E00E94215B29C057
:10100000823029F50E943B5B882371F08091793C06
:101010008F5F8093793C853018F08CE08093763C2C
:1010200085E090E00E94A1060E945605FC018081A7
:10103000882379F08281853061F483818093773CC5
:1010400084818093783C83E08093763C02C00E9448
:101050004B5B86E79CE30895CF93DF93EB018230EF
:10106000910561F410927D3C10927A3C89E190E008
:101070000E94215BCE010E94A10683C0019709F066
:1010800080C080917A3C882329F50E943B5B8823AD
:1010900069F080917D3C8F5F80937D3C853018F0B6
:1010A0008AE080937A3CCE010E94A1060E94A505A9
:1010B000982F8150823040F410927D3C81E08093E3
:1010C0007A3C86E090E02DC09D3009F05AC0109225
:1010D0007D3C29C0813061F50E943B5B882371F023
:1010E00080917D3C8F5F80937D3C853018F08BE054
:1010F00080937A3C86E090E00E94A1060E9456050B
:10110000FC0180818823E9F182818630D1F510923B
:101110007D3C838180FF35C082E080937A3C84E00F
:1011200090E00E94A10689E190E00E94215B29C025
:10113000823029F50E943B5B882371F080917D3CD1
:101140008F5F80937D3C853018F08CE080937A3CF3
:1011500084E090E00E94A1060E945605FC01808177
:10116000882379F08281843061F4838180937B3C91
:10117000848180937C3C83E080937A3C02C00E940F
:101180004B5B8AE79CE3DF91CF9108956F927F924A
:101190008F929F92AF92BF92CF92DF92FF920F9366
:1011A0001F93DF93CF93CDB7DEB72A97CDBFDEBFB6
:1011B000DE011196E3E0F0E22AE001900D92215069
:1011C000E1F78230910561F41092703C84E690E082
:1011D0000E94215B82E190E00E94A10681E018C09C
:1011E000019709F06BC08091703C8130A1F40E949E
:1011F0003B5B882319F08BE08093703C0E94A5052F
:10120000429709F05BC084E690E00E94215B82E097
:101210008093703C53C0823009F050C000E010E071
:1012200023E0622E712C6C0E7D1E9BE0892E912C8A
:101230008C0E9D1E5E010894A11CB11CA89581E135
:1012400062E3A8010E94732A0F5F1F4FD02ECC24A7
:10125000FF248F2D90E08C299D290E949204DC01AF
:10126000F3018D918193E815F905D9F7C5010E9425
:101270000C0684E690E00E94215B04C00E943B5B68
:10128000882349F40E945605FC0180818823B1F32C
:101290008281823121F08CE08093703C11C088E023
:1012A000F80E80E8F816A9F60032110539F684E048
:1012B0008093703C8EE090E00E94A1068091703C8B
:1012C0002A96CDBFDEBFCF91DF911F910F91FF9086
:1012D000DF90CF90BF90AF909F908F907F906F9056
:1012E00008950E9427430E943D058FE065E00E941B
:1012F00093420895CF93DF93C82FD0E080FF06C0BC
:1013000080E166E848E050E00E94F425CE01867056
:101310009070892B61F086E06CE246E023E20E9447
:10132000B13186E06DE241E050E00E949726C3FFB4
:101330000BC081E161E041E050E00E94972680E02F
:1013400090E060E00E940335C4FF0BC081E16AE5D4
:1013500041E050E00E94972682E090E060E00E9429
:101360000335DF91CF910895EF92FF920F931F9372
:10137000CF93DF93C82F80FD02C0EE240FC089E118
:1013800090E00E948D48082F0E94A045EE2490E036
:1013900010E00817190714F4EE24E394C1FF19C0F4
:1013A0008FE090E00E948D48F82E80E190E00E944E
:1013B0008D48082F0E94824E3F2D20E010E0202B08
:1013C000312B281739071CF482E0E82A02C08DEF80
:1013D000E822C2FF19C08DE090E00E948D48F82EEF
:1013E0008EE090E00E948D48082F0E94824E3F2D93
:1013F00020E010E0202B312B821793071CF484E0AF
:10140000E82A02C08BEFE822C3FF0DC08CE090E019
:1014100063E170E00E94E24FC09719F488E0E82A87
:1014200002C087EFE8228E2DDF91CF911F910F919F
:10143000FF90EF90089583E190E00E94875283E14E
:1014400090E00E94C32280E40E94C55208958091DA
:101450008B3C8F5F80938B3C823089F48BE190E0F2
:101460000E948D48882311F00E941B0A80E090E0C2
:1014700060E141E050E00E94A7470E945C4D8091EE
:101480008B3C8B3F10F010928B3C089580918C3CEC
:101490008F5F80938C3C823089F48BE190E00E94D6
:1014A0008D48882311F00E941B0A80E090E068E0DC
:1014B00041E050E00E94A7470E945C4D80918C3C27
:1014C0008B3F10F010928C3C089580918D3C8F5F83
:1014D00080938D3C823089F48AE190E00E948D48AF
:1014E000882311F00E941B0A80E090E064E041E054
:1014F00050E00E94A7470E945C4D80918D3C8B3F3D
:1015000010F010928D3C08958A30910591F08B3047
:10151000910548F486309105D1F08630910510F19F
:10152000089700F114C08D30910588F08D30910539
:10153000C9F460E070E041E150E00E940A190897A8
:1015400099F485E190E00E948D48882369F484E055
:101550000E947A090E94650A80E10E94C55288E0D3
:101560000E94C55281E0089580E0089580918E3CEC
:101570008F5F80938E3C823089F48AE190E00E94F4
:101580008D48882311F00E941B0A80E090E062E001
:1015900041E050E00E94A7470E945C4D80918E3C44
:1015A0008B3F10F010928E3C0895CF93DF93EC01A7
:1015B0008091903C882309F043C082E00E947A0920
:1015C0000E94B60ACA30D10501F1CB30D10548F4EA
:1015D000C830D105C1F0C930D10560F5269771F545
:1015E00029C0CC30D10531F1CC30D10520F0CD303F
:1015F000D10521F50AC08AE090E00E948D48882339
:10160000E9F480E818C088E016C0CE0160E070E020
:1016100041E150E00E940A19089741F485E190E009
:101620000E948D48882311F482E005C00E94665113
:1016300080E101C080E2E0E0F7E0858381E058C00E
:10164000813009F058C087E290E00E94B55A8823A3
:1016500009F499C0CA30D10549F1CB30D10550F415
:10166000C830D105E9F0C930D105D8F5269709F081
:101670003EC037C0CC30D105A1F1CC30D10520F02F
:10168000CD30D105A1F512C08AE090E00E948D48CE
:10169000882369F5E0E0F7E080E8868380E426C0EF
:1016A000E0E0F7E088E0868384E020C0CE0160E0DF
:1016B00070E041E150E00E940A19089761F485E169
:1016C00090E00E948D48882331F4E0E0F7E082E06A
:1016D000868381E00BC0E0E0F7E080E1868380E272
:1016E00005C0E0E0F7E080E2868380E1858382E068
:1016F0008093903C48C0823009F045C087E290E07A
:101700000E94B55A882309F43EC0CA30D10501F1C0
:10171000CB30D10548F4C830D105C1F0C930D1056E
:1017200050F5269761F527C0CC30D10521F1CC309A
:10173000D10520F0CD30D10511F50AC08AE090E046
:101740000E948D488823D9F480E416C084E014C038
:10175000CE0160E070E041E150E00E940A19089774
:1017600041F485E190E00E948D48882311F481E0E6
:1017700003C080E201C080E1E0E0F7E086831092E0
:10178000903C81E001C080E0DF91CF91089580918D
:10179000913C882369F482E00E947A090E94B60A8B
:1017A0000E94665180E1E0E0F7E0858381E00FC0B0
:1017B000813089F486E290E00E94B55A8823D9F0FE
:1017C000E0E0F7E080E1868380E2858382E0809339
:1017D000913C80E00895823071F487E290E00E94AD
:1017E000B55A882341F080E2E0E0F7E0868310926A
:1017F000913C81E0089580E0089580918F3C8F5F57
:1018000080938F3C823059F40E941B0A80E090E064
:1018100061E041E050E00E94A7470E945C4D80914A
:101820008F3C8B3F10F010928F3C0895CF92DF9247
:10183000FF920F931F93DF93CF9300D0CDB7DEB706
:101840008C01662311F06093923C8091923C80FD64
:1018500003C06801FF240FC081E00E947A090E9442
:10186000FD0B8091923C8E7F8093923CFF24F394F9
:1018700097E0C92ED12C8091923C81FF14C0073093
:10188000110519F40E94C70B03C0C8010E94D50AB4
:10189000882311F4FF2039F08091923C8D7F809352
:1018A000923CFF24F3948091923C82FF0CC0C801CB
:1018B0000E94840A882339F08091923C8D7F809326
:1018C000923CFF24F3948091923C83FF19C088E0FE
:1018D0000E947A090E94460AC8010C97029730F0CC
:1018E0000930110519F00A30110519F487E0C82EE6
:1018F000D12C8091923C877F8093923CFF24F3947B
:101900008091923C84FF0CC080E10E947A090E9481
:10191000270A8091923C8F7E8093923CFF24F3941F
:10192000C982DA826C2D7A818F2D90E02396CDBF0B
:10193000DEBFCF91DF911F910F91FF90DF90CF908D
:10194000089587E090E00E94875288E090E00E942E
:10195000C32280E40E94C9520895AF92BF92CF92F1
:10196000DF92FF920F931F93DF93CF9300D000D0AD
:10197000CDB7DEB78C016B015A018A309105B1F009
:101980008B30910550F48630910579F186309105C0
:1019900090F18830910578F128C08C30910529F1BB
:1019A0008C309105B8F08D30910529F5C80160E0C3
:1019B00070E041E150E00E940A190897E1F485E1E6
:1019C00090E00E948D488823B1F484E00E94B4091D
:1019D000F82E12C08AE090E00E948D48882329F4F6
:1019E00084E00E94B409F82E01C0FF2484E00E9424
:1019F000B409F82A01C0FF248BE00E94B409F82A38
:101A000081E090E00E948752FF20A9F08091963CEF
:101A1000882389F485E290E00E94B55A882359F022
:101A200081E08093963C0093933C1093943C83E038
:101A300090E00E94B55A8091963C882301F181E0A4
:101A40008093953C8091933C9091943C6F2D0E94A3
:101A5000160C6C837D838E83DE011196FE01349615
:101A600083E001900D928150E1F78B81882319F476
:101A700001E310E004C009811A811092963CFF2016
:101A8000A9F48091953C882389F08091963C882325
:101A900069F41092953C0E94A10C83E090E00E94B2
:101AA000B55AC801B601A5010E948F1EC80126962D
:101AB000CDBFDEBFCF91DF911F910F91FF90DF90DF
:101AC000CF90BF90AF9008959C018617970714F4AC
:101AD0002F5F3F4FC90108959C016817790714F4DF
:101AE00021503040C90108956F927F928F929F924A
:101AF000AF92BF92CF92DF92EF92FF920F931F931C
:101B00008130910571F08130910528F0029779F0CC
:101B100080E0882411C082E08093182031E1832E78
:101B20000BC081E18093182025E1822E05C086E15B
:101B3000809318209AE1892E082F9924AA24CC2476
:101B40007724662451C010E0802F612F40E050E0E0
:101B50000E943A48D82E802F612F41E050E00E9429
:101B60003A48E82E802F612F42E050E00E943A4828
:101B7000F82E802F612F43E050E00E943A48B82EA3
:101B8000802F612F44E050E00E943A48DD2039F177
:101B9000CF14E0F0AE1410F4FC14C0F49D1420F443
:101BA000EA1410F0FC1490F47B1430F4D91420F0F3
:101BB000EA1410F0FC1450F4681688F4B71478F0A6
:101BC000D91468F0EA1458F0FC1448F00093182077
:101BD000109319209D2CAE2CCF2C7B2C682E1F5FD0
:101BE000143009F0B1CF0F5F081508F4ACCF88E1CD
:101BF00090E21F910F91FF90EF90DF90CF90BF90F8
:101C0000AF909F908F907F906F9008956F927F928A
:101C10008F929F92AF92BF92CF92DF92EF92FF92FC
:101C20000F931F938130910571F08130910528F059
:101C3000029779F080E0882411C082E080931A2016
:101C4000B1E18B2E0BC081E180931A20A5E18A2E91
:101C500005C086E180931A20FAE18F2E082FEFE16C
:101C60009E2E7CE0A72E6CE3C62E57E1752E4BE32B
:101C7000642E51C010E0802F612F40E050E00E94A0
:101C80003A48D82E802F612F41E050E00E943A4818
:101C9000E82E802F612F42E050E00E943A48F82E53
:101CA000802F612F43E050E00E943A48B82E802FE9
:101CB000612F44E050E00E943A48DD2039F1FC14E5
:101CC000E0F0EA1410F4CF14C0F4D91420F4AE14E8
:101CD00010F0CF1490F4B71430F49D1420F0AE142B
:101CE00010F0CF1450F4861588F47B1478F09D140E
:101CF00068F0AE1458F0CF1448F000931A201093F7
:101D00001B209D2CAE2CCF2C7B2C682E1F5F1430FB
:101D100009F0B1CF0F5F081508F4ACCF8AE190E26B
:101D20001F910F91FF90EF90DF90CF90BF90AF90F9
:101D30009F908F907F906F9008950F931F93DF93E4
:101D4000CF930F92CDB7DEB78130910569F0813026
:101D5000910528F0029769F080E090E00EC082E0E3
:101D600080931C2091E109C081E180931C2095E1C2
:101D700004C086E180931C209AE1082F1DC010E06A
:101D800010931D20802F612F40E050E099830E9426
:101D90003A489981882361F01F5F143089F71092C7
:101DA0001E2080911C208F5F80931C200F5F04C039
:101DB00081E080931E2002C0091708F38CE190E2B5
:101DC0000F90CF91DF911F910F910895CF92DF92E5
:101DD000FF920F931F93CF93DF93EC018B016B0165
:101DE00085E0F82E8F2D90E0F60161916F010E9441
:101DF0009F33F394FBE0FF16A9F70C0F1D1FF801AA
:101E00006081C230D105A1F0C330D10528F42097FC
:101E100049F02197B9F409C0C330D10561F0249786
:101E200089F40CC080E090E00BC081E090E008C035
:101E300082E090E005C083E090E002C084E090E0A2
:101E40000E949F33DF91CF911F910F91FF90DF9000
:101E5000CF9008951F93182F8FE06DE24FE050E070
:101E60000E9497268FE06AE54CE050E00E94F4253E
:101E70008FE068E747E050E00E943A27113061F0B8
:101E8000113018F01230A9F40EC08FE06DE245E079
:101E900050E00E9497260DC08FE06AE541E050E0D7
:101EA0000E94F42506C08FE068E743E050E00E94FE
:101EB0003A271F91089583E06DE74DE050E20E94BC
:101EC000EF2E0895DF92EF92FF920F931F93DF930F
:101ED000CF9300D00F92CDB7DEB7F82E8B011982C9
:101EE0001A821B821C828FE067E244E023E30E9497
:101EF000B13180E168E242E150E20E94EF2EFE0142
:101F000031969E012B5F3F4FD8018D918D018193BA
:101F1000E217F307C9F7D9808D2D0E948F33EA802D
:101F20008E2D0E947F339C8180E02B81022F10E058
:101F3000082B192B80E168E4A8010E947C2FB1E0F6
:101F4000FB1651F0FB1620F082E0F816A1F408C051
:101F50008D2D0E946F330FC08E2D0E945F330BC0FA
:101F60008FE066E444E024E10E94F03180E168E41F
:101F7000A8010E94C42D2496CDBFDEBFCF91DF9172
:101F80001F910F91FF90EF90DF900895DF92EF92F5
:101F9000FF920F931F93DF93CF9300D00F92CDB793
:101FA000DEB7F82E8B0119821A821B821C828FE009
:101FB00066E444E024E10E94B131FE0131969E01C5
:101FC0002B5F3F4FD8018D918D018193E217F3076D
:101FD000C9F7D9808D2D0E948F33EA808E2D0E9403
:101FE0007F339C8180E02B81022F10E0082B192B7E
:101FF00080E168E4A8010E947C2FB1E0FB1651F05B
:10200000FB1620F082E0F816A1F408C08D2D0E9486
:102010006F330FC08E2D0E945F330BC08FE066E4DC
:1020200044E024E10E94F03180E168E4A8010E94CC
:10203000C42D2496CDBFDEBFCF91DF911F910F91AC
:10204000FF90EF90DF900895882319F0813031F5EB
:1020500013C08FE060E04DE050E00E9497268FE0D3
:1020600067E244E02FE10E94F03180E168E242E162
:1020700050E20E94372D08958FE060E043E050E089
:102080000E9497268FE067E244E02FE10E94B13181
:1020900080E168E242E150E20E94EF2E0895CF9283
:1020A000DF92EF92FF920F931F93CF93DF937C0108
:1020B0006B01FC0100811181FB01C081D18180E0B5
:1020C0000E9412448093983C81E090E00E94E05B83
:1020D000282F9091983C8091973C981711F42223D7
:1020E00081F09093973C209739F40115110529F060
:1020F00001501040CCE3D0E0219783E090E00E94B3
:10210000E05B209789F40115110571F483E090E0FC
:102110000E94E05BF7011082118285E090E0F601F9
:102120008083918381E007C0F70100831183F6016A
:10213000C083D18380E0DF91CF911F910F91FF90F9
:10214000EF90DF90CF9008950F931F938C010E9422
:10215000F1449C010430110531F401960E9464435E
:102160000E94F1449C01C9011F910F9108950F93A2
:102170001F93CF93DF938C01C0E0D0E0F801EC0F08
:10218000FD1F8081882319F08C2F0E943337219600
:10219000CB30D10599F7DF91CF911F910F91089521
:1021A0000F931F93082F162F0E94B73586E0189FB4
:1021B000B0011124635810E0015F1F4F83E0A801B4
:1021C0000E944C2E1F910F91089588319105B1F016
:1021D0008931910518F40B97E1F517C0813391050A
:1021E00019F0C397B1F52CC080919B3C90919C3C19
:1021F00060E040E050E00E94A747089510929B3CA9
:1022000010929C3C1092993C089580919A3C8617BC
:1022100039F08091993C8F5F8093993C60939A3C10
:102220008091993C8823A9F01092993C80919B3C25
:1022300090919C3C019680939B3C90939C3C08958C
:1022400080919B3C90919C3C019780939B3C909308
:102250009C3C089590E005C08150823008F480E1F4
:102260009F5F9617C8F30895AF92BF92CF92DF9207
:10227000EF92FF920F931F9388E090E00E94C32299
:102280000E948F770E94923282E060E04FE150E23C
:102290000E94EF2E85E060E046E250E20E94EF2EC1
:1022A0008AE060E04DE250E20E94EF2E8DE060E0B7
:1022B00046E350E20E94EF2E82E160E04FE350E2FD
:1022C0000E94EF2E85E160E04CE450E20E94EF2E88
:1022D0008AE290E00E948D48482F82E06CE350E053
:1022E0000E947C2F8BE290E00E948D48482F85E071
:1022F0006CE350E00E947C2F88E290E00E948D48C1
:10230000482F82E064E650E00E947C2F89E290E052
:102310000E948D48482F85E064E650E00E947C2FA3
:102320000E94F2040E94A5768C0194E01595079511
:102330009A95E1F70E94C5767C0184E0F594E794D4
:102340008A95E1F7C7010E94E5765C01C8010E9409
:102350000C776C018AE064E6A8010E947C2F8DE076
:1023600064E6A7010E947C2F82E164E6A6010E9438
:102370007C2F85E164E6A501D1CFDF92EF92FF9239
:102380000F931F93CF93DF93EC01062F142F81300F
:10239000910571F08130910530F08230910569F03E
:1023A000DD24EE240EC0F2E0DF2EE0E1EE2E09C0C7
:1023B00071E1D72E64E1E62E04C056E1D52E49E145
:1023C000E42E35E0F32EC130D10569F0C130D105DE
:1023D00020F0C230D10591F40CC08F2D602F412F19
:1023E0000E9420390BC08F2D602F412F0E9488380A
:1023F00005C08F2D602F412F0E940638112329F42C
:1024000001500D1508F40E2D14E0115082E0F80E65
:102410008DE0F816C1F62DE0F22EC130D10569F03D
:10242000C130D10520F0C230D10591F40CC08F2D00
:10243000602F412F0E9420390BC08F2D602F412F1C
:102440000E94883805C08F2D602F412F0E940638CA
:10245000112329F401500D1508F40E2D14E082E02B
:10246000F80E85E1F81611F01150D7CFDF91CF911A
:102470001F910F91FF90EF90DF90089584E061E04D
:1024800048E127E80E94B1310895EF92FF920F933F
:102490001F93DF93CF930F92CDB7DEB77C0182E01D
:1024A00090E00E94740DFC0110810181E114F1049F
:1024B00029F081E0E816F104D1F50DC084E061E077
:1024C00048E127E80E94B13182E090E0612F402F7F
:1024D0000E94BD112CC084E061E048E127E80E9421
:1024E000B131612F6150623008F460E1162F115054
:1024F000123008F410E195E0892F612F402F998365
:102500000E9406389981002339F41150163118F4CD
:1025100004E019E101C004E09E5F9D3011F001501C
:10252000EBCF8FE061E049E550E20E94EF2E0F9083
:10253000CF91DF911F910F91FF90EF900895EF924F
:10254000FF920F931F93DF93CF930F92CDB7DEB718
:102550007C0181E090E00E94740DFC0110810181FA
:10256000E114F10429F081E0E816F104D1F50DC081
:1025700084E061E048E127E80E94B13181E090E029
:10258000612F402F0E94BD112CC084E061E048E122
:1025900027E80E94B131612F6150623008F460E198
:1025A000162F1150123008F410E195E0892F612F99
:1025B000402F99830E9488389981002339F4115063
:1025C000113118F404E014E101C004E09E5F9D3075
:1025D00011F00150EBCF8FE061E049E550E20E943D
:1025E000EF2E0F90CF91DF911F910F91FF90EF9001
:1025F0000895FF920F931F93CF93DF93EC0180E038
:1026000090E00E94740DFC011081F180C330D1056F
:1026100009F442C0C430D10530F4C130D105D1F045
:10262000229700F510C0C530D10509F453C0C5305C
:10263000D10508F440C0C630D10509F45AC0279727
:1026400009F096C06BC084E061E048E127E80E9491
:10265000B1315DC084E061E048E127E80E94B1311A
:10266000612F0FC084E061E048E127E80E94B131AA
:10267000612F6150623008F460E16150623008F40B
:1026800060E16150623008F460E16150623008F44A
:1026900060E180E090E03EC084E061E048E127E84E
:1026A0000E94B13180E01150123008F410E18F5FC8
:1026B0008630C9F72CC084E061E048E127E80E9439
:1026C000B13180E01150123008F410E18F5F883092
:1026D000C9F71DC084E061E048E127E80E94B131FC
:1026E00080E01150123008F410E18F5F8A30C9F792
:1026F0000EC084E061E048E127E80E94B13180E04B
:102700001150123008F410E18F5F8C30C9F780E06F
:1027100090E0612F4F2D0E94BD112AC084E061E03E
:1027200048E127E80E94B13180E01150123008F4EE
:1027300010E18F5F8E30C9F705E0802F612F4F2D9C
:102740000E942039FF2049F41150123020F4B4E0E7
:10275000FB2E10E102C0A4E0FA2E0E5F0D3011F046
:10276000FA94EBCF8FE061E049E550E20E94EF2E52
:10277000DF91CF911F910F91FF9008950F931F93B9
:10278000CF93DF938C0180919D3C882379F481E085
:1027900080939D3C0E94AB3785E090E08093682059
:1027A0009093692010929E3C10929F3C0E94F204EC
:1027B0000E94AD590E942A75B8010E946D5CEC011F
:1027C0000817190731F010929D3C0E9492328E0139
:1027D0000EC088E690E26EE97CE30E944F108823E9
:1027E00031F010929D3C0E94923200E010E0C8014E
:1027F000DF91CF911F910F9108959C01FB01DA01A8
:1028000085E090E0808391831D921C9229323105EE
:10281000B9F02A32310538F42732310559F028321F
:102820003105D1F40AC02A32310569F02B32310565
:1028300099F40CC00E94673508950E94153C0895D4
:102840000E94F93B08950E94DD3B089583E090E0EB
:102850000E944C560E94A53B0895CF92DF92EF92C2
:10286000FF920F931F93CF93DF938C017B016A013B
:1028700085E090E0FB01808391830E942A75B80176
:102880000E945D5FEC018E32910549F08F32910517
:1028900049F08C32910551F40E94525807C00E94B1
:1028A000955402C00E947454CBE2D0E0CE018B97C5
:1028B000029758F0CE32D10541F0CF32D10529F040
:1028C000CE01B701A6010E94FD13CE01DF91CF9189
:1028D0001F910F91FF90EF90DF90CF900895EF92AE
:1028E000FF920F931F93CF93DF938C017B010E9484
:1028F0002A756AE270E00E947960EC018A329105E3
:1029000021F0B801A7010E94FD13CE01DF91CF9104
:102910001F910F91FF90EF900895EF92FF920F9308
:102920001F93CF93DF938C017B010E942A7569E28C
:1029300070E00E940761EC018932910521F0B80135
:10294000A7010E94FD13CE01DF91CF911F910F913E
:10295000FF90EF900895EF92FF920F931F93CF9304
:10296000DF938C017B010E942A7568E270E00E946F
:102970009561EC018832910521F0B801A7010E9410
:10298000FD13CE01DF91CF911F910F91FF90EF903A
:102990000895EF92FF920F931F93CF93DF938C01D3
:1029A0007B010E942A7567E270E00E94105FEC01D3
:1029B0008732910521F0B801A7010E94FD13CE01D5
:1029C000DF91CF911F910F91FF90EF900895CF93DA
:1029D000DF93EC018932910589F18A32910550F437
:1029E00087329105E9F08832910508F58330910529
:1029F000D1F507C08A32910541F18033910598F5F0
:102A00002BC085E090E080936A2090936B20109219
:102A1000A03C1092A13C0E946735C7E2D0E023C0E1
:102A20008AE690E260EA7CE30E94C9141BC08AE651
:102A300090E260EA7CE30E94AB1414C08AE690E264
:102A400060EA7CE30E948D140DC08AE690E260EAA1
:102A50007CE30E946F1406C06AE670E240EA5CE321
:102A60000E942D14EC010E94F2040E94B7598AE6DC
:102A700090E260EA7CE30E944F10882311F0C0E0EE
:102A8000D0E0CE01DF91CF9108959C01FB01DA01E6
:102A900085E090E0808391831D921C922431310562
:102AA00009F441C025313105A8F42031310579F10F
:102AB0002131310540F42E30310519F12F30310527
:102AC00009F045C021C02231310539F123313105EA
:102AD00038F520C02731310579F12831310538F436
:102AE0002531310519F12631310589F522C02A3108
:102AF000310541F12B31310541F12931310539F5EC
:102B00001EC00E94283E08950E940F3E08950E9414
:102B1000FC3D08950E94E33D08950E94633E0895A0
:102B20000E94503E08950E94C43D08950E94B13D08
:102B300008950E943D3E08950E94683F08950E94B6
:102B4000763E08950E94643D08950E94513D089587
:102B5000EF92FF920F931F93CF93DF938C017B0132
:102B60000E942A756BE170E00E942362EC018B31B8
:102B7000910521F0B801A7010E944515CE01DF9112
:102B8000CF911F910F91FF90EF900895EF92FF92D8
:102B90000F931F93CF93DF938C017B010E942A75C3
:102BA0006AE170E00E945567EC018A31910521F0DD
:102BB000B801A7010E944515CE01DF91CF911F9169
:102BC0000F91FF90EF900895EF92FF920F931F9354
:102BD000CF93DF938C017B010E942A7569E170E03D
:102BE0000E940564EC010E947945C931D10529F0A4
:102BF000CE01B801A7010E944515CE01DF91CF910A
:102C00001F910F91FF90EF900895EF92FF920F9315
:102C10001F93CF93DF937C018B018091A23C88238B
:102C200019F0C8E1D0E002C0C7E1D0E00E942A75E7
:102C3000BE010E947469EC018831910509F049C018
:102C400081E290E00E948D48882349F08DE090E079
:102C50000E94475785E090E00E94475731C080911D
:102C6000A23C882379F481E08093A23C84E090E048
:102C7000F7018083918388E790E0F8018083918356
:102C80000E94BF51F8014081518181E164E60E94B8
:102C90007C2FF80180819181892B21F51092A23C33
:102CA0008DE090E00E949C4F85E090E00E949C4F58
:102CB0000E94785181E164E642E024E10E94B13152
:102CC0008FE061E043E150E00E949726C7E1D0E049
:102CD00009C08731910531F01092A23CB701A801DB
:102CE0000E944515CE01DF91CF911F910F91FF906A
:102CF000EF900895EF92FF920F931F93CF93DF937E
:102D00008C017B010E942A7566E170E00E94E76AEF
:102D1000EC018631910521F0B801A7010E9445150B
:102D2000CE01DF91CF911F910F91FF90EF90089509
:102D3000EF92FF920F931F93CF93DF938C017B0150
:102D40000E942A7565E170E00E94B66DEC01853144
:102D5000910521F0B801A7010E944515CE01DF9130
:102D6000CF911F910F91FF90EF900895EF92FF92F6
:102D70000F931F93CF93DF938C017B010E942A75E1
:102D800064E170E00E943765EC018431910521F027
:102D9000B801A7010E944515CE01DF91CF911F9187
:102DA0000F91FF90EF900895EF92FF920F931F9372
:102DB000CF93DF938C017B010E942A7563E170E061
:102DC0000E94D66EEC018331910521F0B801A70174
:102DD0000E944515CE01DF91CF911F910F91FF9079
:102DE000EF900895EF92FF920F931F93CF93DF938D
:102DF0008C017B010E942A7562E170E00E94A36C45
:102E0000EC018231910521F0B801A7010E9445151E
:102E1000CE01DF91CF911F910F91FF90EF90089518
:102E2000EF92FF920F931F93CF93DF938C017B015F
:102E30000E942A7561E170E00E94A166EC01813177
:102E4000910521F0B801A7010E944515CE01DF913F
:102E5000CF911F910F91FF90EF900895EF92FF9205
:102E60000F931F93CF93DF938C017B010E942A75F0
:102E700060E170E00E941270EC018031910521F058
:102E8000B801A7010E944515CE01DF91CF911F9196
:102E90000F91FF90EF900895EF92FF920F931F9381
:102EA000CF93DF938C017B010E942A756FE070E065
:102EB0000E949E71EC018F30910521F0B801A701AD
:102EC0000E944515CE01DF91CF911F910F91FF9088
:102ED000EF900895EF92FF920F931F93CF93DF939C
:102EE0008C017B010E942A756EE070E00E940C5CF0
:102EF000EC018E30910521F0B801A7010E94451523
:102F0000CE01DF91CF911F910F91FF90EF90089527
:102F1000CF93DF93EC018431910509F475C08531BD
:102F20009105E0F48031910509F452C08131910599
:102F300060F48E309105F1F18F30910508F041C0B9
:102F40008230910509F091C026C08231910509F4C3
:102F50004DC08331910508F050C041C088319105C2
:102F600009F467C08931910548F48631910509F467
:102F700059C08731910508F05CC04DC08A31910578
:102F800009F465C08A31910508F45AC08B31910566
:102F900009F06BC063C085E090E080936C20909353
:102FA0006D201092A33C1092A43C0E94283ECEE0DB
:102FB000D0E05BC08CE690E263EA7CE30E946A1793
:102FC00053C08CE690E263EA7CE30E944C174CC04D
:102FD0008CE690E263EA7CE30E942E1745C08CE603
:102FE00090E263EA7CE30E9410173EC08CE690E218
:102FF00063EA7CE30E94F21637C08CE690E263EA53
:103000007CE30E94D41630C08CE690E263EA7CE355
:103010000E94B61629C08CE690E263EA7CE30E9427
:10302000981622C08CE690E263EA7CE30E947A164E
:103030001BC08CE690E263EA7CE30E94051614C094
:103040008CE690E263EA7CE30E94E4150DC08CE616
:1030500090E263EA7CE30E94C61506C08CE690E22B
:1030600063EA7CE30E94A815EC010E94F2040E942E
:10307000B2598CE690E263EA7CE30E944F10882309
:1030800031F0689711F40E941353C0E0D0E0CE01F4
:10309000DF91CF910895CF93DF93EC01CB01BA017B
:1030A0000E944F10882341F080E060E045E050E04E
:1030B0000E941747C0E0D0E0CE01DF91CF91089584
:1030C0009C0162307105D1F481E190E00E948D484D
:1030D0008093AB3C882329F41092722085E190E024
:1030E00008C081E08093AB3C85E08093722087E04C
:1030F00090E08093702090937120089580917020CB
:10310000909171206231710549F40E94EC348091F4
:10311000AB3C609172200E94F1390895459709F403
:1031200078C06130710509F074C08091AC3C909119
:10313000AD3C8217930739F12093AC3C3093AD3C02
:1031400080917220882389F48CE38093722080918F
:10315000AB3C882319F081508093AB3C4091AB3C51
:103160008DE067E850E00E94C12A80917220882398
:1031700019F0815080937220409172208DE063E9B4
:1031800050E00E94C12A8091702090917120883077
:103190009105F9F48091AB3C8823D9F58091722098
:1031A0008823B9F587E090E0809370209093712098
:1031B00082E190E00E948D488093AB3C1092722097
:1031C00086E066E84BE050E00E94F4250E946251E0
:1031D00008950797F1F48091AB3C8823D1F4809156
:1031E00072208823B1F488E090E08093702090935F
:1031F000712081E190E00E948D488093AB3C109259
:10320000722086E066E840E050E00E94F4250E94CB
:10321000AD5108950F931F93CF93DF93EC018B0172
:103220004230510501F583E190E00E948D48809382
:10323000AF3C882349F41092AE3C85E190E0809346
:1032400073209093742021C01092B03C81E0809351
:10325000AF3C82E08093AE3C87E090E080937320A7
:1032600090937420F8C04131510509F4F4C0609185
:103270007320709174204231510521F40E94E53E83
:1032800087E0E5C06531710519F425E130E0E7C05C
:103290004F30510599F46830710509F0DCC08D306C
:1032A000910521F08A30910509F0D5C0CE0168E082
:1032B00070E00E94E53E0E94F751CDC043305105B9
:1032C00059F46830710509F0C6C068E070E00E94EA
:1032D000E53E0E94E051BFC04130510509F0BBC03E
:1032E0006830710571F58133910559F18091AF3CDA
:1032F000882339F58091AE3C882309F059C087E0D6
:1033000090E0809373209093742086E190E00E9477
:103310008D488093B03C84E190E00E948D4880937A
:10332000AF3C82E08093AE3CCE0167E070E00E944B
:10333000E53E87E06EEA7CE30E94013A0E94E0519C
:1033400037C067307105A1F5C133D10589F180918E
:10335000B03C882369F58091AF3C882349F5809182
:10336000AE3C882329F5CD30D10519F0CA30D105FE
:10337000F9F488E090E08093732090937420109289
:10338000B03C83E190E00E948D488093AF3C82E0A6
:103390008093AE3C6091732070917420CE010E94A6
:1033A000E53E87E06EEA7CE30E94013A0E94F75115
:1033B00080917320909174208730910549F0CD3031
:1033C000D10519F02A9709F046C0089709F043C0C3
:1033D0008091B13C9091B23C80179107E1F100934C
:1033E000B13C1093B23C8091AE3C882341F5909162
:1033F000AF3C992321F48091B03C882329F08CE3E1
:103400008093AE3C992379F49091B03C992359F084
:103410008CE38093AF3C91509093B03C86E06EEA91
:103420007CE30E94013A8091AF3C882319F08150DF
:103430008093AF3C82E06EEA7CE30E94013A809187
:10344000AE3C882319F081508093AE3C81E06EEA57
:103450007CE30E94013A2091732030917420C901CD
:10346000DF91CF911F910F910895EF92FF920F93EB
:103470001F93CF93DF93EC017B014230510559F448
:103480000E94AD3E8093B53C9093B63C1092B33C05
:103490001092B43C28C14F30510551F48C30910545
:1034A00021F08930910509F01EC10E94BF511BC156
:1034B0004330510551F48C30910521F0893091054C
:1034C00009F011C10E9478510EC14530510549F4EF
:1034D0000E94363C8091B53C6091B33C0E94273AF3
:1034E00002C14130510509F0FEC08091B53C909178
:1034F000B63C892B09F09FC08091B33C9091B43CBD
:10350000892B09F098C0CC30D105C1F0CD30D10560
:1035100040F4C930D10591F0CA30D10509F08BC013
:103520003AC0CE31D10509F459C0CF31D10509F4E3
:1035300072C0CD30D10509F07EC02DC0CE0161E052
:1035400070E00E94E24F8C0165E070E00E94E24F63
:103550000E947851C017D10741F0C80160E070E0C7
:1035600043E050E00E940A19BFC0CC30D10519F4E5
:10357000CDE0D0E005C0C930D10511F4CAE0D0E0FB
:10358000CE010E94363CCE0160E070E04FE050E09A
:103590000E940A1917C0CE0160E070E043E050E0DD
:1035A0000E940A190E94BF51CD30D10519F4CCE018
:1035B000D0E005C0CA30D10511F4C9E0D0E0CE0199
:1035C0000E94363CCE010E94AD3E8093B53C909364
:1035D000B63C1092B33C1092B43C2DC08EE190E00A
:1035E00061E070E00E94E24F8EE190E065E070E003
:1035F0000E94E24F0E9478518FE190E00E94AD3E20
:103600008093B53C9093B63C1092B33C1092B43C7E
:10361000CFE1D0E010C00E94BF518EE190E00E9447
:10362000AD3E8093B53C9093B63C1092B33C109263
:10363000B43CCEE1D0E08091B73C9091B83CE81624
:10364000F90649F1E092B73CF092B83C8091B33C66
:103650009091B43C892BA1F4C133D10589F08CE35E
:1036600090E08093B33C9093B43C8091B53C9091B2
:10367000B63C009729F001978093B53C9093B63CF7
:103680008091B33C9091B43C009729F001978093CE
:10369000B33C9093B43CCE014E97029720F1C930D1
:1036A000D10531F0CC30D10519F0C133D10589F401
:1036B0006091B33C7091B43C8091B53C9091B63C24
:1036C0000E9491408BE090E06091B53C0E94E51033
:1036D0000AC06091B33C7091B43C8091B53C90912C
:1036E000B63C0E946B408E01C801DF91CF911F91C3
:1036F0000F91FF90EF9008950F931F93CF93DF9357
:10370000EB018A0182329105A1F18332910588F49F
:103710008E319105F1F08F31910520F44C9709F02D
:103720006AC062C080329105B9F0819709F063C028
:103730001DC08432910509F446C08432910508F415
:103740003FC08532910509F448C0869709F053C0FF
:1037500049C089E090E002C08CE090E060E070E059
:1037600042E050E00E94351A0E94BF518CE390E085
:103770003DC08FE062E045E028E70E94B13181E181
:103780006FE04DE550E20E94EF2E8FE065E542E1EB
:1037900050E00E94F4258EE190E088839983F8013F
:1037A000108211824881598181E16CE70E94CA2F01
:1037B000F8014081518181E16EE80E94CA2F1BC04F
:1037C0000E94D55111C00E94B151188219828AE01D
:1037D00090E0F801808391830EC00E94AD518EE18C
:1037E00090E004C00E94F75185E090E088839983BF
:1037F000F80110821182DF91CF911F910F910895EE
:10380000EF92FF920F931F93CF93DF938C017B0175
:103810000E942A7566E270E00E943A73B801A7011F
:103820000E944B18EC018632910539F00E94E0515C
:10383000CE01B801A7010E947C1BF8018081918113
:10384000F70160810E94D23FCE01DF91CF911F919D
:103850000F91FF90EF900895EF92FF920F931F93B7
:10386000CF93DF938C017B010E942A7565E270E0A3
:103870000E943A73B801A7010E944B18EC018532EF
:10388000910539F00E946251CE01B801A7010E9452
:103890007C1BF80180819181F70160810E94D23FF9
:1038A000CE01DF91CF911F910F91FF90EF9008957E
:1038B000EF92FF920F931F93CF93DF938C017B01C5
:1038C0000E942A7564E270E00E943A73B801A70171
:1038D0000E944B18EC018432910539F00E94665128
:1038E000CE01B801A7010E947C1BF8018081918163
:1038F000F70160810E94D23FCE01DF91CF911F91ED
:103900000F91FF90EF900895EF92FF920F931F9306
:10391000CF93DF938C017B010E942A7563E270E0F4
:103920000E943A73B801A7010E944B18EC01833240
:10393000910539F00E948E51CE01B801A7010E9475
:103940007C1BF80180819181F70160810E94D23F48
:10395000CE01DF91CF911F910F91FF90EF900895CD
:10396000EF92FF920F931F93CF93DF938C017B0114
:103970000E942A7562E270E00E943A73B801A701C2
:103980000E944B18EC018D31910591F481E08093F8
:10399000A63CF801C083D1838AE390E0F7018083DD
:1039A0009183F801808191816AE30E94FD3F1EC0EE
:1039B00082329105D9F08EE062E048E028E70E946B
:1039C000B1318091A63C882311F00E944452CE016F
:1039D000B801A7010E947C1BF80180819181F70149
:1039E00060810E94FD3F1092A63C28C08091A63CB9
:1039F0008823C9F40E94AD598091A53C8F5F8093C4
:103A0000A53C8D3731F481E16FE04DE550E20E9435
:103A1000372D8091A53C8A3F31F481E16FE04DE57F
:103A200050E20E94EF2E8091A63C882339F0F801E5
:103A300080819181F70160810E94D23FCE01DF91A8
:103A4000CF911F910F91FF90EF900895EF92FF9209
:103A50000F931F93CF93DF938C017B010E942A75F4
:103A600061E270E00E943A73B801A7010E944B180E
:103A7000EC018132910521F0B801A7010E947C1B65
:103A8000F80180819181F70160810E94D23FCE01CF
:103A9000DF91CF911F910F91FF90EF900895EF92DA
:103AA000FF920F931F93CF93DF938C017B010E94B2
:103AB0002A7560E270E00E943A73B801A7010E9483
:103AC0004B18EC018032910541F00E947851CE01F3
:103AD000B801A7010E947C1B07C0F8018081918179
:103AE000F70160810E94D23FCE01DF91CF911F91FB
:103AF0000F91FF90EF900895EF92FF920F931F9315
:103B0000CF93DF938C017B010E942A756CE170E0FA
:103B10000E943A73B801A7010E944B18EC018C3146
:103B2000910521F0B801A7010E947C1BF80180815A
:103B30009181F70160810E94D23FCE01DF91CF9148
:103B40001F910F91FF90EF900895CF92DF92EF9227
:103B5000FF920F931F93CF93DF936C017B018A0138
:103B60000E942A75B6010E943A73B701A8010E940B
:103B70004B18EC014E97029760F08EE1C816D10405
:103B800011F40E947851CE01B701A8010E947C1B5C
:103B900010C0F70180819181F80160810E94D23FBD
:103BA000F80160817181CE0141E050E00E94351A38
:103BB000EC01CE01DF91CF911F910F91FF90EF901B
:103BC000DF90CF900895CF93DF93EC018032910581
:103BD00009F44CC08132910578F48D31910509F4D6
:103BE00053C08E319105D8F58130910509F18C31A2
:103BF000910509F06CC02CC08332910509F44BC0CB
:103C00008432910540F481329105B9F182329105F7
:103C100009F05DC039C08532910509F44AC085328A
:103C2000910508F43FC08632910509F050C048C0A4
:103C300085E090E080936E2090936F201092A93CD5
:103C40001092AA3C60E00E941E40CCE1D0E03FC050
:103C50008EE690E269EA7CE30E947C1D37C06EE646
:103C600070E249EA5CE30E94A51D30C08EE690E256
:103C700069EA7CE30E944F1D29C08EE690E269EA62
:103C80007CE30E94261D22C08EE690E269EA7CE376
:103C90000E94B01C1BC08EE690E269EA7CE30E94A1
:103CA000841C14C08EE690E269EA7CE30E94581CF2
:103CB0000DC08EE690E269EA7CE30E942C1C06C0EF
:103CC0008EE690E269EA7CE30E94001CEC010E940F
:103CD000F20481E090E00E94C3228091A73C909181
:103CE000A83C81509D4774F01092A73C1092A83CCC
:103CF0000E94A12482E090E00E948D5981E090E032
:103D00000E944C358091A73C9091A83C01968093ED
:103D1000A73C9093A83CCE01DF91CF9108950F93DB
:103D20001F93CF93DF93EC01162F042F8DE060E0FB
:103D300046E020EA0E94B1310E94444185E060E003
:103D400042E023E20E94B131CB30D10598F4C93072
:103D5000D10570F5C630D105B9F0C730D10518F4DA
:103D6000209779F02CC0C730D10599F0C830D10523
:103D700031F519C0CB30D10589F0CE30D105F8F43A
:103D800017C00E948F411BC0812F602F0E94863C6C
:103D900016C0812F602F0E946F3C11C0812F602FB1
:103DA0000E94463F0CC0812F602F0E944E4007C0EA
:103DB000CE0160E070E045E050E00E94351A80E0FE
:103DC00090E062E170E00E946018CE0160E070E077
:103DD00042E150E00E940A19DF91CF911F910F91AB
:103DE0000895CF92DF92EF92FF921F93CF93DF93CC
:103DF000EC017B016A018B309105A8F489309105B3
:103E000008F08CC08630910519F18730910518F4BF
:103E1000009789F0BAC08730910571F1883091051B
:103E200009F0B3C055C08B309105E1F18E3091059A
:103E300008F0ABC073C0FB0160817181FA01408161
:103E4000518180E090E00E948F1E0E9448519DC0E9
:103E5000FA011082118282E090E0FB01808391835D
:103E6000FA014081518186E090E062E070E00E94BA
:103E70008F1E0E94BF5189C0FA011082118288E012
:103E800090E00E948D48682FF70180831182F6012F
:103E90004081518187E090E070E00E948F1E0E9477
:103EA000995173C0FA011082118289E090E00E945A
:103EB0008D48682FF70180831182F601408151817E
:103EC0008BE090E070E00E948F1E0E9458525DC00F
:103ED0008BE090E00E948D48F701808311828CE096
:103EE00090E00E948D48482F50E0F60140835183B6
:103EF000F701608171816115710549F44115510522
:103F000031F481E090E0F601808391833EC088E047
:103F100090E00E948F1E0E94D55137C0F60110829A
:103F20001182CE010997029740F482E090E00E944E
:103F30008D48182F83E090E007C086E090E00E9453
:103F40008D48182F87E090E00E948D48312F20E0A7
:103F500090E0282B392BF70120833183F701608112
:103F60007181F60140815181CE010E948F1ECE01E8
:103F700060E070E04FE050E00E94351ACE0160E052
:103F800070E04FE050E00E940A19DF91CF911F913D
:103F9000FF90EF90DF90CF900895CF92DF92EF9255
:103FA000FF920F931F93CF93DF937B016A01FA0176
:103FB00000811181FB0160817181A8010E94AD0C1B
:103FC000B80141E050E00E94351AEC01C701B6018A
:103FD0000E944F10882381F0C133D10569F0CE01D2
:103FE00060E070E043E050E00E940A192C9711F461
:103FF0000E947851C7E0D0E0CE01DF91CF911F91B0
:104000000F91FF90EF90DF90CF900895EF92FF9285
:104010000F931F93CF93DF938C017B01FB01608192
:104020007181FC01808191810E949140F801608141
:104030007181F701408151818BE090E00E94AD0CCD
:10404000EC01C801B7010E944F10882339F0E197B5
:1040500029F00E94445228E030E002C02BE030E01A
:10406000C901DF91CF911F910F91FF90EF900895BB
:10407000EF92FF920F931F93CF93DF938C017B01FD
:10408000FB0160817181FC01808191810E946B4004
:10409000F80160817181F7014081518187E090E0F2
:1040A0000E94AD0CEC01C801B7010E944F1088239B
:1040B00029F0E19719F02BE030E002C027E030E072
:1040C000C901DF91CF911F910F91FF90EF9008955B
:1040D000EF92FF920F931F93CF93DF938C017B019D
:1040E000FB0160817181FC01808191810E9491407E
:1040F0008BE090E0F80160810E94E510F80160819A
:104100007181F7014081518186E090E00E94AD0C01
:10411000EC01C801B7010E944F10882361F0E197BC
:1041200051F086E090E061E070E00E94E24FEC0127
:104130000E94785102C0C6E0D0E0CE01DF91CF915D
:104140001F910F91FF90EF900895AF92BF92CF9281
:10415000DF92EF92FF920F931F93CF93DF935C0157
:104160007B016A01FA0100811181FB01608171818B
:10417000A8010E94AD0CB80141E050E00E94351A40
:10418000EC01C701B6010E944F108823F9F0C1333A
:10419000D10501F187E190E00E948D48882339F034
:1041A000CE0164E370E00E94D632882391F0CE0104
:1041B00060E070E043E050E00E940A19299711F492
:1041C0000E9478511CE0A12EB12C04C0C133D1054E
:1041D00009F05E01C501DF91CF911F910F91FF9012
:1041E000EF90DF90CF90BF90AF900895EF92FF9245
:1041F0000F931F93CF93DF938C017B01FB016081B1
:104200007181FC01808191810E949140F80160815F
:104210007181F7014081518188E090E00E94AD0CEE
:10422000EC01C801B7010E944F10882339F1E197D2
:1042300029F10E948E5181E390E060E00E94E51038
:1042400080E090E060E042E050E00E94A74788E113
:1042500090E060E00E94E5108EE190E00E948D48C1
:10426000882349F081E290E00E948D48882319F468
:1042700026E030E005C029E030E002C028E030E070
:10428000C901DF91CF911F910F91FF90EF90089599
:10429000EF92FF920F931F93CF93DF93EC018B303C
:1042A0009105B8F48930910508F0AAC086309105CF
:1042B00009F479C08730910518F4009799F0E1C0AE
:1042C0008730910509F47AC08830910509F0D9C08A
:1042D0008CC08B30910509F47DC08E30910508F0BB
:1042E000D0C0ADC00E948F41C0917720D09178207E
:1042F0008091B93C882361F080917520909176205F
:10430000892B41F587E190E00E948D48882311F5C3
:1043100081E08093B93C89E090E060E070E042E0A9
:1043200050E00E94351ACE0160E070E042E050E0BB
:104330000E940A1980E090E062E070E00E9460183C
:104340000E944851CE0165E770E24CEB5CE30E94AD
:10435000F11E97C0E090752010917620F090BC3C43
:104360000091BD3CCE0165E770E24CEB5CE30E943E
:10437000F11EE092752010937620F092BC3C0093E1
:10438000BD3CCE010C97029708F47BC0C930D10523
:1043900009F477C0CA30D10509F473C08E2D6F2D92
:1043A0000E94273A6EC0809377209093782085E70B
:1043B00090E26CEB7CE30E9468200AC08093772037
:1043C0009093782085E790E26CEB7CE30E943820A4
:1043D000EC0157C0809377209093782085E790E296
:1043E0006CEB7CE30E940620F3CF809377209093C0
:1043F000782085E790E26CEB7CE30E94F620E8CF22
:10440000809377209093782065E770E24CEB5CE333
:104410000E94A520EC018930910539F48091772024
:10442000909178200A9769F528C08A30910549F55E
:104430008091772090917820099719F51EC080937C
:1044400077209093782065E770E24CEB5CE30E9464
:10445000CD1FEC018C30910539F48091772090913B
:1044600078200D9771F409C08D30910551F4809139
:104470007720909178200C9721F4C0937720D093E7
:1044800078200E942A75BE0145E750E22CEB3CE300
:104490000E94407461E070E00E94C357EC0180917B
:1044A000772090917820C817D90739F0CE0165E7B9
:1044B00070E24CEB5CE30E94F11E0E94F20481E08A
:1044C00090E00E94C3226091BC3C7091BD3CCE0143
:1044D00041E050E00E940A198091BC3C9091BD3CA3
:1044E00061E070E00E94601880E090E061E070E0C0
:1044F0000E94004F8091BA3C9091BB3C8A3091055C
:1045000039F40E94A12482E090E00E948D592AC0D3
:1045100027E28031920729F480E090E00E944C3538
:1045200021C02EE48032920759F480E060E00E94BE
:104530004B2582E090E00E94A4440E94784412C07F
:10454000815395477CF06091752070917620409161
:10455000BC3C5091BD3CCE010E948F1E1092BA3CD3
:104560001092BB3C8091BA3C9091BB3C01968093E9
:10457000BA3C9093BB3CCE01DF91CF911F910F913C
:10458000FF90EF9008959C018730910501F18830EC
:10459000910540F48130910519F18330910509F0BE
:1045A00061C05CC08830910529F08331910509F024
:1045B00059C011C088E0E0E4F6E085832093533AC7
:1045C0003093543A1092BE3C1092BF3C089588E05C
:1045D000E0E4F6E086832093533A3093543A08950A
:1045E0008091533A9091543A88309105D9F4809152
:1045F000BE3C9091BF3C01968093BE3C9093BF3CE3
:104600008153954778F11092BE3C1092BF3C88E0F0
:10461000E0E4F6E0868387E090E08093533A90935D
:10462000543A08954397F1F48091BE3C9091BF3C79
:1046300001968093BE3C9093BF3C31E08139930753
:1046400088F0E0E4F6E028E02683815D974050F0B2
:104650001092BE3C1092BF3C258308951092BE3C40
:104660001092BF3C0895E0E4F6E084E08183868305
:104670000895282F80FD02C090E001C093E021FD45
:10468000945F22FD905D23FD9054892F08959C0135
:10469000462F8DE3B9010E94FC7908959C01462FB5
:1046A0008CE3B9010E94FC79982F8151843010F479
:1046B00081E0089580E0963109F481E008950F9338
:1046C0001F93DF93CF930F92CDB7DEB786EA89832E
:1046D0008E010F5F1F4FC80161E00E944E238823A7
:1046E000D1F70F90CF91DF911F910F9108950F9304
:1046F0001F93DF93CF930F92CDB7DEB787EA8983FD
:104700008E010F5F1F4FC80161E00E944E23882376
:10471000D1F70F90CF91DF911F910F9108950F93D3
:104720001F93DF93CF930F92CDB7DEB782EE8983CD
:104730008E010F5F1F4FC80161E00E944E23882346
:10474000D1F70F90CF91DF911F910F9108950F93A3
:104750001F93DF93CF930F92CDB7DEB784EA89839F
:104760008E010F5F1F4FC80161E00E944E23882316
:10477000D1F70F90CF91DF911F910F9108950F9373
:104780001F93DF93CF930F92CDB7DEB785EA89836E
:104790008E010F5F1F4FC80161E00E944E238823E6
:1047A000D1F70F90CF91DF911F910F9108950F9343
:1047B0001F93DF93CF9300D00F92CDB7DEB794EF66
:1047C00099838A8386EF8B836C838E010F5F1F4FE3
:1047D000C80164E00E944E238823D1F72496CDBF00
:1047E000DEBFCF91DF911F910F9108950F931F931B
:1047F000DF93CF9300D00F92CDB7DEB795EF9983BB
:104800008A8387EF8B836C838E010F5F1F4FC801F4
:1048100064E00E944E238823D1F72496CDBFDEBFEB
:10482000CF91DF911F910F9108950F931F93DF9305
:10483000CF930F92CDB7DEB788EF89838E010F5FDC
:104840001F4FC80161E00E944E238823D1F70F90CB
:10485000CF91DF911F910F9108950F931F93DF93D5
:10486000CF930F92CDB7DEB789EF89838E010F5FAB
:104870001F4FC80161E00E944E238823D1F70F909B
:10488000CF91DF911F910F9108950F931F93DF93A5
:10489000CF930F920F92CDB7DEB7982F813A78F46D
:1048A0008F70898392959F70905F9A838E010F5FBE
:1048B0001F4FC80162E00E944E238823D1F70F905A
:1048C0000F90CF91DF911F910F9108950F931F9338
:1048D000DF93CF930F92CDB7DEB7982F905A8931DF
:1048E00050F499838E010F5F1F4FC80161E00E9451
:1048F0004E238823D1F70F90CF91DF911F910F9115
:104900000895EF92FF920F931F93082FF62E142F06
:10491000E22E0E9466248F2D0E9445240E942D24A1
:10492000110F100F802F612F0E94F6236F2D615001
:104930006E0D8F2D0E94D7231F910F91FF90EF9046
:104940000895E0E4F6E088E0818384E08183858354
:104950000E948F2387E49AE36BE00E944E23882312
:10496000C9F708952F923F924F925F926F927F9274
:104970008F929F92AF92BF92CF92DF92EF92FF926F
:104980000F931F93DF93CF93CDB7DEB7C555D040BC
:10499000CDBFDEBF3E010894611C711C90E5F301A0
:1049A00011929A95E9F750905B39F0915C396296D3
:1049B000FFAF62974F2F252D0E948124252C332491
:1049C000442492E0892E912CC30165966FAE6597C1
:1049D00066969FAF6697820D931D64968EAF9FAFCC
:1049E00064972BC0F50181915F018F700E9439237C
:1049F000F80181938F0164968EAD9FAD649708177F
:104A0000190781F78DE3B301452D0E94FC790AC097
:104A1000F60181916F0182958F700E943923F70111
:104A200081937F01E016F10699F78DE3B301452DDF
:104A30000E94FC794394820C931C6296FFAD6297AE
:104A40004F1680F48BE5C82E89E3D82EC80CD91CEC
:104A500065968FAD659766969FAD66977C0156010A
:104A60008301C9CF0E941524CB5ADF4FCDBFDEBFD3
:104A7000CF91DF911F910F91FF90EF90DF90CF903A
:104A8000BF90AF909F908F907F906F905F904F906E
:104A90003F902F9008952F923F924F925F926F9286
:104AA0007F928F929F92AF92BF92CF92DF92EF92BE
:104AB000FF920F931F93DF93CF93CDB7DEB7C55A05
:104AC000D040CDBFDEBF3E010894611C711C90EA4E
:104AD000F30111929A95E9F75090A939F091AA390A
:104AE000CF55DF4FF883C15AD0404F2F252D0E945C
:104AF0008124252C3324442432E0832E912CC301BD
:104B0000CC55DF4F6882C45AD040CB55DF4F9883D5
:104B1000C55AD040820D931DCE55DF4F88839983AF
:104B2000C25AD0402DC0F50181915F018F700E9463
:104B30003923F80181938F01CE55DF4F8881998108
:104B4000C25AD0400817190771F78DE3B301452DFC
:104B50000E94FC790AC0F60181916F0182958F70E5
:104B60000E943923F70181937F01E016F10699F73E
:104B70008DE3B301452D0E94FC794394820C931C74
:104B8000CF55DF4FF881C15AD0404F16A0F429EA23
:104B9000C22E29E3D22EC80CD91CCC55DF4F8881F8
:104BA000C45AD040CB55DF4F9881C55AD0407C01C4
:104BB00056018301C1CF0E941524CB55DF4FCDBFD5
:104BC000DEBFCF91DF911F910F91FF90EF90DF90AB
:104BD000CF90BF90AF909F908F907F906F905F909D
:104BE0004F903F902F9008952F923F924F925F9257
:104BF0006F927F928F929F92AF92BF92CF92DF92ED
:104C0000EF92FF920F931F93DF93CF93CDB7DEB751
:104C1000AD97CDBFDEBF8A012E010894411C511C07
:104C200098E2F20111929A95E9F720903631F091CD
:104C30003731F9A74F2F222D0E948124822C9924ED
:104C400029A5822F90E0FC018E9EC0018F9E900DC1
:104C50009E9E900D1124809F5001819FB00C909FCB
:104C6000B00C112422E030E0A20EB31E3501332433
:104C7000C2014CA69DA7880D991D8AA79BA731C08C
:104C8000F60181916F018F700E943923F8018193A1
:104C90008F012AA53BA50217130791F78DE3B201F7
:104CA000422D0E94FC7956E3C52E51E3D52ECA0C45
:104CB000DB1C0AC0F60181916F0182958F700E9402
:104CC0003923F70181937F01E016F10699F78DE30F
:104CD000B201422D0E94FC793394A80CB91C680CD7
:104CE000791CF9A53F1658F446E3C42E41E3D42EAF
:104CF000C60CD71C8CA59DA57C018201CACF0E9441
:104D00001524AD96CDBFDEBFCF91DF911F910F91DE
:104D1000FF90EF90DF90CF90BF90AF909F908F90DB
:104D20007F906F905F904F903F902F9008952F92BB
:104D30003F924F925F926F927F928F929F92AF922B
:104D4000BF92CF92DF92EF92FF920F931F93DF9368
:104D5000CF93CDB7DEB7AD97CDBFDEBF8A012E01B1
:104D60000894411C511C98E2F20111929A95E9F7BE
:104D70002090682AF091692AF9A74F2F222D0E94CE
:104D80008124822C992429A5822F90E0FC018E9EFB
:104D9000C0018F9E900D9E9E900D1124809F50010A
:104DA000819FB00C909FB00C112422E030E0A20E45
:104DB000B31E35013324C2014CA69DA7880D991D51
:104DC0008AA79BA731C0F60181916F018F700E9465
:104DD0003923F80181938F012AA53BA502171307F8
:104DE00091F78DE3B201422D0E94FC7978E6C72E3F
:104DF0007AE2D72ECA0CDB1C0AC0F60181916F0142
:104E000082958F700E943923F70181937F01E0160C
:104E1000F10699F78DE3B201422D0E94FC7933949B
:104E2000A80CB91C680C791CF9A53F1658F468E663
:104E3000C62E6AE2D62EC60CD71C8CA59DA57C0179
:104E40008201CACF0E941524AD96CDBFDEBFCF919F
:104E5000DF911F910F91FF90EF90DF90CF90BF9067
:104E6000AF909F908F907F906F905F904F903F900A
:104E70002F9008952F923F924F925F926F927F9260
:104E80008F929F92AF92BF92CF92DF92EF92FF925A
:104E90000F931F93DF93CF93CDB7DEB7AD97CDBF01
:104EA000DEBF8A012E010894411C511C98E2F201D8
:104EB00011929A95E9F720901E27F0911F27F9A7E4
:104EC0004F2F222D0E948124822C992429A5822FE4
:104ED00090E0FC018E9EC0018F9E900D9E9E900DD5
:104EE0001124809F5001819FB00C909FB00C112421
:104EF00022E030E0A20EB31E35013324C2014CA6DD
:104F00009DA7880D991D8AA79BA731C0F6018191A5
:104F10006F018F700E943923F80181938F012AA5B8
:104F20003BA50217130791F78DE3B201422D0E94B2
:104F3000FC79FEE1CF2EF7E2DF2ECA0CDB1C0AC0A3
:104F4000F60181916F0182958F700E943923F701DC
:104F500081937F01E016F10699F78DE3B201422DAE
:104F60000E94FC793394A80CB91C680C791CF9A533
:104F70003F1658F4EEE1CE2EE7E2DE2EC60CD71C2B
:104F80008CA59DA57C018201CACF0E941524AD96F7
:104F9000CDBFDEBFCF91DF911F910F91FF90EF90BA
:104FA000DF90CF90BF90AF909F908F907F906F9049
:104FB0005F904F903F902F9008952F923F924F9285
:104FC0005F926F927F928F929F92AF92BF92CF9299
:104FD000DF92EF92FF920F931F93DF93CF93CDB7A2
:104FE000DEB72F97CDBFDEBF042F2E010894411CE2
:104FF000511C9AE0F20111929A95E9F720903B2515
:10500000F0913C25FB874F2F222D0E948124622C9A
:10501000772410E08B85282F30E0029FC001039F8A
:10502000900D129F900D1124869D4001879D900C3C
:10503000969D900C1124E2E0F0E08E0E9F1E269DBE
:10504000C001279D900D369D900D1124809F500129
:10505000819FB00C909FB00C1124AE0EBF1E332464
:10506000C2014E869F87860D971D8C879D8731C014
:10507000F60181916F018F700E943923F8018193AD
:105080008F018C859D850817190791F78DE3B20173
:10509000422D0E94FC79BBE3CB2EB5E2DB2EC80C7F
:1050A000D91C0AC0F60181916F0182958F700E9410
:1050B0003923F70181937F01E016F10699F78DE31B
:1050C000B201422D0E94FC793394860C971CA60CE9
:1050D000B71CFB853F1658F4ABE3CA2EA5E2DA2EC7
:1050E000CA0CDB1C8E859F857C018201CACF0E9481
:1050F00015242F96CDBFDEBFCF91DF911F910F9169
:10510000FF90EF90DF90CF90BF90AF909F908F90E7
:105110007F906F905F904F903F902F900895FF92F7
:105120000F931F93CF93DF93F82E062FEA0110E021
:10513000FE01E10FF11D408140538F2D602F0E9431
:10514000DD2780913B25080F1F5FFE01E10FF11D58
:105150008081882369F7DF91CF911F910F91FF9094
:1051600008952F923F924F925F926F927F928F920B
:105170009F92AF92BF92CF92DF92EF92FF920F93E6
:105180001F93DF93CF93CDB7DEB72F97CDBFDEBF91
:10519000042F2E010894411C511C9AE0F201119237
:1051A0009A95E9F720907E25F0917F25FB874F2F78
:1051B000222D0E948124622C772410E08B85282FD9
:1051C00030E0029FC001039F900D129F900D1124AB
:1051D000869D4001879D900C969D900C1124E2E0E5
:1051E000F0E08E0E9F1E269DC001279D900D369DDE
:1051F000900D1124809F5001819FB00C909FB00CA6
:105200001124AE0EBF1E3324C2014E869F87860D29
:10521000971D8C879D8731C0F60181916F018F703A
:105220000E943923F80181938F018C859D85081791
:10523000190791F78DE3B201422D0E94FC798EE7A8
:10524000C82E85E2D82EC80CD91C0AC0F60181915F
:105250006F0182958F700E943923F70181937F013E
:10526000E016F10699F78DE3B201422D0E94FC7918
:105270003394860C971CA60CB71CFB853F1658F47C
:105280001EE7C12E15E2D12ECA0CDB1C8E859F8530
:105290007C018201CACF0E9415242F96CDBFDEBFAC
:1052A000CF91DF911F910F91FF90EF90DF90CF9002
:1052B000BF90AF909F908F907F906F905F904F9036
:1052C0003F902F900895FF920F931F93CF93DF93FA
:1052D000F82E062FEA0110E0FE01E10FF11D4081DA
:1052E00040538F2D602F0E94B12880917E25080F9A
:1052F0001F5FFE01E10FF11D8081882369F7DF91B7
:10530000CF911F910F91FF900895AF92BF92CF92CE
:10531000DF92EF92FF920F931F93DF93CF93CDB75E
:10532000DEB72A97CDBFDEBFB82EA62EFE0131967E
:105330008AE0DF011D928A95E9F76A0157FF02C0F2
:10534000CC24DD24C60160E177E20E94DD7A698326
:10535000772767FD709580E197E2689F8001699FDC
:10536000100D789F100D1124C601801B910B68EE63
:1053700073E00E94DD7A6A83772767FD709588EE77
:1053800093E0689F7001699FF00C789FF00C1124E6
:10539000C701800F911FF601E81BF90BCF0164E6EE
:1053A00070E00E94DD7A6B838CE968029001112421
:1053B000CF01820F931F6AE070E00E94DD7A6C8358
:1053C0008C2D820F801B8E1996EF6902B00111247B
:1053D000860F8D83FE0131969E012A5F3F4F8081AB
:1053E000805D8193E217F307D1F78B2D6A2DAE0113
:1053F0004F5F5F4F0E9463292A96CDBFDEBFCF91DA
:10540000DF911F910F91FF90EF90DF90CF90BF90B1
:10541000AF900895CF92DF92EF92FF920F931F9378
:10542000DF93CF93CDB7DEB72A97CDBFDEBFD82E9F
:10543000C62EFE0131968AE0DF011D928A95E9F7BA
:105440007A0157FF02C0EE24FF24C70168EE73E023
:105450000E94DD7A6983772767FD709588EE93E077
:10546000689F8001699F100D789F100D1124F7012E
:10547000E01BF10BCF0164E670E00E94DD7A6A83E5
:1054800084E6680290011124CF01821B930B6AE02D
:1054900070E00E94DD7A6B838E2D801B821B96EF5D
:1054A0006902B0011124860F8C83FE0131969E01A2
:1054B0002B5F3F4F8081805D8193E217F307D1F727
:1054C0008D2D6C2DAE014F5F5F4F0E9463292A9690
:1054D000CDBFDEBFCF91DF911F910F91FF90EF9075
:1054E000DF90CF900895EF92FF920F931F93DF9379
:1054F000CF93CDB7DEB72A97CDBFDEBFF82EE62E0D
:1055000083E0483E58071CF007EE13E007C014166E
:1055100015061CF000E010E001C08A01C80164E635
:1055200070E00E94DD7A462FFE0131968AE0DF01AD
:105530001D928A95E9F72CE9620290011124C901B4
:10554000800F911F6AE070E00E94DD7A200F86EFE5
:105550006802C0011124280F405D4983605D6A83A1
:10556000205D2B838F2D6E2DAF010E9463292A961B
:10557000CDBFDEBFCF91DF911F910F91FF90EF90D4
:1055800008950F931F93DF93CF93CDB7DEB72A977C
:10559000CDBFDEBF182F062F443651051CF023E681
:1055A00030E007C0141615061CF020E030E001C002
:1055B0009A01C9016AE070E00E94DD7AFE0131962D
:1055C0008AE0DF011D928A95E9F786EF6802C00143
:1055D0001124820F605D6983805D8A83812F602F33
:1055E000AF010E9463292A96CDBFDEBFCF91DF9124
:1055F0001F910F9108952F923F924F925F926F9259
:105600007F928F929F92AF92BF92CF92DF92EF9252
:10561000FF920F931F93DF93CF93CDB7DEB76797BA
:10562000CDBFDEBF142FFE01319694E1DF011D9244
:105630009A95E9F72090DC25B091DD25BD8B4B2FA5
:10564000222D0E948124422C5524812F8F70A82F57
:10565000B0E0ED894E2F50E0449DF001459DF00DE6
:10566000549DF00D1124612F70E0607F7070611502
:10567000710511F061E070E0CA01880F991F9A016D
:1056800013E0220F331F1A95E1F7820F931F9C013D
:10569000269FC001279F900D369F900D1124A49F37
:1056A0009001A59F300DB49F300D1124820F931FE0
:1056B000849D4001859D900C949D900C112482E066
:1056C00090E0880E991EEA9F8001EB9F100DFA9FD3
:1056D000100D11240E5F1F4FCF0143E0880F991F5B
:1056E0004A95E1F7EE0FFF1F8E0F9F1FDC01A69F6B
:1056F000C001A79F900DB69F900D1124080F191F90
:1057000033243E010894611C711CF301E20DF11D6C
:10571000EE8BFF8B31C0D5018D915D018F700E94A2
:105720003923F70181937F012E893F89E216F30621
:1057300091F78DE3B301422D0E94FC792CEDA22E4E
:1057400025E2B22EA80CB91C0AC0D5018D915D01CD
:1057500082958F700E943923F60181936F01CE14D8
:10576000DF0499F78DE3B301422D0E94FC79339455
:10577000840C951C040D151DFD893F1648F49CED05
:10578000A92E95E2B92EA00EB11E63017301CCCFF4
:105790000E9415246796CDBFDEBFCF91DF911F9188
:1057A0000F91FF90EF90DF90CF90BF90AF909F90C0
:1057B0008F907F906F905F904F903F902F900895C3
:1057C0002F923F924F925F926F927F928F929F9211
:1057D000AF92BF92CF92DF92EF92FF920F931F93FF
:1057E000DF93CF93CDB7DEB7E097CDBFDEBF8AA7FB
:1057F0006BA78A012CA72E010894411C511C88E23A
:10580000F20111928A95E9F720905736F0915836B7
:10581000F9A78AA56BA54F2F222D0E948124822CE7
:10582000992429A5822F90E0FC018E9EC0018F9EB5
:10583000900D9E9E900D1124809F5001819FB00C71
:10584000909FB00C112422E030E0A20EB31E35016F
:105850003324C2014FA698AB880D991D8DA79EA732
:1058600031C0F60181916F018F700E943923F801D8
:1058700081938F012DA53EA50217130791F78DE3A4
:10588000B201422D0E94FC7997E5C92E96E3D92EEC
:10589000CA0CDB1C0AC0F60181916F0182958F70E2
:1058A0000E943923F70181937F01E016F10699F7F1
:1058B0008DE3B201422D0E94FC793394A80CB91CEF
:1058C000680C791CF9A53F1658F487E5C82E86E3C5
:1058D000D82EC60CD71C8FA598A97C018201CACFEF
:1058E0002CA5203248F43BA5335F3BA78AA58F5FE8
:1058F000632F422F0E94FB2A0E941524E096CDBF01
:10590000DEBFCF91DF911F910F91FF90EF90DF905D
:10591000CF90BF90AF909F908F907F906F905F904F
:105920004F903F902F9008952F923F924F925F9209
:105930006F927F928F929F92AF92BF92CF92DF929F
:10594000EF92FF920F931F93DF93CF93CDB7DEB704
:10595000AD97CDBFDEBF8A012E010894411C511CBA
:1059600098E2F20111929A95E9F72090F922F091CC
:10597000FA22F9A74F2F222D0E948124822C9924EC
:1059800029A5822F90E0FC01E89DC001E99D900DC2
:10599000F89D900D1124809F5001819FB00C909F25
:1059A000B00C112428E030E0A20EB31E35013324E0
:1059B000C2014CA69DA7880D991D8AA79BA731C03F
:1059C000F60181916F018F700E943923F801819354
:1059D0008F012AA53BA50217130791F78DE3B201AA
:1059E000422D0E94FC7939EFC32E32E2D32ECA0C2D
:1059F000DB1C0AC0F60181916F0182958F700E94B5
:105A00003923F70181937F01E016F10699F78DE3C1
:105A1000B201422D0E94FC793394A80CB91C680C89
:105A2000791CF9A53F1658F429EFC22E22E2D22E96
:105A3000C60CD71C8CA59DA57C018201CACF0E94F3
:105A40001524AD96CDBFDEBFCF91DF911F910F9191
:105A5000FF90EF90DF90CF90BF90AF909F908F908E
:105A60007F906F905F904F903F902F900895FF929E
:105A70000F931F93CF93DF93F82E062FEA0110E0C8
:105A8000FE01E10FF11D408150E0415250408F2D49
:105A9000602F0E94942C8091F922080F1F5FFE0155
:105AA000E10FF11D8081882359F7DF91CF911F917C
:105AB0000F91FF900895CF92DF92EF92FF920F9394
:105AC0001F93DF93CF93CDB7DEB72A97CDBFDEBF4D
:105AD000D82EC62EFE0131968AE0DF011D928A95EE
