:100000000C94DA010C9400020C9400020C9400028F
:100010000C9400020C9400020C9400020C94000258
:100020000C9400020C9400020C9400020C94000248
:100030000C9400020C9400020C9400020C94000238
:100040000C9400020C9400020C9400020C94000228
:100050000C9400020C9400020C9400020C94000218
:100060000C9400020C9400020C9400020C94000208
:100070000C9400020C9400020C9400020C940002F8
:100080000C9400020C9400020C9400020C940002E8
:100090000C9400020C9400020C9400020C940002D8
:1000A0000C9400020C9400020C9400020C940002C8
:1000B0000C9400020C9400020C9400020C940002B8
:1000C0000C9400020C9400020C9400020C940002A8
:1000D0000C9400020C9400020C9400020C94000298
:1000E0000C9400020C9400020C9400020C94000288
:1000F0000C9400020C9400020C9400020C94000278
:100100000C9400020C9400020C9400020C94000267
:100110000C9400020C9400020C9400020C94000257
:100120000C9400020C9400020C9400020C94000247
:100130000C9400020C9400020C9400020C94000237
:100140000C9400020C9400020C9400020C94000227
:100150000C9400020C9400020C9400020C94000217
:100160000C9400020C9400020C9400020C94000207
:100170000C9400020C9400020C9400020C940002F7
:100180000C9400020C9400020C9400020C940002E7
:100190000C9400020C9400020C9400020C940002D7
:1001A0000C9400020C9400020C9400020C940002C7
:1001B0000C9400020C9400020C9400020C940002B7
:1001C0000C9400020C9400020C9400020C940002A7
:1001D0000C9400020C9400020C9400020C94000297
:1001E0000C9400020C9400020C94777A0C94000298
:1001F0000C94000277037A037D0380038303860354
:1002000089038C038F039203950398039B039E033A
:10021000A103A403A703AA03AD03B003B303B6036A
:10022000B903BC03BF03C203C503C803CB03CE039A
:10023000D103D603E803EB03EE03F103F403F70362
:10024000FA03FD0300040304060409040C040F046C
:100250001204150418041B041E042104240427049A
:100260002A042D0430043304360439043C043F04CA
:1002700042044704EE3CF33CF83CFD3C023D073DA4
:100280000C3D133D1A3D1F3D243D2B3DB23CB73C78
:10029000BC3CC13CC63CCB3CD03CD53CDA3CDF3C12
:1002A000E43CE93CC541C841CB41CE41D141D441B8
:1002B000D941DC41E241E541E841DF41EB41EE411A
:1002C000164219421C421F422242254228422B421A
:1002D0002E423142344237423A423D42F3410542D6
:1002E000F641F941FC41FF41024208420B420E42F5
:1002F00011424242454248424B424E4251425442D0
:1003000057425A429D489F48C248C548A148A34801
:10031000C848CB48A548A748A948AB48AD48CE48EF
:10032000D148D448D748AF48B148B348B648B9488F
:100330001549BC48BF48DA48DD48E048E348E6488C
:100340001049E948EC48EF48044907490A490D4972
:10035000FE480149F248F548F848FB4828492A492F
:100360004D4950492C492E49534956493049324943
:1003700034493649384959495C495F4962493A49E3
:100380003C493E4941494449A04947494A49654990
:1003900068496B496E4971499B49744977497A4963
:1003A0008F4992499549984989498C497D498049A5
:1003B0008349864911241FBECFEFDFE3DEBFCDBFE7
:1003C00000E00CBF18BE19BE1ABE1BBE1CE3A0E0A5
:1003D000B0E2E0E1F6EF00E00BBF02C007900D9243
:1003E000AE36B107D9F71BBE1DE3AEE6BCE301C0D4
:1003F0001D92AC3CB107E1F70E94A4410C94067B2E
:100400000C9400001F93CF93DF93C0E0D6E010E27E
:100410001983882321F41D8382E090E003C01D83AB
:100420008CE390E00E9486591E8384E190E00E9454
:100430008659DF91CF911F9108950F931F93CF930A
:10044000DF93C0E0D0E00EEF17E0C8010C2E02C031
:10045000959587950A94E2F781700E940202219691
:10046000CC30D10591F7DF91CF911F910F91089575
:100470000F931F93CF93DF93C0E0D0E001E018E02B
:10048000C8010C2E02C0959587950A94E2F78170F9
:100490000E9402022196CC30D10591F7DF91CF91D5
:1004A0001F910F9108950F931F93CF93DF93C0E097
:1004B000D0E001E010E0C8010C2E02C0880F991FA7
:1004C0000A94E2F780780E9402022196C830D10592
:1004D00091F7DF91CF911F910F9108950F931F9383
:1004E000CF93DF93C0E0D0E007E310E0C8010C2E0B
:1004F00002C0880F991F0A94E2F780780E940202D6
:100500002196C830D10591F7DF91CF911F910F91BE
:1005100008950F931F93CF93DF93C0E0D0E002E1E3
:1005200010E0C8010C2E02C0959587950A94E2F759
:1005300081700E9402022196C630D10591F7DF91A9
:10054000CF911F910F9108950E9438020E94890255
:100550000E9453020E941D0208950F931F93CF9390
:10056000DF93C0E0D0E00AE110E0C8010C2E02C029
:10057000959587950A94E2F781700E940202219670
:10058000C630D10591F7DF91CF911F910F9108955A
:100590000E9438020E94AD020E946E020E941D025B
:1005A00008950E94C8020E94A4020895CF93DF9389
:1005B000AAECB1E052E05C93E0E2F0E0E4911C923E
:1005C00020E032E0E901EC875C93E1E2F0E0E491C5
:1005D0001C92ED875C93E4E2F0E0E4911C9280E4ED
:1005E00092E0EC01EC875C93E5E2F0E0E4911C9290
:1005F000ED87F901118240E24283548351E0508338
:1006000019824A835C83588350A348E141A350A7D1
:1006100040E141A758A340E349A350AB88E381AB35
:10062000DF91CF910895AAECB1E092E09C93E82F7E
:10063000F0E0E4911C928E2F0895E0E0F2E091E06A
:1006400090A388E181A390A780E181A70895E0E4C9
:10065000F2E081E080A380E381A30895E0E0F2E08E
:1006600081E080AB88E381AB0895809100028061D6
:10067000809300028091060282FFFCCF80910602E7
:100680008460E0E0F2E0868380911402909115028C
:10069000845C9940CCF480916E3C90916F3C0196C3
:1006A00080936E3C90936F3C039711F40E945E4DD3
:1006B00080916E3C90916F3C815D92404CF0109225
:1006C0006E3C10926F3C089510926E3C10926F3CFD
:1006D0000895FC018032910540F4E650FF4FEE0F83
:1006E000FF1F0590F491E02D199480E0089580E0BB
:1006F00090E059C081E090E056C082E090E053C0A5
:1007000083E090E050C084E090E04DC085E090E050
:100710004AC086E090E047C087E090E044C088E0AF
:1007200090E041C089E090E03EC08AE090E03BC0AC
:100730008BE090E038C08CE090E035C08DE090E038
:1007400032C08EE090E02FC08FE090E02CC080E1BE
:1007500090E029C081E190E026C082E190E023C0D2
:1007600083E190E020C084E190E01DC085E190E04D
:100770001AC086E190E017C087E190E014C088E1DC
:1007800090E011C089E190E00EC08AE190E00BC0DA
:100790008BE190E008C08CE190E005C08DE190E035
:1007A00002C08EE190E00E94AE0408958FE190E0D7
:1007B0000E94AE040895FC018032910508F06BC0E0
:1007C000E65EFE4FEE0FFF1F0590F491E02D1994A9
:1007D00080E090E059C081E090E056C082E090E077
:1007E00053C083E090E050C084E090E04DC085E0CD
:1007F00090E04AC086E090E047C087E090E044C0C7
:1008000088E090E041C089E090E03EC08AE090E05E
:100810003BC08BE090E038C08CE090E035C08DE0CC
:1008200090E032C08EE090E02FC08FE090E02CC0CE
:1008300080E190E029C081E190E026C082E190E073
:1008400023C083E190E020C084E190E01DC085E1F9
:1008500090E01AC086E190E017C087E190E014C0F4
:1008600088E190E011C089E190E00EC08AE190E05B
:100870000BC08BE190E008C08CE190E005C08DE1F9
:1008800090E002C08EE190E00E94740408958FE130
:1008900090E00E9474040895DF93CF93CDB7DEB744
:1008A000C258D040CDBFDEBF99838A8390E09E01BD
:1008B0002D5F3F4FE92FF0E0D901AE0FBF1FE60FCC
:1008C000F71F80818C939F5F9038A1F780E5BE0170
:1008D0006F5F7F4F42E80E94C478CE57DF4FCDBF95
:1008E000DEBFCF91DF910895DF93CF9300D0CDB7D6
:1008F000DEB7DE011196E0E0F0E223E001900D9218
:100900002150E1F799838A836B8380E5BE016F5F95
:100910007F4F43E00E94C4782396CDBFDEBFCF91C6
:10092000DF910895DF93CF930F920F92CDB7DEB78B
:1009300099838A8380E5BE016F5F7F4F42E00E940A
:10094000C47880E568E00E9402799C012F5F3F4FE8
:10095000C9010F900F90CF91DF910895DF93CF934E
:100960000F920F92CDB7DEB799838A8380E5BE01DF
:100970006F5F7F4F42E00E94C47880E561E00E9493
:100980000279FC0181810F900F90CF91DF91089542
:10099000CF93DF93C0E0D0E0CE016BE00E947404FF
:1009A0008AE090E00E948F592196C032D105A1F7CC
:1009B000DF91CF9108958BECE0E5F0E0828388E051
:1009C000809350008091510083FFFCCF88ED84BF5D
:1009D00083E080934000089588ED84BF8BE280938C
:1009E00080000895A89508950E94C8040E94654655
:1009F0000E946E4A0E948B430E94361108950E9405
:100A0000DB040E946D520E94D60278940E942F7AD5
:100A10000E9404780E944C780E9435230E94AA59B3
:100A20000E94A3240E94AA590E9494320E94F404B6
:100A300088ED84BF8BE2809380000E94E2430E9495
:100A4000D1020E9473090E940D4C0E94AA5989E1AB
:100A500090E00E94235B81E190E00E94A30604C025
:100A60000E943D5B882321F40E94A7050E97C1F7E1
:100A70000E94B45A82E090E00E94E25B089580E612
:100A800060E00E94954280E06FEF0E94954281E015
:100A90006FEF0E94954280E260E00E94954281E201
:100AA00060E00E94954286E660E00E9495420895CB
:100AB000EF92FF920F931F93DF93CF930F92CDB7D7
:100AC000DEB7E1E8FCE311922CE3EB38F207D9F74B
:100AD0008CE20E94F74280FF2EC085E60E94F7421A
:100AE000182F1F701093813C81E60E94F74280937B
:100AF000823C86E60E94F7428093833C93E0012F7C
:100B000010E00F5F1F4F0DC0892F8C5999830E94F1
:100B1000F742E1E8FCE3EE0EFF1EF70180839981C6
:100B20009F5FE92EFF240E151F0574F78CE260E02D
:100B30000E94954202C01092813C81E89CE30F9094
:100B4000CF91DF911F910F91FF90EF9008950E9438
:100B50005805FC018081882309F45CC082818D30B6
:100B6000C9F18E3040F4823029F1833059F181305F
:100B700009F050C017C0803109F444C0813120F41D
:100B80008E3009F047C006C08231A1F1833109F0EF
:100B900041C028C080917E3C8F5F80937E3C2EE0D8
:100BA00030E03AC080917E3C8F5F80937E3C21E0B4
:100BB00030E032C080917E3C8F5F80937E3C22E0AB
:100BC00030E02AC080917E3C8F5F80937E3C23E0A2
:100BD00030E022C080917E3C8F5F80937E3C2DE090
:100BE00030E01AC080917E3C8F5F80937E3C23E191
:100BF00030E012C080917E3C8F5F80937E3C22E18A
:100C000030E00AC080917E3C8F5F80937E3C20E183
:100C100030E002C02FE030E0C9010895FF920F9349
:100C20001F93CF93DF938C01FC01F08085E36F2D40
:100C30000E94954281E3F80161810E94954282E31E
:100C400060E00E949542E80100E007C0FA94802F1E
:100C50008A5C69810E9495420F5F2196FF20B1F75F
:100C600080E368E00E94954224C080E30E94F7423E
:100C7000807F31F010927F3C1092803C81E023C055
:100C800080917F3C9091803CF3E0893E9F0764F027
:100C900010927F3C1092803C8DE390E060E070E029
:100CA0000E94393A82E00FC0019680937F3C909376
:100CB000803C8CE20E94F74282FFD7CF10927F3CAB
:100CC0001092803C80E0DF91CF911F910F91FF90B7
:100CD0000895DF93CF9300D0CDB7DEB791E099832D
:100CE0008A838EE08B83CE0101960E940E068AE0F5
:100CF00090E00E94235B06C00E943D5B882311F0B8
:100D000080E005C00E94A705892BB1F381E02396FE
:100D1000CDBFDEBFCF91DF910895DF93CF9300D099
:100D20000F92CDB7DEB791E099839A8399E09B83C8
:100D30008C83CE0101960E940E062496CDBFDEBFA5
:100D4000CF91DF910895DF93CF9300D0CDB7DEB779
:100D500091E099839A838B83CE0101960E940E06BF
:100D60002396CDBFDEBFCF91DF910895CF92DF9262
:100D7000FF920F931F93DF93CF93CDB7DEB7C05889
:100D8000D040CDBFDEBF8230910561F41092713C3E
:100D900084E690E00E94235B83E190E00E94A3063A
:100DA00081E01CC0019709F07BC08091713C8130CB
:100DB000C1F40E943D5B882319F08BE08093713C65
:100DC0000E94A705439709F06BC084E690E00E945B
:100DD000235B83E190E00E94A30682E08093713C54
:100DE0005FC0823009F05CC000E010E06E01089442
:100DF000C11CD11C81E162E3A8010E94752AFF2475
:100E000006C00E943D5B882311F08CE026C00E9442
:100E10005805AC01FC018081882399F3DA018F2DFC
:100E200090E0F601E80FF91F9C01285F3F4F2C0D61
:100E30003D1D12968C91129781931196E217F3073C
:100E4000C1F7002369F4FF2059F4FA0182818C3044
:100E500039F08381843921F08DE08093713C22C088
:100E600084E690E00E94235B83E190E00E94A30669
:100E7000F8E0FF0E80E8F81651F6A8950F5F1F4FB7
:100E800080E0902FB6010E944C040032110509F059
:100E9000B1CF84E08093713C8EE090E00E94A30685
:100EA0008091713CC058DF4FCDBFDEBFCF91DF9145
:100EB0001F910F91FF90DF90CF90089582309105A0
:100EC00069F41092753C1092723C89E190E00E94A6
:100ED000235B8CE090E00E94A30628C0019731F5C7
:100EE0000E943D5B882371F08091753C8F5F8093F9
:100EF000753C853018F08BE08093723C8CE090E07C
:100F00000E94A3060E945805FC018081882371F08D
:100F100082818C3059F483818093733C84818093E7
:100F2000743C81E08093723C0E944D5B82E79CE3BD
:100F300008958230910569F41092793C1092763CC4
:100F400089E190E00E94235B83E090E00E94A30689
:100F500082C0019709F07FC08091763C882321F5FB
:100F60000E943D5B882371F08091793C8F5F809374
:100F7000793C853018F08AE08093763C83E090E0FD
:100F80000E94A3060E94A705833041F41092793C89
:100F900081E08093763C86E090E02DC08D3009F0B2
:100FA0005AC01092793C29C0813061F50E943D5BA6
:100FB000882371F08091793C8F5F8093793C8530F4
:100FC00018F08BE08093763C86E090E00E94A306C8
:100FD0000E945805FC0180818823E9F182818630D6
:100FE000D1F5838181FF37C01092793C82E08093F4
:100FF000763C85E090E00E94A30689E190E00E94A3
:10100000235B29C0823029F50E943D5B882371F063
:101010008091793C8F5F8093793C853018F08CE02B
:101020008093763C85E090E00E94A3060E945805DC
:10103000FC018081882379F08281853061F483818D
:101040008093773C84818093783C83E08093763CE6
:1010500002C00E944D5B86E79CE30895CF93DF9327
:10106000EB018230910561F410927D3C10927A3C44
:1010700089E190E00E94235BCE010E94A30683C019
:10108000019709F080C080917A3C882329F50E945D
:101090003D5B882369F080917D3C8F5F80937D3C30
:1010A000853018F08AE080937A3CCE010E94A30636
:1010B0000E94A705982F8150823040F410927D3C09
:1010C00081E080937A3C86E090E02DC09D3009F06D
:1010D0005AC010927D3C29C0813061F50E943D5B71
:1010E000882371F080917D3C8F5F80937D3C8530BB
:1010F00018F08BE080937A3C86E090E00E94A30693
:101100000E945805FC0180818823E9F182818630A4
:10111000D1F510927D3C838180FF35C082E08093C1
:101120007A3C84E090E00E94A30689E190E00E946E
:10113000235B29C0823029F50E943D5B882371F032
:1011400080917D3C8F5F80937D3C853018F08CE0F2
:1011500080937A3C84E090E00E94A3060E945805A8
:10116000FC018081882379F08281843061F483815D
:1011700080937B3C848180937C3C83E080937A3CA9
:1011800002C00E944D5B8AE79CE3DF91CF910895F6
:101190006F927F928F929F92AF92BF92CF92DF9287
:1011A000FF920F931F93DF93CF93CDB7DEB72A97AC
:1011B000CDBFDEBFDE011196E3E0F0E22AE0019050
:1011C0000D922150E1F78230910561F41092703C4C
:1011D00084E690E00E94235B82E190E00E94A306F7
:1011E00081E018C0019709F06BC08091703C81309C
:1011F000A1F40E943D5B882319F08BE08093703C42
:101200000E94A705429709F05BC084E690E00E9427
:10121000235B82E08093703C53C0823009F050C061
:1012200000E010E023E0622E712C6C0E7D1E9BE02E
:10123000892E912C8C0E9D1E5E010894A11CB11C60
:10124000A89581E162E3A8010E94752A0F5F1F4FF4
:10125000D02ECC24FF248F2D90E08C299D290E9434
:101260009204DC01F3018D918193E815F905D9F71A
:10127000C5010E940E0684E690E00E94235B04C034
:101280000E943D5B882349F40E945805FC0180813F
:101290008823B1F38281823121F08CE08093703C0D
:1012A00011C088E0F80E80E8F816A9F600321105A2
:1012B00039F684E08093703C8EE090E00E94A306B3
:1012C0008091703C2A96CDBFDEBFCF91DF911F91F8
:1012D0000F91FF90DF90CF90BF90AF909F908F9035
:1012E0007F906F9008950E9429430E943F058FE0F0
:1012F00065E00E9495420895CF93DF93C82FD0E018
:1013000080FF06C080E166E848E050E00E94F625D4
:10131000CE0186709070892B61F086E06CE246E029
:1013200023E20E94B33186E06DE241E050E00E948A
:101330009926C3FF0BC081E161E041E050E00E94CB
:10134000992680E090E060E00E940535C4FF0BC064
:1013500081E16AE541E050E00E94992682E090E058
:1013600060E00E940535DF91CF910895EF92FF92E2
:101370000F931F93CF93DF93C82F80FD02C0EE24FD
:101380000FC089E190E00E948F48082F0E94A2457B
:10139000EE2490E010E00817190714F4EE24E3940B
:1013A000C1FF19C08FE090E00E948F48F82E80E1C5
:1013B00090E00E948F48082F0E94844E3F2D20E02D
:1013C00010E0202B312B281739071CF482E0E82A83
:1013D00002C08DEFE822C2FF19C08DE090E00E94AC
:1013E0008F48F82E8EE090E00E948F48082F0E94D0
:1013F000844E3F2D20E010E0202B312B82179307E5
:101400001CF484E0E82A02C08BEFE822C3FF0DC081
:101410008CE090E063E170E00E94E44FC09719F423
:1014200088E0E82A02C087EFE8228E2DDF91CF9175
:101430001F910F91FF90EF90089583E190E00E943B
:10144000895283E190E00E94C52280E40E94C75245
:10145000089580918B3C8F5F80938B3C823089F420
:101460008BE190E00E948F48882311F00E941D0AB2
:1014700080E090E060E141E050E00E94A9470E94D6
:101480005E4D80918B3C8B3F10F010928B3C089509
:1014900080918C3C8F5F80938C3C823089F48BE10F
:1014A00090E00E948F48882311F00E941D0A80E07E
:1014B00090E068E041E050E00E94A9470E945E4D44
:1014C00080918C3C8B3F10F010928C3C0895809161
:1014D0008D3C8F5F80938D3C823089F48AE190E06F
:1014E0000E948F48882311F00E941D0A80E090E03E
:1014F00064E041E050E00E94A9470E945E4D809167
:101500008D3C8B3F10F010928D3C08958A309105F0
:1015100091F08B30910548F486309105D1F08630FA
:10152000910510F1089700F114C08D30910588F0F5
:101530008D309105C9F460E070E041E150E00E9417
:101540000C19089799F485E190E00E948F48882350
:1015500069F484E00E947C090E94670A80E10E948D
:10156000C75288E00E94C75281E0089580E0089544
:1015700080918E3C8F5F80938E3C823089F48AE12B
:1015800090E00E948F48882311F00E941D0A80E09D
:1015900090E062E041E050E00E94A9470E945E4D69
:1015A00080918E3C8B3F10F010928E3C0895CF932B
:1015B000DF93EC018091903C882309F043C082E0E6
:1015C0000E947C090E94B80ACA30D10501F1CB30D3
:1015D000D10548F4C830D105C1F0C930D10560F556
:1015E000269771F529C0CC30D10531F1CC30D10529
:1015F00020F0CD30D10521F50AC08AE090E00E94AC
:101600008F488823E9F480E818C088E016C0CE012E
:1016100060E070E041E150E00E940C19089741F44D
:1016200085E190E00E948F48882311F482E005C094
:101630000E94685180E101C080E2E0E0F7E085832C
:1016400081E058C0813009F058C087E290E00E94E4
:10165000B75A882309F499C0CA30D10549F1CB3073
:10166000D10550F4C830D105E9F0C930D105D8F51D
:10167000269709F03EC037C0CC30D105A1F1CC305F
:10168000D10520F0CD30D105A1F512C08AE090E05F
:101690000E948F48882369F5E0E0F7E080E88683C0
:1016A00080E426C0E0E0F7E088E0868384E020C0A4
:1016B000CE0160E070E041E150E00E940C19089713
:1016C00061F485E190E00E948F48882331F4E0E0E6
:1016D000F7E082E0868381E00BC0E0E0F7E080E1A4
:1016E000868380E205C0E0E0F7E080E2868380E167
:1016F000858382E08093903C48C0823009F045C0E9
:1017000087E290E00E94B75A882309F43EC0CA30AD
:10171000D10501F1CB30D10548F4C830D105C1F075
:10172000C930D10550F5269761F527C0CC30D105D9
:1017300021F1CC30D10520F0CD30D10511F50AC012
:101740008AE090E00E948F488823D9F480E416C094
:1017500084E014C0CE0160E070E041E150E00E94FE
:101760000C19089741F485E190E00E948F48882386
:1017700011F481E003C080E201C080E1E0E0F7E025
:1017800086831092903C81E001C080E0DF91CF9190
:1017900008958091913C882369F482E00E947C093D
:1017A0000E94B80A0E94685180E1E0E0F7E085837A
:1017B00081E00FC0813089F486E290E00E94B75A40
:1017C0008823D9F0E0E0F7E080E1868380E285833A
:1017D00082E08093913C80E00895823071F487E24A
:1017E00090E00E94B75A882341F080E2E0E0F7E001
:1017F00086831092913C81E0089580E00895809165
:101800008F3C8F5F80938F3C823059F40E941D0A79
:1018100080E090E061E041E050E00E94A9470E9432
:101820005E4D80918F3C8B3F10F010928F3C08955D
:10183000CF92DF92FF920F931F93DF93CF9300D04D
:10184000CDB7DEB78C01662311F06093923C809196
:10185000923C80FD03C06801FF240FC081E00E941C
:101860007C090E94FF0B8091923C8E7F8093923C7A
:10187000FF24F39497E0C92ED12C8091923C81FFF4
:1018800014C00730110519F40E94C90B03C0C80128
:101890000E94D70A882311F4FF2039F08091923CEE
:1018A0008D7F8093923CFF24F3948091923C82FF41
:1018B0000CC0C8010E94860A882339F08091923CAE
:1018C0008D7F8093923CFF24F3948091923C83FF20
:1018D00019C088E00E947C090E94480AC8010C9740
:1018E000029730F00930110519F00A30110519F48A
:1018F00087E0C82ED12C8091923C877F8093923CC8
:10190000FF24F3948091923C84FF0CC080E10E94FC
:101910007C090E94290A8091923C8F7E8093923CA0
:10192000FF24F394C982DA826C2D7A818F2D90E0A6
:101930002396CDBFDEBFCF91DF911F910F91FF9016
:10194000DF90CF90089587E090E00E94895288E070
:1019500090E00E94C52280E40E94CB520895AF928D
:10196000BF92CF92DF92FF920F931F93DF93CF939B
:1019700000D000D0CDB7DEB78C016B015A018A30A0
:101980009105B1F08B30910550F48630910579F1D5
:101990008630910590F18830910578F128C08C301F
:1019A000910529F18C309105B8F08D30910529F51C
:1019B000C80160E070E041E150E00E940C19089716
:1019C000E1F485E190E00E948F488823B1F484E03F
:1019D0000E94B609F82E12C08AE090E00E948F485B
:1019E000882329F484E00E94B609F82E01C0FF2460
:1019F00084E00E94B609F82A01C0FF248BE00E940F
:101A0000B609F82A81E090E00E948952FF20A9F0EF
:101A10008091963C882389F485E290E00E94B75A31
:101A2000882359F081E08093963C0093933C109377
:101A3000943C83E090E00E94B75A8091963C8823C2
:101A400001F181E08093953C8091933C9091943C8E
:101A50006F2D0E94180C6C837D838E83DE0111969E
:101A6000FE01349683E001900D928150E1F78B8165
:101A7000882319F401E310E004C009811A8110924F
:101A8000963CFF20A9F48091953C882389F08091B1
:101A9000963C882369F41092953C0E94A30C83E045
:101AA00090E00E94B75AC801B601A5010E94911E9C
:101AB000C8012696CDBFDEBFCF91DF911F910F9158
:101AC000FF90DF90CF90BF90AF9008959C01861754
:101AD000970714F42F5F3F4FC90108959C016817C1
:101AE000790714F421503040C90108956F927F9214
:101AF0008F929F92AF92BF92CF92DF92EF92FF921E
:101B00000F931F938130910571F08130910528F07A
:101B1000029779F080E0882411C082E08093182039
:101B200031E1832E0BC081E18093182025E1822EC4
:101B300005C086E1809318209AE1892E082F992408
:101B4000AA24CC247724662451C010E0802F612F72
:101B500040E050E00E943C48D82E802F612F41E0A9
:101B600050E00E943C48E82E802F612F42E050E078
:101B70000E943C48F82E802F612F43E050E00E94E5
:101B80003C48B82E802F612F44E050E00E943C4832
:101B9000DD2039F1CF14E0F0AE1410F4FC14C0F4E1
:101BA0009D1420F4EA1410F0FC1490F47B1430F42B
:101BB000D91420F0EA1410F0FC1450F4681688F4DC
:101BC000B71478F0D91468F0EA1458F0FC1448F00F
:101BD00000931820109319209D2CAE2CCF2C7B2C19
:101BE000682E1F5F143009F0B1CF0F5F081508F49D
:101BF000ACCF88E190E21F910F91FF90EF90DF90C2
:101C0000CF90BF90AF909F908F907F906F900895EE
:101C10006F927F928F929F92AF92BF92CF92DF92FC
:101C2000EF92FF920F931F938130910571F08130F5
:101C3000910528F0029779F080E0882411C082E0B5
:101C400080931A20B1E18B2E0BC081E180931A2082
:101C5000A5E18A2E05C086E180931A20FAE18F2E35
:101C6000082FEFE19E2E7CE0A72E6CE3C62E57E1F5
:101C7000752E4BE3642E51C010E0802F612F40E0A1
:101C800050E00E943C48D82E802F612F41E050E068
:101C90000E943C48E82E802F612F42E050E00E94D5
:101CA0003C48F82E802F612F43E050E00E943C48D2
:101CB000B82E802F612F44E050E00E943C48DD2088
:101CC00039F1FC14E0F0EA1410F4CF14C0F4D91484
:101CD00020F4AE1410F0CF1490F4B71430F49D1427
:101CE00020F0AE1410F0CF1450F4861588F47B1455
:101CF00078F09D1468F0AE1458F0CF1448F00093BB
:101D00001A2010931B209D2CAE2CCF2C7B2C682EE0
:101D10001F5F143009F0B1CF0F5F081508F4ACCF86
:101D20008AE190E21F910F91FF90EF90DF90CF90AA
:101D3000BF90AF909F908F907F906F9008950F937A
:101D40001F93DF93CF930F92CDB7DEB7813091050C
:101D500069F08130910528F0029769F080E090E009
:101D60000EC082E080931C2091E109C081E1809344
:101D70001C2095E104C086E180931C209AE1082F85
:101D80001DC010E010931D20802F612F40E050E017
:101D900099830E943C489981882361F01F5F143029
:101DA00089F710921E2080911C208F5F80931C2049
:101DB0000F5F04C081E080931E2002C0091708F362
:101DC0008CE190E20F90CF91DF911F910F910895D8
:101DD000CF92DF92FF920F931F93CF93DF93EC018B
:101DE0008B016B0185E0F82E8F2D90E0F60161915B
:101DF0006F010E94A133F394FBE0FF16A9F70C0FCB
:101E00001D1FF8016081C230D105A1F0C330D1059A
:101E100028F4209749F02197B9F409C0C330D105BF
:101E200061F0249789F40CC080E090E00BC081E061
:101E300090E008C082E090E005C083E090E002C03E
:101E400084E090E00E94A133DF91CF911F910F9128
:101E5000FF90DF90CF9008951F93182F8FE06DE2D1
:101E60004FE050E00E9499268FE06AE54CE050E098
:101E70000E94F6258FE068E747E050E00E943C278B
:101E8000113061F0113018F01230A9F40EC08FE05B
:101E90006DE245E050E00E9499260DC08FE06AE5B2
:101EA00041E050E00E94F62506C08FE068E743E07D
:101EB00050E00E943C271F91089583E06DE74DE0BC
:101EC00050E20E94F12E0895DF92EF92FF920F935D
:101ED0001F93DF93CF9300D00F92CDB7DEB7F82ECC
:101EE0008B0119821A821B821C828FE067E244E018
:101EF00023E30E94B33180E168E242E150E20E94B4
:101F0000F12EFE0131969E012B5F3F4FD8018D913E
:101F10008D018193E217F307C9F7D9808D2D0E94B7
:101F20009133EA808E2D0E9481339C8180E02B8149
:101F3000022F10E0082B192B80E168E4A8010E9411
:101F40007E2FB1E0FB1651F0FB1620F082E0F81670
:101F5000A1F408C08D2D0E9471330FC08E2D0E94F8
:101F600061330BC08FE066E444E024E10E94F2316B
:101F700080E168E4A8010E94C62D2496CDBFDEBF93
:101F8000CF91DF911F910F91FF90EF90DF90089517
:101F9000DF92EF92FF920F931F93DF93CF9300D0C6
:101FA0000F92CDB7DEB7F82E8B0119821A821B82F1
:101FB0001C828FE066E444E024E10E94B331FE011C
:101FC00031969E012B5F3F4FD8018D918D018193FA
:101FD000E217F307C9F7D9808D2D0E949133EA806B
:101FE0008E2D0E9481339C8180E02B81022F10E096
:101FF000082B192B80E168E4A8010E947E2FB1E034
:10200000FB1651F0FB1620F082E0F816A1F408C090
:102010008D2D0E9471330FC08E2D0E9461330BC035
:102020008FE066E444E024E10E94F23180E168E45C
:10203000A8010E94C62D2496CDBFDEBFCF91DF91AF
:102040001F910F91FF90EF90DF900895882319F072
:10205000813031F513C08FE060E04DE050E00E9428
:1020600099268FE067E244E02FE10E94F23180E19F
:1020700068E242E150E20E94392D08958FE060E06D
:1020800043E050E00E9499268FE067E244E02FE1B0
:102090000E94B33180E168E242E150E20E94F12EF9
:1020A0000895CF92DF92EF92FF920F931F93CF93F9
:1020B000DF937C016B01FC0100811181FB01C08178
:1020C000D18180E00E9414448093983C81E090E0AC
:1020D0000E94E25B282F9091983C8091973C981742
:1020E00011F4222381F09093973C209739F4011545
:1020F000110529F001501040CCE3D0E0219783E096
:1021000090E00E94E25B209789F40115110571F4BB
:1021100083E090E00E94E25BF7011082118285E08B
:1021200090E0F6018083918381E007C0F70100838E
:102130001183F601C083D18380E0DF91CF911F919D
:102140000F91FF90EF90DF90CF9008950F931F9322
:102150008C010E94F3449C010430110531F4019676
:102160000E9466430E94F3449C01C9011F910F9194
:1021700008950F931F93CF93DF938C01C0E0D0E0BD
:10218000F801EC0FFD1F8081882319F08C2F0E942D
:1021900035372196CB30D10599F7DF91CF911F913B
:1021A0000F9108950F931F93082F162F0E94B93592
:1021B00086E0189FB0011124635810E0015F1F4FA3
:1021C00083E0A8010E944E2E1F910F91089588313F
:1021D0009105B1F08931910518F40B97E1F517C01D
:1021E0008133910519F0C397B1F52CC080919B3CC8
:1021F00090919C3C60E040E050E00E94A947089527
:1022000010929B3C10929C3C1092993C08958091B6
:102210009A3C861739F08091993C8F5F8093993C66
:1022200060939A3C8091993C8823A9F01092993C44
:1022300080919B3C90919C3C019680939B3C909319
:102240009C3C089580919B3C90919C3C019780938D
:102250009B3C90939C3C089590E005C08150823057
:1022600008F480E19F5F9617C8F30895AF92BF927C
:10227000CF92DF92EF92FF920F931F9388E090E04E
:102280000E94C5220E9491770E94943282E060E011
:102290004FE150E20E94F12E85E060E046E250E21C
:1022A0000E94F12E8AE060E04DE250E20E94F12EA1
:1022B0008DE060E046E350E20E94F12E82E160E0B2
:1022C0004FE350E20E94F12E85E160E04CE450E2E1
:1022D0000E94F12E8AE290E00E948F48482F82E00F
:1022E0006CE350E00E947E2F8BE290E00E948F48CA
:1022F000482F85E06CE350E00E947E2F88E290E05A
:102300000E948F48482F82E064E650E00E947E2FB2
:1023100089E290E00E948F48482F85E064E650E013
:102320000E947E2F0E94F2040E94A7768C0194E006
:10233000159507959A95E1F70E94C7767C0184E090
:10234000F594E7948A95E1F7C7010E94E7765C016E
:10235000C8010E940E776C018AE064E6A8010E9421
:102360007E2F8DE064E6A7010E947E2F82E164E665
:10237000A6010E947E2F85E164E6A501D1CFDF9200
:10238000EF92FF920F931F93CF93DF93EC01062FF1
:10239000142F8130910571F08130910530F0823039
:1023A000910569F0DD24EE240EC0F2E0DF2EE0E1BD
:1023B000EE2E09C071E1D72E64E1E62E04C056E18D
:1023C000D52E49E1E42E35E0F32EC130D10569F078
:1023D000C130D10520F0C230D10591F40CC08F2D51
:1023E000602F412F0E9422390BC08F2D602F412F6B
:1023F0000E948A3805C08F2D602F412F0E94083817
:10240000112329F401500D1508F40E2D14E011507C
:1024100082E0F80E8DE0F816C1F62DE0F22EC13004
:10242000D10569F0C130D10520F0C230D10591F459
:102430000CC08F2D602F412F0E9422390BC08F2D91
:10244000602F412F0E948A3805C08F2D602F412FA9
:102450000E940838112329F401500D1508F40E2D9F
:1024600014E082E0F80E85E1F81611F01150D7CF94
:10247000DF91CF911F910F91FF90EF90DF90089522
:1024800084E061E048E127E80E94B3310895EF92CB
:10249000FF920F931F93DF93CF930F92CDB7DEB7C9
:1024A0007C0182E090E00E94760DFC0110810181A8
:1024B000E114F10429F081E0E816F104D1F50DC032
:1024C00084E061E048E127E80E94B33182E090E0D7
:1024D000612F402F0E94BF112CC084E061E048E1D1
:1024E00027E80E94B331612F6150623008F460E147
:1024F000162F1150123008F410E195E0892F612F4A
:10250000402F99830E9408389981002339F4115093
:10251000163118F404E019E101C004E09E5F9D301B
:1025200011F00150EBCF8FE061E049E550E20E94ED
:10253000F12E0F90CF91DF911F910F91FF90EF90AF
:102540000895EF92FF920F931F93DF93CF930F9213
:10255000CDB7DEB77C0181E090E00E94760DFC01F2
:1025600010810181E114F10429F081E0E816F10401
:10257000D1F50DC084E061E048E127E80E94B33165
:1025800081E090E0612F402F0E94BF112CC084E0B9
:1025900061E048E127E80E94B331612F6150623069
:1025A00008F460E1162F1150123008F410E195E0A4
:1025B000892F612F402F99830E948A3899810023A7
:1025C00039F41150113118F404E014E101C004E0B1
:1025D0009E5F9D3011F00150EBCF8FE061E049E547
:1025E00050E20E94F12E0F90CF91DF911F910F9139
:1025F000FF90EF900895FF920F931F93CF93DF9377
:10260000EC0180E090E00E94760DFC011081F180E9
:10261000C330D10509F442C0C430D10530F4C13013
:10262000D105D1F0229700F510C0C530D10509F4CD
:1026300053C0C530D10508F440C0C630D10509F4F7
:102640005AC0279709F096C06BC084E061E048E16A
:1026500027E80E94B3315DC084E061E048E127E8EB
:102660000E94B331612F0FC084E061E048E127E8A8
:102670000E94B331612F6150623008F460E1615013
:10268000623008F460E16150623008F460E161504A
:10269000623008F460E180E090E03EC084E061E0F8
:1026A00048E127E80E94B33180E01150123008F46D
:1026B00010E18F5F8630C9F72CC084E061E048E10B
:1026C00027E80E94B33180E01150123008F410E185
:1026D0008F5F8830C9F71DC084E061E048E127E8DA
:1026E0000E94B33180E01150123008F410E18F5F86
:1026F0008A30C9F70EC084E061E048E127E80E9413
:10270000B33180E01150123008F410E18F5F8C304B
:10271000C9F780E090E0612F4F2D0E94BF112AC0C1
:1027200084E061E048E127E80E94B33180E0115085
:10273000123008F410E18F5F8E30C9F705E0802F6A
:10274000612F4F2D0E942239FF2049F41150123081
:1027500020F4B4E0FB2E10E102C0A4E0FA2E0E5FDC
:102760000D3011F0FA94EBCF8FE061E049E550E2D3
:102770000E94F12EDF91CF911F910F91FF9008954C
:102780000F931F93CF93DF938C0180919D3C8823FF
:1027900079F481E080939D3C0E94AD3785E090E024
:1027A000809368209093692010929E3C10929F3CE9
:1027B0000E94F2040E94AF590E942C75B8010E9439
:1027C0006F5CEC010817190731F010929D3C0E94D4
:1027D00094328E010EC088E690E26EE97CE30E949E
:1027E0005110882331F010929D3C0E94943200E0F9
:1027F00010E0C801DF91CF911F910F9108959C01C6
:10280000FB01DA0185E090E0808391831D921C92A8
:1028100029323105B9F02A32310538F42732310531
:1028200059F028323105D1F40AC02A32310569F055
:102830002B32310599F40CC00E94693508950E942D
:10284000173C08950E94FB3B08950E94DF3B0895CA
:1028500083E090E00E944E560E94A73B0895CF92DD
:10286000DF92EF92FF920F931F93CF93DF938C0130
:102870007B016A0185E090E0FB01808391830E94E7
:102880002C75B8010E945F5FEC018E32910549F012
:102890008F32910549F08C32910551F40E945458C1
:1028A00007C00E94975402C00E947654CBE2D0E049
:1028B000CE018B97029758F0CE32D10541F0CF323E
:1028C000D10529F0CE01B701A6010E94FF13CE0168
:1028D000DF91CF911F910F91FF90EF90DF90CF90FC
:1028E0000895EF92FF920F931F93CF93DF938C0184
:1028F0007B010E942C756AE270E00E947B60EC0113
:102900008A32910521F0B801A7010E94FF13CE0180
:10291000DF91CF911F910F91FF90EF900895EF926B
:10292000FF920F931F93CF93DF938C017B010E9443
:102930002C7569E270E00E940961EC018932910511
:1029400021F0B801A7010E94FF13CE01DF91CF91C2
:102950001F910F91FF90EF900895EF92FF920F93C8
:102960001F93CF93DF938C017B010E942C7568E24B
:1029700070E00E949761EC018832910521F0B80166
:10298000A7010E94FF13CE01DF91CF911F910F91FC
:10299000FF90EF900895EF92FF920F931F93CF93C4
:1029A000DF938C017B010E942C7567E270E00E942E
:1029B000125FEC018732910521F0B801A7010E9456
:1029C000FF13CE01DF91CF911F910F91FF90EF90F8
:1029D0000895CF93DF93EC018932910589F18A3212
:1029E000910550F487329105E9F08832910508F598
:1029F00083309105D1F507C08A32910541F18033CA
:102A0000910598F52BC085E090E080936A20909323
:102A10006B201092A03C1092A13C0E946935C7E245
:102A2000D0E023C08AE690E260EA7CE30E94CB1407
:102A30001BC08AE690E260EA7CE30E94AD1414C0F9
:102A40008AE690E260EA7CE30E948F140DC08AE679
:102A500090E260EA7CE30E94711406C06AE670E2CC
:102A600040EA5CE30E942F14EC010E94F2040E94F1
:102A7000B9598AE690E260EA7CE30E94511088230B
:102A800011F0C0E0D0E0CE01DF91CF9108959C011C
:102A9000FB01DA0185E090E0808391831D921C9216
:102AA0002431310509F441C025313105A8F4203124
:102AB000310579F12131310540F42E30310519F11C
:102AC0002F30310509F045C021C02231310539F1DF
:102AD0002331310538F520C02731310579F128310E
:102AE000310538F42531310519F12631310589F5E3
:102AF00022C02A31310541F12B31310541F1293113
:102B0000310539F51EC00E942A3E08950E94113EEB
:102B100008950E94FE3D08950E94E53D08950E949B
:102B2000653E08950E94523E08950E94C63D089554
:102B30000E94B33D08950E943F3E08950E946A3F5F
:102B400008950E94783E08950E94663D08950E946F
:102B5000533D0895EF92FF920F931F93CF93DF930E
:102B60008C017B010E942C756BE170E00E94256254
:102B7000EC018B31910521F0B801A7010E944715A6
:102B8000CE01DF91CF911F910F91FF90EF900895AB
:102B9000EF92FF920F931F93CF93DF938C017B01F2
:102BA0000E942C756AE170E00E945767EC018A313F
:102BB000910521F0B801A7010E944715CE01DF91D0
:102BC000CF911F910F91FF90EF900895EF92FF9298
:102BD0000F931F93CF93DF938C017B010E942C7581
:102BE00069E170E00E940764EC010E947B45C931F5
:102BF000D10529F0CE01B801A7010E944715CE01E9
:102C0000DF91CF911F910F91FF90EF900895EF9278
:102C1000FF920F931F93CF93DF937C018B018091E1
:102C2000A23C882319F0C8E1D0E002C0C7E1D0E09F
:102C30000E942C75BE010E947669EC0188319105D5
:102C400009F049C081E290E00E948F48882349F052
:102C50008DE090E00E94495785E090E00E9449573E
:102C600031C08091A23C882379F481E08093A23C1A
:102C700084E090E0F7018083918388E790E0F80199
:102C8000808391830E94C151F8014081518181E18B
:102C900064E60E947E2FF80180819181892B21F5C5
:102CA0001092A23C8DE090E00E949E4F85E090E063
:102CB0000E949E4F0E947A5181E164E642E024E145
:102CC0000E94B3318FE061E043E150E00E94992619
:102CD000C7E1D0E009C08731910531F01092A23CE4
:102CE000B701A8010E944715CE01DF91CF911F9136
:102CF0000F91FF90EF900895EF92FF920F931F9323
:102D0000CF93DF938C017B010E942C7566E170E00C
:102D10000E94E96AEC018631910521F0B801A70112
:102D20000E944715CE01DF91CF911F910F91FF9027
:102D3000EF900895EF92FF920F931F93CF93DF933D
:102D40008C017B010E942C7565E170E00E94B86DDA
:102D5000EC018531910521F0B801A7010E944715CA
:102D6000CE01DF91CF911F910F91FF90EF900895C9
:102D7000EF92FF920F931F93CF93DF938C017B0110
:102D80000E942C7564E170E00E943965EC01843189
:102D9000910521F0B801A7010E944715CE01DF91EE
:102DA000CF911F910F91FF90EF900895EF92FF92B6
:102DB0000F931F93CF93DF938C017B010E942C759F
:102DC00063E170E00E94D86EEC018331910521F03F
:102DD000B801A7010E944715CE01DF91CF911F9145
:102DE0000F91FF90EF900895EF92FF920F931F9332
:102DF000CF93DF938C017B010E942C7562E170E020
:102E00000E94A56CEC018231910521F0B801A70167
:102E10000E944715CE01DF91CF911F910F91FF9036
:102E2000EF900895EF92FF920F931F93CF93DF934C
:102E30008C017B010E942C7561E170E00E94A36609
:102E4000EC018131910521F0B801A7010E944715DD
:102E5000CE01DF91CF911F910F91FF90EF900895D8
:102E6000EF92FF920F931F93CF93DF938C017B011F
:102E70000E942C7560E170E00E941470EC018031BA
:102E8000910521F0B801A7010E944715CE01DF91FD
:102E9000CF911F910F91FF90EF900895EF92FF92C5
:102EA0000F931F93CF93DF938C017B010E942C75AE
:102EB0006FE070E00E94A071EC018F30910521F06D
:102EC000B801A7010E944715CE01DF91CF911F9154
:102ED0000F91FF90EF900895EF92FF920F931F9341
:102EE000CF93DF938C017B010E942C756EE070E024
:102EF0000E940E5CEC018E30910521F0B801A70113
:102F00000E944715CE01DF91CF911F910F91FF9045
:102F1000EF900895CF93DF93EC018431910509F48C
:102F200075C085319105E0F48031910509F452C0F6
:102F30008131910560F48E309105F1F18F3091056A
:102F400008F041C08230910509F091C026C082315D
:102F5000910509F44DC08331910508F050C041C07E
:102F60008831910509F467C08931910548F48631AB
:102F7000910509F459C08731910508F05CC04DC036
:102F80008A31910509F465C08A31910508F45AC067
:102F90008B31910509F06BC063C085E090E08093B0
:102FA0006C2090936D201092A33C1092A43C0E9440
:102FB0002A3ECEE0D0E05BC08CE690E263EA7CE3A0
:102FC0000E946C1753C08CE690E263EA7CE30E9497
:102FD0004E174CC08CE690E263EA7CE30E94301707
:102FE00045C08CE690E263EA7CE30E9412173EC083
:102FF0008CE690E263EA7CE30E94F41637C08CE62C
:1030000090E263EA7CE30E94D61630C08CE690E240
:1030100063EA7CE30E94B81629C08CE690E263EA7A
:103020007CE30E949A1622C08CE690E263EA7CE37D
:103030000E947C161BC08CE690E263EA7CE30E944F
:10304000071614C08CE690E263EA7CE30E94E61562
:103050000DC08CE690E263EA7CE30E94C81506C0CE
:103060008CE690E263EA7CE30E94AA15EC010E94E0
:10307000F2040E94B4598CE690E263EA7CE30E9479
:103080005110882331F0689711F40E941553C0E065
:10309000D0E0CE01DF91CF910895CF93DF93EC0183
:1030A000CB01BA010E945110882341F080E060E01A
:1030B00045E050E00E941947C0E0D0E0CE01DF912A
:1030C000CF9108959C0162307105D1F481E190E0C7
:1030D0000E948F488093AB3C882329F41092722081
:1030E00085E190E008C081E08093AB3C85E080936F
:1030F000722087E090E08093702090937120089573
:1031000080917020909171206231710549F40E9484
:10311000EE348091AB3C609172200E94F3390895A7
:10312000459709F478C06130710509F074C0809149
:10313000AC3C9091AD3C8217930739F12093AC3CA5
:103140003093AD3C80917220882389F48CE3809386
:1031500072208091AB3C882319F081508093AB3C66
:103160004091AB3C8DE067E850E00E94C32A80911B
:103170007220882319F08150809372204091722030
:103180008DE063E950E00E94C32A80917020909105
:10319000712088309105F9F48091AB3C8823D9F5F2
:1031A000809172208823B9F587E090E080937020A9
:1031B0009093712082E190E00E948F488093AB3C15
:1031C0001092722086E066E84BE050E00E94F625FF
:1031D0000E94645108950797F1F48091AB3C8823D5
:1031E000D1F4809172208823B1F488E090E080933C
:1031F00070209093712081E190E00E948F4880932D
:10320000AB3C1092722086E066E840E050E00E94FD
:10321000F6250E94AF5108950F931F93CF93DF932C
:10322000EC018B014230510501F583E190E00E94F1
:103230008F488093AF3C882349F41092AE3C85E1DF
:1032400090E0809373209093742021C01092B03C42
:1032500081E08093AF3C82E08093AE3C87E090E0D9
:103260008093732090937420F8C04131510509F484
:10327000F4C060917320709174204231510521F4A3
:103280000E94E73E87E0E5C06531710519F425E14C
:1032900030E0E7C04F30510599F46830710509F00E
:1032A000DCC08D30910521F08A30910509F0D5C040
:1032B000CE0168E070E00E94E73E0E94F951CDC067
:1032C0004330510559F46830710509F0C6C068E013
:1032D00070E00E94E73E0E94E251BFC041305105BC
:1032E00009F0BBC06830710571F58133910559F162
:1032F0008091AF3C882339F58091AE3C882309F05A
:1033000059C087E090E0809373209093742086E109
:1033100090E00E948F488093B03C84E190E00E944E
:103320008F488093AF3C82E08093AE3CCE0167E053
:1033300070E00E94E73E87E06EEA7CE30E94033A79
:103340000E94E25137C067307105A1F5C133D10544
:1033500089F18091B03C882369F58091AF3C882346
:1033600049F58091AE3C882329F5CD30D10519F07F
:10337000CA30D105F9F488E090E0809373209093EF
:1033800074201092B03C83E190E00E948F488093BB
:10339000AF3C82E08093AE3C6091732070917420CA
:1033A000CE010E94E73E87E06EEA7CE30E94033A8A
:1033B0000E94F9518091732090917420873091057B
:1033C00049F0CD30D10519F02A9709F046C0089789
:1033D00009F043C08091B13C9091B23C80179107B5
:1033E000E1F10093B13C1093B23C8091AE3C882354
:1033F00041F59091AF3C992321F48091B03C882312
:1034000029F08CE38093AE3C992379F49091B03C01
:10341000992359F08CE38093AF3C91509093B03C4A
:1034200086E06EEA7CE30E94033A8091AF3C8823F9
:1034300019F081508093AF3C82E06EEA7CE30E94F9
:10344000033A8091AE3C882319F081508093AE3CC2
:1034500081E06EEA7CE30E94033A20917320309170
:103460007420C901DF91CF911F910F910895EF92C0
:10347000FF920F931F93CF93DF93EC017B014230B8
:10348000510559F40E94AF3E8093B53C9093B63CF1
:103490001092B33C1092B43C28C14F30510551F406
:1034A0008C30910521F08930910509F01EC10E94F0
:1034B000C1511BC14330510551F48C30910521F0AD
:1034C0008930910509F011C10E947A510EC1453031
:1034D000510549F40E94383C8091B53C6091B33C61
:1034E0000E94293A02C14130510509F0FEC0809185
:1034F000B53C9091B63C892B09F09FC08091B33CBC
:103500009091B43C892B09F098C0CC30D105C1F022
:10351000CD30D10540F4C930D10591F0CA30D10584
:1035200009F08BC03AC0CE31D10509F459C0CF3172
:10353000D10509F472C0CD30D10509F07EC02DC08F
:10354000CE0161E070E00E94E44F8C0165E070E024
:103550000E94E44F0E947A51C017D10741F0C80180
:1035600060E070E043E050E00E940C19BFC0CC3036
:10357000D10519F4CDE0D0E005C0C930D10511F472
:10358000CAE0D0E0CE010E94383CCE0160E070E09D
:103590004FE050E00E940C1917C0CE0160E070E0CF
:1035A00043E050E00E940C190E94C151CD30D1057A
:1035B00019F4CCE0D0E005C0CA30D10511F4C9E05F
:1035C000D0E0CE010E94383CCE010E94AF3E8093F5
:1035D000B53C9093B63C1092B33C1092B43C2DC0D5
:1035E0008EE190E061E070E00E94E44F8EE190E0B7
:1035F00065E070E00E94E44F0E947A518FE190E014
:103600000E94AF3E8093B53C9093B63C1092B33C81
:103610001092B43CCFE1D0E010C00E94C1518EE1C5
:1036200090E00E94AF3E8093B53C9093B63C1092E0
:10363000B33C1092B43CCEE1D0E08091B73C909185
:10364000B83CE816F90649F1E092B73CF092B83C74
:103650008091B33C9091B43C892BA1F4C133D10546
:1036600089F08CE390E08093B33C9093B43C8091DC
:10367000B53C9091B63C009729F001978093B53CFA
:103680009093B63C8091B33C9091B43C009729F064
:1036900001978093B33C9093B43CCE014E97029730
:1036A00020F1C930D10531F0CC30D10519F0C1334A
:1036B000D10589F46091B33C7091B43C8091B53CE4
:1036C0009091B63C0E9493408BE090E06091B53CB5
:1036D0000E94E7100AC06091B33C7091B43C8091A5
:1036E000B53C9091B63C0E946D408E01C801DF91BF
:1036F000CF911F910F91FF90EF9008950F931F931B
:10370000CF93DF93EB018A0182329105A1F18332DD
:10371000910588F48E319105F1F08F31910520F4F7
:103720004C9709F06AC062C080329105B9F0819768
:1037300009F063C01DC08432910509F446C084328B
:10374000910508F43FC08532910509F448C0869779
:1037500009F053C049C089E090E002C08CE090E0DD
:1037600060E070E042E050E00E94371A0E94C151D0
:103770008CE390E03DC08FE062E045E028E70E94E6
:10378000B33181E16FE04DE550E20E94F12E8FE010
:1037900065E542E150E00E94F6258EE190E08883E5
:1037A0009983F801108211824881598181E16CE787
:1037B0000E94CC2FF8014081518181E16EE80E9486
:1037C000CC2F1BC00E94D75111C00E94B351188248
:1037D00019828AE090E0F801808391830EC00E94F4
:1037E000AF518EE190E004C00E94F95185E090E075
:1037F00088839983F80110821182DF91CF911F9104
:103800000F910895EF92FF920F931F93CF93DF9341
:103810008C017B010E942C7566E270E00E943C7373
:10382000B801A7010E944D18EC018632910539F0CC
:103830000E94E251CE01B801A7010E947E1BF8014F
:1038400080819181F70160810E94D43FCE01DF9198
:10385000CF911F910F91FF90EF900895EF92FF92FB
:103860000F931F93CF93DF938C017B010E942C75E4
:1038700065E270E00E943C73B801A7010E944D18F8
:10388000EC018532910539F00E946451CE01B801F6
:10389000A7010E947E1BF80180819181F701608160
:1038A0000E94D43FCE01DF91CF911F910F91FF90E5
:1038B000EF900895EF92FF920F931F93CF93DF93B2
:1038C0008C017B010E942C7564E270E00E943C73C5
:1038D000B801A7010E944D18EC018432910539F01E
:1038E0000E946851CE01B801A7010E947E1BF80119
:1038F00080819181F70160810E94D43FCE01DF91E8
:10390000CF911F910F91FF90EF900895EF92FF924A
:103910000F931F93CF93DF938C017B010E942C7533
:1039200063E270E00E943C73B801A7010E944D1849
:10393000EC018332910539F00E949051CE01B8011B
:10394000A7010E947E1BF80180819181F7016081AF
:103950000E94D43FCE01DF91CF911F910F91FF9034
:10396000EF900895EF92FF920F931F93CF93DF9301
:103970008C017B010E942C7562E270E00E943C7316
:10398000B801A7010E944D18EC018D31910591F409
:1039900081E08093A63CF801C083D1838AE390E064
:1039A000F70180839183F801808191816AE30E940D
:1039B000FF3F1EC082329105D9F08EE062E048E000
:1039C00028E70E94B3318091A63C882311F00E9421
:1039D0004652CE01B801A7010E947E1BF8018081EA
:1039E0009181F70160810E94FF3F1092A63C28C0A0
:1039F0008091A63C8823C9F40E94AF598091A53CD0
:103A00008F5F8093A53C8D3731F481E16FE04DE508
:103A100050E20E94392D8091A53C8A3F31F481E12A
:103A20006FE04DE550E20E94F12E8091A63C882384
:103A300039F0F80180819181F70160810E94D43FC3
:103A4000CE01DF91CF911F910F91FF90EF900895DC
:103A5000EF92FF920F931F93CF93DF938C017B0123
:103A60000E942C7561E270E00E943C73B801A701CE
:103A70000E944D18EC018132910521F0B801A70197
:103A80000E947E1BF80180819181F70160810E9474
:103A9000D43FCE01DF91CF911F910F91FF90EF9016
:103AA0000895EF92FF920F931F93CF93DF938C01B2
:103AB0007B010E942C7560E270E00E943C73B801AB
:103AC000A7010E944D18EC018032910541F00E943F
:103AD0007A51CE01B801A7010E947E1B07C0F801F0
:103AE00080819181F70160810E94D43FCE01DF91F6
:103AF000CF911F910F91FF90EF900895EF92FF9259
:103B00000F931F93CF93DF938C017B010E942C7541
:103B10006CE170E00E943C73B801A7010E944D184F
:103B2000EC018C31910521F0B801A7010E947E1BA8
:103B3000F80180819181F70160810E94D43FCE011C
:103B4000DF91CF911F910F91FF90EF900895CF9249
:103B5000DF92EF92FF920F931F93CF93DF936C014D
:103B60007B018A010E942C75B6010E943C73B7014B
:103B7000A8010E944D18EC014E97029760F08EE16B
:103B8000C816D10411F40E947A51CE01B701A801E0
:103B90000E947E1B10C0F70180819181F801608135
:103BA0000E94D43FF80160817181CE0141E050E074
:103BB0000E94371AEC01CE01DF91CF911F910F9136
:103BC000FF90EF90DF90CF900895CF93DF93EC01BB
:103BD0008032910509F44CC08132910578F48D3121
:103BE000910509F453C08E319105D8F581309105C6
:103BF00009F18C31910509F06CC02CC0833291051C
:103C000009F44BC08432910540F481329105B9F139
:103C10008232910509F05DC039C08532910509F401
:103C20004AC08532910508F43FC08632910509F0FB
:103C300050C048C085E090E080936E2090936F2044
:103C40001092A93C1092AA3C60E00E942040CCE176
:103C5000D0E03FC08EE690E269EA7CE30E947E1DE0
:103C600037C06EE670E249EA5CE30E94A71D30C0EF
:103C70008EE690E269EA7CE30E94511D29C08EE63F
:103C800090E269EA7CE30E94281D22C08EE690E261
:103C900069EA7CE30E94B21C1BC08EE690E269EAEE
:103CA0007CE30E94861C14C08EE690E269EA7CE305
:103CB0000E945A1C0DC08EE690E269EA7CE30E94E5
:103CC0002E1C06C08EE690E269EA7CE30E94021C8C
:103CD000EC010E94F20481E090E00E94C5228091F4
:103CE000A73C9091A83C81509D4774F01092A73C4E
:103CF0001092A83C0E94A32482E090E00E948F5979
:103D000081E090E00E944E358091A73C9091A83CC4
:103D100001968093A73C9093A83CCE01DF91CF9170
:103D200008950F931F93CF93DF93EC01162F042F69
:103D30008DE060E046E020EA0E94B3310E944641F7
:103D400085E060E042E023E20E94B331CB30D10550
:103D500098F4C930D10570F5C630D105B9F0C73037
:103D6000D10518F4209779F02CC0C730D10599F00F
:103D7000C830D10531F519C0CB30D10589F0CE302E
:103D8000D105F8F417C00E9491411BC0812F602F0C
:103D90000E94883C16C0812F602F0E94713C11C088
:103DA000812F602F0E94483F0CC0812F602F0E94FE
:103DB000504007C0CE0160E070E045E050E00E9456
:103DC000371A80E090E062E170E00E946218CE0154
:103DD00060E070E042E150E00E940C19DF91CF9169
:103DE0001F910F910895CF92DF92EF92FF921F9350
:103DF000CF93DF93EC017B016A018B309105A8F42E
:103E00008930910508F08CC08630910519F1873012
:103E1000910518F4009789F0BAC08730910571F1C7
:103E20008830910509F0B3C055C08B309105E1F1A0
:103E30008E30910508F0ABC073C0FB0160817181C9
:103E4000FA014081518180E090E00E94911E0E9421
:103E50004A519DC0FA011082118282E090E0FB017C
:103E600080839183FA014081518186E090E062E095
:103E700070E00E94911E0E94C15189C0FA01108217
:103E8000118288E090E00E948F48682FF7018083BC
:103E90001182F6014081518187E090E070E00E943C
:103EA000911E0E949B5173C0FA011082118289E019
:103EB00090E00E948F48682FF70180831182F601FD
:103EC000408151818BE090E070E00E94911E0E9441
:103ED0005A525DC08BE090E00E948F48F7018083CA
:103EE00011828CE090E00E948F48482F50E0F6014C
:103EF00040835183F701608171816115710549F437
:103F00004115510531F481E090E0F6018083918301
:103F10003EC088E090E00E94911E0E94D75137C0B9
:103F2000F60110821182CE010997029740F482E0D7
:103F300090E00E948F48182F83E090E007C086E051
:103F400090E00E948F48182F87E090E00E948F48F1
:103F5000312F20E090E0282B392BF701208331838B
:103F6000F70160817181F60140815181CE010E948B
:103F7000911ECE0160E070E04FE050E00E94371AE1
:103F8000CE0160E070E04FE050E00E940C19DF913C
:103F9000CF911F91FF90EF90DF90CF900895CF9237
:103FA000DF92EF92FF920F931F93CF93DF937B01EA
:103FB0006A01FA0100811181FB0160817181A80110
:103FC0000E94AF0CB80141E050E00E94371AEC01AA
:103FD000C701B6010E945110882381F0C133D10579
:103FE00069F0CE0160E070E043E050E00E940C19FF
:103FF0002C9711F40E947A51C7E0D0E0CE01DF91F6
:10400000CF911F910F91FF90EF90DF90CF90089587
:10401000EF92FF920F931F93CF93DF938C017B015D
:10402000FB0160817181FC01808191810E9493403C
:10403000F80160817181F701408151818BE090E04E
:104040000E94AF0CEC01C801B7010E9451108823F7
:1040500039F0E19729F00E94465228E030E002C092
:104060002BE030E0C901DF91CF911F910F91FF90BC
:10407000EF900895EF92FF920F931F93CF93DF93EA
:104080008C017B01FB0160817181FC018081918148
:104090000E946D40F80160817181F701408151817A
:1040A00087E090E00E94AF0CEC01C801B7010E94CC
:1040B0005110882329F0E19719F02BE030E002C07D
:1040C00027E030E0C901DF91CF911F910F91FF9060
:1040D000EF900895EF92FF920F931F93CF93DF938A
:1040E0008C017B01FB0160817181FC0180819181E8
:1040F0000E9493408BE090E0F80160810E94E710FD
:10410000F80160817181F7014081518186E090E082
:104110000E94AF0CEC01C801B7010E945110882326
:1041200061F0E19751F086E090E061E070E00E947C
:10413000E44FEC010E947A5102C0C6E0D0E0CE010B
:10414000DF91CF911F910F91FF90EF900895AF9263
:10415000BF92CF92DF92EF92FF920F931F93CF9374
:10416000DF935C017B016A01FA0100811181FB018F
:1041700060817181A8010E94AF0CB80141E050E05C
:104180000E94371AEC01C701B6010E945110882322
:10419000F9F0C133D10501F187E190E00E948F4829
:1041A000882339F0CE0164E370E00E94D83288237E
:1041B00091F0CE0160E070E043E050E00E940C1905
:1041C000299711F40E947A511CE0A12EB12C04C051
:1041D000C133D10509F05E01C501DF91CF911F9177
:1041E0000F91FF90EF90DF90CF90BF90AF90089528
:1041F000EF92FF920F931F93CF93DF938C017B017C
:10420000FB0160817181FC01808191810E9493405A
:10421000F80160817181F7014081518188E090E06F
:104220000E94AF0CEC01C801B7010E945110882315
:1042300039F1E19729F10E94905181E390E060E02B
:104240000E94E71080E090E060E042E050E00E94D1
:10425000A94788E190E060E00E94E7108EE190E0DD
:104260000E948F48882349F081E290E00E948F48A5
:10427000882319F426E030E005C029E030E002C0D0
:1042800028E030E0C901DF91CF911F910F91FF909D
:10429000EF900895EF92FF920F931F93CF93DF93C8
:1042A000EC018B309105B8F48930910508F0AAC073
:1042B0008630910509F479C08730910518F400978C
:1042C00099F0E1C08730910509F47AC088309105F2
:1042D00009F0D9C08CC08B30910509F47DC08E30B7
:1042E000910508F0D0C0ADC00E949141C0917720E7
:1042F000D09178208091B93C882361F0809175201D
:1043000090917620892B41F587E190E00E948F48BB
:10431000882311F581E08093B93C89E090E060E06A
:1043200070E042E050E00E94371ACE0160E070E099
:1043300042E050E00E940C1980E090E062E070E002
:104340000E9462180E944A51CE0165E770E24CEB70
:104350005CE30E94F31E97C0E090752010917620D8
:10436000F090BC3C0091BD3CCE0165E770E24CEBA7
:104370005CE30E94F31EE092752010937620F09289
:10438000BC3C0093BD3CCE010C97029708F47BC067
:10439000C930D10509F477C0CA30D10509F473C01A
:1043A0008E2D6F2D0E94293A6EC0809377209093B6
:1043B000782085E790E26CEB7CE30E946A200AC0DB
:1043C000809377209093782085E790E26CEB7CE3F4
:1043D0000E943A20EC0157C0809377209093782078
:1043E00085E790E26CEB7CE30E940820F3CF80939A
:1043F00077209093782085E790E26CEB7CE30E9435
:10440000F820E8CF809377209093782065E770E2DA
:104410004CEB5CE30E94A720EC018930910539F454
:1044200080917720909178200A9769F528C08A308A
:10443000910549F58091772090917820099719F599
:104440001EC0809377209093782065E770E24CEB54
:104450005CE30E94CF1FEC018C30910539F4809110
:104460007720909178200D9771F409C08D309105D7
:1044700051F480917720909178200C9721F4C0938B
:104480007720D09378200E942C75BE0145E750E23A
:104490002CEB3CE30E94427461E070E00E94C5573F
:1044A000EC018091772090917820C817D90739F0D6
:1044B000CE0165E770E24CEB5CE30E94F31E0E94C4
:1044C000F20481E090E00E94C5226091BC3C7091B2
:1044D000BD3CCE0141E050E00E940C198091BC3CF3
:1044E0009091BD3C61E070E00E94621880E090E035
:1044F00061E070E00E94024F8091BA3C9091BB3C19
:104500008A30910539F40E94A32482E090E00E9451
:104510008F592AC027E28031920729F480E090E089
:104520000E944E3521C02EE48032920759F480E07B
:1045300060E00E94B42482E090E00E94A6440E94C1
:104540007A4412C0815395477CF060917520709138
:1045500076204091BC3C5091BD3CCE010E94911E02
:104560001092BA3C1092BB3C8091BA3C9091BB3CFB
:1045700001968093BA3C9093BB3CCE01DF91CF91E2
:104580001F910F91FF90EF9008959C018730910546
:1045900001F18830910540F48130910519F18330A3
:1045A000910509F061C05CC08830910529F0833124
:1045B000910509F059C011C088E0E0E4F6E0858378
:1045C0002093533A3093543A1092BE3C1092BF3C21
:1045D000089588E0E0E4F6E086832093533A309330
:1045E000543A08958091533A9091543A8830910505
:1045F000D9F48091BE3C9091BF3C01968093BE3C23
:104600009093BF3C8153954778F11092BE3C109235
:10461000BF3C88E0E0E4F6E0868387E090E08093AA
:10462000533A9093543A08954397F1F48091BE3CE5
:104630009091BF3C01968093BE3C9093BF3C31E08B
:104640008139930788F0E0E4F6E028E02683815D75
:10465000974050F01092BE3C1092BF3C25830895C5
:104660001092BE3C1092BF3C0895E0E4F6E084E076
:10467000818386830895282F80FD02C090E001C0C9
:1046800093E021FD945F22FD905D23FD9054892FDE
:1046900008959C01462F8DE3B9010E94FE7908958B
:1046A0009C01462F8CE3B9010E94FE79982F81511D
:1046B000843010F481E0089580E0963109F481E0BF
:1046C00008950F931F93DF93CF930F92CDB7DEB76B
:1046D00086EA89838E010F5F1F4FC80161E00E9447
:1046E00050238823D1F70F90CF91DF911F910F9125
:1046F00008950F931F93DF93CF930F92CDB7DEB73B
:1047000087EA89838E010F5F1F4FC80161E00E9415
:1047100050238823D1F70F90CF91DF911F910F91F4
:1047200008950F931F93DF93CF930F92CDB7DEB70A
:1047300082EE89838E010F5F1F4FC80161E00E94E6
:1047400050238823D1F70F90CF91DF911F910F91C4
:1047500008950F931F93DF93CF930F92CDB7DEB7DA
:1047600084EA89838E010F5F1F4FC80161E00E94B8
:1047700050238823D1F70F90CF91DF911F910F9194
:1047800008950F931F93DF93CF930F92CDB7DEB7AA
:1047900085EA89838E010F5F1F4FC80161E00E9487
:1047A00050238823D1F70F90CF91DF911F910F9164
:1047B00008950F931F93DF93CF9300D00F92CDB73F
:1047C000DEB794EF99838A8386EF8B836C838E01A7
:1047D0000F5F1F4FC80164E00E9450238823D1F768
:1047E0002496CDBFDEBFCF91DF911F910F91089529
:1047F0000F931F93DF93CF9300D00F92CDB7DEB707
:1048000095EF99838A8387EF8B836C838E010F5F8B
:104810001F4FC80164E00E9450238823D1F72496DB
:10482000CDBFDEBFCF91DF911F910F9108950F9300
:104830001F93DF93CF930F92CDB7DEB788EF8983B5
:104840008E010F5F1F4FC80161E00E945023882333
:10485000D1F70F90CF91DF911F910F9108950F9392
:104860001F93DF93CF930F92CDB7DEB789EF898384
:104870008E010F5F1F4FC80161E00E945023882303
:10488000D1F70F90CF91DF911F910F9108950F9362
:104890001F93DF93CF930F920F92CDB7DEB7982F70
:1048A000813A78F48F70898392959F70905F9A8394
:1048B0008E010F5F1F4FC80162E00E9450238823C2
:1048C000D1F70F900F90CF91DF911F910F91089525
:1048D0000F931F93DF93CF930F92CDB7DEB7982F2F
:1048E000905A893150F499838E010F5F1F4FC80190
:1048F00061E00E9450238823D1F70F90CF91DF9180
:104900001F910F910895EF92FF920F931F93082F1D
:10491000F62E142FE22E0E9468248F2D0E94472429
:104920000E942F24110F100F802F612F0E94F82357
:104930006F2D61506E0D8F2D0E94D9231F910F9105
:10494000FF90EF900895E0E4F6E088E0818384E052
:10495000818385830E94912387E49AE36BE00E9420
:1049600050238823C9F708952F923F924F925F9268
:104970006F927F928F929F92AF92BF92CF92DF926F
:10498000EF92FF920F931F93DF93CF93CDB7DEB7D4
:10499000C555D040CDBFDEBF3E010894611C711CDF
:1049A00090E5F30111929A95E9F750905B39F091F7
:1049B0005C396296FFAF62974F2F252D0E948324AA
:1049C000252C3324442492E0892E912CC301659632
:1049D0006FAE659766969FAF6697820D931D64963E
:1049E0008EAF9FAF64972BC0F50181915F018F70EF
:1049F0000E943B23F80181938F0164968EAD9FAD99
:104A000064970817190781F78DE3B301452D0E94BC
:104A1000FE790AC0F60181916F0182958F700E9424
:104A20003B23F70181937F01E016F10699F78DE3AF
:104A3000B301452D0E94FE794394820C931C62962B
:104A4000FFAD62974F1680F48BE5C82E89E3D82E10
:104A5000C80CD91C65968FAD659766969FAD669715
:104A60007C0156018301C9CF0E941724CB5ADF4F26
:104A7000CDBFDEBFCF91DF911F910F91FF90EF90DF
:104A8000DF90CF90BF90AF909F908F907F906F906E
:104A90005F904F903F902F9008952F923F924F92AA
:104AA0005F926F927F928F929F92AF92BF92CF92BE
:104AB000DF92EF92FF920F931F93DF93CF93CDB7C7
:104AC000DEB7C55AD040CDBFDEBF3E010894611CA1
:104AD000711C90EAF30111929A95E9F75090A93967
:104AE000F091AA39CF55DF4FF883C15AD0404F2FEC
:104AF000252D0E948324252C3324442432E0832E48
:104B0000912CC301CC55DF4F6882C45AD040CB559D
:104B1000DF4F9883C55AD040820D931DCE55DF4F8D
:104B200088839983C25AD0402DC0F50181915F01DD
:104B30008F700E943B23F80181938F01CE55DF4F88
:104B400088819981C25AD0400817190771F78DE3FF
:104B5000B301452D0E94FE790AC0F60181916F01D3
:104B600082958F700E943B23F70181937F01E016AD
:104B7000F10699F78DE3B301452D0E94FE79439428
:104B8000820C931CCF55DF4FF881C15AD0404F168D
:104B9000A0F429EAC22E29E3D22EC80CD91CCC5588
:104BA000DF4F8881C45AD040CB55DF4F9881C55A1A
:104BB000D0407C0156018301C1CF0E941724CB5500
:104BC000DF4FCDBFDEBFCF91DF911F910F91FF90DF
:104BD000EF90DF90CF90BF90AF909F908F907F909D
:104BE0006F905F904F903F902F9008952F923F923B
:104BF0004F925F926F927F928F929F92AF92BF92ED
:104C0000CF92DF92EF92FF920F931F93DF93CF9398
:104C1000CDB7DEB7AD97CDBFDEBF8A012E010894B8
:104C2000411C511C98E2F20111929A95E9F72090EB
:104C30003631F0913731F9A74F2F222D0E9483246E
:104C4000822C992429A5822F90E0FC018E9EC00120
:104C50008F9E900D9E9E900D1124809F5001819FEC
:104C6000B00C909FB00C112422E030E0A20EB31ED5
:104C700035013324C2014CA69DA7880D991D8AA732
:104C80009BA731C0F60181916F018F700E943B2379
:104C9000F80181938F012AA53BA50217130791F70D
:104CA0008DE3B201422D0E94FE7956E3C52E51E3F9
:104CB000D52ECA0CDB1C0AC0F60181916F018295CA
:104CC0008F700E943B23F70181937F01E016F1066C
:104CD00099F78DE3B201422D0E94FE793394A80C1E
:104CE000B91C680C791CF9A53F1658F446E3C42E8C
:104CF00041E3D42EC60CD71C8CA59DA57C01820156
:104D0000CACF0E941724AD96CDBFDEBFCF91DF91F1
:104D10001F910F91FF90EF90DF90CF90BF90AF90D9
:104D20009F908F907F906F905F904F903F902F90CB
:104D300008952F923F924F925F926F927F928F923F
:104D40009F92AF92BF92CF92DF92EF92FF920F931A
:104D50001F93DF93CF93CDB7DEB7AD97CDBFDEBF47
:104D60008A012E010894411C511C98E2F201119213
:104D70009A95E9F72090682AF091692AF9A74F2FB0
:104D8000222D0E948324822C992429A5822F90E031
:104D9000FC018E9EC0018F9E900D9E9E900D112451
:104DA000809F5001819FB00C909FB00C112422E095
:104DB00030E0A20EB31E35013324C2014CA69DA7DC
:104DC000880D991D8AA79BA731C0F60181916F01BB
:104DD0008F700E943B23F80181938F012AA53BA588
:104DE0000217130791F78DE3B201422D0E94FE795D
:104DF00078E6C72E7AE2D72ECA0CDB1C0AC0F60171
:104E000081916F0182958F700E943B23F7018193FE
:104E10007F01E016F10699F78DE3B201422D0E9461
:104E2000FE793394A80CB91C680C791CF9A53F16BF
:104E300058F468E6C62E6AE2D62EC60CD71C8CA59E
:104E40009DA57C018201CACF0E941724AD96CDBFDB
:104E5000DEBFCF91DF911F910F91FF90EF90DF9018
:104E6000CF90BF90AF909F908F907F906F905F900A
:104E70004F903F902F9008952F923F924F925F92C4
:104E80006F927F928F929F92AF92BF92CF92DF925A
:104E9000EF92FF920F931F93DF93CF93CDB7DEB7BF
:104EA000AD97CDBFDEBF8A012E010894411C511C75
:104EB00098E2F20111929A95E9F720901E27F0915D
:104EC0001F27F9A74F2F222D0E948324822C99247B
:104ED00029A5822F90E0FC018E9EC0018F9E900D2F
:104EE0009E9E900D1124809F5001819FB00C909F39
:104EF000B00C112422E030E0A20EB31E35013324A1
:104F0000C2014CA69DA7880D991D8AA79BA731C0F9
:104F1000F60181916F018F700E943B23F80181930C
:104F20008F012AA53BA50217130791F78DE3B20164
:104F3000422D0E94FE79FEE1CF2EF7E2DF2ECA0C51
:104F4000DB1C0AC0F60181916F0182958F700E946F
:104F50003B23F70181937F01E016F10699F78DE37A
:104F6000B201422D0E94FE793394A80CB91C680C42
:104F7000791CF9A53F1658F4EEE1CE2EE7E2DE2EBD
:104F8000C60CD71C8CA59DA57C018201CACF0E94AE
:104F90001724AD96CDBFDEBFCF91DF911F910F914A
:104FA000FF90EF90DF90CF90BF90AF909F908F9049
:104FB0007F906F905F904F903F902F9008952F9229
:104FC0003F924F925F926F927F928F929F92AF9299
:104FD000BF92CF92DF92EF92FF920F931F93DF93D6
:104FE000CF93CDB7DEB72F97CDBFDEBF042F2E01F5
:104FF0000894411C511C9AE0F20111929A95E9F72C
:1050000020903B25F0913C25FB874F2F222D0E94BD
:105010008324622C772410E08B85282F30E0029FB8
:10502000C001039F900D129F900D1124869D400199
:10503000879D900C969D900C1124E2E0F0E08E0E7E
:105040009F1E269DC001279D900D369D900D112419
:10505000809F5001819FB00C909FB00C1124AE0E28
:10506000BF1E3324C2014E869F87860D971D8C87F5
:105070009D8731C0F60181916F018F700E943B23A3
:10508000F80181938F018C859D850817190791F789
:105090008DE3B201422D0E94FE79BBE3CB2EB5E237
:1050A000DB2EC80CD91C0AC0F60181916F018295D4
:1050B0008F700E943B23F70181937F01E016F10678
:1050C00099F78DE3B201422D0E94FE793394860C4C
:1050D000971CA60CB71CFB853F1658F4ABE3CA2EF1
:1050E000A5E2DA2ECA0CDB1C8E859F857C0182012D
:1050F000CACF0E9417242F96CDBFDEBFCF91DF917C
:105100001F910F91FF90EF90DF90CF90BF90AF90E5
:105110009F908F907F906F905F904F903F902F90D7
:105120000895FF920F931F93CF93DF93F82E062FCE
:10513000EA0110E0FE01E10FF11D408140538F2D87
:10514000602F0E94DF2780913B25080F1F5FFE0123
:10515000E10FF11D8081882369F7DF91CF911F91C5
:105160000F91FF9008952F923F924F925F926F920E
:105170007F928F929F92AF92BF92CF92DF92EF92E7
:10518000FF920F931F93DF93CF93CDB7DEB72F9787
:10519000CDBFDEBF042F2E010894411C511C9AE0A4
:1051A000F20111929A95E9F720907E25F0917F25E2
:1051B000FB874F2F222D0E948324622C772410E03E
:1051C0008B85282F30E0029FC001039F900D129F16
:1051D000900D1124869D4001879D900C969D900C0A
:1051E0001124E2E0F0E08E0E9F1E269DC001279D57
:1051F000900D369D900D1124809F5001819FB00C21
:10520000909FB00C1124AE0EBF1E3324C2014E86F7
:105210009F87860D971D8C879D8731C0F6018191F0
:105220006F018F700E943B23F80181938F018C8561
:105230009D850817190791F78DE3B201422D0E9451
:10524000FE798EE7C82E85E2D82EC80CD91C0AC07C
:10525000F60181916F0182958F700E943B23F701C7
:1052600081937F01E016F10699F78DE3B201422D9B
:105270000E94FE793394860C971CA60CB71CFB8504
:105280003F1658F41EE7C12E15E2D12ECA0CDB1CC6
:105290008E859F857C018201CACF0E9417242F969C
:1052A000CDBFDEBFCF91DF911F910F91FF90EF90A7
:1052B000DF90CF90BF90AF909F908F907F906F9036
:1052C0005F904F903F902F900895FF920F931F9300
:1052D000CF93DF93F82E062FEA0110E0FE01E10FD5
:1052E000F11D408140538F2D602F0E94B328809183
:1052F0007E25080F1F5FFE01E10FF11D80818823CD
:1053000069F7DF91CF911F910F91FF900895AF92B0
:10531000BF92CF92DF92EF92FF920F931F93DF9392
:10532000CF93CDB7DEB72A97CDBFDEBFB82EA62E5E
:10533000FE0131968AE0DF011D928A95E9F76A0144
:1053400057FF02C0CC24DD24C60160E177E20E9451
:10535000DF7A6983772767FD709580E197E2689F20
:105360008001699F100D789F100D1124C601801BCC
:10537000910B68EE73E00E94DF7A6A83772767FDFE
:10538000709588EE93E0689F7001699FF00C789F9C
:10539000F00C1124C701800F911FF601E81BF90BD7
:1053A000CF0164E670E00E94DF7A6B838CE96802CB
:1053B00090011124CF01820F931F6AE070E00E94D8
:1053C000DF7A6C838C2D820F801B8E1996EF690219
:1053D000B0011124860F8D83FE0131969E012A5F54
:1053E0003F4F8081805D8193E217F307D1F78B2DCA
:1053F0006A2DAE014F5F5F4F0E9465292A96CDBF8F
:10540000DEBFCF91DF911F910F91FF90EF90DF9062
:10541000CF90BF90AF900895CF92DF92EF92FF921E
:105420000F931F93DF93CF93CDB7DEB72A97CDBFEE
:10543000DEBFD82EC62EFE0131968AE0DF011D9216
:105440008A95E9F77A0157FF02C0EE24FF24C701CD
:1054500068EE73E00E94DF7A6983772767FD7095B5
:1054600088EE93E0689F8001699F100D789F100D72
:105470001124F701E01BF10BCF0164E670E00E94FC
:10548000DF7A6A8384E6680290011124CF01821BCF
:10549000930B6AE070E00E94DF7A6B838E2D801B95
:1054A000821B96EF6902B0011124860F8C83FE01E6
:1054B00031969E012B5F3F4F8081805D8193E21783
:1054C000F307D1F78D2D6C2DAE014F5F5F4F0E941A
:1054D00065292A96CDBFDEBFCF91DF911F910F9135
:1054E000FF90EF90DF90CF900895EF92FF920F938F
:1054F0001F93DF93CF93CDB7DEB72A97CDBFDEBF23
:10550000F82EE62E83E0483E58071CF007EE13E025
:1055100007C0141615061CF000E010E001C08A0157
:10552000C80164E670E00E94DF7A462FFE013196E2
:105530008AE0DF011D928A95E9F72CE96202900169
:105540001124C901800F911F6AE070E00E94DF7A88
:10555000200F86EF6802C0011124280F405D4983A7
:10556000605D6A83205D2B838F2D6E2DAF010E94BD
:1055700065292A96CDBFDEBFCF91DF911F910F9194
:10558000FF90EF9008950F931F93DF93CF93CDB7C4
:10559000DEB72A97CDBFDEBF182F062F4436510540
:1055A0001CF023E630E007C0141615061CF020E0BE
:1055B00030E001C09A01C9016AE070E00E94DF7A20
:1055C000FE0131968AE0DF011D928A95E9F786EFA8
:1055D0006802C0011124820F605D6983805D8A8347
:1055E000812F602FAF010E9465292A96CDBFDEBFB3
:1055F000CF91DF911F910F9108952F923F924F927B
:105600005F926F927F928F929F92AF92BF92CF9252
:10561000DF92EF92FF920F931F93DF93CF93CDB75B
:10562000DEB76797CDBFDEBF142FFE01319694E140
:10563000DF011D929A95E9F72090DC25B091DD25D8
:10564000BD8B4B2F222D0E948324422C5524812F69
:105650008F70A82FB0E0ED894E2F50E0449DF001EF
:10566000459DF00D549DF00D1124612F70E0607F79
:1056700070706115710511F061E070E0CA01880F6A
:10568000991F9A0113E0220F331F1A95E1F7820F39
:10569000931F9C01269FC001279F900D369F900D60
:1056A0001124A49F9001A59F300DB49F300D1124AB
:1056B000820F931F849D4001859D900C949D900CBA
:1056C000112482E090E0880E991EEA9F8001EB9FF2
:1056D000100DFA9F100D11240E5F1F4FCF0143E0F4
:1056E000880F991F4A95E1F7EE0FFF1F8E0F9F1F3E
:1056F000DC01A69FC001A79F900DB69F900D1124BD
:10570000080F191F33243E010894611C711CF3011A
:10571000E20DF11DEE8BFF8B31C0D5018D915D0146
:105720008F700E943B23F70181937F012E893F896F
:10573000E216F30691F78DE3B301422D0E94FE7944
:105740002CEDA22E25E2B22EA80CB91C0AC0D50160
:105750008D915D0182958F700E943B23F6018193AC
:105760006F01CE14DF0499F78DE3B301422D0E943F
:10577000FE793394840C951C040D151DFD893F168C
:1057800048F49CEDA92E95E2B92EA00EB11E63013E
:105790007301CCCF0E9417246796CDBFDEBFCF9197
:1057A000DF911F910F91FF90EF90DF90CF90BF900E
:1057B000AF909F908F907F906F905F904F903F90B1
:1057C0002F9008952F923F924F925F926F927F9207
:1057D0008F929F92AF92BF92CF92DF92EF92FF9201
:1057E0000F931F93DF93CF93CDB7DEB7E097CDBF75
:1057F000DEBF8AA76BA78A012CA72E010894411C43
:10580000511C88E2F20111928A95E9F720905736EF
:10581000F0915836F9A78AA56BA54F2F222D0E942B
:105820008324822C992429A5822F90E0FC018E9E4E
:10583000C0018F9E900D9E9E900D1124809F50015F
:10584000819FB00C909FB00C112422E030E0A20E9A
:10585000B31E35013324C2014FA698AB880D991DA4
:105860008DA79EA731C0F60181916F018F700E94B4
:105870003B23F80181938F012DA53EA50217130745
:1058800091F78DE3B201422D0E94FE7997E5C92E72
:1058900096E3D92ECA0CDB1C0AC0F60181916F0178
:1058A00082958F700E943B23F70181937F01E01660
:1058B000F10699F78DE3B201422D0E94FE793394EF
:1058C000A80CB91C680C791CF9A53F1658F487E59B
:1058D000C82E86E3D82EC60CD71C8FA598A97C01AC
:1058E0008201CACF2CA5203248F43BA5335F3BA7E9
:1058F0008AA58F5F632F422F0E94FD2A0E941724E2
:10590000E096CDBFDEBFCF91DF911F910F91FF9049
:10591000EF90DF90CF90BF90AF909F908F907F904F
:105920006F905F904F903F902F9008952F923F92ED
:105930004F925F926F927F928F929F92AF92BF929F
:10594000CF92DF92EF92FF920F931F93DF93CF934B
:10595000CDB7DEB7AD97CDBFDEBF8A012E0108946B
:10596000411C511C98E2F20111929A95E9F720909E
:10597000F922F091FA22F9A74F2F222D0E948324B9
:10598000822C992429A5822F90E0FC01E89DC0017A
:10599000E99D900DF89D900D1124809F5001819FED
:1059A000B00C909FB00C112428E030E0A20EB31E82
:1059B00035013324C2014CA69DA7880D991D8AA7E5
:1059C0009BA731C0F60181916F018F700E943B232C
:1059D000F80181938F012AA53BA50217130791F7C0
:1059E0008DE3B201422D0E94FE7939EFC32E32E2DF
:1059F000D32ECA0CDB1C0AC0F60181916F0182957F
:105A00008F700E943B23F70181937F01E016F1061E
:105A100099F78DE3B201422D0E94FE793394A80CD0
:105A2000B91C680C791CF9A53F1658F429EFC22E51
:105A300022E2D22EC60CD71C8CA59DA57C0182012A
:105A4000CACF0E941724AD96CDBFDEBFCF91DF91A4
:105A50001F910F91FF90EF90DF90CF90BF90AF908C
:105A60009F908F907F906F905F904F903F902F907E
:105A70000895FF920F931F93CF93DF93F82E062F75
:105A8000EA0110E0FE01E10FF11D408150E04152BA
:105A900050408F2D602F0E94962C8091F922080F84
:105AA0001F5FFE01E10FF11D8081882359F7DF910F
:105AB000CF911F910F91FF900895CF92DF92EF92B7
:105AC000FF920F931F93DF93CF93CDB7DEB72A9743
:105AD000CDBFDEBFD82EC62EFE0131968AE0DF0193
