:106000000C945E300C947B300C947B300C947B3081
:106010000C947B300C947B300C947B300C947B3054
:106020000C947B300C947B300C947B300C947B3044
:106030000C947B300C947B300C947B300C947B3034
:106040000C947B300C947B300C947B300C947B3024
:106050000C947B300C947B300C947B300C947B3014
:106060000C947B300C947B300C947B300C947B3004
:106070000C947B300C947B300C947B300C947B30F4
:106080000C947B300C947B300C947B300C947B30E4
:106090000C947B30C232C232C232C232C232C232FD
:1060A000C232C432C432C432C432C432BF32C43247
:1060B000C432C432AA32AD32B032B73211241FBE5C
:1060C000CFEFD8E0DEBFCDBF11E0A0E0B1E0EEE75A
:1060D000F8E602C005900D92A031B107D9F711E0A2
:1060E000A0E1B1E001C01D92A032B107E1F70E942A
:1060F00024340C943D340C940030259A549A6B9AB5
:1061000010BA2D985C98739A0895F894E1E6F0E03F
:1061100080E8808310820895E0E6F0E08081886165
:1061200080838EE0808308950E948C300E948530A9
:1061300085E090E00E94E1330E947D300E9422338E
:1061400085E090E00E94E1330E94DD3381E00C9411
:10615000B533FF920F931F93CF93DF9364E670E004
:1061600082E090E00E94F83310E000E0A8950E94E1
:106170009233EC01888181110CC00E949233EC01B2
:1061800064E670E081E090E00E94F833882391F3A8
:1061900031C08830E1F42396F12C688170E0762FCD
:1061A0006627FE0131978081682B8F2D800F0E941A
:1061B000A831F394229684E0F812EFCF64E670E001
:1061C00082E090E00E94F8330E94353209C08130AD
:1061D00039F48A818E3021F4812F0E94D5310AC092
:1061E0000C5F003819F6812F0E94D5311F5F1034E3
:1061F00009F0BBCF8FE090E0DF91CF911F910F911D
:10620000FF900895CF92DF92EF92FF920F931F932A
:10621000CF93DF93CDB7DEB72A970FB6F894DEBFE2
:106220000FBECDBFE82EC62E8AE0E0E0F1E0DE0131
:10623000119601900D928A95E1F78E010C5F1F4F28
:10624000F12CDF2CDC0C40E06D2D8E2D0E9499315D
:10625000F8013197808341E06D2D8E2D0E94993198
:10626000F8018083F3940E5F1F4FF4E0FF12E9CF33
:10627000CE0101960E946D332A960FB6F894DEBFC8
:106280000FBECDBFDF91CF911F910F91FF90EF9087
:10629000DF90CF9008950F931F93CF93DF9364E621
:1062A00070E082E090E00E94F83300E010E00E948D
:1062B0009233EC01888181110CC00E949233EC0171
:1062C00064E670E081E090E00E94F833882391F367
:1062D00017C08A81833161F4612F802F0E940231BF
:1062E000A89564E670E082E090E00E94F83302C076
:1062F0008E3031F01C5F1038D1F60F5F0034B1F6EC
:106300008FE090E0DF91CF911F910F9108950C9451
:10631000000008950C9400180895802D08950C0134
:10632000089570E0660F771F782B462BE42FF72F28
:1063300008950F921F92EF93FF930E94913181E095
:1063400087BFC895802DFF91EF911F900F90089502
:10635000CF93DF93EB010F921F92EF93FF9340E0F7
:10636000682F80E00E9491310E0181E087BFE8959F
:1063700007B600FCFDCFFF91EF911F900F90DF91CA
:10638000CF9108950F921F92EF93FF9340E060E04A
:106390000E94913183E087BFE89507B600FCFDCFEE
:1063A000FF91EF911F900F900895CF93C82F0F92F8
:1063B0001F92EF93FF9340E060E00E94913183E0F1
:1063C00087BFE89507B600FCFDCF40E060E08C2F6A
:1063D0000E94913185E087BFE89507B600FCFDCFAC
:1063E000FF91EF911F900F90CF910895CF93DF937E
:1063F00000D01F92CDB7DEB781E089831A828DE08D
:106400008B83CE0101960E946D330F900F900F90F9
:10641000DF91CF910895CF93DF9300D01F92CDB736
:10642000DEB781E089831A828EE08B83CE010196EC
:106430000E946D330F900F900F90DF91CF910895D0
:10644000CF93DF9300D01F92CDB7DEB781E0898371
:106450001A8280E18B83CE0101960E946D330F90EA
:106460000F900F90DF91CF910895CF93DF9300D0DD
:106470001F92CDB7DEB781E089831A8282E18B83D8
:10648000CE0101960E946D330F900F900F90DF9117
:10649000CF910895CF93DF9300D01F92CDB7DEB791
:1064A00081E089831A8283E18B83CE0101960E9469
:1064B0006D330F900F900F90DF91CF910895CF9390
:1064C000DF9300D000D01F92CDB7DEB785E0EAE0C1
:1064D000F1E0DE01119601900D928A95E1F7CE016F
:1064E00001960E946D330F900F900F900F900F90B8
:1064F000DF91CF910895CF93DF9300D000D0CDB737
:10650000DEB782E089831A8286E08B838091100156
:106510008C83CE0101960E946D330F900F900F90E7
:106520000F90DF91CF910895CF93DF93EC010E94FC
:106530009233FC018081882339F18181882321F104
:10654000428150E044315105F8F4FA01E65BFF4C1A
:106550000C9437340E94203217C00E940B3212C0B4
:10656000CF30D10589F40E94353282E106C0CF30A8
:10657000D10551F40E944A3283E190E006C00E94A6
:106580005F3202C00E948731CE01DF91CF91089522
:1065900085309105E1F060F482309105A9F0039710
:1065A000D9F460958091100186238093100114C066
:1065B0008831910549F0209110018A31910551F0FF
:1065C0000F9751F4622B03C01092100105C0609325
:1065D000100102C0822F089580911001089590E269
:1065E0009093ED00EFEEF0E0808181608083109267
:1065F000F0001092F1009093F2001092F3001092CC
:10660000F4001092F5001092F6001092F7008081CD
:1066100080688083089580E090E09C0144E0220F30
:10662000331F4A95E1F72093ED002091EE00109280
:10663000EE001092EF001092FA0001968E30910554
:1066400061F70895559A569881E08093D8008FEFAE
:106650008093DA001092DB001092DF001092DE00CF
:106660000E940B3382E18093E2008CE08093E30090
:1066700087E38093E4001092E50082E08093D800E5
:106680008091D90082FFFCCF0E94EF3260E082E06F
:1066900090E00C94C83280E18093ED009091EE0080
:1066A000892F807496FF06C08091EE008F7B8093C7
:1066B000EE0081E008958091EF0080688093EF0004
:1066C0009091EE00892F807295FF06C08091EE00B8
:1066D0008F7D8093EE0081E0089520E12093ED000E
:1066E0001092EF00FC012081318132969091EF00F1
:1066F000822F8F70892B8093EF001092F000109200
:10670000F1001092F2003093F300222329F08191DE
:106710008093FA002150F9CF8091EF00806480933C
:10672000EF00089580E28093ED000E945B338823A0
:10673000B9F08091EF008F70809311019091F30078
:106740009093120192E0980F82E0891759F02091FE
:10675000FA00E82FF0E0EF5EFE4F20838F5FF5CF69
:106760001092110181E191E0089590E29093ED0083
:106770001092F0001092F1001092F2008093F3005A
:106780001092F4001092F5001092F6008FEF8093B3
:10679000F700EFEEF0E080818068808308950000CC
:1067A000089516BC83E084BD089595B3892F817048
:1067B00090FF02C0A89A81E0089584B58C7F84BDC3
:1067C00008950F931F93CF93DF938C010E94D133D1
:1067D000C0E0D0E0C017D10734F40E94D53388233D
:1067E000E1F32196F7CFDF91CF911F910F9108959B
:1067F0008230910559F410921F0110921E0170937E
:106800001D0160931C010E94D13302C0019711F059
:1068100080E008950E94D5338823D1F380911E0132
:1068200090911F01019690931F0180931E0120916A
:106830001C0130911D012817390754F710921F01D0
:1068400010921E0181E008950E9494308FE090E044
:10685000A8950E9494328231910531F083319105DF
:10686000B9F70E944B31F4CF0E94A930F1CFEE0F5F
:0E687000FF1F0590F491E02D0994F894FFCFDE
:10687E000800010203040506070803000C020200CB
:040000030000600099
:00000001FF
