:100000000C944A000C945C000C945C000C945C0012
:100010000C945C000C945C000C945C000C945C00F0
:100020000C945C000C945C000C945C000C945C00E0
:100030000C945C000C945C000C945C000C945C00D0
:100040000C945C000C945C000C945C000C945C00C0
:100050000C945C000C945C000C945C000C945C00B0
:100060000C945C000C945C000C945C000C945C00A0
:100070000C945C000C945C000C945C000C945C0090
:100080000C945C000C945C000C945C000C945C0080
:100090000C945C0011241FBECFEFD8E0DEBFCDBFB3
:1000A00011E0A0E0B1E001C01D92A830B107E1F776
:1000B0000E9465000C9413020C940000F894E1E691
:1000C000F0E080E8808310820895FF920F931F93E1
:1000D000DF93CF93CDB7DEB727970FB6F894DEBF87
:1000E0000FBECDBF0E945E000E945701CE01019657
:1000F0000E946A018AE090E00E94840111E003E01E
:1001000082E0F82E1D990FC08981882361F48D81CA
:10011000882349F48A81882331F40E94620119837B
:100120001F821E8217C01D9B0CC08981882349F045
:100130008B81882331F40E94640119821F821E8200
:100140000FC01D9B0DC08B81882351F0119819821F
:100150001B821D8380E090E068EE73E00E949401B2
:1001600089818823C1F08B818823A9F481E090E004
:1001700068EE73E00E949401882329F08E819F81AC
:1001800001969F838E838E819F81059724F0119A1B
:100190001B831F821E821C990FC08A81882361F4F1
:1001A0008D81882349F48981882331F40E9462017A
:1001B0001A831F821E8217C01C9B0CC08A81882351
:1001C00049F08C81882331F40E9464011A821F82D5
:1001D0001E820FC01C9B0DC08C81882351F0129889
:1001E0001A821C821D8380E090E068EE73E00E941A
:1001F00094018A818823C1F08C818823A9F481E04D
:1002000090E068EE73E00E949401882329F08E81CB
:100210009F8101969F838E838E819F81059724F015
:10022000129A1C831F821E828D818130C9F481E065
:1002300090E068EE73E00E949401882329F08E819B
:100240009F8101969F838E838E819F8105970CF4F9
:1002500059CF0E946401149A1F821E82FD8252CFE0
:10026000823061F481E090E068EE73E00E949401D6
:10027000882309F447CF14980D8344CF833009F0C5
:1002800041CF81E090E068EE73E00E949401882302
:1002900029F08E819F8101969F838E838E819F811D
:1002A00005970CF42FCF1F821E821D822BCF089A38
:1002B00081B18E6181B912B82498259885B1806387
:1002C00085B90895109A089510980895119A08957F
:1002D00011980895FC0110821182128213821482F7
:1002E0001682158208950000089516BC83E084BD2F
:1002F0000895A89902C080E00895A89A81E0089521
:1003000084B58C7F84BD0895AC0116BC83E084BDA8
:1003100020E030E005C0A89BFECFA89A2F5F3F4F9A
:1003200024173507C4F30895009769F41092070164
:1003300010920601709305016093040116BC83E0DE
:1003400084BD80E008950197C9F4A89B17C0A89ABE
:100350008091060190910701019690930701809387
:10036000060120910401309105012817390734F462
:10037000109207011092060181E0089580E008952F
:100380001092B20084E08093B0000895B89902C042
:1003900080E00895B89A81E00895E0EBF0E0808174
:1003A0008B7F80830895AC011092B20084E080932B
:1003B000B00020E030E005C0B89BFECFB89A2F5FB8
:1003C0003F4F24173507C4F30895009779F410922E
:1003D00003011092020170930101609300011092D9
:1003E000B20084E08093B00080E008950197C9F4E2
:1003F000B89B17C0B89A80910201909103010196B1
:10040000909303018093020120910001309101013A
:100410002817390734F4109203011092020181E089
:0A042000089580E00895F894FFCFDE
:00000001FF
