:100000000C94E10E0C94070F0C94070F0C94070F3F
:100010000C94070F0C94070F0C94070F0C94070F08
:100020000C94070F0C94070F0C94070F0C94070FF8
:100030000C94070F0C94070F0C94070F0C94070FE8
:100040000C94070F0C94070F0C94070F0C94070FD8
:100050000C94070F0C94070F0C94070F0C94070FC8
:100060000C94070F0C94070F0C94070F0C94070FB8
:100070000C94070F0C94070F0C94070F0C94070FA8
:100080000C94070F0C94070F0C94070F0C94070F98
:100090000C94070F0C94070F0C94070F0C94070F88
:1000A0000C94070F0C94070F0C94070F0C94070F78
:1000B0000C94070F0C94070F0C94070F0C94070F68
:1000C0000C94070F0C94070F0C94070F0C94070F58
:1000D0000C94070F0C94070F0C94070F0C94070F48
:1000E0000C94070F0C94070F0C94070F0C94070F38
:1000F0000C94070F0C94070F0C94070F0C94070F28
:100100000C94070F0C94070F0C94070F0C94070F17
:100110000C94070F0C94070F0C94070F0C94070F07
:100120000C94070F0C94070F0C94070F0C94070FF7
:100130000C94070F0C94070F0C94070F0C94070FE7
:100140000C94070F0C94070F0C94070F0C94070FD7
:100150000C94070F0C94070F0C94070F0C94070FC7
:100160000C94070F0C94070F0C94070F0C94070FB7
:100170000C94070F0C94070F0C94070F0C94070FA7
:100180000C94070F0C94070F0C94070F0C94070F97
:100190000C94070F0C94070F0C94070F0C94070F87
:1001A0000C94070F0C94070F0C94070F0C94070F77
:1001B0000C94070F0C94070F0C94070F0C94070F67
:1001C0000C94070F0C94070F0C94070F0C94070F57
:1001D0000C94070F0C94070F0C94070F0C94070F47
:1001E0000C94070F0C94070F0C946AB40C94070F2F
:1001F0000C94070F88118E1194119A11A011A61159
:10020000AC11B211B811BE11C411CA11D011D6115E
:10021000DC11E211E811EE11F411FA1100120612CC
:100220000C12121218121E1224122A123012361236
:100230003C1242126B12701275127A127F128412E3
:1002400089128E12931298129D12A212A712AC124A
:10025000B112B612BB12C012C512CA12CF12D412FA
:10026000D912DE12E312E812ED12F212F712FC12AA
:1002700001130613E415EC15F4151C161C161C16B8
:100280001C161C161C161C161C161C16FC15DC1540
:100290001C1614161C160C1604163B1B421B3B1B8B
:1002A0003B1B161B2F1B3B1B161BFA1C001DD51CD2
:1002B000FA1CDB1CC81CFA1CDB1C691D741D371DD5
:1002C000691D421D251D691D421DC81DCE1DA51D90
:1002D000C81DAB1D981DC81DAB1D151E221E151E69
:1002E000151EF41D151E151EF41DD124FB25FB251E
:1002F000FB25FB25FB254B255B257B258B258B25AE
:100300006B25C325C325442B532C532C532C532C22
:10031000532C562B6F2BA92BE72BE72B8C2B1D2C4B
:100320001D2C7D2CAA2CAA2CAA2CAA2CAA2C802C01
:10033000862C922CA12CA12C8C2C982C982CDD2C6A
:10034000562D562D562D562D562D562D562D562D95
:10035000562D562D562D562D562D562D562D562D85
:10036000562D562D562D562D562D562D562D562D75
:10037000562D562DF82C242D022D022D0E2D0E2D2E
:100380001A2D242D2E2D382D422D4C2DEE30A53139
:10039000FB30A5311231A53129313631693178313F
:1003A00087319631D0316D326D326D326D326D32B2
:1003B0006D326D326D326D326D326D32E131EB3155
:1003C000F531FF31093213321D32273231323B32DF
:1003D00045324F32593263328B358E3591359435F3
:1003E00097359A359D35A035A335A635B235A93553
:1003F000AC35AF35DD35223622362236223622366E
:10040000223622362236223622362236223622362C
:10041000223622362236223622362236223622361C
:10042000223622362236223622362236223622360C
:100430002236223622362236223622362236EE3531
:10044000F83502360C361636163616361636163689
:100450003E3847385538633871387F388D389B3887
:100460002F4E3A4E454E504E5B4E664E714E7C4E70
:10047000874E924EB24EBD4EC84ED34EDE4EE94E22
:10048000F44EFF4E0A4F154F0B555C55D7550B5583
:100490005C55D755D755D755D755D755D755D75577
:1004A000D755D755D755D755D755D755D755D755EC
:1004B000D7558955B6558955B6557D568656A15698
:1004C0008F569856A156A156A156A156A156A1568F
:1004D000A156A156A156A156A156A156A156A15664
:1004E000A156A1567D5686568F5698563E5B455B63
:1004F0004C5B535B5A5B615B685B6F5B765B7D5B00
:10050000845B8B5BEA5AF15AF85AFF5A065B0D5B23
:10051000145B1B5B225B295B305B375BE15BEA5B57
:10052000F35BFC5B055CB45BBD5BC65BCF5BD85B20
:10053000E461AC61CC61EC61B461D461F461BC6133
:10054000DC61FC610462C46165622D624D626D62B2
:100550003562556275623D625D627D6285624562AB
:10056000A964A26494649B648D64866478647F64E7
:100570000265FB64ED64F464E664DF64D164D8640E
:100580009D66A466AB66B266B966C066C766CE668F
:10059000DC66E366EA66D566F166F86653675A6715
:1005A000616768676F6776677D6784678B67926747
:1005B0009967A067A767AE67FF66306706670D6734
:1005C00014671B672267296737673E6745674C6773
:1005D000B567BC67C367CA67D167D867DF67E66777
:1005E000ED67BA6DBF6D0A6E0F6EC46DC96D146E86
:1005F000196ECE6DD36DD86DDD6DE26D1E6E236EFE
:10060000286E2D6EE76DEC6DF16DF66DFB6D916EE4
:10061000006E056E326E376E3C6E416E466E8C6EAD
:100620004B6E506E556E786E7D6E826E876E6E6EFE
:10063000736E5A6E5F6E646E696EB96EBF6E196FBF
:100640001F6FC56ECB6E256F2B6FD16ED76EDD6EB3
:10065000E36EE96E316F376F3D6F436FEF6EF56E8E
:10066000FB6E016F076FBB6F0D6F136F496F4F6F9D
:10067000556F5B6F616FB56F676F6D6F736F9D6F58
:10068000A36FA96FAF6F916F976F796F7F6F856F52
:100690008B6FEB6FF46FFE6F087012701C7026701A
:1006A0003070A872AD72B272B772BC72C172C6728B
:1006B000CB72E572EA72EF72F472F972FE72037332
:1006C0000873227327732C73317336733B73407333
:1006D00045735F73647369736E73737378737D733B
:1006E0008273397F477F547F627F6F7F7D7F8A7FF0
:1006F000987FA57FB27F9580B9809B809E80B980CE
:100700009880A180B980B980B980B980B980B9805A
:10071000B980B980B980B980B980B980B980B98011
:10072000B980B980B980A480B980A780B980B98028
:10073000AA80AD80B080B380B680C090C890C890C9
:10074000C890C890C890C890C890C890C890C890E9
:10075000C890C890C890C890C890C890EC8FF38F8C
:10076000FA8F0190C890C890C890C890C890C8905F
:10077000C890C890C890C890C890C890089027901A
:100780002E903590C890C890C890C890C890C890D6
:10079000C890C890C890C890C890C89054905B907A
:1007A00062906990C890C890C890C890C890C8904E
:1007B000C890C890C890C890C890C8907090819018
:1007C0009690AB900D911A9127913491E391E3911A
:1007D000E391E391E391E391E391E391E391E39179
:1007E000E391E3913F914C9159916691E391E391AB
:1007F000E391E391E391E391E391E391E391E39159
:10080000E391E391E391E3917391E391E391E391B8
:10081000E391E391E391E391E391E391E391E39138
:10082000E391E3919791AA91BD91D09109920C9295
:100830000F921292399239923992399239923992B1
:100840003992399239923992399239921592189295
:100850001B921E9239923992399239923992399279
:10086000399239923992399239923992219224925D
:1008700027922A9239923992399239923992399241
:100880003992399239923992399239922D92309225
:1008900033923692BD93ED93ED93ED93ED93ED93FB
:1008A000ED93ED93ED93ED93ED93ED93ED93ED9348
:1008B000ED93ED93ED93ED93ED93B192C192ED93A2
:1008C000ED93ED93ED93ED93ED93ED93ED93ED9328
:1008D000ED93ED93ED936E938193F6923293ED93B6
:1008E000ED93ED93ED93ED93ED93ED93ED93ED9308
:1008F000ED93ED93ED939593A493ED93ED93ED9399
:10090000ED93ED93ED93ED93ED93ED93ED93ED93E7
:10091000ED93ED93ED93D993DE93E393E893819573
:10092000B195B195B195B195B195B195B195B19597
:10093000B195B195B195B195B195B195B195B19587
:10094000B195B19585949594B195B195B195B195C1
:10095000B195B195B195B195B195B195B195B19567
:100960003B954E95C394FF94B195B195B195B195D2
:10097000B195B195B195B195B195B195B195B19547
:10098000B1956295B195B195B195B195B195B19586
:10099000B195B195B195B195B195B195B195B19527
:1009A0009D95A295A795AC9568968A968A968A9603
:1009B0008A968A968A968A968A968A968A968A9637
:1009C0008A968A968A968A968A968A968A9613969E
:1009D00023968A968A968A968A968A968A968A967E
:1009E0008A968A968A968A968A968A968A963C9655
:1009F00052968A968A968A968A968A968A968A962F
:100A00008A968A968A968A968A968A968A968A96E6
:100A10008A968A968A968A968A968A968A968A96D6
:100A20008A968A968A968A968A9676967B968096F3
:100A300085968797A997A997A997A997A997A997FD
:100A4000A997A997A997A997A997A997A997A997A6
:100A5000A997A997A997A997F2960297A997A997F5
:100A6000A997A997A997A997A997A997A997A99786
:100A7000A997A997A997A99722973D97A997A99769
:100A8000A997A997A997A997A997A997A997A99766
:100A9000A997A99758976F97A997A997A997A997E1
:100AA000A997A997A997A997A997A997A997A99746
:100AB000A997A99795979A979F97A497CA98EC9802
:100AC000EC98EC98EC98EC98EC98EC98EC98EC9806
:100AD000EC98EC98EC98EC98EC98EC98EC98EC98F6
:100AE000EC9827983798EC98EC98EC98EC98EC9860
:100AF000EC98EC98EC98EC98EC98EC98EC98EC98D6
:100B0000A19857987C98EC98EC98EC98EC98EC9815
:100B1000EC98EC98EC98EC98EC98EC98EC98EC98B5
:100B2000B698EC98EC98EC98EC98EC98EC98EC98DB
:100B3000EC98EC98EC98EC98EC98EC98EC98D898A9
:100B4000DD98E298E798689A8A9A8A9A8A9A8A9AA5
:100B50008A9A8A9A8A9A8A9A8A9A8A9A8A9A8A9A75
:100B60008A9A8A9A8A9A8A9A8A9A8A9A9F99AF992D
:100B70008A9A8A9A8A9A8A9A8A9A8A9A8A9A8A9A55
:100B80008A9A8A9A8A9A8A9A3F9A8A9AED99169AA2
:100B90008A9A8A9A8A9A8A9A8A9A8A9A8A9A8A9A35
:100BA0008A9A8A9A8A9A8A9A549A8A9A8A9A8A9A5B
:100BB0008A9A8A9A8A9A8A9A8A9A8A9A8A9A8A9A15
:100BC0008A9A8A9A8A9A8A9A769A7B9A809A859A37
:100BD0009D9BBF9BBF9BBF9BBF9BBF9BBF9BBF9B67
:100BE000BF9BBF9BBF9BBF9BBF9BBF9BBF9BBF9B35
:100BF000BF9BBF9BBF9BFE9A0E9BBF9BBF9BBF9B98
:100C0000BF9BBF9BBF9BBF9BBF9BBF9BBF9BBF9B14
:100C1000BF9B7E9B8E9B349B599BBF9BBF9BBF9B67
:100C2000BF9BBF9BBF9BBF9BBF9BBF9BBF9BBF9BF4
:100C3000BF9BBF9BBF9BBF9BBF9BBF9BBF9BBF9BE4
:100C4000BF9BBF9BBF9BBF9BBF9BBF9BBF9BBF9BD4
:100C5000BF9BAB9BB09BB59BBA9B799D9B9D9B9D7E
:100C60009B9D9B9D9B9D9B9D9B9D9B9D9B9D9B9DC4
:100C70009B9D9B9D9B9D9B9D9B9D9B9D9B9D419C0F
:100C8000559C659C9B9D9B9D9B9D9B9D9B9D9B9D22
:100C90009B9D9B9D9B9D9B9D9B9D9B9D149D289D8E
:100CA000A29CDB9C9B9D9B9D9B9D9B9D9B9D9B9D3F
:100CB0009B9D9B9D9B9D9B9D9B9D9B9D3C9D659D09
:100CC0006B9D729D9B9D9B9D9B9D9B9D9B9D9B9DBD
:100CD0009B9D9B9D9B9D9B9D9B9D9B9D879D8C9D77
:100CE000919D969D219F459F459F459F459F459F6F
:100CF000459F459F459F459F459F459F459F459FD4
:100D0000459F459F459F459F459F4E9E669E459F9B
:100D1000459F459F459F459F459F459F459F459FB3
:100D2000459F459F459F459F459FA89EC69E459FC1
:100D3000459F459F459F459F459F459F459F459F93
:100D4000459F459F459FE09E459F459F029F459F2C
:100D5000459F459F459F459F459F459F459F459F73
:100D6000459F459F459F339F369F3B9F409F72A065
:100D700094A094A094A094A094A094A094A094A0D3
:100D800094A094A094A094A094A094A094A094A0C3
:100D900094A094A0C79FD79F94A094A094A094A03F
:100DA00094A094A094A094A094A094A094A094A0A3
:100DB00094A094A0FE9F19A094A094A094A094A0A5
:100DC00094A094A094A094A094A094A094A094A083
:100DD00034A053A094A094A094A094A094A094A014
:100DE00094A094A094A094A094A094A094A094A063
:100DF00080A085A08AA08FA0FEA220A320A320A36C
:100E000020A320A320A320A320A320A320A320A3CA
:100E100020A320A320A320A320A320A320A302A1DA
:100E200012A120A320A320A320A320A320A320A3BA
:100E300020A320A320A320A320A3A5A2B6A220A381
:100E4000F1A120A320A320A320A320A320A320A3BB
:100E500020A320A320A320A320A3C8A2DAA2ECA24F
:100E60004BA220A320A320A320A320A320A320A340
:100E700020A320A320A320A320A30CA311A316A387
:100E80001BA33FA561A561A561A561A561A561A59C
:100E900061A561A561A561A561A561A561A561A522
:100EA00061A561A561A529A44FA45FA461A561A561
:100EB00061A561A561A561A561A561A561A561A502
:100EC00061A561A5FEA4FEA4A6A4D2A461A561A506
:100ED00061A561A561A561A561A561A561A561A5E2
:100EE00061A561A51FA51FA561A561A561A561A556
:100EF00061A561A561A561A561A561A561A561A5C2
:100F000061A561A54DA552A557A55CA5ABA5B5A545
:100F1000BFA5C9A5DFA5DFA5DFA5DFA5DFA5DFA5E7
:100F2000DFA5DFA5DFA5DFA5DFA5DFA5DFA5DFA5A1
:100F3000DFA5DFA5DFA5DFA5DFA5DFA5DFA5DFA591
:100F4000DFA5DFA5DFA5DFA5DFA5DFA5D3A5D6A596
:100F5000D9A5DCA540A68AA68AA68AA68AA68AA6BC
:100F60008AA68AA68AA68AA68AA68AA68AA68AA601
:100F70008AA68AA68AA68AA68AA68AA606A68AA675
:100F80008AA68AA68AA68AA68AA68AA68AA68AA6E1
:100F90008AA68AA68AA68AA68AA68AA68AA68AA6D1
:100FA0008AA68AA68AA68AA68AA68AA68AA68AA6C1
:100FB0008AA68AA68AA68AA68AA68AA623A68AA618
:100FC0008AA68AA68AA68AA68AA68AA68AA68AA6A1
:100FD0008AA68AA68AA676A67BA680A685A6EBA662
:100FE00035A735A735A735A735A735A735A735A721
:100FF00035A735A735A735A735A735A735A735A711
:1010000035A735A735A7B1A635A735A735A735A785
:1010100035A735A735A735A735A735A735A735A7F0
:1010200035A735A735A735A735A735A735A735A7E0
:1010300035A735A735A735A735A735A735A735A7D0
:1010400035A735A735A7CEA635A735A735A735A728
:1010500035A735A735A735A735A735A735A735A7B0
:1010600021A726A72BA730A796A7E0A7E0A7E0A770
:10107000E0A7E0A7E0A7E0A7E0A7E0A7E0A7E0A738
:10108000E0A7E0A7E0A7E0A7E0A7E0A7E0A7E0A728
:101090005CA7E0A7E0A7E0A7E0A7E0A7E0A7E0A79C
:1010A000E0A7E0A7E0A7E0A7E0A7E0A7E0A7E0A708
:1010B000E0A7E0A7E0A7E0A7E0A7E0A7E0A7E0A7F8
:1010C000E0A7E0A7E0A7E0A7E0A7E0A7E0A7E0A7E8
:1010D00079A7E0A7E0A7E0A7E0A7E0A7E0A7E0A73F
:1010E000E0A7E0A7E0A7E0A7E0A7CCA7D1A7D6A7F5
:1010F000DBA7CEA810A910A910A910A910A910A9A2
:1011000010A910A910A910A910A910A910A910A917
:1011100010A910A907A810A910A99CA810A910A986
:1011200010A910A910A910A910A910A910A910A9F7
:1011300010A910A92DA810A910A9B5A810A910A927
:1011400010A910A910A910A910A910A910A910A9D7
:1011500010A910A954A810A910A910A910A910A984
:1011600010A910A910A910A910A910A910A910A9B7
:1011700010A910A9FCA801A906A90BA944AC6BAC45
:101180006BAC6BAC6BAC6BAC6BAC6BAC6BAC6BACA7
:101190006BAC6BAC6BAC6BAC6BAC6BAC6BAC52A9B3
:1011A00094A9D6A96BAC6BAC6BAC6BAC6BAC6BACF9
:1011B0006BAC6BAC6BAC6BAC6BAC6BAC6BAC18AACC
:1011C0005AAA9CAA6BAC6BAC6BAC6BAC6BAC6BAC4B
:1011D0006BAC6BAC6BAC6BAC6BAC6BAC6BACDEAAE6
:1011E00020AB62AB6BAC6BAC6BAC6BAC6BAC6BAC9D
:1011F0006BAC6BAC6BAC6BAC6BAC6BAC6BAC0EAC94
:10120000A4ABE4AB1AAC0C94916E0C94D0310C945A
:10121000154F0C94E2110C94A5A20C94AC350C94CF
:10122000B1A60C94416E0C94987F0C94FF660C94BC
:101230009D120C946F970C94EA720C941BA30C945F
:10124000EE110C941AAC0C9494640C945F730C948F
:10125000A4AB0C9412120C944B6E0C9401900C9451
:101260005B6F0C941D320C943E670C9487310C9488
:10127000B1950C9485960C947B9A0C9485940C945F
:1012800093120C94AC120C94C1920C94EB310C940C
:10129000CF5B0C94BF9B0C94D9120C94CEA60C94EB
:1012A00036730C9435620C94BC670C94375B0C94C9
:1012B0003C9D0C94826E0C94E0A70C94874E0C9489
:1012C00004620C94196E0C94CF120C9406130C94B7
:1012D0008B5B0C94161B0C94D36D0C94FB6E0C94CE
:1012E00078730C9459910C94879D0C948D380C94C0
:1012F000F7120C9427910C9435A70C9445730C9419
:10130000DD6E0C94145B0C9431730C9412700C947D
:1013100045320C94F4610C94669E0C94289D0C94B8
:10132000AA800C9421920C94B2720C941E6E0C94B0
:1013300057A50C947C4E0C94B45B0C94B8110C948F
:10134000DF670C94DD980C94CE6D0C9479A70C9407
:10135000FF5A0C94149D0C9463380C944E9E0C947C
:10136000859A0C946F670C9482730C945C550C9462
:10137000459F0C9476960C9416A30C94DD350C9432
:101380003F9A0C94C81C0C942D620C94FA110C9486
:10139000A4930C94FB300C94981D0C94EC150C94B5
:1013A0008E110C94C79F0C940C360C94371D0C9422
:1013B0009D950C94ABA50C94006E0C94E36E0C946C
:1013C000409F0C94349B0C949B640C947D5B0C9418
:1013D000A3350C94B5670C9472A00C94DAA20C940B
:1013E0004DA50C94D2A40C94E72B0C94EA5B0C94BE
:1013F000A12C0C9480A60C94286E0C94BFA50C9480
:101400000B550C94C0120C94F5310C9496900C94DE
:10141000D51C0C9424120C94E5720C94796F0C94E6
:101420008E120C94ED640C94D9930C94FE720C946F
:10143000676F0C941B5B0C9421A70C94924E0C9438
:1014400095940C9440A60C94B6120C9481900C9434
:10145000AD720C947D670C94D0110C94CA980C94C6
:1014600073730C94616F0C944F6F0C9459320C94FD
:101470006D620C94ECA20C94BA9B0C94326E0C949A
:1014800013320C94C3250C94A4800C94DFA50C9407
:1014900058970C94B7720C94D86D0C9430120C942D
:1014A000FB250C945F6E0C9406A60C94FEA40C9481
:1014B000714E0C94CB6E0C94A7950C94547F0C94A5
:1014C00036920C94AB9B0C94A4660C94A2120C94D0
:1014D000A5310C94AB660C943A4E0C94C6720C94E5
:1014E000DE4E0C94B2350C948AA00C9445620C9498
:1014F000CA120C94242D0C94A4970C9437980C9435
:10150000A9970C94ED670C949F970C944C910C94B4
:101510009D350C94E8930C9480960C94EA5A0C94A4
:101520003F910C940A6E0C9432930C9412310C94EB
:101530002A920C94376E0C94DC610C9453670C94D3
:101540009D6F0C94C8A20C9489550C942DA80C94F2
:101550000D5B0C940E2D0C944C2D0C94D4120C9409
:10156000F9720C949CA80C94FCA80C94BF6D0C947C
:10157000689A0C941B670C948AA60C946D320C9498
:10158000696E0C94DB9C0C94397F0C948FA00C94A6
:1015900026700C94DC110C94169A0C94FA1C0C9482
:1015A0000C120C945B250C9434910C9406670C94EB
:1015B000A51D0C94A57F0C94A96F0C94EE350C948A
:1015C00092670C94AF6F0C9439920C94FC610C945C
:1015D00047380C9402970C94CE1D0C948B250C94D8
:1015E000F4110C94A9640C94845B0C94D4610C9455
:1015F000C3670C947D620C948B6F0C9465620C94A1
:101600002E2D0C94532C0C94076F0C94AA2C0C9434
:101610006B120C94CE660C94A92B0C9461670C94FD
:10162000506E0C94065B0C94F8350C944B250C947E
:10163000A7670C94FF4E0C9430670C944D620C9489
:10164000A7120C94EF6E0C94BC610C94D1A70C946F
:101650006F5B0C94809A0C9409320C940C920C944D
:10166000769A0C94EBA60C94C84E0C94EC6D0C94EA
:10167000F44E0C94799D0C942F4E0C94736E0C9434
:10168000442B0C943B950C94136F0C94BD4E0C940E
:1016900097350C94D0910C9426A70C9464730C94F9
:1016A0006E6E0C94C4610C94862C0C94856F0C9413
:1016B0002E900C947B960C947C980C94A2950C9490
:1016C000AD800C9436310C94659D0C9485620C941D
:1016D000C56E0C948E9B0C9442120C945A670C9419
:1016E00012920C9496310C94FEA20C943D970C949B
:1016F00019A00C94C69E0C94419C0C94BA6D0C9449
:10170000AF350C94A9350C9498120C94376F0C9447
:10171000EA660C9495970C945FA40C949A970C9499
:1017200001A90C94A29C0C94D7550C9414670C94AA
:10173000D8640C943D6F0C9403730C945B4E0C9422
:10174000E4150C9469900C9462900C941C160C9403
:10175000646E0C948C2B0C94D8670C94466E0C948D
:1017600095930C941E920C94F2120C944E950C943A
:1017700027730C940BA90C947BA60C94C9A50C940C
:1017800052A50C9430700C947E9B0C949A110C947E
:1017900063320C943D620C94CC610C9476670C948B
:1017A00008900C9491350C94627F0C94146E0C94F8
:1017B00068670C94DBA70C9484670C948C2C0C94B5
:1017C00095800C945A6E0C9455380C94E94E0C94F8
:1017D00008730C94A6A40C9415920C94F4150C9414
:1017E00071380C94F85A0C94C1720C9480A00C942B
:1017F000F6920C94D16E0C94EC610C94A1980C941C
:1018000022670C947D7F0C94A0110C94E8110C9429
:101810005AAA0C9418AA0C9453A00C94E8120C9495
:101820002B6F0C9469310C94659C0C94C5120C942C
:10183000055C0C940EAC0C94ED930C94E4AB0C94FE
:1018400088110C94D1670C941FA50C94982C0C94BF
:101850007D2C0C94022D0C949B380C94029F0C94BC
:1018600061A50C9452A90C9424920C94251D0C94FF
:10187000ED990C9475120C946BAC0C94DC150C94D3
:1018800066910C94786E0C948D640C94D34E0C94E9
:10189000D5660C94B1920C94295B0C94B9660C94A7
:1018A00045670C94A2640C94A1800C94E3910C9471
:1018B000E4610C9429A40C94219F0C9404160C94BC
:1018C00099670C94EF720C94B56F0C94256F0C947F
:1018D0000D6F0C94DD2C0C94C8900C9494A00C9477
:1018E00084120C944BA20C9406A90C948A7F0C943D
:1018F000F35B0C9402A10C9481950C94C96D0C942B
:101900006D6F0C94BB6F0C94F56E0C9437670C9450
:10191000316F0C9416360C94496F0C9444AC0C94B3
:10192000B5A50C940CA30C94A6350C9411A30C949F
:1019300010A90C942C730C94E76D0C94225B0C94FE
:1019400098560C9476A60C941E120C948C6E0C94E3
:1019500075620C946F2B0C94151E0C94236E0C94D2
:10196000549A0C94FC120C94B2110C9478310C948F
:101970002F1B0C94196F0C94FC150C94DB1C0C940D
:10198000F38F0C94EE300C94454E0C94D1240C94AF
:10199000AA910C94C81D0C94CEA80C945CA70C942E
:1019A0004C5B0C94FF310C942D920C94E3930C94AB
:1019B00054A80C94A6110C94E2980C94016F0C940A
:1019C000556E0C94F4640C9455620C94FE6F0C9458
:1019D00023960C941D2C0C94369F0C9462AB0C94A3
:1019E000B3800C948C9D0C9427920C9436120C941A
:1019F000AC110C94C4110C94E1310C949B9D0C948B
:101A0000BF6E0C94AE670C945CA50C942BA70C9441
:101A1000001D0C94559C0C9420AB0C94B1120C94AA
:101A2000BD910C9400120C941A910C94C0900C94DB
:101A300022730C943E5B0C943C6E0C9478640C9472
:101A4000969D0C94422D0C94421B0C94A0670C9410
:101A5000AF990C94876E0C948B350C949F990C94D1
:101A6000E3660C943C960C94C7660C943B320C9441
:101A7000F8660C94736F0C94976F0C947F380C94E9
:101A8000DF640C94CA670C942A120C94B6A20C94CE
:101A9000AB900C94599B0C9418120C94FE9A0C94D5
:101AA000BD930C9429670C946F7F0C9487970C94CA
:101AB000562B0C94B4610C94AC950C94A1560C94D8
:101AC0005D620C94FB6D0C9498800C9494A90C941A
:101AD000DEAA0C94E3120C94C46D0C9427980C9419
:101AE000477F0C94FC5B0C94C0660C9454900C944F
:101AF000FB640C940C160C94CA110C94F82C0C94E6
:101B000070120C9433920C9469730C94E26D0C94E3
:101B10003B9F0C9430A70C940F920C94CCA70C9480
:101B20001F6F0C943B730C9418920C94455B0C94AF
:101B3000A8720C9494110C94DE930C947F6F0C9407
:101B4000BB120C9457980C94556F0C9427900C94DE
:101B5000AB1D0C942D6E0C949B800C949D660C9484
:101B6000C65B0C940A4F0C94D8980C946B250C947B
:101B7000ED120C949D9B0C9481930C94A89E0C9454
:101B80003C120C948E350C94E15B0C94382D0C9423
:101B9000F66D0C94B59B0C94DD6D0C94C3940C9471
:101BA000A7800C94B6550C947F640C94765B0C94CF
:101BB00013960C941C700C9468960C94729D0C9463
:101BC000FF940C9435900C946E730C94D6A90C94DD
:101BD000B5A80C944F320C94D85B0C94D6A50C94F9
:101BE0007B250C94221E0C947D730C94DCA50C9424
:101BF0004FA40C9420A30C9423A60C94305B0C945B
:101C0000B96E0C94A0350C948A9A0C94504E0C9496
:101C1000B6800C94D79F0C949A350C94B2660C94B1
:101C200040730C94F1660C94CB720C9409920C9452
:101C300085A60C94F4720C945B900C946E930C94A7
:101C40008B670C9470900C94BE110C9407A80C94A4
:101C5000F41D0C943FA50C9485A00C94E09E0C946C
:101C60007F120C94F1A10C94FA8F0C9473910C9444
:101C70003B1B0C94339F0C940D670C9462950C9451
:101C8000D9A50C94B9800C949E800C947D6E0C9414
:101C900002360C9494350C9489120C94B0800C94F8
:101CA000421D0C940E9B0C94FE9F0C9412A10C945C
:101CB0007A120C94F46F0C94436F0C944C670C9450
:101CC0000D910C9486560C94DE120C9429310C94D0
:101CD000DC660C9401130C9406120C94916F0C9416
:101CE0007D560C94B09B0C941B920C94F15A0C945E
:101CF000685B0C9431320C941A2D0C94664E0C9443
:101D0000E6640C94A36F0C9427320C940F6E0C9421
:101D100097910C94056E0C94D76E0C94EC8F0C94E8
:101D2000D6110C9414160C94D1640C945A5B0C9438
:101D300096A70C9486640C9402650C94BD5B0C947D
:101D40008A960C94741D0C94E96E0C943E380C9495
:101D5000919D0C94BC720C94EC980C94B24E0C9423
:101D6000B27F0C94E7980C9452960C949CAA0C9415
:101D7000802C0C94615B0C94B6980C94AC610C9420
:101D8000535B0C94E6670C94922C0C94691D0C9494
:101D900030920C94F2960C94D3A50C94D6A70C9484
:101DA0006B9D0C9408700C94F16D0C9422970C941C
:101DB0008F560C9434A00C94562D0C9422360C940F
:101DC000EB6F11241FBECFEFDFE3DEBFCDBF00E01E
:101DD0000CBF18BE19BE1ABE1BBE1CE3A0E0B0E2C9
:101DE000E8EAFBE601E00BBF02C007900D92A036C7
:101DF000B107D9F71BBE1DE3A0E6BCE301C01D92ED
:101E0000AB3BB107E1F70E9471660C94D2B50C941C
:101E10000000CF93DF931F92CDB7DEB7898380E0B8
:101E200096E020E2FC0121838981882379F480E017
:101E300096E020E2FC01258382E090E00E94AD88DC
:101E400080E096E020E2FC0126830EC080E096E070
:101E500020E2FC0125838CE390E00E94AD8880E0C5
:101E600096E020E2FC01268384E190E00E94AD88A8
:101E70000F90DF91CF910895CF93DF9300D0CDB72E
:101E8000DEB71A821B8219828AE18A83198213C003
:101E90008A81882F90E02981222F30E002C0959519
:101EA00087952A95E2F781708B838B810E94090FB9
:101EB00089818F5F89838981863050F32396CDBFD6
:101EC000DEBFDF91CF910895CF93DF9300D0CDB7E0
:101ED000DEB71A821B82198282E18A83198213C0BB
:101EE0008A81882F90E02981222F30E002C09595C9
:101EF00087952A95E2F781708B838B810E94090F69
:101F000089818F5F89838981863050F32396CDBF85
:101F1000DEBFDF91CF910895CF93DF9300D0CDB78F
:101F2000DEB71A821B82198287E38A83198213C063
:101F30008A81882F90E02981222F30E002C0880F0B
:101F4000991F2A95E2F780788B838B810E94090F75
:101F500089818F5F89838981883050F32396CDBF33
:101F6000DEBFDF91CF910895CF93DF9300D0CDB73F
:101F7000DEB71A821B82198281E08A83198213C01C
:101F80008A81882F90E02981222F30E002C0880FBB
:101F9000991F2A95E2F780788B838B810E94090F25
:101FA00089818F5F89838981883050F32396CDBFE3
:101FB000DEBFDF91CF910895CF93DF9300D000D0A3
:101FC000CDB7DEB781E098E08B839C8319821A82BB
:101FD0001D821E8219821A8214C08B819C81098005
:101FE00002C0959587950A94E2F7817099278D83B1
:101FF0009E838D810E94090F89819A810196898330
:102000009A8389819A818C3091053CF32696CDBFC5
:10201000DEBFDF91CF910895CF93DF9300D01F9261
:10202000CDB7DEB78EEF97E08A839B8319821C823F
:10203000198212C08981282F30E08A819B8102C0D9
:10204000959587952A95E2F781708C838C810E9403
:10205000090F89818F5F898389818C3058F3249699
:10206000CDBFDEBFDF91CF910895CF93DF93CDB782
:10207000DEB70E9440100E944F10DF91CF9108956B
:10208000CF93DF93CDB7DEB70E94DC0F0E943C0FE9
:102090000E948C0F0E940C10DF91CF910895CF9376
:1020A000DF93CDB7DEB70E94DC0F0E94640F0E9461
:1020B000B40F0E940C10DF91CF9108950F931F93DE
:1020C000CF93DF93CDB7DEB700E012E080E20E944D
:1020D000B110F801848700E012E081E20E94B110A3
:1020E000F801858700E412E084E20E94B110F80153
:1020F000848700E412E085E20E94B110F801858730
:1021000080E092E0FC01118280E092E020E2FC019C
:10211000228380E092E022E0FC01248380E092E0D0
:1021200021E0FC01208380E492E0FC01118280E444
:1021300092E020E2FC01228380E492E021E0FC01B5
:10214000248380E492E021E0FC0120830E94D510EA
:102150000E94F0100E940111DF91CF911F910F9109
:102160000895CF93DF93CDB7DEB72597CDBFDEBF00
:102170008D838AEC91E022E0FC0120838D81882F01
:1021800090E089839A8389819A81FC0184918B8371
:102190008B818C838AEC91E0FC0110828C812596E6
:1021A000CDBFDEBFDF91CF910895CF93DF93CDB741
:1021B000DEB780E092E021E0FC0120A380E092E025
:1021C00028E1FC0121A380E092E021E0FC0120A7AE
:1021D00080E092E020E1FC0121A7DF91CF910895FA
:1021E000CF93DF93CDB7DEB780E492E021E0FC012E
:1021F00020A380E492E020E3FC0121A3DF91CF91B2
:102200000895CF93DF93CDB7DEB780E092E021E071
:10221000FC0120AB80E092E028E3FC0121ABDF91E0
:10222000CF910895CF93DF931F921F92CDB7DEB762
:1022300019821A8280E092E020E032E0F9012081E8
:102240002061FC012083000080E092E0FC01868197
:10225000882F90E0847099270097B1F380E092E096
:1022600020E032E0F90126812460FC01268380E031
:1022700092E0FC018489958989839A8389819A8176
:10228000843CF9E09F07FCF48091603C9091613CB4
:1022900001968093603C9093613C8091603C90916A
:1022A000613C8330910511F40E9460778091603C1D
:1022B0009091613C813D22E092074CF01092603C8D
:1022C0001092613C04C01092603C1092613C0F90EF
:1022D0000F90DF91CF910895CF93DF9300D0CDB7CA
:1022E000DEB789839A836B8389819A81CC01A0E0D0
:1022F000B0E040E050E02FE130E0841B950B281760
:10230000390708F4C5C086509F4FFC010C94B8B53E
:102310006B8180E090E00E942E13BBC06B8181E056
:1023200090E00E942E13B5C06B8182E090E00E9485
:102330002E13AFC06B8183E090E00E942E13A9C0E2
:102340006B8184E090E00E942E13A3C06B8185E036
:1023500090E00E942E139DC06B8186E090E00E9469
:102360002E1397C06B8187E090E00E942E1391C0DE
:102370006B8188E090E00E942E138BC06B8189E016
:1023800090E00E942E1385C06B818AE090E00E944D
:102390002E137FC06B818BE090E00E942E1379C0DA
:1023A0006B818CE090E00E942E1373C06B818DE0F6
:1023B00090E00E942E136DC06B818EE090E00E9431
:1023C0002E1367C06B818FE090E00E942E1361C0D6
:1023D0006B8180E190E00E942E135BC06B8181E1F4
:1023E00090E00E942E1355C06B8182E190E00E9424
:1023F0002E134FC06B8183E190E00E942E1349C0E1
:102400006B8184E190E00E942E1343C06B8185E1D3
:1024100090E00E942E133DC06B8186E190E00E9407
:102420002E1337C06B8187E190E00E942E1331C0DC
:102430006B8188E190E00E942E132BC06B8189E1B3
:1024400090E00E942E1325C06B818AE190E00E94EB
:102450002E131FC06B818BE190E00E942E1319C0D8
:102460006B818CE190E00E942E1313C06B818DE193
:1024700090E00E942E130DC06B818EE190E00E94CF
:102480002E1307C06B818FE190E00E942E1301C0D4
:1024900000002396CDBFDEBFDF91CF910895CF938B
:1024A000DF931F921F92CDB7DEB789839A8389810C
:1024B0009A81CC01A0E0B0E040E050E02FE130E0B4
:1024C000841B950B2817390708F4A5C0865E9E4F1C
:1024D000FC010C94B8B580E090E00E94A2139DC06E
:1024E00081E090E00E94A21398C082E090E00E94F8
:1024F000A21393C083E090E00E94A2138EC084E0F8
:1025000090E00E94A21389C085E090E00E94A2138F
:1025100084C086E090E00E94A2137FC087E090E034
:102520000E94A2137AC088E090E00E94A21375C0B6
:1025300089E090E00E94A21370C08AE090E00E94BF
:10254000A2136BC08BE090E00E94A21366C08CE0E7
:1025500090E00E94A21361C08DE090E00E94A2135F
:102560005CC08EE090E00E94A21357C08FE090E024
:102570000E94A21352C080E190E00E94A2134DC0BD
:1025800081E190E00E94A21348C082E190E00E94A5
:10259000A21343C083E190E00E94A2133EC084E1F5
:1025A00090E00E94A21339C085E190E00E94A2133E
:1025B00034C086E190E00E94A2132FC087E190E032
:1025C0000E94A2132AC088E190E00E94A21325C0B5
:1025D00089E190E00E94A21320C08AE190E00E946D
:1025E000A2131BC08BE190E00E94A21316C08CE1E5
:1025F00090E00E94A21311C08DE190E00E94A2130E
:102600000CC08EE190E00E94A21307C08FE190E021
:102610000E94A21302C0000080E00F900F90DF9193
:10262000CF910895CF93DF931F92CDB7DEB7198274
:1026300019820DC08981882F90E06BE00E942E13D3
:102640008AE090E00E94C58889818F5F89838981B3
:10265000803280F30F90DF91CF910895CF93DF9375
:1026600000D000D0CDB7DEB78C839D836E831982F6
:102670001A821B828C819D81892F992789838C8165
:102680008A838E818B8343E0CE010196BC0180E575
:102690000E94F5B22696CDBFDEBFDF91CF9108959F
:1026A000CF93DF93CDB7DEB7C758D109CDBFDEBF1B
:1026B0009E012C573F4FF90180839183CE018A57A9
:1026C0009F4FFC01608371831982CE018C579F4F0D
:1026D000FC0180819181892F99278A83CE018C57B3
:1026E0009F4FFC0180818B8319821BC08981882FB9
:1026F00090E002962981222F30E0AE014A575F4FC9
:10270000FA0140815181240F351FF90140819E015A
:102710002E5F3F4F820F931FFC01408389818F5FA3
:1027200089838981882314F7CE01029642E8BC018F
:1027300080E50E94F5B2C957DF4FCDBFDEBFDF9104
:10274000CF910895CF93DF93CDB7DEB72797CDBF55
:10275000DEBF8E839F831C821D828E819F81892F85
:1027600099278C838E818D83CE01049642E0BC0133
:1027700080E50E94F5B261E080E50E94BCB38983E8
:102780009A8389819A81019689839A8389819A8122
:10279000FC0180818B838B812796CDBFDEBFDF91CB
:1027A000CF910895CF93DF9300D000D0CDB7DEB79F
:1027B0008D839E831B821C828D819E81892F992708
:1027C0008B838D818C83CE01039642E0BC0180E532
:1027D0000E94F5B268E080E50E94BCB389839A83C9
:1027E00089819A81019689839A8389819A81269623
:1027F000CDBFDEBFDF91CF910895CF93DF93CDB7EB
:10280000DEB70E9451140E94297E0E945E107894C7
:102810000E94BDB40E947CB00E9477B20E94F63C38
:102820000E94F9880E940D3B0E94F9880E94073D92
:102830000E9477140E9422690E9435100E94901411
:102840000E94E7740E94F98889E190E00E948A8CD6
:1028500081E190E00E947E1505C00E94D28C882301
:1028600009F005C00E94B1158E309105B1F70E94A4
:10287000DB8B82E090E00E94E58ADF91CF910895A2
:10288000CF93DF93CDB7DEB70E9412130E942F7251
:102890000E94006C0E9431690E94633ADF91CF91DF
:1028A0000895CF93DF93CDB7DEB780E590E02BECB2
:1028B000FC01228380E590E028E0FC0120830000F9
:1028C00080E590E0FC018181882F90E08870992755
:1028D0000097B1F384E390E028EDFC01208380E4CD
:1028E00090E023E0FC012083DF91CF910895CF9306
:1028F000DF93CDB7DEB784E390E028EDFC012083C1
:1029000080E890E02BE2FC012083DF91CF910895D5
:10291000CF93DF93CDB7DEB7A895DF91CF91089520
:10292000CF93DF93CDB7DEB70E94F8670E949F1464
:1029300065E08FE00E945268DF91CF910895CF93B8
:10294000DF93CDB7DEB760E080E60E9452686FEF9C
:1029500080E00E9452686FEF81E00E94526860E060
:1029600080E20E94526860E081E20E94526860E06A
:1029700086E60E945268DF91CF9108950F931F93CE
:10298000CF93DF931F921F92CDB7DEB719821A82C1
:1029900019820AC08981882F90E08E59934CFC01DE
:1029A000108289818F5F898389818A3098F38CE2D4
:1029B0000E947268882F90E0817099270097A1F19A
:1029C00085E60E9472688F708A838A818093623C58
:1029D00081E60E9472688093633C86E60E9472687A
:1029E0008093643C83E0898310C08981082F10E0C4
:1029F00089818C590E947268282FC8018E59934C86
:102A0000FC01208389818F5F89838981282F30E0B1
:102A10008A81882F90E002962817390734F360E006
:102A20008CE20E94526802C01092623C82E69CE3F3
:102A30000F900F90DF91CF911F910F910895CF9339
:102A4000DF93CDB7DEB72597CDBFDEBF8C839D83E7
:102A500019821A821B828C819D81FC0180818A836C
:102A60006A8185E30E9452688C819D810196FC01F8
:102A70008081682F81E30E94526860E082E30E94B7
:102A8000526815C08A8181508A838981882F90E09D
:102A900002962C813D81820F931FFC0190818981D8
:102AA0008A5C692F0E94526889818F5F89838A813D
:102AB000882341F768E080E30E9452680FC080E3FA
:102AC0000E947268807F8B838B81882339F080918C
:102AD0006C3C8F5F80936C3C8B810AC08CE20E94BF
:102AE0007268882F90E084709927009741F380E006
:102AF0002596CDBFDEBFDF91CF910895CF93DF93B1
:102B0000CDB7DEB72597CDBFDEBF8C839D8381E037
:102B1000898381E08A838C818B83CE0101960E9418
:102B20001F152596CDBFDEBFDF91CF910895CF93BE
:102B3000DF93CDB7DEB72597CDBFDEBF8D8381E0B4
:102B4000898381E08A8389E08B838D818C83CE01A8
:102B500001960E941F152596CDBFDEBFDF91CF9154
:102B60000895CF93DF931F921F92CDB7DEB70E94D7
:102B7000BE1489839A8389819A81FC01808188238C
:102B800009F45AC089819A810296FC018081882FBC
:102B900090E0AA2797FDA095BA2F41E050E022E1EE
:102BA00030E0841B950B2817390708F445C0865C74
:102BB0009E4FFC010C94B8B580916D3C8F5F809363
:102BC0006D3C8EE090E03AC080916D3C8F5F8093C9
:102BD0006D3C81E090E032C080916D3C8F5F8093CE
:102BE0006D3C82E090E02AC080916D3C8F5F8093C5
:102BF0006D3C83E090E022C080916D3C8F5F8093BC
:102C00006D3C8DE090E01AC080916D3C8F5F8093A9
:102C10006D3C83E190E012C080916D3C8F5F8093AA
:102C20006D3C82E190E00AC080916D3C8F5F8093A3
:102C30006D3C80E190E002C08FE090E00F900F903B
:102C4000DF91CF910895CF93DF9300D01F92CDB73E
:102C5000DEB78C8381E089838C818A838EE08B83CD
:102C6000CE0101960E941F158AE090E00E948A8C96
:102C700006C00E94D28C882311F080E005C00E941B
:102C8000B1150097B1F381E02496CDBFDEBFDF918F
:102C9000CF910895CF93DF93CDB7DEB72797CDBF00
:102CA000DEBF8C839D836E837F8319828C819D819F
:102CB0008230910569F410926E3C10926F3C89E16C
:102CC00090E00E948A8C8E819F810E947E15C1C0F7
:102CD0008C819D818130910509F0BBC080916F3C52
:102CE0008823B1F50E94D28C882381F080916E3CBC
:102CF0008F5F80936E3C80916E3C853018F08AE047
:102D000080936F3C8E819F810E947E150E94B11539
:102D100089838981813019F08981823071F4109220
:102D20006E3C81E080936F3C86E090E00E947E15CF
:102D300089E190E00E948A8C8CC089818D3009F0F5
:102D400088C010926E3C89E190E00E948A8C81C01C
:102D500080916F3C813009F041C00E94D28C882361
:102D600081F080916E3C8F5F80936E3C80916E3CD1
:102D7000853018F08BE080936F3C86E090E00E94F5
:102D80007E150E94BE148A839B838A819B81FC01ED
:102D90008081882309F45DC08A819B810296FC01B1
:102DA0008081863009F055C010926E3C8A819B81EB
:102DB0000396FC018081882F90E08170992700970D
:102DC00009F447C082E080936F3C84E090E00E9469
:102DD0007E1589E190E00E948A8C3BC080916F3C17
:102DE0008230A9F50E94D28C882381F080916E3CBC
:102DF0008F5F80936E3C80916E3C853018F08CE044
:102E000080936F3C84E090E00E947E150E94BE1487
:102E10008A839B838A819B81FC0180818823C9F0FE
:102E20008A819B810296FC018081843091F48A81A1
:102E30009B81FC0183818093703C8A819B81FC0192
:102E400084818093713C83E080936F3C02C00E9438
:102E5000F48C8FE69CE32796CDBFDEBFDF91CF9148
:102E60000895CF93DF93CDB7DEB72597CDBFDEBFF3
:102E70008C839D838C819D818230910569F41092B1
:102E8000723C1092733C89E190E00E948A8C83E04E
:102E900090E00E947E15BEC08C819D81813091059D
:102EA00009F0B8C08091733C882399F50E94D28CB8
:102EB000882381F08091723C8F5F8093723C809177
:102EC000723C853018F08AE08093733C83E090E098
:102ED0000E947E150E94B11589838981833071F427
:102EE0001092723C81E08093733C86E090E00E94F7
:102EF0007E1589E190E00E948A8C8CC089818D309A
:102F000009F088C01092723C89E190E00E948A8C9E
:102F100081C08091733C813009F041C00E94D28C05
:102F2000882381F08091723C8F5F8093723C809106
:102F3000723C853018F08BE08093733C86E090E023
:102F40000E947E150E94BE148A839B838A819B8186
:102F5000FC018081882309F45DC08A819B810296EF
:102F6000FC018081863009F055C08A819B810396DF
:102F7000FC018081882F90E082709927009709F4E6
:102F800049C01092723C82E08093733C85E090E0EF
:102F90000E947E1589E190E00E948A8C3BC080915E
:102FA000733C8230A9F50E94D28C882381F08091F5
:102FB000723C8F5F8093723C8091723C853018F038
:102FC0008CE08093733C85E090E00E947E150E9427
:102FD000BE148A839B838A819B81FC018081882324
:102FE000C9F08A819B810296FC018081853091F431
:102FF0008A819B81FC0183818093743C8A819B81BF
:10300000FC0184818093753C83E08093733C02C013
:103010000E94F48C83E79CE32596CDBFDEBFDF9151
:10302000CF910895CF93DF9300D01F92CDB7DEB735
:103030008B839C838B819C818230910569F41092F3
:10304000763C1092773C89E190E00E948A8C8CE07B
:1030500090E00E947E153BC08B819C818130910560
:10306000B1F50E94D28C882381F08091763C8F5FED
:103070008093763C8091763C853018F08BE080938D
:10308000773C8CE090E00E947E150E94BE148983FC
:103090009A8389819A81FC0180818823C1F089818A
:1030A0009A810296FC0180818C3089F489819A8111
:1030B000FC0183818093783C89819A81FC01848121
:1030C0008093793C81E08093773C0E94F48C87E781
:1030D0009CE32496CDBFDEBFDF91CF910895CF93BF
:1030E000DF93CDB7DEB7C958D109CDBFDEBF9E0192
:1030F00028573F4FF901808391831B821C821D82D8
:103100001E821F82CE0188579F4FFC0180819181D2
:103110008230910571F410927A3C84E690E00E942E
:103120008A8C83E190E00E947E1581E080937A3C56
:10313000BBC0CE0188579F4FFC01808191818130B7
:10314000910509F0B1C080917A3C8130C9F40E94A8
:10315000D28C882319F08BE080937A3C0E94B115C1
:103160008331910509F0A0C084E690E00E948A8C2A
:1031700083E190E00E947E1582E080937A3C94C0C7
:1031800080917A3C823009F08FC01B8282C08B8193
:10319000882F90E0AC0162E381E10E946E461C82C0
:1031A00060C00E94BE1489839A830EC00E94D28C94
:1031B000882331F08CE080937A3C80917A3C76C011
:1031C0000E94BE1489839A8389819A81FC0180813F
:1031D000882361F31D821DC08C81282F30E08D81F2
:1031E000882F90E0820F931F2D81222F30E02E5FD9
:1031F0003F4F49815A81240F351FF90140819E01BB
:10320000285F3F4F820F931FFC0140838D818F5FAA
:103210008D838D81883000F38B818823B9F48C8174
:103220008823A1F489819A810296FC0180818C30E7
:1032300069F089819A810396FC018081843931F09B
:103240008DE080937A3C80917A3C30C084E690E0B7
:103250000E948A8C83E190E00E947E158C81885FB9
:103260008C838C8188230CF09CCFA8958B81882F30
:1032700090E00196982F88278E839F839E01285F78
:103280003F4F8E819F81B9010E9450138B818F5FC8
:103290008B838B81803208F47ACF84E080937A3CF0
:1032A0008EE090E00E947E1580917A3CC757DF4FF8
:1032B000CDBFDEBFDF91CF910895CF93DF93CDB720
:1032C000DEB76597CDBFDEBF8C8B9D8B8AE0EDEDC1
:1032D000F9E3DE011A9601900D928A95E1F71B82BF
:1032E0001C821D821E821F828C899D8982309105DD
:1032F00071F410927B3C84E690E00E948A8C82E11B
:1033000090E00E947E1581E080937B3CA3C08C8975
:103310009D898130910509F09DC080917B3C813071
:10332000A9F40E94D28C882319F08BE080937B3C17
:103330000E94B1158231910509F08CC084E690E0BD
:103340000E948A8C82E080937B3C84C080917B3C8D
:10335000823009F07FC01B8272C0A8958B81882FB4
:1033600090E0AC0162E381E10E946E461C8260C085
:103370008B81882F90E00196382F22278C81882F0F
:1033800090E0822B932B8E839F838E819F810E945E
:10339000D213888799871D8217C08D81882F90E06E
:1033A00002962D81222F30E048855985240F351F44
:1033B000F90140819E01265F3F4F820F931FFC0160
:1033C00040838D818F5F8D838D81883030F3CE0176
:1033D0000A960E941F1584E690E00E948A8C0E9443
:1033E000BE1489839A830EC00E94D28C882331F048
:1033F0008CE080937B3C80917B3C2EC00E94BE146D
:1034000089839A8389819A81FC018081882361F371
:1034100089819A810296FC018081823131F08CE0B1
:1034200080937B3C80917B3C17C08C81885F8C8330
:103430008C8188230CF09CCF8B818F5F8B838B8159
:10344000803208F48ACF84E080937B3C8EE090E069
:103450000E947E1580917B3C6596CDBFDEBFDF91DB
:10346000CF910895CF93DF93CDB7DEB783E190E09E
:103470000E947F7E83E190E00E942D3B80E40E94C9
:10348000BF80DF91CF910895CF93DF93CDB7DEB7A3
:1034900087E090E00E947F7E88E090E00E942D3BD4
:1034A00080E40E94CE80DF91CF9108950F931F9307
:1034B000CF93DF9300D01F92CDB7DEB78C831982F4
:1034C0001A821B828C81882F90E081709927009747
:1034D000C1F089E190E00E949E6D882F90E08A8380
:1034E0009B830E94B36B282F30E08A819B818217D7
:1034F000930724F489818160898303C089818E7F49
:1035000089838C81882F90E082709927009709F138
:103510008FE090E00E949E6D882F90E0182F00278A
:1035200080E190E00E949E6D882F90E0802B912B8F
:103530008A839B830E943D789C018A819B818217AC
:10354000930724F489818260898303C089818D7FF8
:1035500089838C81882F90E084709927009709F1E6
:103560008DE090E00E949E6D882F90E0182F00273C
:103570008EE090E00E949E6D882F90E0802B912B32
:103580008A839B830E943D789C018A819B812817B6
:10359000390724F489818460898303C089818B7F02
:1035A00089838C81882F90E0887099270097A1F0FB
:1035B00063E170E08CE090E00E94447A8A839B8310
:1035C0008A819B818133910521F489818860898377
:1035D00003C08981877F898389812496CDBFDEBF1F
:1035E000DF91CF911F910F910895CF93DF93CDB7C6
:1035F000DEB72A97CDBFDEBF8D839E836F8378872A
:1036000049875A8719828D819E81CC01A0E0B0E064
:1036100046E050E027E030E0841B950B281739077F
:1036200088F1835B9E4FFC010C94B8B58D819E811F
:1036300041E150E060E070E00E948128883091050F
:1036400069F485E190E00E949E6D882339F484E05E
:103650000E94561A9981892B898315C014C08AE06B
:1036600090E00E949E6D882331F484E00E94561AF7
:103670009981892B898384E00E94561A9981892B2C
:10368000898301C000008BE00E94561A9981892B22
:10369000898381E090E00E947F7E89818823B9F050
:1036A00080917C3C882399F485E290E00E94E68B2F
:1036B000882369F081E080937C3C8D819E8180939A
:1036C0007D3C90937E3C83E090E00E94E68B80916D
:1036D0007C3C8823E9F081E080937F3C80917D3CB5
:1036E00090917E3C69810E94AC1BA82FCB018A83FC
:1036F0009B83AC838C81882339F08A819B818D8365
:103700009E8310927C3C04C082E390E08D839E8374
:1037100089818823C9F480917F3C8823A9F0809116
:103720007C3C882389F410927F3C0E94441A83E0F9
:1037300090E00E94E68B49855A852F8138858D81DE
:103740009E81B9010E945C2C8D819E812A96CDBFFD
:10375000DEBFDF91CF910895CF93DF9300D000D0EB
:10376000CDB7DEB78C839D836E838C819D818983E9
:103770009A831B828E81882319F08E818093803CEE
:103780008091803C882F90E081709927009781F08C
:1037900081E00E94E51E0E94281E87E090E0898358
:1037A0009A8381E08B838091803C8E7F8093803CE4
:1037B0008091803C882F90E0827099270097E1F0FB
:1037C0008C819D818730910539F40E945C1C88238F
:1037D00059F081E08B8308C08C819D810E94A31CDD
:1037E000882311F081E08B838B81882329F08091DD
:1037F000803C8D7F8093803C8091803C882F90E03E
:1038000084709927009769F08C819D810E94D91D51
:10381000882339F081E08B838091803C8D7F809379
:10382000803C8091803C882F90E088709927009799
:1038300021F188E00E94E51E0E94971E8C819D81E7
:103840008C30910579F08C819D818D30910551F0FE
:103850008C819D818930910529F08C819D818A30F0
:10386000910521F487E090E089839A8381E08B833E
:103870008091803C877F8093803C8091803C882F22
:1038800090E080719927009761F080E10E94E51E29
:103890000E94BE1E81E08B838091803C8F7E80934E
:1038A000803C89819A81AB81BC018A2F2696CDBF4D
:1038B000DEBFDF91CF910895CF93DF93CDB7DEB711
:1038C0008091813C882381F482E00E94E51E0E9461
:1038D000491E0E942B7D80E097E020E1FC012583BA
:1038E00081E08093813C2BC08091813C8130A1F4A8
:1038F00086E290E00E94E68B882309F180E097E061
:1039000020E1FC01268380E097E020E2FC01258392
:1039100082E08093813C13C08091813C823079F4B5
:1039200087E290E00E94E68B882349F080E097E0F0
:1039300020E2FC0126831092813C81E001C080E0FE
:10394000DF91CF910895CF93DF931F921F92CDB750
:10395000DEB789839A838091823C882309F055C021
:1039600082E00E94E51E0E94491E89819A81CC0155
:10397000A0E0B0E046E050E027E030E0841B950B8B
:1039800028173907E8F18B5A9E4FFC010C94B8B503
:103990008AE090E00E949E6D882331F480E097E0F9
:1039A00020E8FC0125832DC02CC080E097E028E0B2
:1039B000FC01258326C089819A8141E150E060E0C5
:1039C00070E00E9481288830910561F485E190E0E3
:1039D0000E949E6D882331F480E097E022E0FC0194
:1039E00025830FC00E942B7D80E097E020E1FC0141
:1039F000258307C080E097E020E2FC01258301C019
:103A0000000081E08093823CCEC08091823C813076
:103A100009F06FC087E290E00E94E68B882309F4EA
:103A2000C2C089819A81CC01A0E0B0E046E050E0BC
:103A300027E030E0841B950B2817390708F454C0A1
:103A4000835A9E4FFC010C94B8B58AE090E00E9426
:103A50009E6D882359F480E097E020E8FC012683DE
:103A600080E097E020E4FC0125833FC03EC080E079
:103A700097E028E0FC01268380E097E024E0FC0149
:103A8000258333C089819A8141E150E060E070E094
:103A90000E9481288830910589F485E190E00E9498
:103AA0009E6D882359F480E097E022E0FC01268394
:103AB00080E097E021E0FC01258317C080E097E0DB
:103AC00020E1FC01268380E097E020E2FC012583D1
:103AD0000CC080E097E020E2FC01268380E097E0C4
:103AE00020E1FC01258301C0000082E08093823C3C
:103AF0005AC08091823C823009F055C087E290E044
:103B00000E94E68B882309F44EC089819A81CC01FA
:103B1000A0E0B0E046E050E027E030E0841B950BE9
:103B200028173907D8F18B599E4FFC010C94B8B572
:103B30008AE090E00E949E6D882331F480E097E057
:103B400020E4FC0126832BC02AC080E097E024E01B
:103B5000FC01268324C089819A8141E150E060E024
:103B600070E00E9481288830910561F485E190E041
:103B70000E949E6D882331F480E097E021E0FC01F3
:103B800026830DC080E097E020E2FC01268307C079
:103B900080E097E020E1FC01268301C00000109244
:103BA000823C81E001C080E00F900F90DF91CF91C7
:103BB0000895CF93DF931F921F92CDB7DEB789830D
:103BC0009A8389819A81CC01A0E0B0E046E050E080
:103BD00027E030E0841B950B2817390798F18359AB
:103BE0009E4FFC010C94B8B589819A8141E150E067
:103BF00060E070E00E9481288830910599F485E1A9
:103C000090E00E949E6D882369F484E00E94E51E86
:103C10000E94701E80E10E94BF8088E00E94BF80E9
:103C200081E011C0000080E00EC084E00E94E51E2B
:103C30000E94701E80E10E94BF8088E00E94BF80C9
:103C400081E001C081E00F900F90DF91CF91089546
:103C5000CF93DF93CDB7DEB78091833C8F5F8093A6
:103C6000833C8091833C823059F40E94321A41E0B7
:103C700050E061E080E090E00E9442700E94607736
:103C80008091833C8B3F10F01092833CDF91CF9169
:103C90000895CF93DF93CDB7DEB78091843C8F5FDB
:103CA0008093843C8091843C823089F48AE190E066
:103CB0000E949E6D882311F00E94321A41E050E06C
:103CC00062E080E090E00E9442700E946077809104
:103CD000843C8B3F10F01092843CDF91CF9108958B
:103CE000CF93DF93CDB7DEB78091853C8F5F809314
:103CF000853C8091853C823089F48AE190E00E9485
:103D00009E6D882311F00E94321A41E050E064E079
:103D100080E090E00E9442700E9460778091853C34
:103D20008B3F10F01092853CDF91CF910895CF9397
:103D3000DF93CDB7DEB78091863C8F5F8093863C62
:103D40008091863C823089F48BE190E00E949E6DE8
:103D5000882311F00E94321A41E050E068E080E0D0
:103D600090E00E9442700E9460778091863C8B3F79
:103D700010F01092863CDF91CF910895CF93DF939E
:103D8000CDB7DEB78091873C8F5F8093873C809171
:103D9000873C823089F48BE190E00E949E6D8823FD
:103DA00011F00E94321A41E050E060E180E090E0C2
:103DB0000E9442700E9460778091873C8B3F10F098
:103DC0001092873CDF91CF910895CF93DF931F929C
:103DD000CDB7DEB789838981882F90E081709927DC
:103DE000009731F048E050E066E880E10E94744BB3
:103DF0008981882F90E082709927009739F4898112
:103E0000882F90E084709927009761F023E246E0C4
:103E10006CE286E00E94293E41E050E06DE286E0DF
:103E20000E94974A8981882F90E08870992700978F
:103E300059F041E050E061E081E10E94974A60E082
:103E400080E090E00E94ED638981882F90E080718E
:103E50009927009759F041E050E06AE581E10E941E
:103E6000974A60E082E090E00E94ED630F90DF915E
:103E7000CF910895CF93DF9300D0CDB7DEB789837C
:103E80009A836B8389819A8188319105C1F0893148
:103E9000910520F48B309105C9F040C08133910524
:103EA00021F08333910581F139C08091883C909154
:103EB000893C40E050E060E00E9442702FC01092C8
:103EC000883C1092893C10928A3C28C090918B3C8F
:103ED0008B81981741F080918A3C8F5F80938A3C58
:103EE0008B8180938B3C80918A3C882361F0109277
:103EF0008A3C8091883C9091893C01968093883CD3
:103F00009093893C0BC00AC08091883C9091893C79
:103F100001978093883C9093893C00002396CDBF05
:103F2000DEBFDF91CF910895CF93DF931F921F9251
:103F3000CDB7DEB789836A8389810E941162898146
:103F4000882F90E00F969C019A81892F880F890F06
:103F5000880F8358A901682F83E00E94933E0F9039
:103F60000F90DF91CF910895CF93DF93CDB7DEB758
:103F700047EE59E36DE783E00E944643DF91CF911E
:103F80000895CF93DF9300D0CDB7DEB78A839B83AC
:103F90001982198211C08981882F90E02A813B8182
:103FA000820F931FFC018081882319F089810E9470
:103FB000906189818F5F898389818B3060F323963B
:103FC000CDBFDEBFDF91CF910895CF93DF9300D0B7
:103FD0001F92CDB7DEB78B839C8319821A820E9411
:103FE000E66989839A838B819C818430910569F489
:103FF00089819A81019689839A8389819A810E9415
:10400000C7690E94E66989839A8389819A81249687
:10401000CDBFDEBFDF91CF910895CF93DF93CDB7B2
:10402000DEB72997CDBFDEBF8E839F8368877987F0
:1040300019821A821B821C821D828E819F81FC0143
:104040008081918189839A8388859985FC0180810B
:1040500091818B839C8380E00E94A56980938C3C36
:1040600081E090E00E94E58A8D8390918C3C809164
:104070008D3C981719F48D818823F1F080918C3C48
:1040800080938D3C8B819C81009769F489819A8112
:10409000009749F08CE390E08B839C8389819A811F
:1040A000019789839A838B819C8101978B839C8361
:1040B00083E090E00E94E58A8B819C810097F1F477
:1040C00089819A810097D1F483E090E00E94E58A8B
:1040D00019821A8285E090E08B839C838E819F8178
:1040E00029813A81FC0120833183888599852B8140
:1040F0003C81FC012083318381E00FC08E819F8150
:1041000029813A81FC0120833183888599852B811F
:104110003C81FC012083318380E02996CDBFDEBF46
:10412000DF91CF910895CF93DF9300D01F92CDB749
:10413000DEB789839A836B837C8329813A818B8163
:104140009C81281739072CF489819A8101968983EB
:104150009A8389819A812496CDBFDEBFDF91CF916A
:104160000895CF93DF9300D01F92CDB7DEB7898338
:104170009A836B837C8329813A818B819C8182170E
:1041800093072CF489819A81019789839A83898185
:104190009A812496CDBFDEBFDF91CF910895CF9352
:1041A000DF931F92CDB7DEB789838981882F90E096
:1041B000009721F081309105A1F026C04DE050E03C
:1041C00060E08FE00E94974A2FE144E067E28FE0D1
:1041D0000E94BC3D4CEE59E368E280E10E948043BE
:1041E00013C043E050E060E08FE00E94974A2FE167
:1041F00044E067E28FE00E94293E4CEE59E368E21A
:1042000080E10E94464300000F90DF91CF91089516
:10421000CF93DF93CDB7DEB72897CDBFDEBF8E83B8
:104220006F8378871A821B821C821D82198224E187
:1042300044E066E48FE00E94293E198216C089811D
:10424000882F90E02F813885F90140819E012E5FF3
:104250003F4F820F931FFC0140838F819885019609
:104260008F83988789818F5F89838981843038F330
:104270008A810E9467658B810E947F658D81882F6E
:1042800090E0382F22278C81882F90E0822B932B6F
:10429000AC0168E480E10E94FA448E81882F90E0AE
:1042A0008130910551F08230910559F0009709F065
:1042B0001EC08A810E9497651AC08B810E94AF65DB
:1042C00016C024E144E066E48FE00E94BC3D8D818D
:1042D000882F90E0382F22278C81882F90E0822B26
:1042E000932BAC0168E480E10E9480450000289691
:1042F000CDBFDEBFDF91CF910895CF93DF93CDB7D0
:10430000DEB72897CDBFDEBF8E836F8378871A8292
:104310001B821C821D82198223E344E067E28FE046
:104320000E94293E4CEE59E368E280E10E94464338
:10433000198216C08981882F90E02F813885F90174
:1043400040819E012E5F3F4F820F931FFC014083EF
:104350008F81988501968F83988789818F5F898364
:104360008981843038F38A810E9467658B810E943D
:104370007F658D81882F90E0382F22278C81882FB0
:1043800090E0822B932BAC0168E480E10E94FA4418
:104390008E81882F90E08130910551F08230910517
:1043A00059F0009709F01EC08A810E9497651AC0D3
:1043B0008B810E94AF6516C024E144E066E48FE083
:1043C0000E94BC3D8D81882F90E0382F22278C8160
:1043D000882F90E0822B932BAC0168E480E10E944F
:1043E000804500002896CDBFDEBFDF91CF910895B4
:1043F000CF93DF931F92CDB7DEB789834FE050E0B4
:104400006DE28FE00E94974A4CE050E06AE58FE051
:104410000E94744B47E050E068E78FE00E94BA4981
:104420008981882F90E08130910569F08230910573
:1044300089F0009709F015C045E050E06DE28FE08B
:104440000E94974A0EC041E050E06AE58FE00E946A
:10445000744B07C043E050E068E78FE00E94BA4920
:1044600000000F90DF91CF910895CF93DF9300D09C
:1044700000D0CDB7DEB78B839C836D837E8319829A
:1044800085E0898312C08D819E81FC012081898114
:10449000882F90E0622F0E94985B8D819E8101960B
:1044A0008D839E8389818F5F898389818B3058F3C7
:1044B0008B819C8106972D813E81820F931F8D8376
:1044C0009E838D819E81FC0180818A838B819C816A
:1044D00082309105E1F08330910530F4009759F076
:1044E0008130910571F025C083309105B1F08430A1
:1044F0009105C9F01EC06A8180E090E00E94985B3F
:1045000018C06A8181E090E00E94985B12C06A81C5
:1045100082E090E00E94985B0CC06A8183E090E0AA
:104520000E94985B06C06A8184E090E00E94985BDC
:1045300000002696CDBFDEBFDF91CF910895CF93C7
:10454000DF93CDB7DEB72997CDBFDEBF88879987C8
:1045500080E090E28E839F8319821A821B821C82E4
:104560001D82888599858130910579F0813091058A
:1045700020F08230910589F018C082E08C8381E1BF
:104580008D8382E08093002010C081E18C8385E1DF
:104590008D8381E18093002008C086E18C838AE1CD
:1045A0008D8386E18093002000008C81898327C061
:1045B0001A8211C08A818093012040E050E06A8114
:1045C00089810E94C86F882319F481E08B8306C01B
:1045D0008A818F5F8A838A81843060F38B8188230C
:1045E00021F081E0809302200EC010920220809181
:1045F00000208F5F8093002089818F5F898399815C
:104600008D819817A8F28E819F812996CDBFDEBF3C
:10461000DF91CF910895CF93DF93CDB7DEB7629747
:10462000CDBFDEBF898B9A8B83E090E28A879B8720
:1046300019821A821B821C828FE18D838CE08E830B
:104640008CE38F8387E188878BE389871C861D86AF
:104650001E861F86188A89899A898130910579F08A
:104660008130910520F08230910589F018C082E0F8
:104670008B8381E18C8382E08093032010C081E1F1
:104680008B8385E18C8381E18093032008C086E1E0
:104690008B838AE18C8386E18093032000008B81E9
:1046A00089837FC01A8276C040E050E06A818981A8
:1046B0000E94C86F8C8741E050E06A8189810E9426
:1046C000C86F8D8742E050E06A8189810E94C86F7F
:1046D0008E8743E050E06A8189810E94C86F8F878E
:1046E00044E050E06A8189810E94C86F888B8C8584
:1046F000882309F44CC09E858F819817C0F19D8551
:104700008E81981720F49E858F81891780F59C856E
:104710008D81981740F49D858E81891720F09E85A4
:104720008F81891720F59F858885981760F49C856F
:104730008D81891740F09D858E81891720F09E8597
:104740008F818917A0F498898985981700F59F852E
:1047500088858917E0F09C858D818917C0F09D853B
:104760008E818917A0F09E858F81891780F08E85B4
:104770008F838D858E838C858D838F8588878889AF
:1047800089878981809303208A81809304208A818C
:104790008F5F8A838A81843008F486CF89818F5F16
:1047A000898399818C81981708F47CCF8A859B85B1
:1047B0006296CDBFDEBFDF91CF910895CF93DF9397
:1047C000CDB7DEB76297CDBFDEBF898B9A8B85E010
:1047D00090E28A879B8719821A821B821C821D8223
:1047E0001E821F82188619861C861D861E861F86BD
:1047F000188A89899A898130910579F081309105EB
:1048000020F08230910589F018C082E08B8381E12D
:104810008C8382E08093052010C081E18B8385E149
:104820008C8381E18093052008C086E18B838AE137
:104830008C8386E18093052000008B8189837FC073
:104840001A8276C040E050E06A8189810E94C86F78
:104850008C8741E050E06A8189810E94C86F8D8712
:1048600042E050E06A8189810E94C86F8E8743E0F0
:1048700050E06A8189810E94C86F8F8744E050E0D0
:104880006A8189810E94C86F888B8C85882309F48E
:104890004CC09E858F818917C0F19D858E818917B7
:1048A00020F49E858F81981780F59C858D818917CE
:1048B00040F49D858E81981720F09E858F819817F2
:1048C00020F59F858885891760F49C858D819817D0
:1048D00040F09D858E81981720F09E858F819817D6
:1048E000A0F498898985891700F59F858885981790
:1048F000E0F09C858D819817C0F09D858E8198177A
:10490000A0F09E858F81981780F08E858F838D858E
:104910008E838C858D838F85888788898987898117
:10492000809305208A81809306208A818F5F8A8305
:104930008A81843008F486CF89818F5F8983998149
:104940008C81981708F47CCF8A859B856296CDBFB1
:10495000DEBFDF91CF910895CF93DF93CDB7DEB760
:104960002A97CDBFDEBF89879A8787E090E2898347
:104970009A838EE89CE38B839C8389859A85CC01FE
:10498000A0E0B0E040E050E02DE030E0841B950B6B
:104990002817390708F42FC18B589E4FFC010C943F
:1049A000B8B50E942A518091092090910A208987E8
:1049B0009A878091903C882361F0809107209091A4
:1049C0000820009759F587E190E00E949E6D8823AA
:1049D00029F581E08093903C42E050E060E070E097
:1049E00089E090E00E94825489859A8542E050E0F7
:1049F00060E070E00E94812862E070E080E090E07A
:104A00000E94282A0E94D47D4B815C8129813A81B1
:104A100089859A85B9010E941D2B3CC089819A81A4
:104A2000FC01808191818D839E838B819C81FC011F
:104A3000808191818F8398874B815C8129813A8124
:104A400089859A85B9010E941D2B89819A812D81C2
:104A50003E81FC01208331838B819C812F813885AD
:104A6000FC012083318389859A858C30910591F0F2
:104A700089859A858930910569F080918E3C909165
:104A80008F3C282F8091072090910820622F0E9450
:104A90004351B2C0B1C089859A8580930920909313
:104AA0000A202B813C8189819A81B9010E945B2671
:104AB00089879A87A1C089859A85809309209093D8
:104AC0000A202B813C8189819A81B9010E94B426F8
:104AD00089879A8791C089859A85809309209093C8
:104AE0000A202B813C8189819A81B9010E94F92693
:104AF00089879A8781C089859A85809309209093B8
:104B00000A202B813C8189819A81B9010E9440272A
:104B100089879A8771C089859A85809309209093A7
:104B20000A204B815C8129813A8189859A85B90166
:104B30000E94A72789879A8789859A858930910558
:104B400071F48091092090910A208A30910539F4FE
:104B500089859A858093092090930A2013C08985BE
:104B60009A858A30910571F48091092090910A20EC
:104B70008930910539F489859A858093092090932D
:104B80000A203AC039C089859A858093092090937C
:104B90000A204B815C8129813A8189859A85B901F6
:104BA0000E94222889879A8789859A858C30910569
:104BB00071F48091092090910A208D30910539F48B
:104BC00089859A858093092090930A2013C089854E
:104BD0009A858D30910571F48091092090910A2079
:104BE0008C30910539F489859A85809309209093BA
:104BF0000A2002C001C000000E94881481E090E0F9
:104C00000E942D3B0E94798EE82F2B813C814981A7
:104C10005A8189859A85BC018E2F0E94C88F898709
:104C20009A8789859A8561E070E00E9478838987F8
:104C30009A878091092090910A2029853A85281722
:104C4000390749F04B815C8129813A8189859A85B0
:104C5000B9010E941D2B8091913C9091923C813032
:104C6000FDE79F07BCF01092913C1092923C0E948D
:104C70000D3B82E090E00E94C58840918E3C5091AF
:104C80008F3C209107203091082089859A85B901B1
:104C90000E945C2C8091913C9091923C0196809373
:104CA000913C9093923C89859A852A96CDBFDEBF30
:104CB000DF91CF910895CF93DF9300D000D0CDB78F
:104CC000DEB78B839C836D837E8386E090E089834F
:104CD0009A838D819E81FC01208131818B819C8111
:104CE000FC0180819181B9010E9417548B819C81C4
:104CF000FC0180819181682F8BE090E00E943A1F37
:104D00008D819E81FC01408151818B819C81FC01C0
:104D10002081318189819A81B9010E94F51A8983A4
:104D20009A832D813E818B819C81B9010E940D2047
:104D3000882391F089819A818233910569F061E03D
:104D400070E086E090E00E94447A89839A830E9412
:104D5000EC7C89819A8102C086E090E02696CDBFE6
:104D6000DEBFDF91CF910895CF93DF9300D000D0C5
:104D7000CDB7DEB78B839C836D837E8387E090E025
:104D800089839A838D819E81FC01208131818B8171
:104D90009C81FC0180819181B9010E94D5538D8154
:104DA0009E81FC01408151818B819C81FC0120818D
:104DB000318189819A81B9010E94F51A89839A8388
:104DC0002D813E818B819C81B9010E940D20882319
:104DD00041F089819A818233910519F08BE090E04E
:104DE00002C087E090E02696CDBFDEBFDF91CF9175
:104DF0000895CF93DF9300D000D0CDB7DEB78B837B
:104E00009C836D837E838BE090E089839A838D8180
:104E10009E81FC01208131818B819C81FC018081FC
:104E20009181B9010E9417548D819E81FC014081BE
:104E300051818B819C81FC012081318189819A8102
:104E4000B9010E94F51A89839A832D813E818B8155
:104E50009C81B9010E940D20882351F089819A819B
:104E60008233910529F00E943A7C88E090E002C0EC
:104E70008BE090E02696CDBFDEBFDF91CF91089505
:104E8000CF93DF9300D000D0CDB7DEB78B839C8368
:104E90006D837E8388E090E089839A838D819E81F3
:104EA000FC01208131818B819C81FC018081918179
:104EB000B9010E9417548D819E81FC01408151816E
:104EC0008B819C81FC012081318189819A81B9018A
:104ED0000E94F51A89839A832D813E818B819C8162
:104EE000B9010E940D20882351F189819A81823372
:104EF000910529F10E94A67C60E081E390E00E9488
:104F00003A1F42E050E060E080E090E00E94427092
:104F100060E088E190E00E943A1F8EE190E00E94FC
:104F20009E6D882349F081E290E00E949E6D882367
:104F300019F486E090E005C089E090E002C088E0C6
:104F400090E02696CDBFDEBFDF91CF910895CF933D
:104F5000DF93CDB7DEB72897CDBFDEBF8B839C83B1
:104F60006D837E834F8358878B819C8189839A834D
:104F70008F819885FC01408151818D819E81FC014A
:104F8000208131818B819C81B9010E94F51A8B832C
:104F90009C838F819885FC01208131818B819C814C
:104FA00041E050E0B9010E9482548B839C838F8141
:104FB0009885FC01208131818B819C8141E050E00A
:104FC000B9010E9481282F8138858D819E81B90188
:104FD0000E940D20882329F18B819C8182339105C9
:104FE00001F187E190E00E949E6D882341F08B8162
:104FF0009C8164E370E00E941466882391F08B81A9
:105000009C8143E050E060E070E00E9481288B8149
:105010009C818930910511F40E94EC7C8CE090E039
:105020000BC08B819C818233910521F489819A8107
:105030008B839C838B819C812896CDBFDEBFDF91C3
:10504000CF910895CF93DF9300D000D0CDB7DEB7D6
:1050500089839A836B837C834D835E838D819E815C
:10506000FC01408151818B819C81FC012081318137
:1050700089819A81B9010E94F51A89839A838D8169
:105080009E81FC012081318189819A8141E050E03B
:10509000B9010E94825489839A838D819E81FC018B
:1050A0002081318189819A8141E050E0B9010E94DB
:1050B00081282D813E818B819C81B9010E940D2028
:1050C0008823B9F089819A818233910591F0898191
:1050D0009A8143E050E060E070E00E94812889817D
:1050E0009A818C30910511F40E94EC7C87E090E06D
:1050F00002C089819A812696CDBFDEBFDF91CF9114
:105100000895CF93DF9300D000D0CDB7DEB7898369
:105110009A836B837C834D835E838D819E818230F5
:10512000910531F583E190E00E949E6D8093943C5F
:105130008091943C882369F41092933C85E190E03F
:1051400080930B2090930C2080910B2090910C2049
:1051500079C11092953C81E08093943C82E08093E9
:10516000933C87E090E080930B2090930C2066C1E5
:105170008D819E818131910529F480910B20909140
:105180000C2060C18D819E818231910511F5809145
:105190000B2090910C208830910571F0853191059C
:1051A00021F08730910509F00EC089819A8167E06E
:1051B00070E00E94F15207C089819A8168E070E036
:1051C0000E94F152000063E97CE387E00E9477537C
:1051D00035C180910B2090910C208531910529F4E7
:1051E00080910B2090910C202DC18D819E818F305C
:1051F0009105E9F480910B2090910C208830910565
:1052000009F01CC189819A818C30910509F416C17D
:1052100089819A818930910509F410C189819A8127
:1052200068E070E00E94F1520E944C7D07C18D81C0
:105230009E8183309105E9F480910B2090910C20A0
:105240008830910509F0FAC089819A818C309105E6
:1052500009F4F4C089819A818930910509F4EEC07E
:1052600089819A8168E070E00E94F1520E94877DF6
:10527000E5C08D819E818130910509F0DFC080916C
:105280000B2090910C208830910581F589819A81BD
:105290008233910559F18091943C882339F58091AE
:1052A000933C882319F587E090E080930B2090933E
:1052B0000C2086E190E00E949E6D8093953C84E1F5
:1052C00090E00E949E6D8093943C82E08093933C9A
:1052D00089819A8167E070E00E94F15263E97CE382
:1052E00087E00E9477530E94877D40C080910B2009
:1052F00090910C2087309105C9F589819A8182337C
:105300009105A1F18091953C882381F58091943C91
:10531000882361F58091933C882341F589819A81A6
:105320008D30910529F089819A818A309105F1F4B7
:1053300088E090E080930B2090930C201092953C95
:1053400083E190E00E949E6D8093943C82E0809384
:10535000933C89819A8168E070E00E94F15263E990
:105360007CE387E00E9477530E944C7D89819A817B
:105370008D30910591F089819A818A30910569F08B
:1053800089819A818233910541F080910B2090911F
:105390000C208730910509F051C08091963C282F50
:1053A00030E08B819C812817390709F447C08B8135
:1053B0008093963C8091933C882391F58091943C16
:1053C000882321F48091953C882319F08CE3809305
:1053D000933C8091943C8823A9F48091953C882348
:1053E00089F08CE38093943C8091953C882329F04C
:1053F0008091953C81508093953C63E97CE386E005
:105400000E9477538091943C882329F08091943CAA
:1054100081508093943C63E97CE382E00E9477535F
:105420008091933C882329F08091933C8150809314
:10543000933C63E97CE381E00E94775380910B20E9
:1054400090910C202696CDBFDEBFDF91CF910895BD
:10545000CF93DF9300D01F92CDB7DEB789839A83B5
:105460006B837C838B819C818230910501F581E186
:1054700090E00E949E6D8093973C8091973C88239A
:1054800049F410920D2085E190E08093983C909330
:10549000993CCDC081E08093973C85E080930D20BE
:1054A00087E090E08093983C9093993CC0C08B81BA
:1054B0009C818F30910599F58091983C9091993C11
:1054C0008830910539F08531910569F08730910573
:1054D00051F012C00E94387D40E050E066E886E05E
:1054E0000E94744B09C00E94427D4BE050E066E888
:1054F00086E00E94744B00008091973C882F90E0DA
:10550000AC0167E88DE00E94064680910D20882F4F
:1055100090E0AC0163E98DE00E94064688C080916E
:10552000983C9091993C8531910509F480C08B811C
:105530009C818130910509F07AC080919A3C282F96
:1055400030E089819A812817390731F18981809368
:105550009A3C80910D20882389F48CE380930D2060
:105560008091973C81508093973C8091973C882F05
:1055700090E0AC0167E88DE00E94064680910D2026
:10558000815080930D2080910D20882F90E0AC01F8
:1055900063E98DE00E9406468091983C9091993C89
:1055A00088309105F9F48091973C8823D9F4809153
:1055B0000D208823B9F487E090E08093983C909385
:1055C000993C82E190E00E949E6D8093973C1092FE
:1055D0000D204BE050E066E886E00E94744B0E948C
:1055E000427D25C08091983C9091993C87309105EF
:1055F000F1F48091973C8823D1F480910D20882389
:10560000B1F488E090E08093983C9093993C81E1DC
:1056100090E00E949E6D8093973C10920D2040E098
:1056200050E066E886E00E94744B0E94387D249624
:10563000CDBFDEBFDF91CF9108950F931F93CF931E
:10564000DF9300D000D0CDB7DEB789839A836B8318
:105650007C834D835E838D819E81FC01108211824B
:1056600089819A81CC01A0E0B0E040E050E02DE0DB
:1056700030E0841B950B2817390708F414C18D57A7
:105680009E4FFC010C94B8B58D819E81FC01408138
:1056900051818B819C81FC012081318189819A819A
:1056A000B9010E945C2C0E94D47DFEC08B819C813C
:1056B00022E030E0FC01208331838D819E81FC015A
:1056C000408151818B819C81FC01208131818981C4
:1056D0009A81B9010E945C2C0E94DB7CE5C088E0C5
:1056E00090E00E949E6D282F30E08B819C81FC0110
:1056F000208331838D819E81FC01408151818B818A
:105700009C81FC012081318189819A81B9010E94AB
:105710005C2C0E94097CC8C089E090E00E949E6DCC
:10572000282F30E08B819C81FC01208331838D8187
:105730009E81FC01408151818B819C81FC012081F3
:10574000318189819A81B9010E945C2C0E941F7C61
:10575000ABC08BE090E00E949E6D282F30E08B81E3
:105760009C81FC01208331838CE090E00E949E6D3F
:10577000282F30E08D819E81FC01208331838B8135
:105780009C81FC0180819181009779F48D819E81BB
:10579000FC0180819181009741F48D819E8121E0FF
:1057A00030E0FC01208331837FC08D819E81FC012C
:1057B000408151818B819C81FC01208131818981D3
:1057C0009A81B9010E945C2C0E94957C6DC082E098
:1057D00090E00E949E6D882F90E0182F002783E0B4
:1057E00090E00E949E6D882F90E09801282B392B25
:1057F0008B819C81FC01208331838D819E81FC0102
:10580000408151818B819C81FC0120813181898182
:105810009A81B9010E945C2C89819A8142E050E012
:1058200060E070E00E94825489819A814FE050E0EC
:1058300060E070E00E94825437C086E090E00E94F1
:105840009E6D882F90E0182F002787E090E00E943F
:105850009E6D882F90E09801282B392B8B819C819D
:10586000FC01208331838D819E81FC014081518127
:105870008B819C81FC012081318189819A81B901D0
:105880000E945C2C89819A8142E050E060E070E0E7
:105890000E94825489819A814FE050E060E070E07C
:1058A0000E94825401C000002696CDBFDEBFDF916A
:1058B000CF911F910F910895CF93DF9300D000D027
:1058C000CDB7DEB789839A836B837C834D835E83F8
:1058D0000E94605189819A81CC01A0E0B0E040E053
:1058E00050E02DE030E0841B950B2817390790F12C
:1058F0008F569E4FFC010C94B8B50E942A512BC0C4
:105900009D818B81692F0E94645225C09D818B816E
:10591000692F0E9487521FC09D818B81692F0E9431
:10592000A45219C09D818B81692F0E94CE5213C051
:1059300089819A8145E050E060E070E00E948254E5
:105940000AC089819A8145E050E060E070E00E94E1
:10595000825401C0000089819A8142E150E060E0F8
:1059600070E00E9481282696CDBFDEBFDF91CF91E7
:105970000895CF93DF9300D000D0CDB7DEB78D83ED
:105980009E838EE090E289839A838BE99CE38B83EC
:105990009C838D819E81CC01A0E0B0E041E050E08D
:1059A00026E230E0841B950B2817390708F47EC0E7
:1059B00081569E4FFC010C94B8B58CE190E08D832C
:1059C0009E8385E090E080930E2090930F201092AC
:1059D0009B3C10929C3C80919B3C90919C3C282F3E
:1059E00080910E2090910F20622F0E9480575FC0FF
:1059F0002B813C8189819A81B9010E948B2D8D83F5
:105A00009E8355C04B815C8129813A818D819E8125
:105A1000B9010E94D32D8D839E8349C04B815C8147
:105A200029813A818D819E81B9010E94412E8D8309
:105A30009E833DC02B813C8189819A81B9010E945E
:105A4000AF2E8D839E8333C02B813C8189819A81C7
:105A5000B9010E94F72E8D839E8329C02B813C8142
:105A600089819A81B9010E94A62F8D839E831FC0D0
:105A70002B813C8189819A81B9010E94F02F8D830D
:105A80009E8315C02B813C8189819A81B9010E9436
:105A90003A308D839E830BC02B813C8189819A8112
:105AA000B9010E9484308D839E8301C000000E9452
:105AB000881481E090E00E942D3B8D819E81269686
:105AC000CDBFDEBFDF91CF910895CF93DF9300D09C
:105AD00000D0CDB7DEB789839A836B837C834D83F7
