:106000000C944A300C9467300C9467300C946730D1
:106010000C9467300C9467300C9467300C946730A4
:106020000C9467300C9467300C9467300C94673094
:106030000C9467300C9467300C9467300C94673084
:106040000C9467300C9467300C9467300C94673074
:106050000C9467300C9467300C9467300C94673064
:106060000C9467300C9467300C9467300C94673054
:106070000C9467300C9467300C9467300C94673044
:106080000C9467300C9467300C9467300C94673034
:106090000C94673011241FBECFEFD8E0DEBFCDBF18
:1060A00011E0A0E0B1E0EEE4F8E602C005900D9248
:1060B000A031B107D9F711E0A0E1B1E001C01D9214
:1060C000A032B107E1F70E9412340C9425340C94ED
:1060D0000030259A549A6B9A10BA2D985C98739A4E
:1060E0000895F894E1E6F0E080E880831082089556
:1060F000E0E6F0E08081886180838EE0808308950F
:106100000E9478300E94713085E090E00E94CF3389
:106110000E9469300E94103385E090E00E94CF33E6
:106120000E94CB3381E00C94A333FF920F931F9313
:10613000CF93DF9364E670E082E090E00E94E63364
:1061400010E000E0A8950E948033EC018881811165
:106150000CC00E948033EC0164E670E081E090E0C6
:106160000E94E633882391F331C08830E1F423960E
:10617000F12C688170E0762F6627FE0131978081CF
:10618000682B8F2D800F0E949431F394229684E027
:10619000F812EFCF64E670E082E090E00E94E63310
:1061A0000E94213209C0813039F48A818E3021F475
:1061B000812F0E94C1310AC00C5F003819F6812F6F
:1061C0000E94C1311F5F103409F0BBCF8FE090E017
:1061D000DF91CF911F910F91FF900895CF92DF92A1
:1061E000EF92FF920F931F93CF93DF93CDB7DEB75C
:1061F0002A970FB6F894DEBF0FBECDBFE82EC62E8D
:106200008AE0E0E0F1E0DE01119601900D928A95BE
:10621000E1F78E010C5F1F4FF12CDF2CDC0C40E00E
:106220006D2D8E2D0E948531F8013197808341E0DC
:106230006D2D8E2D0E948531F8018083F3940E5FC1
:106240001F4FF4E0FF12E9CFCE0101960E945B33AD
:106250002A960FB6F894DEBF0FBECDBFDF91CF9167
:106260001F910F91FF90EF90DF90CF9008950F93C3
:106270001F93CF93DF9364E670E082E090E00E948A
:10628000E63300E010E00E948033EC018881811148
:106290000CC00E948033EC0164E670E081E090E085
:1062A0000E94E633882391F317C08A81833161F419
:1062B000612F802F0E94EE30A89564E670E082E0A6
:1062C00090E00E94E63302C08E3031F01C5F10383F
:1062D000D1F60F5F0034B1F68FE090E0DF91CF91FF
:1062E0001F910F9108950C94000008950C940018CC
:1062F0000895802D08950C01089570E0660F771FB2
:10630000782B462BE42FF72F08950F921F92EF93CF
:10631000FF930E947D3181E087BFC895802DFF915A
:10632000EF911F900F900895CF93DF93EB010F92A1
:106330001F92EF93FF9340E0682F80E00E947D3131
:106340000E0181E087BFE89507B600FCFDCFFF9105
:10635000EF911F900F90DF91CF9108950F921F92B0
:10636000EF93FF9340E060E00E947D3183E087BFC0
:10637000E89507B600FCFDCFFF91EF911F900F90BD
:106380000895CF93C82F0F921F92EF93FF9340E091
:1063900060E00E947D3183E087BFE89507B600FC8E
:1063A000FDCF40E060E08C2F0E947D3185E087BF0B
:1063B000E89507B600FCFDCFFF91EF911F900F907D
:1063C000CF910895CF93DF9300D01F92CDB7DEB762
:1063D00081E089831A828DE08B83CE0101960E9431
:1063E0005B330F900F900F90DF91CF910895CF9373
:1063F000DF9300D01F92CDB7DEB781E089831A8288
:106400008EE08B83CE0101960E945B330F900F903C
:106410000F90DF91CF910895CF93DF9300D01F921B
:10642000CDB7DEB781E089831A8280E18B83CE010C
:1064300001960E945B330F900F900F90DF91CF91E8
:106440000895CF93DF9300D01F92CDB7DEB781E0E0
:1064500089831A8282E18B83CE0101960E945B338D
:106460000F900F900F90DF91CF910895CF93DF930E
:1064700000D01F92CDB7DEB781E089831A8283E115
:106480008B83CE0101960E945B330F900F900F908B
:10649000DF91CF910895CF93DF9300D000D01F926A
:1064A000CDB7DEB785E0EAE0F1E0DE0111960190BC
:1064B0000D928A95E1F7CE0101960E945B330F9011
:1064C0000F900F900F900F90DF91CF910895CF9381
:1064D000DF9300D000D0CDB7DEB782E089831A8287
:1064E00086E08B83809110018C83CE0101960E94FF
:1064F0005B330F900F900F900F90DF91CF91089525
:10650000CF93DF93EC010E948033FC0180818823CC
:1065100049F18181882331F18281813169F038F438
:106520008C30F1F08031F1F40E940C321BC08231CA
:1065300041F0833169F016C00E94F7310E94733137
:1065400011C0CF30D10571F40E94213282E106C022
:10655000CF30D10539F40E94363283E190E003C098
:106560000E944B32CE01DF91CF9108958530910585
:10657000E1F060F482309105A9F00397D9F46095B9
:106580008091100186238093100114C088319105F9
:1065900049F0209110018A31910551F00F9751F483
:1065A000622B03C01092100105C06093100102C05D
:1065B000822F089580911001089590E29093ED004C
:1065C000EFEEF0E08081816080831092F000109205
:1065D000F1009093F2001092F3001092F4001092E8
:1065E000F5001092F6001092F70080818068808399
:1065F000089580E090E09C0144E0220F331F4A950B
:10660000E1F72093ED002091EE001092EE00109241
:10661000EF001092FA0001968E30910561F708950F
:10662000559A569881E08093D8008FEF8093DA00D6
:106630001092DB001092DF001092DE000E94F9320F
:1066400082E18093E2008CE08093E30087E3809313
:10665000E4001092E50082E08093D8008091D90098
:1066600082FFFCCF0E94DD3260E082E090E00C947B
:10667000B63280E18093ED009091EE00892F807416
:1066800096FF06C08091EE008F7B8093EE0081E044
:1066900008958091EF0080688093EF009091EE0064
:1066A000892F807295FF06C08091EE008F7D8093C8
:1066B000EE0081E0089520E12093ED001092EF00BC
:1066C000FC012081318132969091EF00822F8F70F2
:1066D000892B8093EF001092F0001092F10010923D
:1066E000F2003093F300222329F081918093FA0085
:1066F0002150F9CF8091EF0080648093EF000895DE
:1067000080E28093ED000E9449338823B9F08091A4
:10671000EF008F70809311019091F300909312011C
:1067200092E0980F82E0891759F02091FA00E82F43
:10673000F0E0EF5EFE4F20838F5FF5CF10921101E6
:1067400081E191E0089590E29093ED001092F000C5
:106750001092F1001092F2008093F3001092F40076
:106760001092F5001092F6008FEF8093F700EFEE95
:10677000F0E080818068808308950000089516BC51
:1067800083E084BD089595B3892F817090FF02C086
:10679000A89A81E0089584B58C7F84BD08950F93F5
:1067A0001F93CF93DF938C010E94BF33C0E0D0E0F2
:1067B000C017D10734F40E94C3338823E1F3219634
:1067C000F7CFDF91CF911F910F91089582309105FE
:1067D00059F410921F0110921E0170931D016093D5
:1067E0001C010E94BF3302C0019711F080E00895A0
:1067F0000E94C3338823D1F380911E0190911F0121
:10680000019690931F0180931E0120911C013091ED
:106810001D012817390754F710921F0110921E010D
:1068200081E008950E9480308FE090E0A8950E945A
:1068300080328231910531F083319105B9F70E94A0
:0E6840003731F4CF0E949530F1CFF894FFCF9E
:10684E000800010203040506070803000C020100FC
:040000030000600099
:00000001FF
