:100000000C94DA010C9400020C9400020C9400028F
:100010000C9400020C9400020C9400020C94000258
:100020000C9400020C9400020C9400020C94000248
:100030000C9400020C9400020C9400020C94000238
:100040000C9400020C9400020C9400020C94000228
:100050000C9400020C9400020C9400020C94000218
:100060000C9400020C9400020C9400020C94000208
:100070000C9400020C9400020C9400020C940002F8
:100080000C9400020C9400020C9400020C940002E8
:100090000C9400020C9400020C9400020C940002D8
:1000A0000C9400020C9400020C9400020C940002C8
:1000B0000C9400020C9400020C9400020C940002B8
:1000C0000C9400020C9400020C9400020C940002A8
:1000D0000C9400020C9400020C9400020C94000298
:1000E0000C9400020C9400020C9400020C94000288
:1000F0000C9400020C9400020C9400020C94000278
:100100000C9400020C9400020C9400020C94000267
:100110000C9400020C9400020C9400020C94000257
:100120000C9400020C9400020C9400020C94000247
:100130000C9400020C9400020C9400020C94000237
:100140000C9400020C9400020C9400020C94000227
:100150000C9400020C9400020C9400020C94000217
:100160000C9400020C9400020C9400020C94000207
:100170000C9400020C9400020C9400020C940002F7
:100180000C9400020C9400020C9400020C940002E7
:100190000C9400020C9400020C9400020C940002D7
:1001A0000C9400020C9400020C9400020C940002C7
:1001B0000C9400020C9400020C9400020C940002B7
:1001C0000C9400020C9400020C9400020C940002A7
:1001D0000C9400020C9400020C9400020C94000297
:1001E0000C9400020C9400020C94FB790C94000215
:1001F0000C94000277037A037D0380038303860354
:1002000089038C038F039203950398039B039E033A
:10021000A103A403A703AA03AD03B003B303B6036A
:10022000B903BC03BF03C203C503C803CB03CE039A
:10023000D103D603E803EB03EE03F103F403F70362
:10024000FA03FD0300040304060409040C040F046C
:100250001204150418041B041E042104240427049A
:100260002A042D0430043304360439043C043F04CA
:1002700042044704A43CA93CAE3CB33CB83CBD3C62
:10028000C23CC93CD03CD53CDA3CE13C683C6D3CCE
:10029000723C773C7C3C813C863C8B3C903C953C62
:1002A0009A3C9F3C7B417E418141844187418A4108
:1002B0008F41924198419B419E419541A141A4416A
:1002C000CC41CF41D241D541D841DB41DE41E14172
:1002D000E441E741EA41ED41F041F341A941BB412D
:1002E000AC41AF41B241B541B841BE41C141C44149
:1002F000C741F841FB41FE410142044207420A4224
:100300000D4210425148534876487948554857485D
:100310007C487F4859485B485D485F48614882484F
:10032000854888488B486348654867486A486D48EF
:10033000C948704873488E489148944897489A48ED
:10034000C4489D48A048A348B848BB48BE48C148D7
:10035000B248B548A648A948AC48AF48DC48DE4892
:1003600001490449E048E24807490A49E448E648A7
:10037000E848EA48EC480D49104913491649EE4847
:10038000F048F248F548F8485449FB48FE481949F6
:100390001C491F49224925494F4928492B492E49C3
:1003A0004349464949494C493D4940493149344905
:1003B00037493A4911241FBECFEFDFE3DEBFCDBF7F
:1003C00000E00CBF18BE19BE1ABE1BBE1CE3A0E0A5
:1003D000B0E2E8E1F5EF00E00BBF02C007900D923C
:1003E000A436B107D9F71BBE1DE3A4E6BCE301C0E8
:1003F0001D92A13CB107E1F70E945A410C948A7A00
:100400000C9400001F93CF93DF93C0E0D6E010E27E
:100410001983882321F41D8382E090E003C01D83AB
:100420008CE390E00E94F0581E8384E190E00E94EB
:10043000F058DF91CF911F9108950F931F93CF93A1
:10044000DF93C0E0D0E00EEF17E0C8010C2E02C031
:10045000959587950A94E2F781700E940202219691
:10046000CC30D10591F7DF91CF911F910F91089575
:100470000F931F93CF93DF93C0E0D0E001E018E02B
:10048000C8010C2E02C0959587950A94E2F78170F9
:100490000E9402022196CC30D10591F7DF91CF91D5
:1004A0001F910F9108950F931F93CF93DF93C0E097
:1004B000D0E001E010E0C8010C2E02C0880F991FA7
:1004C0000A94E2F780780E9402022196C830D10592
:1004D00091F7DF91CF911F910F9108950F931F9383
:1004E000CF93DF93C0E0D0E007E310E0C8010C2E0B
:1004F00002C0880F991F0A94E2F780780E940202D6
:100500002196C830D10591F7DF91CF911F910F91BE
:1005100008950F931F93CF93DF93C0E0D0E002E1E3
:1005200010E0C8010C2E02C0959587950A94E2F759
:1005300081700E9402022196C630D10591F7DF91A9
:10054000CF911F910F9108950E9438020E94890255
:100550000E9453020E941D0208950F931F93CF9390
:10056000DF93C0E0D0E00AE110E0C8010C2E02C029
:10057000959587950A94E2F781700E940202219670
:10058000C630D10591F7DF91CF911F910F9108955A
:100590000E9438020E94AD020E946E020E941D025B
:1005A00008950E94C8020E94A4020895CF93DF9389
:1005B000AAECB1E052E05C93E0E2F0E0E4911C923E
:1005C00020E032E0E901EC875C93E1E2F0E0E491C5
:1005D0001C92ED875C93E4E2F0E0E4911C9280E4ED
:1005E00092E0EC01EC875C93E5E2F0E0E4911C9290
:1005F000ED87F901118240E24283548351E0508338
:1006000019824A835C83588350A348E141A350A7D1
:1006100040E141A758A340E349A350AB88E381AB35
:10062000DF91CF910895AAECB1E092E09C93E82F7E
:10063000F0E0E4911C928E2F0895E0E0F2E091E06A
:1006400090A388E181A390A780E181A70895E0E4C9
:10065000F2E081E080A380E381A30895E0E0F2E08E
:1006600081E080AB88E381AB0895809100028061D6
:10067000809300028091060282FFFCCF80910602E7
:100680008460E0E0F2E0868380911402909115028C
:10069000845C9940CCF48091643C9091653C0196D7
:1006A0008093643C9093653C039711F40E94124D33
:1006B0008091643C9091653C815D92404CF0109239
:1006C000643C1092653C08951092643C1092653C25
:1006D0000895FC018032910540F4E650FF4FEE0F83
:1006E000FF1F0590F491E02D199480E0089580E0BB
:1006F00090E059C081E090E056C082E090E053C0A5
:1007000083E090E050C084E090E04DC085E090E050
:100710004AC086E090E047C087E090E044C088E0AF
:1007200090E041C089E090E03EC08AE090E03BC0AC
:100730008BE090E038C08CE090E035C08DE090E038
:1007400032C08EE090E02FC08FE090E02CC080E1BE
:1007500090E029C081E190E026C082E190E023C0D2
:1007600083E190E020C084E190E01DC085E190E04D
:100770001AC086E190E017C087E190E014C088E1DC
:1007800090E011C089E190E00EC08AE190E00BC0DA
:100790008BE190E008C08CE190E005C08DE190E035
:1007A00002C08EE190E00E94AE0408958FE190E0D7
:1007B0000E94AE040895FC018032910508F06BC0E0
:1007C000E65EFE4FEE0FFF1F0590F491E02D1994A9
:1007D00080E090E059C081E090E056C082E090E077
:1007E00053C083E090E050C084E090E04DC085E0CD
:1007F00090E04AC086E090E047C087E090E044C0C7
:1008000088E090E041C089E090E03EC08AE090E05E
:100810003BC08BE090E038C08CE090E035C08DE0CC
:1008200090E032C08EE090E02FC08FE090E02CC0CE
:1008300080E190E029C081E190E026C082E190E073
:1008400023C083E190E020C084E190E01DC085E1F9
:1008500090E01AC086E190E017C087E190E014C0F4
:1008600088E190E011C089E190E00EC08AE190E05B
:100870000BC08BE190E008C08CE190E005C08DE1F9
:1008800090E002C08EE190E00E94740408958FE130
:1008900090E00E9474040895DF93CF93CDB7DEB744
:1008A000C258D040CDBFDEBF99838A8390E09E01BD
:1008B0002D5F3F4FE92FF0E0D901AE0FBF1FE60FCC
:1008C000F71F80818C939F5F9038A1F780E5BE0170
:1008D0006F5F7F4F42E80E944878CE57DF4FCDBF11
:1008E000DEBFCF91DF910895DF93CF9300D0CDB7D6
:1008F000DEB7DE011196E0E0F0E223E001900D9218
:100900002150E1F799838A836B8380E5BE016F5F95
:100910007F4F43E00E9448782396CDBFDEBFCF9142
:10092000DF910895DF93CF930F920F92CDB7DEB78B
:1009300099838A8380E5BE016F5F7F4F42E00E940A
:10094000487880E568E00E9486789C012F5F3F4FE1
:10095000C9010F900F90CF91DF910895DF93CF934E
:100960000F920F92CDB7DEB799838A8380E5BE01DF
:100970006F5F7F4F42E00E94487880E561E00E940F
:100980008678FC0181810F900F90CF91DF910895BF
:10099000CF93DF93C0E0D0E0CE016BE00E947404FF
:1009A0008AE090E00E94F9582196C032D105A1F763
:1009B000DF91CF9108958BECE0E5F0E0828388E051
:1009C000809350008091510083FFFCCF88ED84BF5D
:1009D00083E080934000089588ED84BF8BE280938C
:1009E00080000895A89508950E94C8040E941946A1
:1009F0000E94224A0E9441430E941B1108950E94B6
:100A0000DB040E9421520E94D60278940E94B3799E
:100A10000E9488770E94D0770E941A230E9414595E
:100A20000E9488240E9414590E9479320E94F40482
:100A300088ED84BF8BE2809380000E9496430E94E1
:100A4000D1020E9458090E94C14B0E94145989E1A9
:100A500090E00E948D5A81E190E00E94AE0504C0B2
:100A60000E94A75A882321F40E944B060E97C1F7D3
:100A70000E941E5A82E090E00E944C5B089580E63E
:100A800060E00E944B4280E06FEF0E944B4281E0A9
:100A90006FEF0E944B4280E260E00E944B4281E295
:100AA00060E00E944B4286E660E00E944B4208955F
:100AB000FF920F931F93CF93DF938C01FC01F08083
:100AC00085E36F2D0E944B4281E3F80161810E9412
:100AD0004B4282E360E00E944B42E80100E007C025
:100AE000FA94802F8A5C69810E944B420F5F2196A5
:100AF000FF20B1F780E368E00E944B420CC080E326
:100B00000E94AD42982F907F31F08091753C8F5FAD
:100B10008093753C06C08CE20E94AD4282FFEFCF0D
:100B200090E0892FDF91CF911F910F91FF90089551
:100B3000DF93CF9300D00F92CDB7DEB791E09983CA
:100B40009A8399E09B838C83CE0101960E9458057D
:100B50002496CDBFDEBFCF91DF910895DF93CF9371
:100B600000D0CDB7DEB791E099839A838B83CE0115
:100B700001960E9458052396CDBFDEBFCF91DF912D
:100B80000895EF92FF920F931F93DF93CF930F92ED
:100B9000CDB7DEB7E6E7FCE311922CE3E038F207CD
:100BA000D9F78CE20E94AD4280FF2EC085E60E94FC
:100BB000AD42182F1F701093763C81E60E94AD4223
:100BC0008093773C86E60E94AD428093783C93E028
:100BD000012F10E00F5F1F4F0DC0892F8C59998393
:100BE0000E94AD42E6E7FCE3EE0EFF1EF7018083B4
:100BF00099819F5FE92EFF240E151F0574F78CE283
:100C000060E00E944B4202C01092763C86E79CE373
:100C10000F90CF91DF911F910F91FF90EF9008956A
:100C20008230910569F410926B3C1092683C89E126
:100C300090E00E948D5A8CE090E00E94AE0528C0A2
:100C4000019731F50E94A75A882371F080916B3C7F
:100C50008F5F80936B3C853018F08BE08093683C0D
:100C60008CE090E00E94AE050E94C105FC018081ED
:100C7000882371F082818C3059F483818093693CA0
:100C8000848180936A3C81E08093683C0E94B75ADB
:100C900088E69CE308950E94C105FC0180818823B9
:100CA00009F45CC082818D30C9F18E3040F482300D
:100CB00029F1833059F1813009F050C017C08031DB
:100CC00009F444C0813120F48E3009F047C006C0D9
:100CD0008231A1F1833109F041C028C08091743C78
:100CE0008F5F8093743C2EE030E03AC08091743C7A
:100CF0008F5F8093743C21E030E032C08091743C7F
:100D00008F5F8093743C22E030E02AC08091743C75
:100D10008F5F8093743C23E030E022C08091743C6C
:100D20008F5F8093743C2DE030E01AC08091743C5A
:100D30008F5F8093743C23E130E012C08091743C5B
:100D40008F5F8093743C22E130E00AC08091743C54
:100D50008F5F8093743C20E130E002C02FE030E0F0
:100D6000C9010895DF93CF9300D0CDB7DEB791E0EE
:100D700099838A838EE08B83CE0101960E94580569
:100D80008AE090E00E948D5A06C00E94A75A8823EC
:100D900011F080E005C00E944B06892BB1F381E081
:100DA0002396CDBFDEBFCF91DF9108956F927F92E2
:100DB0008F929F92AF92BF92CF92DF92FF920F934A
:100DC0001F93DF93CF93CDB7DEB72A97CDBFDEBF9A
:100DD000DE011196E3E0F0E22AE001900D9221504D
:100DE000E1F78230910561F41092663C84E690E070
:100DF0000E948D5A82E190E00E94AE0581E018C009
:100E0000019709F06BC08091663C8130A1F40E948B
:100E1000A75A882319F08BE08093663C0E944B060A
:100E2000429709F05BC084E690E00E948D5A82E010
:100E30008093663C53C0823009F050C000E010E05F
:100E400023E0622E712C6C0E7D1E9BE0892E912C6E
:100E50008C0E9D1E5E010894A11CB11CA89581E119
:100E600062E3A8010E945A2A0F5F1F4FD02ECC24A4
:100E7000FF248F2D90E08C299D290E949204DC0193
:100E8000F3018D918193E815F905D9F7C5010E9409
:100E9000580584E690E00E948D5A04C00E94A75A2B
:100EA000882349F40E94C105FC0180818823B1F3A5
:100EB0008281823121F08CE08093663C11C088E011
:100EC000F80E80E8F816A9F60032110539F684E02C
:100ED0008093663C8EE090E00E94AE058091663C77
:100EE0002A96CDBFDEBFCF91DF911F910F91FF906A
:100EF000DF90CF90BF90AF909F908F907F906F903A
:100F00000895CF92DF92FF920F931F93DF93CF93B9
:100F1000CDB7DEB7C058D040CDBFDEBF823091051F
:100F200061F41092673C84E690E00E948D5A83E160
:100F300090E00E94AE0581E01CC0019709F07BC0E3
:100F40008091673C8130C1F40E94A75A882319F030
:100F50008BE08093673C0E944B06439709F06BC07F
:100F600084E690E00E948D5A83E190E00E94AE05F5
:100F700082E08093673C5FC0823009F05CC000E093
:100F800010E06E010894C11CD11C81E162E3A8014C
:100F90000E945A2AFF2406C00E94A75A882311F0F3
:100FA0008CE026C00E94C105AC01FC018081882331
:100FB00099F3DA018F2D90E0F601E80FF91F9C01FB
:100FC000285F3F4F2C0D3D1D12968C9112978193F7
:100FD0001196E217F307C1F7002369F4FF2059F4D3
:100FE000FA0182818C3039F08381843921F08DE0DF
:100FF0008093673C22C084E690E00E948D5A83E192
:1010000090E00E94AE05F8E0FF0E80E8F81651F679
:10101000A8950F5F1F4F80E0902FB6010E944C04EF
:101020000032110509F0B1CF84E08093673C8EE077
:1010300090E00E94AE058091673CC058DF4FCDBF65
:10104000DEBFCF91DF911F910F91FF90DF90CF9086
:1010500008958230910569F410926F3C10926C3CB7
:1010600089E190E00E948D5A83E090E00E94AE05F5
:1010700082C0019709F07FC080916C3C882321F5E4
:101080000E94A75A882371F080916F3C8F5F8093F4
:101090006F3C853018F08AE080936C3C83E090E0F0
:1010A0000E94AE050E944B06833041F410926F3CC3
:1010B00081E080936C3C86E090E02DC08D3009F09B
:1010C0005AC010926F3C29C0813061F50E94A75A26
:1010D000882371F080916F3C8F5F80936F3C8530E7
:1010E00018F08BE080936C3C86E090E00E94AE05A7
:1010F0000E94C105FC0180818823E9F1828186304C
:10110000D1F5838181FF37C010926F3C82E08093DC
:101110006C3C85E090E00E94AE0589E190E00E9481
:101120008D5A29C0823029F50E94A75A882371F070
:1011300080916F3C8F5F80936F3C853018F08CE01E
:1011400080936C3C85E090E00E94AE050E94C10552
:10115000FC018081882379F08281853061F483816C
:1011600080936D3C848180936E3C83E080936C3CE3
:1011700002C00E94B75A8CE69CE30895CF93DF9398
:10118000EB018230910561F41092733C1092703C37
:1011900089E190E00E948D5ACE010E94AE0583C085
:1011A000019709F080C08091703C882329F50E9446
:1011B000A75A882369F08091733C8F5F8093733CBA
:1011C000853018F08AE08093703CCE010E94AE0515
:1011D0000E944B06982F8150823040F41092733C4D
:1011E00081E08093703C86E090E02DC09D3009F056
:1011F0005AC01092733C29C0813061F50E94A75AF1
:10120000882371F08091733C8F5F8093733C8530AD
:1012100018F08BE08093703C86E090E00E94AE0571
:101220000E94C105FC0180818823E9F1828186301A
:10123000D1F51092733C838180FF35C082E08093AA
:10124000703C84E090E00E94AE0589E190E00E944D
:101250008D5A29C0823029F50E94A75A882371F03F
:101260008091733C8F5F8093733C853018F08CE0E5
:101270008093703C84E090E00E94AE050E94C1051E
:10128000FC018081882379F08281843061F483813C
:101290008093713C84818093723C83E08093703CA6
:1012A00002C00E94B75A80E79CE3DF91CF91089576
:1012B0000E94DF420E943F058FE065E00E944B42A2
:1012C0000895CF93DF93C82FD0E080FF06C080E160
:1012D00066E848E050E00E94DB25CE018670907001
:1012E000892B61F086E06CE246E023E20E949831AF
:1012F00086E06DE241E050E00E947E26C3FF0BC015
:1013000081E161E041E050E00E947E2680E090E0D3
:1013100060E00E94D334C4FF0BC081E16AE541E084
:1013200050E00E947E2682E090E060E00E94D3348C
:10133000DF91CF910895EF92FF920F931F93CF9378
:10134000DF93C82F80FD02C0EE240FC089E190E03A
:101350000E944348082F0E945645EE2490E010E07A
:101360000817190714F4EE24E394C1FF19C08FE0A5
:1013700090E00E944348F82E80E190E00E944348AC
:10138000082F0E94384E3F2D20E010E0202B312BFB
:10139000281739071CF482E0E82A02C08DEFE82202
:1013A000C2FF19C08DE090E00E944348F82E8EE005
:1013B00090E00E944348082F0E94384E3F2D20E0C5
:1013C00010E0202B312B821793071CF484E0E82ACD
:1013D00002C08BEFE822C3FF0DC08CE090E063E118
:1013E00070E00E94984FC09719F488E0E82A02C084
:1013F00087EFE8228E2DDF91CF911F910F91FF9003
:10140000EF90089583E190E00E943D5283E190E0E7
:101410000E94AA2280E40E947B5208958091803C21
:101420008F5F8093803C823089F48BE190E00E9452
:101430004348882311F00E94020A80E090E060E1B6
:1014400041E050E00E945D470E94124D8091803C37
:101450008B3F10F01092803C08958091813C8F5F0B
:101460008093813C823089F48BE190E00E94434874
:10147000882311F00E94020A80E090E068E041E0D9
:1014800050E00E945D470E94124D8091813C8B3F4D
:1014900010F01092813C08958091823C8F5F809380
:1014A000823C823089F48AE190E00E94434888239C
:1014B00011F00E94020A80E090E064E041E050E018
:1014C0000E945D470E94124D8091823C8B3F10F03C
:1014D0001092823C08958A30910591F08B309105ED
:1014E00048F486309105D1F08630910510F10897C7
:1014F00000F114C08D30910588F08D309105C9F44C
:1015000060E070E041E150E00E941419089799F4FE
:1015100085E190E00E944348882369F484E00E94BA
:1015200061090E944C0A80E10E947B5288E00E947F
:101530007B5281E0089580E008958091833C8F5F25
:101540008093833C823089F48AE190E00E94434892
:10155000882311F00E94020A80E090E062E041E0FE
:1015600050E00E945D470E94124D8091833C8B3F6A
:1015700010F01092833C0895CF93DF93EC0180919B
:10158000853C882309F043C082E00E9461090E94E3
:101590009D0ACA30D10501F1CB30D10548F4C830DD
:1015A000D105C1F0C930D10560F5269771F529C084
:1015B000CC30D10531F1CC30D10520F0CD30D10582
:1015C00021F50AC08AE090E00E9443488823E9F4AC
:1015D00080E818C088E016C0CE0160E070E041E10C
:1015E00050E00E941419089741F485E190E00E94B0
:1015F0004348882311F482E005C00E941C5180E119
:1016000001C080E2E0E0F7E0858381E058C08130EE
:1016100009F058C087E290E00E94215A882309F41B
:1016200099C0CA30D10549F1CB30D10550F4C8304A
:10163000D105E9F0C930D105D8F5269709F03EC0AB
:1016400037C0CC30D105A1F1CC30D10520F0CD3060
:10165000D105A1F512C08AE090E00E94434888239A
:1016600069F5E0E0F7E080E8868380E426C0E0E00A
:10167000F7E088E0868384E020C0CE0160E070E07F
:1016800041E150E00E941419089761F485E190E06F
:101690000E944348882331F4E0E0F7E082E086834B
:1016A00081E00BC0E0E0F7E080E1868380E205C0E6
:1016B000E0E0F7E080E2868380E1858382E080934A
:1016C000853C48C0823009F045C087E290E00E9426
:1016D000215A882309F43EC0CA30D10501F1CB302C
:1016E000D10548F4C830D105C1F0C930D10550F555
:1016F000269761F527C0CC30D10521F1CC30D1053A
:1017000020F0CD30D10511F50AC08AE090E00E94AA
:1017100043488823D9F480E416C084E014C0CE0185
:1017200060E070E041E150E00E941419089741F434
:1017300085E190E00E944348882311F481E003C0D2
:1017400080E201C080E1E0E0F7E086831092853C12
:1017500081E001C080E0DF91CF9108958091863CC7
:10176000882369F482E00E9461090E949D0A0E9418
:101770001C5180E1E0E0F7E0858381E00FC081301B
:1017800089F486E290E00E94215A8823D9F0E0E0B3
:10179000F7E080E1868380E2858382E08093863C67
:1017A00080E00895823071F487E290E00E94215A2F
:1017B000882341F080E2E0E0F7E086831092863CE7
:1017C00081E0089580E008958091843C8F5F80934C
:1017D000843C823059F40E94020A80E090E061E08B
:1017E00041E050E00E945D470E94124D8091843C90
:1017F0008B3F10F01092843C0895CF92DF92FF92BD
:101800000F931F93DF93CF9300D0CDB7DEB78C013A
:10181000662311F06093873C8091873C80FD03C074
:101820006801FF240FC081E00E9461090E94E40B5F
:101830008091873C8E7F8093873CFF24F39497E0D0
:10184000C92ED12C8091873C81FF14C0073011052F
:1018500019F40E94AE0B03C0C8010E94BC0A882381
:1018600011F4FF2039F08091873C8D7F8093873C75
:10187000FF24F3948091873C82FF0CC0C8010E9432
:101880006B0A882339F08091873C8D7F8093873C59
:10189000FF24F3948091873C83FF19C088E00E9465
:1018A00061090E942D0AC8010C97029730F0093097
:1018B000110519F00A30110519F487E0C82ED12C52
:1018C0008091873C877F8093873CFF24F3948091AD
:1018D000873C84FF0CC080E10E9461090E940E0ACF
:1018E0008091873C8F7E8093873CFF24F394C9824C
:1018F000DA826C2D7A818F2D90E02396CDBFDEBFEA
:10190000CF91DF911F910F91FF90DF90CF900895BD
:1019100087E090E00E943D5288E090E00E94AA2279
:1019200080E40E947F520895AF92BF92CF92DF92DF
:10193000FF920F931F93DF93CF9300D000D0CDB7CA
:10194000DEB78C016B015A018A309105B1F08B3002
:10195000910550F48630910579F18630910590F12A
:101960008830910578F128C08C30910529F18C30B0
:101970009105B8F08D30910529F5C80160E070E05F
:1019800041E150E00E9414190897E1F485E190E0EC
:101990000E9443488823B1F484E00E949B09F82EFA
:1019A00012C08AE090E00E944348882329F484E032
:1019B0000E949B09F82E01C0FF2484E00E949B092D
:1019C000F82A01C0FF248BE00E949B09F82A81E0DD
:1019D00090E00E943D52FF20A9F080918B3C88232B
:1019E00089F485E290E00E94215A882359F081E031
:1019F00080938B3C0093883C1093893C83E090E07B
:101A00000E94215A80918B3C882301F181E08093D0
:101A10008A3C8091883C9091893C6F2D0E94FD0BFF
:101A20006C837D838E83DE011196FE01349683E004
:101A300001900D928150E1F78B81882319F401E325
:101A400010E004C009811A8110928B3CFF20A9F498
:101A500080918A3C882389F080918B3C882369F4AB
:101A600010928A3C0E94880C83E090E00E94215AE8
:101A7000C801B601A5010E94971EC8012696CDBFD8
:101A8000DEBFCF91DF911F910F91FF90DF90CF903C
:101A9000BF90AF9008959C018617970714F42F5FAD
:101AA0003F4FC90108959C016817790714F421502C
:101AB0003040C90108956F927F928F929F92AF92AA
:101AC000BF92CF92DF92EF92FF920F931F938130DC
:101AD000910571F08130910528F0029779F080E04E
:101AE000882411C082E08093182031E1832E0BC03E
:101AF00081E18093182025E1822E05C086E1809344
:101B000018209AE1892E082F9924AA24CC2477241E
:101B1000662451C010E0802F612F40E050E00E9409
:101B2000F047D82E802F612F41E050E00E94F0470F
:101B3000E82E802F612F42E050E00E94F047F82EFF
:101B4000802F612F43E050E00E94F047B82E802F95
:101B5000612F44E050E00E94F047DD2039F1CF14BE
:101B6000E0F0AE1410F4FC14C0F49D1420F4EA1458
:101B700010F0FC1490F47B1430F4D91420F0EA1423
:101B800010F0FC1450F4681688F4B71478F0D914E7
:101B900068F0EA1458F0FC1448F0009318201093F1
:101BA00019209D2CAE2CCF2C7B2C682E1F5F14305F
:101BB00009F0B1CF0F5F081508F4ACCF88E190E2CF
:101BC0001F910F91FF90EF90DF90CF90BF90AF905B
:101BD0009F908F907F906F9008956F927F928F92D9
:101BE0009F92AF92BF92CF92DF92EF92FF920F93AC
:101BF0001F938130910571F08130910528F0029793
:101C000079F080E0882411C082E080931A20B1E14D
:101C10008B2E0BC081E180931A20A5E18A2E05C08E
:101C200086E180931A20FAE18F2E082FEFE19E2E95
:101C30007CE0A72E6CE3C62E57E1752E4BE3642E95
:101C400051C010E0802F612F40E050E00E94F0472B
:101C5000D82E802F612F41E050E00E94F047E82EFF
:101C6000802F612F42E050E00E94F047F82E802F35
:101C7000612F43E050E00E94F047B82E802F612F83
:101C800044E050E00E94F047DD2039F1FC14E0F020
:101C9000EA1410F4CF14C0F4D91420F4AE1410F0E8
:101CA000CF1490F4B71430F49D1420F0AE1410F05B
:101CB000CF1450F4861588F47B1478F09D1468F0E6
:101CC000AE1458F0CF1448F000931A2010931B2044
:101CD0009D2CAE2CCF2C7B2C682E1F5F143009F06E
:101CE000B1CF0F5F081508F4ACCF8AE190E21F91E5
:101CF0000F91FF90EF90DF90CF90BF90AF909F90AB
:101D00008F907F906F9008950F931F93DF93CF93E1
:101D10000F92CDB7DEB78130910569F08130910522
:101D200028F0029769F080E090E00EC082E0809396
:101D30001C2091E109C081E180931C2095E104C041
:101D400086E180931C209AE1082F1DC010E01093BB
:101D50001D20802F612F40E050E099830E94F047C2
:101D60009981882361F01F5F143089F710921E203B
:101D700080911C208F5F80931C200F5F04C081E046
:101D800080931E2002C0091708F38CE190E20F90A7
:101D9000CF91DF911F910F910895CF92DF92FF9223
:101DA0000F931F93CF93DF93EC018B016B0185E0C1
:101DB000F82E8F2D90E0F60161916F010E9486331D
:101DC000F394FBE0FF16A9F70C0F1D1FF8016081CB
:101DD000C230D105A1F0C330D10528F4209749F0D5
:101DE0002197B9F409C0C330D10561F0249789F473
:101DF0000CC080E090E00BC081E090E008C082E081
:101E000090E005C083E090E002C084E090E00E9492
:101E10008633DF91CF911F910F91FF90DF90CF908C
:101E200008951F93182F8FE06DE24FE050E00E945D
:101E30007E268FE06AE54CE050E00E94DB258FE0D3
:101E400068E747E050E00E942127113061F011302F
:101E500018F01230A9F40EC08FE06DE245E050E0BA
:101E60000E947E260DC08FE06AE541E050E00E94AE
:101E7000DB2506C08FE068E743E050E00E942127A1
:101E80001F91089583E06DE74DE050E20E94D62E49
:101E90000895DF92EF92FF920F931F93DF93CF93FA
:101EA00000D00F92CDB7DEB7F82E8B0119821A82BF
:101EB0001B821C828FE067E244E023E30E9498319A
:101EC00080E168E242E150E20E94D62EFE013196A6
:101ED0009E012B5F3F4FD8018D918D018193E217B9
:101EE000F307C9F7D9808D2D0E947633EA808E2DB5
:101EF0000E9466339C8180E02B81022F10E0082B2A
:101F0000192B80E168E4A8010E94632FB1E0FB1661
:101F100051F0FB1620F082E0F816A1F408C08D2DD8
:101F20000E9456330FC08E2D0E9446330BC08FE0A7
:101F300066E444E024E10E94D73180E168E4A8012E
:101F40000E94AB2D2496CDBFDEBFCF91DF911F91B4
:101F50000F91FF90EF90DF900895DF92EF92FF9244
:101F60000F931F93DF93CF9300D00F92CDB7DEB7BF
:101F7000F82E8B0119821A821B821C828FE066E484
:101F800044E024E10E949831FE0131969E012B5FCE
:101F90003F4FD8018D918D018193E217F307C9F767
:101FA000D9808D2D0E947633EA808E2D0E94663373
:101FB0009C8180E02B81022F10E0082B192B80E1FF
:101FC00068E4A8010E94632FB1E0FB1651F0FB16F4
:101FD00020F082E0F816A1F408C08D2D0E9456333F
:101FE0000FC08E2D0E9446330BC08FE066E444E0A4
:101FF00024E10E94D73180E168E4A8010E94AB2D62
:102000002496CDBFDEBFCF91DF911F910F91FF903E
:10201000EF90DF900895882319F0813031F513C0D7
:102020008FE060E04DE050E00E947E268FE067E2A6
:1020300044E02FE10E94D73180E168E242E150E2C2
:102040000E941E2D08958FE060E043E050E00E9462
:102050007E268FE067E244E02FE10E94983180E124
:1020600068E242E150E20E94D62E0895CF92DF92BC
:10207000EF92FF920F931F93CF93DF937C016B013D
:10208000FC0100811181FB01C081D18180E00E94AF
:10209000C84380938D3C81E090E00E944C5B282FE8
:1020A00090918D3C80918C3C981711F4222381F003
:1020B00090938C3C209739F40115110521F00150C3
:1020C0001040CCE3D0E0219783E090E00E944C5B8D
:1020D000209789F40115110571F483E090E00E94C6
:1020E0004C5BF7011082118285E090E0F60180835D
:1020F000918381E007C0F70100831183F601C0835B
:10210000D18380E0DF91CF911F910F91FF90EF90ED
:10211000DF90CF9008950F931F938C010E94A744E6
:102120009C010430110531F401960E941C430E9469
:10213000A7449C01C9011F910F9108950F931F930C
:10214000CF93DF938C01C0E0D0E0F801EC0FFD1FCE
:102150008081882319F08C2F0E9403372196CB3081
:10216000D10599F7DF91CF911F910F9108950F93AA
:102170001F93082F162F0E94873586E0189FB00105
:102180001124635810E0015F1F4F83E0A8010E94F3
:10219000332E1F910F91089588319105B1F0893147
:1021A000910518F40B97E1F517C08133910519F0EB
:1021B000C397B1F52CC08091903C9091913C60E028
:1021C00040E050E00E945D4708951092903C1092CC
:1021D000913C10928E3C089580918F3C861739F087
:1021E00080918E3C8F5F80938E3C60938F3C80917A
:1021F0008E3C8823A9F010928E3C8091903C909167
:10220000913C01968093903C9093913C08958091ED
:10221000903C9091913C01978093903C9093913C9D
:10222000089590E005C08150823008F480E19F5FFE
:102230009617C8F30895AF92BF92CF92DF92EF92B4
:10224000FF920F931F9388E090E00E94AA220E94C1
:1022500015770E94793282E060E04FE150E20E94FF
:10226000D62E85E060E046E250E20E94D62E8AE05B
:1022700060E04DE250E20E94D62E8DE060E046E341
:1022800050E20E94D62E82E160E04FE350E20E94CD
:10229000D62E85E160E04CE450E20E94D62E8AE220
:1022A00090E00E944348482F82E06CE350E00E9497
:1022B000632F8BE290E00E944348482F85E06CE357
:1022C00050E00E94632F88E290E00E944348482F2C
:1022D00082E064E650E00E94632F89E290E00E9471
:1022E0004348482F85E064E650E00E94632F0E9437
:1022F000F2040E9411768C0194E0159507959A9549
:10230000E1F70E943B767C0184E0F594E7948A959E
:10231000E1F7C7010E9465765C01C8010E948C76D6
:102320006C018AE064E6A8010E94632F8DE064E6F8
:10233000A7010E94632F82E164E6A6010E94632F39
:1023400085E164E6A501D1CFDF92EF92FF920F9372
:102350001F93CF93DF93EC01062F142F813091054B
:1023600071F08130910530F08230910569F0DD2403
:10237000EE240EC0F2E0DF2EE0E1EE2E09C071E1A6
:10238000D72E64E1E62E04C056E1D52E49E1E42EB5
:1023900035E0F32EC130D10569F0C130D10520F010
:1023A000C230D10591F40CC08F2D602F412F0E94B7
:1023B000F0380BC08F2D602F412F0E94583805C078
:1023C0008F2D602F412F0E94D637112329F4015001
:1023D0000D1508F40E2D14E0115082E0F80E8DE07A
:1023E000F816C1F62DE0F22EC130D10569F0C130EA
:1023F000D10520F0C230D10591F40CC08F2D602F93
:10240000412F0E94F0380BC08F2D602F412F0E946A
:10241000583805C08F2D602F412F0E94D6371123C9
:1024200029F401500D1508F40E2D14E082E0F80E89
:1024300085E1F81611F01150D7CFDF91CF911F91A0
:102440000F91FF90EF90DF90089584E061E048E104
:1024500027E80E9498310895EF92FF920F931F93FF
:10246000DF93CF930F92CDB7DEB77C0182E090E08F
:102470000E945B0DFC0110810181E114F10429F03F
:1024800081E0E816F104D1F50DC084E061E048E197
:1024900027E80E94983182E090E0612F402F0E944F
:1024A000A4112CC084E061E048E127E80E94983143
:1024B000612F6150623008F460E1162F1150123024
:1024C00008F410E195E0892F612F402F99830E9435
:1024D000D6379981002339F41150163118F404E0ED
:1024E00019E101C004E09E5F9D3011F00150EBCF77
:1024F0008FE061E049E550E20E94D62E0F90CF9127
:10250000DF911F910F91FF90EF900895EF92FF924E
:102510000F931F93DF93CF930F92CDB7DEB77C015C
:1025200081E090E00E945B0DFC0110810181E114CB
:10253000F10429F081E0E816F104D1F50DC084E042
:1025400061E048E127E80E94983181E090E0612F46
:10255000402F0E94A4112CC084E061E048E127E8EC
:102560000E949831612F6150623008F460E1162FAB
:102570001150123008F410E195E0892F612F402F9F
:1025800099830E9458389981002339F411501131F0
:1025900018F404E014E101C004E09E5F9D3011F0E6
:1025A0000150EBCF8FE061E049E550E20E94D62E6A
:1025B0000F90CF91DF911F910F91FF90EF900895B1
:1025C000FF920F931F93CF93DF93EC0180E090E095
:1025D0000E945B0DFC011081F180C330D10509F42C
:1025E00042C0C430D10530F4C130D105D1F02297BA
:1025F00000F510C0C530D10509F453C0C530D10570
:1026000008F440C0C630D10509F45AC0279709F034
:1026100096C06BC084E061E048E127E80E949831F1
:102620005DC084E061E048E127E80E949831612FB5
:102630000FC084E061E048E127E80E949831612FF3
:102640006150623008F460E16150623008F460E18A
:102650006150623008F460E16150623008F460E17A
:1026600080E090E03EC084E061E048E127E80E941D
:10267000983180E01150123008F410E18F5F8630FD
:10268000C9F72CC084E061E048E127E80E94983156
:1026900080E01150123008F410E18F5F8830C9F7E4
:1026A0001DC084E061E048E127E80E94983180E0A5
:1026B0001150123008F410E18F5F8A30C9F70EC054
:1026C00084E061E048E127E80E94983180E0115001
:1026D000123008F410E18F5F8C30C9F780E090E091
:1026E000612F4F2D0E94A4112AC084E061E048E1CF
:1026F00027E80E94983180E01150123008F410E170
:102700008F5F8E30C9F705E0802F612F4F2D0E941B
:10271000F038FF2049F41150123020F4B4E0FB2EC1
:1027200010E102C0A4E0FA2E0E5F0D3011F0FA9411
:10273000EBCF8FE061E049E550E20E94D62EDF91B9
:10274000CF911F910F91FF9008950F931F93CF93F7
:10275000DF938C018091923C882379F481E080930F
:10276000923C0E947B3785E090E0809368209093B4
:1027700069201092933C1092943C0E94F2040E94B3
:1027800019590E949674B8010E94D95BEC01081790
:10279000190731F01092923C0E9479328E010EC0DE
:1027A00088E690E263E97CE30E943610882331F0EA
:1027B0001092923C0E94793200E010E0C801DF9153
:1027C000CF911F910F9108959C01FB01DA0185E0E3
:1027D00090E0808391831D921C9229323105B9F0DB
:1027E0002A32310538F42732310559F028323105C3
:1027F000D1F40AC02A32310569F02B32310599F43F
:102800000CC00E94373508950E94CD3B08950E9468
:10281000B13B08950E94953B089583E090E00E94AB
:10282000B6550E945D3B0895CF92DF92EF92FF92E2
:102830000F931F93CF93DF938C017B016A0185E097
:1028400090E0FB01808391830E949674B8010E94FE
:10285000C95EEC018E32910549F08F32910549F045
:102860008C32910551F40E94BE5707C00E94395422
:1028700002C00E941854CBE2D0E0CE018B970297A1
:1028800058F0CE32D10541F0CF32D10529F0CE013A
:10289000B701A6010E94E413CE01DF91CF911F91F1
:1028A0000F91FF90EF90DF90CF900895EF92FF92FD
:1028B0000F931F93CF93DF938C017B010E9496743B
:1028C0006AE270E00E94E55FEC018A32910521F036
:1028D000B801A7010E94E413CE01DF91CF911F91AF
:1028E0000F91FF90EF900895EF92FF920F931F9337
:1028F000CF93DF938C017B010E94967469E270E0B4
:102900000E947360EC018932910521F0B801A701A2
:102910000E94E413CE01DF91CF911F910F91FF90A0
:10292000EF900895EF92FF920F931F93CF93DF9351
:102930008C017B010E94967468E270E00E94016144
:10294000EC018832910521F0B801A7010E94E4133F
:10295000CE01DF91CF911F910F91FF90EF900895DD
:10296000EF92FF920F931F93CF93DF938C017B0124
:102970000E94967467E270E00E947C5EEC018732F0
:10298000910521F0B801A7010E94E413CE01DF9167
:10299000CF911F910F91FF90EF900895CF93DF9308
:1029A000EC018932910589F18A32910550F4873220
:1029B0009105E9F08832910508F583309105D1F54C
:1029C00007C08A32910541F18033910598F52BC0FB
:1029D00085E090E080936A2090936B201092953C64
:1029E0001092963C0E943735C7E2D0E023C08AE6B9
:1029F00090E265E97CE30E94B0141BC08AE690E295
:102A000065E97CE30E94921414C08AE690E265E9CD
:102A10007CE30E9474140DC08AE690E265E97CE3D1
:102A20000E94561406C06AE670E245E95CE30E9423
:102A30001414EC010E94F2040E9423598AE690E2E9
:102A400065E97CE30E943610882311F0C0E0D0E0F5
:102A5000CE01DF91CF9108959C01FB01DA0185E061
:102A600090E0808391831D921C922431310509F4FA
:102A700041C025313105A8F42031310579F12131EA
:102A8000310540F42E30310519F12F30310509F0B0
:102A900045C021C02231310539F12331310538F5E6
:102AA00020C02731310579F12831310538F425313D
:102AB000310519F12631310589F522C02A31310558
:102AC00041F12B31310541F12931310539F51EC074
:102AD0000E94E03D08950E94C73D08950E94B43DC4
:102AE00008950E949B3D08950E941B3E08950E94F8
:102AF000083E08950E947C3D08950E94693D089516
:102B00000E94F53D08950E94203F08950E942E3EA8
:102B100008950E941C3D08950E94093D0895EF927A
:102B2000FF920F931F93CF93DF938C017B010E9441
:102B300096746BE170E00E948F61EC018B3191051E
:102B400021F0B801A7010E942C15CE01DF91CF9191
:102B50001F910F91FF90EF900895EF92FF920F93C6
:102B60001F93CF93DF938C017B010E9496746AE1DF
:102B700070E00E94C166EC018A31910521F0B80134
:102B8000A7010E942C15CE01DF91CF911F910F91CB
:102B9000FF90EF900895EF92FF920F931F93CF93C2
:102BA000DF938C017B010E94967469E170E00E94C2
:102BB0007163EC010E942F45C931D10529F0CE0186
:102BC000B801A7010E942C15CE01DF91CF911F9172
:102BD0000F91FF90EF900895EF92FF920F931F9344
:102BE000CF93DF937C018B018091973C882319F070
:102BF000C8E1D0E002C0C7E1D0E00E949674BE01F7
:102C00000E94E068EC018831910509F049C081E239
:102C100090E00E944348882349F08DE090E00E94B4
:102C2000B15685E090E00E94B15631C08091973C4A
:102C3000882379F481E08093973C84E090E0F70169
:102C40008083918388E790E0F801808391830E94DC
:102C50007551F8014081518181E164E60E94632F42
:102C6000F80180819181892B21F51092973C8DE0AC
:102C700090E00E94524F85E090E00E94524F0E94E7
:102C80002E5181E164E642E024E10E9498318FE018
:102C900061E043E150E00E947E26C7E1D0E009C038
:102CA0008731910531F01092973CB701A8010E943D
:102CB0002C15CE01DF91CF911F910F91FF90EF90D6
:102CC0000895EF92FF920F931F93CF93DF938C01A0
:102CD0007B010E94967466E170E00E94536AEC01E9
:102CE0008631910521F0B801A7010E942C15CE0173
:102CF000DF91CF911F910F91FF90EF900895EF9288
:102D0000FF920F931F93CF93DF938C017B010E945F
:102D1000967465E170E00E94226DEC0185319105A9
:102D200021F0B801A7010E942C15CE01DF91CF91AF
:102D30001F910F91FF90EF900895EF92FF920F93E4
:102D40001F93CF93DF938C017B010E94967464E103
:102D500070E00E94A364EC018431910521F0B80178
:102D6000A7010E942C15CE01DF91CF911F910F91E9
:102D7000FF90EF900895EF92FF920F931F93CF93E0
:102D8000DF938C017B010E94967463E170E00E94E6
:102D9000426EEC018331910521F0B801A7010E9438
:102DA0002C15CE01DF91CF911F910F91FF90EF90E5
:102DB0000895EF92FF920F931F93CF93DF938C01AF
:102DC0007B010E94967462E170E00E940F6CEC013E
:102DD0008231910521F0B801A7010E942C15CE0186
:102DE000DF91CF911F910F91FF90EF900895EF9297
:102DF000FF920F931F93CF93DF938C017B010E946F
:102E0000967461E170E00E940D66EC0181319105DC
:102E100021F0B801A7010E942C15CE01DF91CF91BE
:102E20001F910F91FF90EF900895EF92FF920F93F3
:102E30001F93CF93DF938C017B010E94967460E116
:102E400070E00E947E6FEC018031910521F0B801A5
:102E5000A7010E942C15CE01DF91CF911F910F91F8
:102E6000FF90EF900895EF92FF920F931F93CF93EF
:102E7000DF938C017B010E9496746FE070E00E94EA
:102E80000A71EC018F30910521F0B801A7010E9471
:102E90002C15CE01DF91CF911F910F91FF90EF90F4
:102EA0000895EF92FF920F931F93CF93DF938C01BE
:102EB0007B010E9496746EE070E00E94785BEC01EA
:102EC0008E30910521F0B801A7010E942C15CE018A
:102ED000DF91CF911F910F91FF90EF900895CF93C5
:102EE000DF93EC018431910509F475C085319105BA
:102EF000E0F48031910509F452C08131910560F40C
:102F00008E309105F1F18F30910508F041C082308B
:102F1000910509F091C026C08231910509F44DC098
:102F20008331910508F050C041C08831910509F402
:102F300067C08931910548F48631910509F459C07B
:102F40008731910508F05CC04DC08A31910509F4C4
:102F500065C08A31910508F45AC08B31910509F09A
:102F60006BC063C085E090E080936C2090936D20EF
:102F70001092983C1092993C0E94E03DCEE0D0E047
:102F80005BC08CE690E268E97CE30E94511753C075
:102F90008CE690E268E97CE30E9433174CC08CE633
:102FA00090E268E97CE30E94151745C08CE690E248
:102FB00068E97CE30E94F7163EC08CE690E268E97F
:102FC0007CE30E94D91637C08CE690E268E97CE386
:102FD0000E94BB1630C08CE690E268E97CE30E9458
:102FE0009D1629C08CE690E268E97CE30E947F167A
:102FF00022C08CE690E268E97CE30E9461161BC067
:103000008CE690E268E97CE30E94EC1514C08CE643
:1030100090E268E97CE30E94CB150DC08CE690E25B
:1030200068E97CE30E94AD1506C08CE690E268E991
:103030007CE30E948F15EC010E94F2040E941E594D
:103040008CE690E268E97CE30E943610882331F038
:10305000689711F40E94C952C0E0D0E0CE01DF9120
:10306000CF910895CF93DF93EC01CB01BA010E9479
:103070003610882341F080E060E045E050E00E9497
:10308000CD46C0E0D0E0CE01DF91CF9108959C0104
:1030900062307105D1F481E190E00E944348809351
:1030A000A23C882329F41092702085E190E008C0AA
:1030B00081E08093A23C85E08093702087E090E0DF
:1030C0008093A03C9093A13C08956231710569F40E
:1030D0008091A03C9091A13C88309105C1F0853150
:1030E0009105E1F0079701F519C08091A03C9091FE
:1030F000A13C6F30710539F58830910531F085318B
:10310000910551F0079781F407C00E94635186E052
:1031100066E840E050E006C00E94185186E066E88C
:103120004BE050E00E94DB254091A23C8DE067E837
:1031300050E00E94A82A409170208DE063E950E0A1
:103140000E94A82A0895459709F46DC06130710561
:1031500009F069C08091A33C90E082179307E9F0E1
:103160002093A33C80917020882369F48CE38093A2
:1031700070204091A23C41504093A23C8DE067E812
:1031800050E00E94A82A4091702041504093702046
:103190008DE063E950E00E94A82A8091A03C9091C4
:1031A000A13C88309105F9F48091A23C8823D9F59F
:1031B000809170208823B9F587E090E08093A03C4F
:1031C0009093A13C82E190E00E9443488093A23C0E
:1031D0001092702086E066E84BE050E00E94DB250C
:1031E0000E94185108950797F1F48091A23C88231A
:1031F000D1F4809170208823B1F488E090E080932E
:10320000A03C9093A13C81E190E00E9443488093D0
:10321000A23C1092702086E066E840E050E00E94F8
:10322000DB250E94635108950F931F93CF93DF9383
:10323000EC018B014230510501F583E190E00E94E1
:1032400043488093A53C882349F41092A43C85E12F
:1032500090E0809371209093722021C01092A63C40
:1032600081E08093A53C82E08093A43C87E090E0DD
:103270008093712090937220F5C04131510509F47B
:10328000F1C060917120709172204231510521F49A
:103290000E949D3E87E0E2C06531710519F425E189
:1032A00030E0E4C04F30510599F46830710509F001
:1032B000D9C08D30910521F08A30910509F0D2C036
:1032C000CE0168E070E00E949D3E0E94AD51CAC0F0
:1032D0004330510559F46830710509F0C3C068E006
:1032E00070E00E949D3E0E949651BCC04130510545
:1032F00009F0B8C06830710571F58133910559F155
:103300008091A53C882339F58091A43C882309F05D
:1033100059C087E090E0809371209093722086E1FD
:1033200090E00E9443488093A63C84E190E00E9494
:1033300043488093A53C82E08093A43CCE0167E0A3
:1033400070E00E949D3E87E064EA7CE30E94C13900
:103350000E94965137C067307105A1F5C133D10580
:1033600089F18091A63C882369F58091A53C88234A
:1033700049F58091A43C882329F5CD30D10519F079
:10338000CA30D105F9F488E090E0809371209093E1
:1033900072201092A63C83E190E00E944348809303
:1033A000A53C82E08093A43C6091712070917220D2
:1033B000CE010E949D3E87E064EA7CE30E94C13911
:1033C0000E94AD51809171209091722087309105BB
:1033D00049F0CD30D10519F02A9709F043C008977C
:1033E00009F040C08091A73C90E080179107D1F18F
:1033F0000093A73C8091A43C882341F59091A53C83
:10340000992321F48091A63C882329F08CE38093B2
:10341000A43C992379F49091A63C992359F08CE32C
:103420008093A53C91509093A63C86E064EA7CE3AF
:103430000E94C1398091A53C882319F08150809366
:10344000A53C82E064EA7CE30E94C1398091A43CFF
:10345000882319F081508093A43C81E064EA7CE3E6
:103460000E94C1392091712030917220C901DF91F1
:10347000CF911F910F910895EF92FF920F931F9399
:10348000CF93DF93EC017B014230510591F40E9410
:10349000653E8093AA3C9093AB3C1092A83C10925E
:1034A000A93CCE0160E070E043E050E00E941419B6
:1034B00022C14F30510599F48C30910519F08930B3
:1034C000910519F40E94755116C18D30910521F0B6
:1034D0008A30910509F00FC10E942E510CC1453070
:1034E000510549F40E94EE3B8091AA3C6091A83CB2
:1034F0000E94E73900C14130510509F0FCC08091BC
:10350000AA3C9091AB3C892B09F09FC08091A83CCC
:103510009091A93C892B09F098C0CC30D105C1F01D
:10352000CD30D10540F4C930D10591F0CA30D10574
:1035300009F08BC03AC0CE31D10509F459C0CF3162
:10354000D10509F472C0CD30D10509F07EC02DC07F
:10355000CE0161E070E00E94984F8C0165E070E060
:103560000E94984F0E942E51C017D10741F0C80108
:1035700060E070E043E050E00E941419BDC0CC3020
:10358000D10519F4CDE0D0E005C0C930D10511F462
:10359000CAE0D0E0CE010E94EE3BCE0160E070E0D8
:1035A0004FE050E00E94141917C0CE0160E070E0B7
:1035B00043E050E00E9414190E947551CD30D105AE
:1035C00019F4CCE0D0E005C0CA30D10511F4C9E04F
:1035D000D0E0CE010E94EE3BCE010E94653E80937A
:1035E000AA3C9093AB3C1092A83C1092A93C2DC0F1
:1035F0008EE190E061E070E00E94984F8EE190E0F3
:1036000065E070E00E94984F0E942E518FE190E09B
:103610000E94653E8093AA3C9093AB3C1092A83CDC
:103620001092A93CCFE1D0E010C00E9475518EE10C
:1036300090E00E94653E8093AA3C9093AB3C109230
:10364000A83C1092A93CCEE1D0E08091AC3C909196
:10365000AD3CE816F90639F1E092AC3CF092AD3C95
:103660008091A83C9091A93C892B91F4C133D1055C
:1036700079F08CE390E08093A83C9093A93C8091F2
:10368000AA3C9091AB3C01978093AA3C9093AB3CB1
:103690008091A83C9091A93C009729F001978093D4
:1036A000A83C9093A93CCE014E97029720F1C930D7
:1036B000D10531F0CC30D10519F0C133D10589F4F1
:1036C0006091A83C7091A93C8091AA3C9091AB3C40
:1036D0000E9449408BE090E06091AA3C0E94CC108F
:1036E0000AC06091A83C7091A93C8091AA3C90913D
:1036F000AB3C0E9423408E01C801DF91CF911F9106
:103700000F91FF90EF9008950F931F93CF93DF9346
:10371000EB018A0182329105A1F18332910588F48F
:103720008E319105F1F08F31910520F44C9709F01D
:103730006AC062C080329105B9F0819709F063C018
:103740001DC08432910509F446C08432910508F405
:103750003FC08532910509F448C0869709F053C0EF
:1037600049C089E090E002C08CE090E060E070E049
:1037700042E050E00E943C1A0E9475518CE390E0B8
:103780003DC08FE062E045E028E70E94983181E18A
:103790006FE04DE550E20E94D62E8FE065E542E1F4
:1037A00050E00E94DB258EE190E088839983F80148
:1037B000108211824881598181E16CE70E94B12F0A
:1037C000F8014081518181E16EE80E94B12F1BC058
:1037D0000E948B5111C00E946751188219828AE0A1
:1037E00090E0F801808391830EC00E9463518EE1C6
:1037F00090E004C00E94AD5185E090E088839983F9
:10380000F80110821182DF91CF911F910F910895DD
:10381000EF92FF920F931F93CF93DF938C017B0165
:103820000E94967466E270E00E94A672B801A70139
:103830000E943218EC018632910539F00E949651AF
:10384000CE01B801A7010E94841BF80180819181FB
:10385000F70160810E948A3FCE01DF91CF911F91D5
:103860000F91FF90EF900895EF92FF920F931F93A7
:10387000CF93DF938C017B010E94967465E270E028
:103880000E94A672B801A7010E943218EC0185328D
:10389000910539F00E941851CE01B801A7010E948C
:1038A000841BF80180819181F70160810E948A3F29
:1038B000CE01DF91CF911F910F91FF90EF9008956E
:1038C000EF92FF920F931F93CF93DF938C017B01B5
:1038D0000E94967464E270E00E94A672B801A7018B
:1038E0000E943218EC018432910539F00E941C517B
:1038F000CE01B801A7010E94841BF801808191814B
:10390000F70160810E948A3FCE01DF91CF911F9124
:103910000F91FF90EF900895EF92FF920F931F93F6
:10392000CF93DF938C017B010E94967463E270E079
:103930000E94A672B801A7010E943218EC018332DE
:10394000910539F00E944451CE01B801A7010E94AF
:10395000841BF80180819181F70160810E948A3F78
:10396000CE01DF91CF911F910F91FF90EF900895BD
:10397000EF92FF920F931F93CF93DF938C017B0104
:103980000E94967462E270E00E94A672B801A701DC
:103990000E943218EC018D31910591F481E0809301
:1039A0009B3CF801C083D1838AE390E0F7018083D8
:1039B0009183F801808191816AE30E94B53F1EC026
:1039C00082329105D9F08EE062E048E028E70E945B
:1039D000983180919B3C882311F00E94FA51CE01CE
:1039E000B801A7010E94841BF80180819181F70131
:1039F00060810E94B53F10929B3C28C080919B3C07
:103A00008823C9F40E94195980919A3C8F5F809352
:103A10009A3C8D3731F481E16FE04DE550E20E9430
:103A20001E2D80919A3C8A3F31F481E16FE04DE593
:103A300050E20E94D62E80919B3C882339F0F801F9
:103A400080819181F70160810E948A3FCE01DF91E0
:103A5000CF911F910F91FF90EF900895EF92FF92F9
:103A60000F931F93CF93DF938C017B010E94967479
:103A700061E270E00E94A672B801A7010E943218AC
:103A8000EC018132910521F0B801A7010E94841B4D
:103A9000F80180819181F70160810E948A3FCE0107
:103AA000DF91CF911F910F91FF90EF900895EF92CA
:103AB000FF920F931F93CF93DF938C017B010E94A2
:103AC000967460E270E00E94A672B801A7010E949D
:103AD0003218EC018032910541F00E942E51CE0146
:103AE000B801A7010E94841B07C0F8018081918161
:103AF000F70160810E948A3FCE01DF91CF911F9133
:103B00000F91FF90EF900895EF92FF920F931F9304
:103B1000CF93DF938C017B010E9496746CE170E07F
:103B20000E94A672B801A7010E943218EC018C31E4
:103B3000910521F0B801A7010E94841BF801808142
:103B40009181F70160810E948A3FCE01DF91CF9180
:103B50001F910F91FF90EF900895CF92DF92EF9217
:103B6000FF920F931F93CF93DF936C017B018A0128
:103B70000E949674B6010E94A672B701A8010E9425
:103B80003218EC014E97029760F08EE1C816D1040E
:103B900011F40E942E51CE01B701A8010E94841B8E
:103BA00010C0F70180819181F80160810E948A3FF5
:103BB000F80160817181CE0141E050E00E943C1A21
:103BC000EC01CE01DF91CF911F910F91FF90EF900B
:103BD000DF90CF900895CF93DF93EC018032910571
:103BE00009F44CC08132910578F48D31910509F4C6
:103BF00053C08E319105D8F58130910509F18C3192
:103C0000910509F06CC02CC08332910509F44BC0BA
:103C10008432910540F481329105B9F182329105E7
:103C200009F05DC039C08532910509F44AC085327A
:103C3000910508F43FC08632910509F050C048C094
:103C400085E090E080936E2090936F2010929E3CD0
:103C500010929F3C60E00E94D63FCCE1D0E03FC094
:103C60008EE690E26EE97CE30E94841D37C06EE62A
:103C700070E24EE95CE30E94AD1D30C08EE690E23A
:103C80006EE97CE30E94571D29C08EE690E26EE942
:103C90007CE30E942E1D22C08EE690E26EE97CE35A
:103CA0000E94B81C1BC08EE690E26EE97CE30E9485
:103CB0008C1C14C08EE690E26EE97CE30E94601CCE
:103CC0000DC08EE690E26EE97CE30E94341C06C0D3
:103CD0008EE690E26EE97CE30E94081CEC010E94F3
:103CE000F20481E090E00E94AA2280919C3C909195
:103CF0009D3C81509D4774F010929C3C10929D3CDD
:103D00000E94882482E090E00E94F95881E090E0CF
:103D10000E941C3580919C3C90919D3C0196809323
:103D20009C3C90939D3CCE01DF91CF9108950F93E1
:103D30001F93CF93DF93EC01162F042F8DE060E0EB
:103D400046E020EA0E9498310E94FC4085E060E055
:103D500042E023E20E949831CB30D10598F4C9307B
:103D6000D10570F5C630D105B9F0C730D10518F4CA
:103D7000209779F02CC0C730D10599F0C830D10513
:103D800031F519C0CB30D10589F0CE30D105F8F42A
:103D900017C00E9447411BC0812F602F0E943E3CEC
:103DA00016C0812F602F0E94273C11C0812F602FE9
:103DB0000E94FE3E0CC0812F602F0E94064007C06B
:103DC000CE0160E070E045E050E00E943C1A80E0E7
:103DD00090E062E170E00E944718CE0160E070E080
:103DE00042E150E00E941419DF91CF911F910F9191
:103DF0000895CF92DF92EF92FF921F93CF93DF93BC
:103E0000EC017B016A01FA01108211828B3091056D
:103E1000A8F48930910508F082C08630910511F12F
:103E20008730910518F4009789F0A7C08730910575
:103E300051F18830910509F0A0C04BC08B3091053D
:103E4000A9F18E30910508F098C071C0FB01608126
:103E5000718180E090E040E050E00E94971E0E9457
:103E6000FE508BC082E090E0FB0180839183FA01D9
:103E70004081518186E090E062E070E00E94971EF0
:103E80000E9475517AC088E090E00E944348682FF4
:103E9000F70180831182F6014081518187E090E033
:103EA00070E00E94971E0E944F5167C089E090E029
:103EB0000E944348682FF70180831182F6014081F8
:103EC00051818BE090E070E00E94971E0E940E529C
:103ED00054C08BE090E00E944348F7018083118238
:103EE0008CE090E00E944348482F50E0F601408368
:103EF0005183F701608171816115710549F44115A4
:103F0000510531F481E090E0F6018083918335C062
:103F100088E090E00E94971E0E948B512EC082E0A4
:103F200090E00E944348182F83E090E007C086E0AD
:103F300090E00E944348182F87E090E00E94434899
:103F4000312F20E0682F70E0622B732BF701608324
:103F50007183F60140815181CE010E94971ECE01EE
:103F600060E070E04FE050E00E943C1ACE0160E05B
:103F700070E04FE050E00E941419DF91CF911F9143
:103F8000FF90EF90DF90CF900895CF92DF92EF9265
:103F9000FF920F931F93CF93DF937B016A01FA0186
:103FA00000811181FB0160817181A8010E94940C44
:103FB000B80141E050E00E943C1AEC01C701B60193
:103FC0000E943610882381F0C133D10569F0CE01FB
:103FD00060E070E043E050E00E9414192C9711F467
:103FE0000E942E51C7E0D0E0CE01DF91CF911F910A
:103FF0000F91FF90EF90DF90CF900895EF92FF9296
:104000000F931F93CF93DF938C017B01FB016081A2
:104010007181FC01808191810E944940F801608199
:104020007181F701408151818BE090E00E94940CF6
:10403000EC01C801B7010E943610882339F0E197DE
:1040400029F00E94FA5128E030E002C02BE030E075
:10405000C901DF91CF911F910F91FF90EF900895CB
:10406000EF92FF920F931F93CF93DF938C017B010D
:10407000FB0160817181FC01808191810E9423405C
:10408000F80160817181F7014081518187E090E002
:104090000E94940CEC01C801B7010E9436108823DD
:1040A00029F0E19719F02BE030E002C027E030E082
:1040B000C901DF91CF911F910F91FF90EF9008956B
:1040C000EF92FF920F931F93CF93DF938C017B01AD
:1040D000FB0160817181FC01808191810E944940D6
:1040E0008BE090E0F80160810E94CC10F8016081C3
:1040F0007181F7014081518186E090E00E94940C2B
:10410000EC01C801B7010E943610882361F0E197E5
:1041100051F086E090E061E070E00E94984FEC0181
:104120000E942E5102C0C6E0D0E0CE01DF91CF91B7
:104130001F910F91FF90EF900895AF92BF92CF9291
:10414000DF92EF92FF920F931F93CF93DF935C0167
:104150007B016A01FA0100811181FB01608171819B
:10416000A8010E94940CB80141E050E00E943C1A62
:10417000EC01C701B6010E9436108823F9F0C13363
:10418000D10501F187E190E00E944348882339F08E
:10419000CE0164E370E00E94BD32882391F0CE012D
:1041A00060E070E043E050E00E941419299711F498
:1041B0000E942E511CE0A12EB12C04C0C133D105A8
:1041C00009F05E01C501DF91CF911F910F91FF9022
:1041D000EF90DF90CF90BF90AF900895EF92FF9255
:1041E0000F931F93CF93DF938C017B01FB016081C1
:1041F0007181FC01808191810E944940F8016081B8
:104200007181F7014081518188E090E00E94940C17
:10421000EC01C801B7010E943610882339F1E197FB
:1042200029F10E94445181E390E060E00E94CC10AB
:1042300080E090E060E042E050E00E945D4788E16D
:1042400090E060E00E94CC108EE190E00E94434834
:10425000882349F081E290E00E944348882319F4C2
:1042600026E030E005C029E030E002C028E030E080
:10427000C901DF91CF911F910F91FF90EF900895A9
:10428000EF92FF920F931F93CF93DF93EC018B304C
:104290009105B8F48930910508F099C086309105F0
:1042A00009F468C08730910518F4009799F0D0C0E0
:1042B0008730910509F469C08830910509F0C8C0BC
:1042C0007BC08B30910509F46CC08E30910508F0ED
:1042D000BFC09CC00E944741C0917520D0917620FC
:1042E0008091AE3C882361F080917320909174207E
:1042F000892B41F587E190E00E944348882311F51E
:1043000081E08093AE3C89E090E060E070E042E0C4
:1043100050E00E943C1ACE0160E070E042E050E0C4
:104320000E94141980E090E062E070E00E9447185B
:104330000E94FE50CE0163E770E241EB5CE30E9415
:10434000F91E86C00091732010917420E090B13C5A
:10435000F090B23CCE0163E770E241EB5CE30E9477
:10436000F91E0093732010937420E092B13CF092F8
:10437000B23C6EC0809375209093762083E790E2E4
:1043800061EB7CE30E9460200AC0809375209093CB
:10439000762083E790E261EB7CE30E943020EC0121
:1043A00057C0809375209093762083E790E261EB6D
:1043B0007CE30E94FE1FF3CF8093752090937620BC
:1043C00083E790E261EB7CE30E94EE20E8CF8093EC
:1043D00075209093762063E770E241EB5CE30E94E6
:1043E0009D20EC018930910539F4809175209091E0
:1043F00076200A9769F528C08A30910549F58091A1
:10440000752090917620099719F51EC0809375202C
:104410009093762063E770E241EB5CE30E94C51F56
:10442000EC018C30910539F48091752090917620C3
:104430000D9771F409C08D30910551F4809175206C
:10444000909176200C9721F4C0937520D09376201C
:104450000E949674BE0143E750E221EB3CE30E94C8
:10446000AC7361E070E00E942D57EC0180917520E3
:1044700090917620C817D90739F0CE0163E770E232
:1044800041EB5CE30E94F91E0E94F20481E090E09F
:104490000E94AA226091B13C7091B23CCE0141E0F1
:1044A00050E00E9414198091B13C9091B23C61E0BF
:1044B00070E00E94471880E090E061E070E00E94A8
:1044C000B64E8091AF3C9091B03C8A30910539F462
:1044D0000E94882482E090E00E94F9582AC027E2D6
:1044E0008031920729F480E090E00E941C3521C0C1
:1044F0002EE48032920759F480E060E00E94322579
:1045000082E090E00E945A440E942E4412C08153DF
:1045100095477CF060917320709174204091B13C7C
:104520005091B23CCE010E94971E1092AF3C109267
:10453000B03C8091AF3C9091B03C01968093AF3CF1
:104540009093B03CCE01DF91CF911F910F91FF90DE
:10455000EF9008959C018730910501F18830910515
:1045600040F48130910519F18330910509F061C063
:104570005CC08830910529F08331910509F059C05C
:1045800011C088E0E0E4F6E085832093513A30934F
:10459000523A1092B33C1092B43C089588E0E0E4A3
:1045A000F6E086832093513A3093523A08958091F1
:1045B000513A9091523A88309105D9F48091B33CA8
:1045C0009091B43C01968093B33C9093B43C81535A
:1045D000954778F11092B33C1092B43C88E0E0E447
:1045E000F6E0868387E090E08093513A9093523AC8
:1045F00008954397F1F48091B33C9091B43C0196B7
:104600008093B33C9093B43C31E08139930788F0B8
:10461000E0E4F6E028E02683815D974050F01092B8
:10462000B33C1092B43C258308951092B33C109291
:10463000B43C0895E0E4F6E084E081838683089545
:10464000282F80FD02C090E001C093E021FD945F1F
:1046500022FD905D23FD9054892F08959C01462FE3
:104660008DE3B9010E94827908959C01462F8CE365
:10467000B9010E948279982F8151843010F481E031
:10468000089580E0963109F481E008950F931F9317
:10469000DF93CF930F92CDB7DEB786EA89838E0181
:1046A0000F5F1F4FC80161E00E9435238823D1F7B7
:1046B0000F90CF91DF911F910F9108950F931F934A
:1046C000DF93CF930F92CDB7DEB787EA89838E0150
:1046D0000F5F1F4FC80161E00E9435238823D1F787
:1046E0000F90CF91DF911F910F9108950F931F931A
:1046F000DF93CF930F92CDB7DEB782EE89838E0121
:104700000F5F1F4FC80161E00E9435238823D1F756
:104710000F90CF91DF911F910F9108950F931F93E9
:10472000DF93CF930F92CDB7DEB784EA89838E01F2
:104730000F5F1F4FC80161E00E9435238823D1F726
:104740000F90CF91DF911F910F9108950F931F93B9
:10475000DF93CF930F92CDB7DEB785EA89838E01C1
:104760000F5F1F4FC80161E00E9435238823D1F7F6
:104770000F90CF91DF911F910F9108950F931F9389
:10478000DF93CF9300D00F92CDB7DEB794EF99832C
:104790008A8386EF8B836C838E010F5F1F4FC80166
:1047A00064E00E9435238823D1F72496CDBFDEBF75
:1047B000CF91DF911F910F9108950F931F93DF9376
:1047C000CF9300D00F92CDB7DEB795EF99838A8350
:1047D00087EF8B836C838E010F5F1F4FC80164E0EE
:1047E0000E9435238823D1F72496CDBFDEBFCF9119
:1047F000DF911F910F9108950F931F93DF93CF9334
:104800000F92CDB7DEB788EF89838E010F5F1F4F00
:10481000C80161E00E9435238823D1F70F90CF9122
:10482000DF911F910F9108950F931F93DF93CF9303
:104830000F92CDB7DEB789EF89838E010F5F1F4FCF
:10484000C80161E00E9435238823D1F70F90CF91F2
:10485000DF911F910F9108950F931F93DF93CF93D3
:104860000F920F92CDB7DEB7982F813A78F48F7000
:10487000898392959F70905F9A838E010F5F1F4F7F
:10488000C80162E00E9435238823D1F70F900F9072
:10489000CF91DF911F910F9108950F931F93DF9395
:1048A000CF930F92CDB7DEB7982F905A893150F43D
:1048B00099838E010F5F1F4FC80161E00E9435236D
:1048C0008823D1F70F90CF91DF911F910F91089519
:1048D000EF92FF920F931F93082FF62E142FE22EC4
:1048E0000E944D248F2D0E942C240E941424110F0D
:1048F000100F802F612F0E94DD236F2D61506E0DF0
:104900008F2D0E94BE231F910F91FF90EF9008956D
:10491000E0E4F6E088E0818384E0818385830E947F
:10492000762385E49AE36BE00E9435238823C9F758
:1049300008952F923F924F925F926F927F928F9243
:104940009F92AF92BF92CF92DF92EF92FF920F931E
:104950001F93DF93CF93CDB7DEB7C555D040CDBF02
:10496000DEBF3E010894611C711C90E5F3011192B9
:104970009A95E9F750905939F0915A396296FFAFFC
:1049800062974F2F252D0E946824252C3324442420
:1049900092E0892E912CC30165966FAE659766965D
:1049A0009FAF6697820D931D64968EAF9FAF6497FD
:1049B0002BC0F50181915F018F700E942023F801C7
:1049C00081938F0164968EAD9FAD64970817190788
:1049D00081F78DE3B301452D0E9482790AC0F6016B
:1049E00081916F0182958F700E942023F70181933E
:1049F0007F01E016F10699F78DE3B301452D0E9482
:104A000082794394820C931C6296FFAD62974F1695
:104A100080F489E5C82E89E3D82EC80CD91C659688
:104A20008FAD659766969FAD66977C0156018301B1
:104A3000C9CF0E94FC23CB5ADF4FCDBFDEBFCF9141
:104A4000DF911F910F91FF90EF90DF90CF90BF907B
:104A5000AF909F908F907F906F905F904F903F901E
:104A60002F9008952F923F924F925F926F927F9274
:104A70008F929F92AF92BF92CF92DF92EF92FF926E
:104A80000F931F93DF93CF93CDB7DEB7C55AD040B6
:104A9000CDBFDEBF3E010894611C711C90EAF3019A
:104AA00011929A95E9F75090A739F091A839CF550E
:104AB000DF4FF883C15AD0404F2F252D0E94682424
:104AC000252C3324442432E0832E912CC301CC5571
:104AD000DF4F6882C45AD040CB55DF4F9883C55A08
:104AE000D040820D931DCE55DF4F88839983C25AE3
:104AF000D0402DC0F50181915F018F700E9420236D
:104B0000F80181938F01CE55DF4F88819981C25A78
:104B1000D0400817190771F78DE3B301452D0E94A6
:104B200082790AC0F60181916F0182958F700E948F
:104B30002023F70181937F01E016F10699F78DE3B9
:104B4000B301452D0E9482794394820C931CCF556A
:104B5000DF4FF881C15AD0404F16A0F427EAC22E89
:104B600029E3D22EC80CD91CCC55DF4F8881C45AFA
:104B7000D040CB55DF4F9881C55AD0407C015601BB
:104B80008301C1CF0E94FC23CB55DF4FCDBFDEBFD9
:104B9000CF91DF911F910F91FF90EF90DF90CF9019
:104BA000BF90AF909F908F907F906F905F904F904D
:104BB0003F902F9008952F923F924F925F926F9265
:104BC0007F928F929F92AF92BF92CF92DF92EF929D
:104BD000FF920F931F93DF93CF93CDB7DEB7AD97BF
:104BE000CDBFDEBF8A012E010894411C511C98E202
:104BF000F20111929A95E9F720903431F091353114
:104C0000F9A74F2F222D0E946824822C992429A5D0
:104C1000822F90E0FC018E9EC0018F9E900D9E9E83
:104C2000900D1124809F5001819FB00C909FB00C7B
:104C3000112422E030E0A20EB31E35013324C2015C
:104C40004CA69DA7880D991D8AA79BA731C0F60188
:104C500081916F018F700E942023F80181938F0151
:104C60002AA53BA50217130791F78DE3B201422D48
:104C70000E94827954E3C52E51E3D52ECA0CDB1C69
:104C80000AC0F60181916F0182958F700E942023E6
:104C9000F70181937F01E016F10699F78DE3B201E8
:104CA000422D0E9482793394A80CB91C680C791C9F
:104CB000F9A53F1658F444E3C42E41E3D42EC60CA4
:104CC000D71C8CA59DA57C018201CACF0E94FC2324
:104CD000AD96CDBFDEBFCF91DF911F910F91FF90B9
:104CE000EF90DF90CF90BF90AF909F908F907F908C
:104CF0006F905F904F903F902F9008952F923F922A
:104D00004F925F926F927F928F929F92AF92BF92DB
:104D1000CF92DF92EF92FF920F931F93DF93CF9387
:104D2000CDB7DEB7AD97CDBFDEBF8A012E010894A7
:104D3000411C511C98E2F20111929A95E9F72090DA
:104D4000662AF091672AF9A74F2F222D0E94682426
:104D5000822C992429A5822F90E0FC018E9EC0010F
:104D60008F9E900D9E9E900D1124809F5001819FDB
:104D7000B00C909FB00C112422E030E0A20EB31EC4
:104D800035013324C2014CA69DA7880D991D8AA721
:104D90009BA731C0F60181916F018F700E94202383
:104DA000F80181938F012AA53BA50217130791F7FC
:104DB0008DE3B201422D0E94827976E6C72E7AE217
:104DC000D72ECA0CDB1C0AC0F60181916F018295B7
:104DD0008F700E942023F70181937F01E016F10676
:104DE00099F78DE3B201422D0E9482793394A80C89
:104DF000B91C680C791CF9A53F1658F466E6C62E56
:104E00006AE2D62EC60CD71C8CA59DA57C0182011A
:104E1000CACF0E94FC23AD96CDBFDEBFCF91DF91FC
:104E20001F910F91FF90EF90DF90CF90BF90AF90C8
:104E30009F908F907F906F905F904F903F902F90BA
:104E400008952F923F924F925F926F927F928F922E
:104E50009F92AF92BF92CF92DF92EF92FF920F9309
:104E60001F93DF93CF93CDB7DEB7AD97CDBFDEBF36
:104E70008A012E010894411C511C98E2F201119202
:104E80009A95E9F720901C27F0911D27F9A74F2F3D
:104E9000222D0E946824822C992429A5822F90E03B
:104EA000FC018E9EC0018F9E900D9E9E900D112440
:104EB000809F5001819FB00C909FB00C112422E084
:104EC00030E0A20EB31E35013324C2014CA69DA7CB
:104ED000880D991D8AA79BA731C0F60181916F01AA
:104EE0008F700E942023F80181938F012AA53BA592
:104EF0000217130791F78DE3B201422D0E948279C8
:104F0000FCE1CF2EF7E2DF2ECA0CDB1C0AC0F60153
:104F100081916F0182958F700E942023F701819308
:104F20007F01E016F10699F78DE3B201422D0E9450
:104F300082793394A80CB91C680C791CF9A53F162A
:104F400058F4ECE1CE2EE7E2DE2EC60CD71C8CA581
:104F50009DA57C018201CACF0E94FC23AD96CDBFE6
:104F6000DEBFCF91DF911F910F91FF90EF90DF9007
:104F7000CF90BF90AF909F908F907F906F905F90F9
:104F80004F903F902F9008952F923F924F925F92B3
:104F90006F927F928F929F92AF92BF92CF92DF9249
:104FA000EF92FF920F931F93DF93CF93CDB7DEB7AE
:104FB0002F97CDBFDEBF042F2E010894411C511C3A
:104FC0009AE0F20111929A95E9F720903925F09133
:104FD0003A25FB874F2F222D0E946824622C7724CC
:104FE00010E08B85282F30E0029FC001039F900DB9
:104FF000129F900D1124869D4001879D900C969DD7
:10500000900C1124E2E0F0E08E0E9F1E269DC00160
:10501000279D900D369D900D1124809F5001819FFA
:10502000B00C909FB00C1124AE0EBF1E3324C201F1
:105030004E869F87860D971D8C879D8731C0F60110
:1050400081916F018F700E942023F80181938F015D
:105050008C859D850817190791F78DE3B201422DC4
:105060000E948279B9E3CB2EB5E2DB2EC80CD91CA5
:105070000AC0F60181916F0182958F700E942023F2
:10508000F70181937F01E016F10699F78DE3B201F4
:10509000422D0E9482793394860C971CA60CB71C73
:1050A000FB853F1658F4A9E3CA2EA5E2DA2ECA0CF6
:1050B000DB1C8E859F857C018201CACF0E94FC2368
:1050C0002F96CDBFDEBFCF91DF911F910F91FF9043
:1050D000EF90DF90CF90BF90AF909F908F907F9098
:1050E0006F905F904F903F902F900895FF920F9395
:1050F0001F93CF93DF93F82E062FEA0110E0FE01F5
:10510000E10FF11D408140538F2D602F0E94C42775
:1051100080913925080F1F5FFE01E10FF11D80818D
:10512000882369F7DF91CF911F910F91FF90089528
:105130002F923F924F925F926F927F928F929F92A7
:10514000AF92BF92CF92DF92EF92FF920F931F9395
:10515000DF93CF93CDB7DEB72F97CDBFDEBF042F40
:105160002E010894411C511C9AE0F20111929A956B
:10517000E9F720907C25F0917D25FB874F2F222D8C
:105180000E946824622C772410E08B85282F30E061
:10519000029FC001039F900D129F900D1124869DC8
:1051A0004001879D900C969D900C1124E2E0F0E068
:1051B0008E0E9F1E269DC001279D900D369D900D41
:1051C0001124809F5001819FB00C909FB00C11243E
:1051D000AE0EBF1E3324C2014E869F87860D971DDB
:1051E0008C879D8731C0F60181916F018F700E947D
:1051F0002023F80181938F018C859D85081719075D
:1052000091F78DE3B201422D0E9482798CE7C82E7E
:1052100085E2D82EC80CD91C0AC0F60181916F0115
:1052200082958F700E942023F70181937F01E01601
:10523000F10699F78DE3B201422D0E9482793394F1
:10524000860C971CA60CB71CFB853F1658F41CE770
:10525000C12E15E2D12ECA0CDB1C8E859F857C01E8
:105260008201CACF0E94FC232F96CDBFDEBFCF9113
:10527000DF911F910F91FF90EF90DF90CF90BF9043
:10528000AF909F908F907F906F905F904F903F90E6
:105290002F900895FF920F931F93CF93DF93F82ED3
:1052A000062FEA0110E0FE01E10FF11D408140539D
:1052B0008F2D602F0E94982880917C25080F1F5FFA
:1052C000FE01E10FF11D8081882369F7DF91CF9105
:1052D0001F910F91FF900895AF92BF92CF92DF92EE
:1052E000EF92FF920F931F93DF93CF93CDB7DEB76B
:1052F0002A97CDBFDEBFB82EA62EFE0131968AE0DA
:10530000DF011D928A95E9F76A0157FF02C0CC249C
:10531000DD24C60160E177E20E94637A6983772722
:1053200067FD709580E197E2689F8001699F100D8D
:10533000789F100D1124C601801B910B68EE73E05D
:105340000E94637A6A83772767FD709588EE93E001
:10535000689F7001699FF00C789FF00C1124C701C1
:10536000800F911FF601E81BF90BCF0164E670E096
:105370000E94637A6B838CE9680290011124CF014B
:10538000820F931F6AE070E00E94637A6C838C2D19
:10539000820F801B8E1996EF6902B0011124860FCF
:1053A0008D83FE0131969E012A5F3F4F8081805D93
:1053B0008193E217F307D1F78B2D6A2DAE014F5F72
:1053C0005F4F0E944A292A96CDBFDEBFCF91DF9161
:1053D0001F910F91FF90EF90DF90CF90BF90AF9013
:1053E0000895CF92DF92EF92FF920F931F93DF9376
:1053F000CF93CDB7DEB72A97CDBFDEBFD82EC62E4E
:10540000FE0131968AE0DF011D928A95E9F77A0163
:1054100057FF02C0EE24FF24C70168EE73E00E942C
:10542000637A6983772767FD709588EE93E0689FBC
:105430008001699F100D789F100D1124F701E01B6A
:10544000F10BCF0164E670E00E94637A6A8384E620
:10545000680290011124CF01821B930B6AE070E077
:105460000E94637A6B838E2D801B821B96EF6902EC
:10547000B0011124860F8C83FE0131969E012B5FB3
:105480003F4F8081805D8193E217F307D1F78D2D27
:105490006C2DAE014F5F5F4F0E944A292A96CDBF07
:1054A000DEBFCF91DF911F910F91FF90EF90DF90C2
:1054B000CF900895EF92FF920F931F93DF93CF93B6
:1054C000CDB7DEB72A97CDBFDEBFF82EE62E83E03C
:1054D000483E58071CF007EE13E007C014161506E7
:1054E0001CF000E010E001C08A01C80164E670E031
:1054F0000E94637A462FFE0131968AE0DF011D92F9
:105500008A95E9F72CE9620290011124C901800F04
:10551000911F6AE070E00E94637A200F86EF6802B4
:10552000C0011124280F405D4983605D6A83205DBE
:105530002B838F2D6E2DAF010E944A292A96CDBF55
:10554000DEBFCF91DF911F910F91FF90EF900895F3
:105550000F931F93DF93CF93CDB7DEB72A97CDBFBD
:10556000DEBF182F062F443651051CF023E630E02D
:1055700007C0141615061CF020E030E001C09A01A7
:10558000C9016AE070E00E94637AFE0131968AE008
:10559000DF011D928A95E9F786EF6802C0011124A8
:1055A000820F605D6983805D8A83812F602FAF01E8
:1055B0000E944A292A96CDBFDEBFCF91DF911F916D
:1055C0000F9108952F923F924F925F926F927F9228
:1055D0008F929F92AF92BF92CF92DF92EF92FF9203
:1055E0000F931F93DF93CF93CDB7DEB76797CDBFF0
:1055F000DEBF142FFE01319694E1DF011D929A95D2
:10560000E9F72090DA25B091DB25BD8B4B2F222DB9
:105610000E946824422C5524812F8F70A82FB0E05F
:10562000ED894E2F50E0449DF001459DF00D549DB5
:10563000F00D1124612F70E0607F707061157105AD
:1056400011F061E070E0CA01880F991F9A0113E020
:10565000220F331F1A95E1F7820F931F9C01269F9B
:10566000C001279F900D369F900D1124A49F90019B
:10567000A59F300DB49F300D1124820F931F849D80
:105680004001859D900C949D900C112482E090E047
:10569000880E991EEA9F8001EB9F100DFA9F100D56
:1056A00011240E5F1F4FCF0143E0880F991F4A95C9
:1056B000E1F7EE0FFF1F8E0F9F1FDC01A69FC001B9
:1056C000A79F900DB69F900D1124080F191F33242A
:1056D0003E010894611C711CF301E20DF11DEE8B7B
:1056E000FF8B31C0D5018D915D018F700E94202309
:1056F000F70181937F012E893F89E216F30691F726
:105700008DE3B301422D0E9482792AEDA22E25E27B
:10571000B22EA80CB91C0AC0D5018D915D018295ED
:105720008F700E942023F60181936F01CE14DF0455
:1057300099F78DE3B301422D0E9482793394840C52
:10574000951C040D151DFD893F1648F49AEDA92EF0
:1057500095E2B92EA00EB11E63017301CCCF0E9459
:10576000FC236796CDBFDEBFCF91DF911F910F91D4
:10577000FF90EF90DF90CF90BF90AF909F908F9071
:105780007F906F905F904F903F902F9008952F9251
:105790003F924F925F926F927F928F929F92AF92C1
:1057A000BF92CF92DF92EF92FF920F931F93DF93FE
:1057B000CF93CDB7DEB7E097CDBFDEBF8AA76BA78B
:1057C0008A012CA72E010894411C511C88E2F20189
:1057D00011928A95E9F720905536F0915636F9A73F
:1057E0008AA56BA54F2F222D0E946824822C992414
:1057F00029A5822F90E0FC018E9EC0018F9E900D06
:105800009E9E900D1124809F5001819FB00C909F0F
:10581000B00C112422E030E0A20EB31E3501332477
:10582000C2014FA698AB880D991D8DA79EA731C0C8
:10583000F60181916F018F700E942023F8018193FE
:105840008F012DA53EA50217130791F78DE3B20135
:10585000422D0E94827995E5C92E96E3D92ECA0C75
:10586000DB1C0AC0F60181916F0182958F700E9446
:105870002023F70181937F01E016F10699F78DE36C
:10588000B201422D0E9482793394A80CB91C680C95
:10589000791CF9A53F1658F485E5C82E86E3D82E65
:1058A000C60CD71C8FA598A97C018201CACF2CA554
:1058B000203248F43BA5335F3BA78AA58F5F632F57
:1058C000422F0E94E22A0E94FC23E096CDBFDEBF59
:1058D000CF91DF911F910F91FF90EF90DF90CF90CC
:1058E000BF90AF909F908F907F906F905F904F9000
:1058F0003F902F9008952F923F924F925F926F9218
:105900007F928F929F92AF92BF92CF92DF92EF924F
:10591000FF920F931F93DF93CF93CDB7DEB7AD9771
:10592000CDBFDEBF8A012E010894411C511C98E2B4
:10593000F20111929A95E9F72090F722F091F8225E
:10594000F9A74F2F222D0E946824822C992429A583
:10595000822F90E0FC01E89DC001E99D900DF89D2B
:10596000900D1124809F5001819FB00C909FB00C2E
:10597000112428E030E0A20EB31E35013324C20109
:105980004CA69DA7880D991D8AA79BA731C0F6013B
:1059900081916F018F700E942023F80181938F0104
:1059A0002AA53BA50217130791F78DE3B201422DFB
:1059B0000E94827937EFC32E32E2D32ECA0CDB1C51
:1059C0000AC0F60181916F0182958F700E94202399
:1059D000F70181937F01E016F10699F78DE3B2019B
:1059E000422D0E9482793394A80CB91C680C791C52
:1059F000F9A53F1658F427EFC22E22E2D22EC60C8C
:105A0000D71C8CA59DA57C018201CACF0E94FC23D6
:105A1000AD96CDBFDEBFCF91DF911F910F91FF906B
:105A2000EF90DF90CF90BF90AF909F908F907F903E
:105A30006F905F904F903F902F900895FF920F933B
:105A40001F93CF93DF93F82E062FEA0110E0FE019B
:105A5000E10FF11D408150E0415250408F2D602FE9
:105A60000E947B2C8091F722080F1F5FFE01E10F3F
:105A7000F11D8081882359F7DF91CF911F910F91FC
:105A8000FF900895CF92DF92EF92FF920F931F93B2
:105A9000DF93CF93CDB7DEB72A97CDBFDEBFD82E29
:105AA000C62EFE0131968AE0DF011D928A95E9F744
:105AB0007A0157FF02C0EE24FF24C70168EE73E0AD
:105AC0000E94637A6983772767FD709588EE93E07B
:105AD000689F8001699F100D789F100D1124F701B8
