:100000000C94DA010C9400020C9400020C9400028F
:100010000C9400020C9400020C9400020C94000258
:100020000C9400020C9400020C9400020C94000248
:100030000C9400020C9400020C9400020C94000238
:100040000C9400020C9400020C9400020C94000228
:100050000C9400020C9400020C9400020C94000218
:100060000C9400020C9400020C9400020C94000208
:100070000C9400020C9400020C9400020C940002F8
:100080000C9400020C9400020C9400020C940002E8
:100090000C9400020C9400020C9400020C940002D8
:1000A0000C9400020C9400020C9400020C940002C8
:1000B0000C9400020C9400020C9400020C940002B8
:1000C0000C9400020C9400020C9400020C940002A8
:1000D0000C9400020C9400020C9400020C94000298
:1000E0000C9400020C9400020C9400020C94000288
:1000F0000C9400020C9400020C9400020C94000278
:100100000C9400020C9400020C9400020C94000267
:100110000C9400020C9400020C9400020C94000257
:100120000C9400020C9400020C9400020C94000247
:100130000C9400020C9400020C9400020C94000237
:100140000C9400020C9400020C9400020C94000227
:100150000C9400020C9400020C9400020C94000217
:100160000C9400020C9400020C9400020C94000207
:100170000C9400020C9400020C9400020C940002F7
:100180000C9400020C9400020C9400020C940002E7
:100190000C9400020C9400020C9400020C940002D7
:1001A0000C9400020C9400020C9400020C940002C7
:1001B0000C9400020C9400020C9400020C940002B7
:1001C0000C9400020C9400020C9400020C940002A7
:1001D0000C9400020C9400020C9400020C94000297
:1001E0000C9400020C9400020C94F9790C94000217
:1001F0000C94000277037A037D0380038303860354
:1002000089038C038F039203950398039B039E033A
:10021000A103A403A703AA03AD03B003B303B6036A
:10022000B903BC03BF03C203C503C803CB03CE039A
:10023000D103D603E803EB03EE03F103F403F70362
:10024000FA03FD0300040304060409040C040F046C
:100250001204150418041B041E042104240427049A
:100260002A042D0430043304360439043C043F04CA
:1002700042044704A23CA73CAC3CB13CB63CBB3C6E
:10028000C03CC73CCE3CD33CD83CDF3C663C6B3CDE
:10029000703C753C7A3C7F3C843C893C8E3C933C72
:1002A000983C9D3C79417C417F4182418541884118
:1002B0008D419041964199419C4193419F41A2417A
:1002C000CA41CD41D041D341D641D941DC41DF4182
:1002D000E241E541E841EB41EE41F141A741B9413D
:1002E000AA41AD41B041B341B641BC41BF41C24159
:1002F000C541F641F941FC41FF4102420542084235
:100300000B420E424F48514874487748534855486D
:100310007A487D48574859485B485D485F4880485F
:1003200083488648894861486348654868486B48FF
:10033000C7486E4871488C488F48924895489848FD
:10034000C2489B489E48A148B648B948BC48BF48E7
:10035000B048B348A448A748AA48AD48DA48DC48A2
:10036000FF480249DE48E04805490849E248E448B8
:10037000E648E848EA480B490E4911491449EC4857
:10038000EE48F048F348F6485249F948FC48174906
:100390001A491D49204923494D49264929492C49D3
:1003A0004149444947494A493B493E492F49324915
:1003B0003549384911241FBECFEFDFE3DEBFCDBF83
:1003C00000E00CBF18BE19BE1ABE1BBE1CE3A0E0A5
:1003D000B0E2E4E1F5EF00E00BBF02C007900D9240
:1003E000A436B107D9F71BBE1DE3A4E6BCE301C0E8
:1003F0001D92A13CB107E1F70E9458410C94887A04
:100400000C9400001F93CF93DF93C0E0D6E010E27E
:100410001983882321F41D8382E090E003C01D83AB
:100420008CE390E00E94EE581E8384E190E00E94ED
:10043000EE58DF91CF911F9108950F931F93CF93A3
:10044000DF93C0E0D0E00EEF17E0C8010C2E02C031
:10045000959587950A94E2F781700E940202219691
:10046000CC30D10591F7DF91CF911F910F91089575
:100470000F931F93CF93DF93C0E0D0E001E018E02B
:10048000C8010C2E02C0959587950A94E2F78170F9
:100490000E9402022196CC30D10591F7DF91CF91D5
:1004A0001F910F9108950F931F93CF93DF93C0E097
:1004B000D0E001E010E0C8010C2E02C0880F991FA7
:1004C0000A94E2F780780E9402022196C830D10592
:1004D00091F7DF91CF911F910F9108950F931F9383
:1004E000CF93DF93C0E0D0E007E310E0C8010C2E0B
:1004F00002C0880F991F0A94E2F780780E940202D6
:100500002196C830D10591F7DF91CF911F910F91BE
:1005100008950F931F93CF93DF93C0E0D0E002E1E3
:1005200010E0C8010C2E02C0959587950A94E2F759
:1005300081700E9402022196C630D10591F7DF91A9
:10054000CF911F910F9108950E9438020E94890255
:100550000E9453020E941D0208950F931F93CF9390
:10056000DF93C0E0D0E00AE110E0C8010C2E02C029
:10057000959587950A94E2F781700E940202219670
:10058000C630D10591F7DF91CF911F910F9108955A
:100590000E9438020E94AD020E946E020E941D025B
:1005A00008950E94C8020E94A4020895CF93DF9389
:1005B000AAECB1E052E05C93E0E2F0E0E4911C923E
:1005C00020E032E0E901EC875C93E1E2F0E0E491C5
:1005D0001C92ED875C93E4E2F0E0E4911C9280E4ED
:1005E00092E0EC01EC875C93E5E2F0E0E4911C9290
:1005F000ED87F901118240E24283548351E0508338
:1006000019824A835C83588350A348E141A350A7D1
:1006100040E141A758A340E349A350AB88E381AB35
:10062000DF91CF910895AAECB1E092E09C93E82F7E
:10063000F0E0E4911C928E2F0895E0E0F2E091E06A
:1006400090A388E181A390A780E181A70895E0E4C9
:10065000F2E081E080A380E381A30895E0E0F2E08E
:1006600081E080AB88E381AB0895809100028061D6
:10067000809300028091060282FFFCCF80910602E7
:100680008460E0E0F2E0868380911402909115028C
:10069000845C9940CCF48091643C9091653C0196D7
:1006A0008093643C9093653C039711F40E94104D35
:1006B0008091643C9091653C815D92404CF0109239
:1006C000643C1092653C08951092643C1092653C25
:1006D0000895FC018032910540F4E650FF4FEE0F83
:1006E000FF1F0590F491E02D199480E0089580E0BB
:1006F00090E059C081E090E056C082E090E053C0A5
:1007000083E090E050C084E090E04DC085E090E050
:100710004AC086E090E047C087E090E044C088E0AF
:1007200090E041C089E090E03EC08AE090E03BC0AC
:100730008BE090E038C08CE090E035C08DE090E038
:1007400032C08EE090E02FC08FE090E02CC080E1BE
:1007500090E029C081E190E026C082E190E023C0D2
:1007600083E190E020C084E190E01DC085E190E04D
:100770001AC086E190E017C087E190E014C088E1DC
:1007800090E011C089E190E00EC08AE190E00BC0DA
:100790008BE190E008C08CE190E005C08DE190E035
:1007A00002C08EE190E00E94AE0408958FE190E0D7
:1007B0000E94AE040895FC018032910508F06BC0E0
:1007C000E65EFE4FEE0FFF1F0590F491E02D1994A9
:1007D00080E090E059C081E090E056C082E090E077
:1007E00053C083E090E050C084E090E04DC085E0CD
:1007F00090E04AC086E090E047C087E090E044C0C7
:1008000088E090E041C089E090E03EC08AE090E05E
:100810003BC08BE090E038C08CE090E035C08DE0CC
:1008200090E032C08EE090E02FC08FE090E02CC0CE
:1008300080E190E029C081E190E026C082E190E073
:1008400023C083E190E020C084E190E01DC085E1F9
:1008500090E01AC086E190E017C087E190E014C0F4
:1008600088E190E011C089E190E00EC08AE190E05B
:100870000BC08BE190E008C08CE190E005C08DE1F9
:1008800090E002C08EE190E00E94740408958FE130
:1008900090E00E9474040895DF93CF93CDB7DEB744
:1008A000C258D040CDBFDEBF99838A8390E09E01BD
:1008B0002D5F3F4FE92FF0E0D901AE0FBF1FE60FCC
:1008C000F71F80818C939F5F9038A1F780E5BE0170
:1008D0006F5F7F4F42E80E944678CE57DF4FCDBF13
:1008E000DEBFCF91DF910895DF93CF9300D0CDB7D6
:1008F000DEB7DE011196E0E0F0E223E001900D9218
:100900002150E1F799838A836B8380E5BE016F5F95
:100910007F4F43E00E9446782396CDBFDEBFCF9144
:10092000DF910895DF93CF930F920F92CDB7DEB78B
:1009300099838A8380E5BE016F5F7F4F42E00E940A
:10094000467880E568E00E9484789C012F5F3F4FE5
:10095000C9010F900F90CF91DF910895DF93CF934E
:100960000F920F92CDB7DEB799838A8380E5BE01DF
:100970006F5F7F4F42E00E94467880E561E00E9411
:100980008478FC0181810F900F90CF91DF910895C1
:10099000CF93DF93C0E0D0E0CE016BE00E947404FF
:1009A0008AE090E00E94F7582196C032D105A1F765
:1009B000DF91CF9108958BECE0E5F0E0828388E051
:1009C000809350008091510083FFFCCF88ED84BF5D
:1009D00083E080934000089588ED84BF8BE280938C
:1009E00080000895A89508950E94C8040E941746A3
:1009F0000E94204A0E943F430E94191108950E94BC
:100A0000DB040E941F520E94D60278940E94B179A2
:100A10000E9486770E94CE770E9418230E94125966
:100A20000E9486240E9412590E94773288ED84BF6A
:100A30008BE2809380000E9494430E94D1020E9426
:100A400056090E94BF4B0E94125989E190E00E9412
:100A50008B5A81E190E00E94AC0504C00E94A55A27
:100A6000882321F40E9449060E97C1F70E941C5A60
:100A700082E090E00E944A5B089580E660E00E9478
:100A8000494280E06FEF0E94494281E06FEF0E948F
:100A9000494280E260E00E94494281E260E00E94B7
:100AA000494286E660E00E9449420895FF920F9312
:100AB0001F93CF93DF938C01FC01F08085E36F2DB2
:100AC0000E94494281E3F80161810E94494282E328
:100AD00060E00E944942E80100E007C0FA94802FDC
:100AE0008A5C69810E9449420F5F2196FF20B1F71D
:100AF00080E368E00E9449420CC080E30E94AB4260
:100B0000982F907F31F08091753C8F5F8093753C7A
:100B100006C08CE20E94AB4282FFEFCF90E0892FAB
:100B2000DF91CF911F910F91FF900895DF93CF93A5
:100B300000D00F92CDB7DEB791E099839A8399E008
:100B40009B838C83CE0101960E9456052496CDBFCF
:100B5000DEBFCF91DF910895DF93CF9300D0CDB763
:100B6000DEB791E099839A838B83CE0101960E9430
:100B700056052396CDBFDEBFCF91DF910895EF924A
:100B8000FF920F931F93DF93CF930F92CDB7DEB7F2
:100B9000E6E7FCE311922CE3E038F207D9F78CE2A8
:100BA0000E94AB4280FF2EC085E60E94AB42182F08
:100BB0001F701093763C81E60E94AB428093773C95
:100BC00086E60E94AB428093783C93E0012F10E0D0
:100BD0000F5F1F4F0DC0892F8C5999830E94AB4224
:100BE000E6E7FCE3EE0EFF1EF701808399819F5F2D
:100BF000E92EFF240E151F0574F78CE260E00E94B9
:100C0000494202C01092763C86E79CE30F90CF9158
:100C1000DF911F910F91FF90EF9008958230910521
:100C200069F410926B3C1092683C89E190E00E945C
:100C30008B5A8CE090E00E94AC0528C0019731F5FA
:100C40000E94A55A882371F080916B3C8F5F80933E
:100C50006B3C853018F08BE08093683C8CE090E032
:100C60000E94AC050E94BF05FC018081882371F0C1
:100C700082818C3059F483818093693C8481809394
:100C80006A3C81E08093683C0E94B55A88E69CE308
:100C900008950E94BF05FC018081882309F45CC08F
:100CA00082818D30C9F18E3040F4823029F1833059
:100CB00059F1813009F050C017C0803109F444C0A7
:100CC000813120F48E3009F047C006C08231A1F195
:100CD000833109F041C028C08091743C8F5F8093BC
:100CE000743C2EE030E03AC08091743C8F5F80937A
:100CF000743C21E030E032C08091743C8F5F80937F
:100D0000743C22E030E02AC08091743C8F5F809375
:100D1000743C23E030E022C08091743C8F5F80936C
:100D2000743C2DE030E01AC08091743C8F5F80935A
:100D3000743C23E130E012C08091743C8F5F80935B
:100D4000743C22E130E00AC08091743C8F5F809354
:100D5000743C20E130E002C02FE030E0C90108958A
:100D6000DF93CF9300D0CDB7DEB791E099838A832C
:100D70008EE08B83CE0101960E9456058AE090E0BA
:100D80000E948B5A06C00E94A55A882311F080E069
:100D900005C00E944906892BB1F381E02396CDBF9F
:100DA000DEBFCF91DF9108956F927F928F929F92D5
:100DB000AF92BF92CF92DF92FF920F931F93DF9378
:100DC000CF93CDB7DEB72A97CDBFDEBFDE01119638
:100DD000E3E0F0E22AE001900D922150E1F7823049
:100DE000910561F41092663C84E690E00E948B5A73
:100DF00082E190E00E94AC0581E018C0019709F003
:100E00006BC08091663C8130A1F40E94A55A882372
:100E100019F08BE08093663C0E944906429709F0E6
:100E20005BC084E690E00E948B5A82E08093663C2F
:100E300053C0823009F050C000E010E023E0622E81
:100E4000712C6C0E7D1E9BE0892E912C8C0E9D1EAC
:100E50005E010894A11CB11CA89581E162E3A80180
:100E60000E94582A0F5F1F4FD02ECC24FF248F2DB5
:100E700090E08C299D290E949204DC01F3018D9160
:100E80008193E815F905D9F7C5010E94560584E656
:100E900090E00E948B5A04C00E94A55A882349F40E
:100EA0000E94BF05FC0180818823B1F382818231D9
:100EB00021F08CE08093663C11C088E0F80E80E859
:100EC000F816A9F60032110539F684E08093663CE5
:100ED0008EE090E00E94AC058091663C2A96CDBFE2
:100EE000DEBFCF91DF911F910F91FF90DF90CF90E8
:100EF000BF90AF909F908F907F906F900895CF920A
:100F0000DF92FF920F931F93DF93CF93CDB7DEB79E
:100F1000C058D040CDBFDEBF8230910561F4109241
:100F2000673C84E690E00E948B5A83E190E00E9447
:100F3000AC0581E01CC0019709F07BC08091673C43
:100F40008130C1F40E94A55A882319F08BE0809368
:100F5000673C0E944906439709F06BC084E690E025
:100F60000E948B5A83E190E00E94AC0582E080935E
:100F7000673C5FC0823009F05CC000E010E06E01A9
:100F80000894C11CD11C81E162E3A8010E94582A87
:100F9000FF2406C00E94A55A882311F08CE026C0C9
:100FA0000E94BF05AC01FC018081882399F3DA011E
:100FB0008F2D90E0F601E80FF91F9C01285F3F4F4D
:100FC0002C0D3D1D12968C91129781931196E2176C
:100FD000F307C1F7002369F4FF2059F4FA01828175
:100FE0008C3039F08381843921F08DE08093673C27
:100FF00022C084E690E00E948B5A83E190E00E9438
:10100000AC05F8E0FF0E80E8F81651F6A8950F5FE2
:101010001F4F80E0902FB6010E944C040032110552
:1010200009F0B1CF84E08093673C8EE090E00E94AD
:10103000AC058091673CC058DF4FCDBFDEBFCF917C
:10104000DF911F910F91FF90DF90CF900895823034
:10105000910569F410926F3C10926C3C89E190E02C
:101060000E948B5A83E090E00E94AC0582C00197F9
:1010700009F07FC080916C3C882321F50E94A55A1D
:10108000882371F080916F3C8F5F80936F3C853037
:1010900018F08AE080936C3C83E090E00E94AC05FD
:1010A0000E944906833041F410926F3C81E08093A6
:1010B0006C3C86E090E02DC08D3009F05AC0109253
:1010C0006F3C29C0813061F50E94A55A882371F0D8
:1010D00080916F3C8F5F80936F3C853018F08BE080
:1010E00080936C3C86E090E00E94AC050E94BF05B6
:1010F000FC0180818823E9F182818630D1F58381EA
:1011000081FF37C010926F3C82E080936C3C85E099
:1011100090E00E94AC0589E190E00E948B5A29C0C2
:10112000823029F50E94A55A882371F080916F3C86
:101130008F5F80936F3C853018F08CE080936C3C1F
:1011400085E090E00E94AC050E94BF05FC01808113
:10115000882379F08281853061F4838180936D3CAE
:10116000848180936E3C83E080936C3C02C00E943B
:10117000B55A8CE69CE30895CF93DF93EB01823060
:10118000910561F41092733C1092703C89E190E0FB
:101190000E948B5ACE010E94AC0583C0019709F0D2
:1011A00080C08091703C882329F50E94A55A88232D
:1011B00069F08091733C8F5F8093733C853018F0A9
:1011C0008AE08093703CCE010E94AC050E944906E3
:1011D000982F8150823040F41092733C81E08093CC
:1011E000703C86E090E02DC09D3009F05AC010920E
:1011F000733C29C0813061F50E94A55A882371F0A3
:101200008091733C8F5F8093733C853018F08BE046
:101210008093703C86E090E00E94AC050E94BF0580
:10122000FC0180818823E9F182818630D1F510921A
:10123000733C838180FF35C082E08093703C84E002
:1012400090E00E94AC0589E190E00E948B5A29C091
:10125000823029F50E94A55A882371F08091733C51
:101260008F5F8093733C853018F08CE08093703CE6
:1012700084E090E00E94AC050E94BF05FC018081E3
:10128000882379F08281843061F483818093713C7A
:1012900084818093723C83E08093703C02C00E9402
:1012A000B55A80E79CE3DF91CF9108950E94DD421B
:1012B0000E943D058FE065E00E9449420895CF936A
:1012C000DF93C82FD0E080FF06C080E166E848E0E9
:1012D00050E00E94D925CE0186709070892B61F074
:1012E00086E06CE246E023E20E94963186E06DE201
:1012F00041E050E00E947C26C3FF0BC081E161E029
:1013000041E050E00E947C2680E090E060E00E9496
:10131000D134C4FF0BC081E16AE541E050E00E9496
:101320007C2682E090E060E00E94D134DF91CF9192
:101330000895EF92FF920F931F93CF93DF93C82FDF
:1013400080FD02C0EE240FC089E190E00E94414878
:10135000082F0E945445EE2490E010E0081719076A
:1013600014F4EE24E394C1FF19C08FE090E00E94D2
:101370004148F82E80E190E00E944148082F0E94E9
:10138000364E3F2D20E010E0202B312B2817390757
:101390001CF482E0E82A02C08DEFE822C2FF19C0E7
:1013A0008DE090E00E944148F82E8EE090E00E948F
:1013B0004148082F0E94364E3F2D20E010E0202BA0
:1013C000312B821793071CF484E0E82A02C08BEFCC
:1013D000E822C3FF0DC08CE090E063E170E00E9462
:1013E000964FC09719F488E0E82A02C087EFE822F8
:1013F0008E2DDF91CF911F910F91FF90EF90089567
:1014000083E190E00E943B5283E190E00E94A82299
:1014100080E40E94795208958091803C8F5F809390
:10142000803C823089F48BE190E00E94414888231F
:1014300011F00E94000A80E090E060E141E050E09D
:101440000E945B470E94104D8091803C8B3F10F0C2
:101450001092803C08958091813C8F5F8093813C05
:10146000823089F48BE190E00E944148882311F09A
:101470000E94000A80E090E068E041E050E00E94B5
:101480005B470E94104D8091813C8B3F10F0109281
:10149000813C08958091823C8F5F8093823C8230B2
:1014A00089F48AE190E00E944148882311F00E946B
:1014B000000A80E090E064E041E050E00E945B4779
:1014C0000E94104D8091823C8B3F10F01092823C24
:1014D00008958A30910591F08B30910548F486305B
:1014E0009105D1F08630910510F1089700F114C0F4
:1014F0008D30910588F08D309105C9F460E070E081
:1015000041E150E00E941219089799F485E190E0BA
:101510000E944148882369F484E00E945F090E9488
:101520004A0A80E10E94795288E00E94795281E063
:10153000089580E008958091833C8F5F8093833C81
:10154000823089F48AE190E00E944148882311F0BA
:101550000E94000A80E090E062E041E050E00E94DA
:101560005B470E94104D8091833C8B3F10F010929E
:10157000833C0895CF93DF93EC018091853C8823D1
:1015800009F043C082E00E945F090E949B0ACA30B2
:10159000D10501F1CB30D10548F4C830D105C1F0F7
:1015A000C930D10560F5269771F529C0CC30D10539
:1015B00031F1CC30D10520F0CD30D10521F50AC074
:1015C0008AE090E00E9441488823E9F480E818C04E
:1015D00088E016C0CE0160E070E041E150E00E947A
:1015E0001219089741F485E190E00E944148882350
:1015F00011F482E005C00E941A5180E101C080E22E
:10160000E0E0F7E0858381E058C0813009F058C000
:1016100087E290E00E941F5A882309F499C0CA30DB
:10162000D10549F1CB30D10550F4C830D105E9F0EE
:10163000C930D105D8F5269709F03EC037C0CC3067
:10164000D105A1F1CC30D10520F0CD30D105A1F5E7
:1016500012C08AE090E00E944148882369F5E0E0EA
:10166000F7E080E8868380E426C0E0E0F7E088E0E9
:10167000868384E020C0CE0160E070E041E150E06C
:101680000E941219089761F485E190E00E94414898
:10169000882331F4E0E0F7E082E0868381E00BC04C
:1016A000E0E0F7E080E1868380E205C0E0E0F7E07B
:1016B00080E2868380E1858382E08093853C48C018
:1016C000823009F045C087E290E00E941F5A8823CB
:1016D00009F43EC0CA30D10501F1CB30D10548F440
:1016E000C830D105C1F0C930D10550F5269761F554
:1016F00027C0CC30D10521F1CC30D10520F0CD3040
:10170000D10511F50AC08AE090E00E944148882383
:10171000D9F480E416C084E014C0CE0160E070E02B
:1017200041E150E00E941219089741F485E190E0F0
:101730000E944148882311F481E003C080E201C087
:1017400080E1E0E0F7E086831092853C81E001C013
:1017500080E0DF91CF9108958091863C882369F4E1
:1017600082E00E945F090E949B0A0E941A5180E158
:10177000E0E0F7E0858381E00FC0813089F486E204
:1017800090E00E941F5A8823D9F0E0E0F7E080E162
:10179000868380E2858382E08093863C80E00895A2
:1017A000823071F487E290E00E941F5A882341F052
:1017B00080E2E0E0F7E086831092863C81E00895C5
:1017C00080E008958091843C8F5F8093843C8230D8
:1017D00059F40E94000A80E090E061E041E050E0AE
:1017E0000E945B470E94104D8091843C8B3F10F01B
:1017F0001092843C0895CF92DF92FF920F931F9333
:10180000DF93CF9300D0CDB7DEB78C01662311F004
:101810006093873C8091873C80FD03C06801FF2472
:101820000FC081E00E945F090E94E20B8091873C1B
:101830008E7F8093873CFF24F39497E0C92ED12CB0
:101840008091873C81FF14C00730110519F40E9474
:10185000AC0B03C0C8010E94BA0A882311F4FF2010
:1018600039F08091873C8D7F8093873CFF24F394EF
:101870008091873C82FF0CC0C8010E94690A8823BE
:1018800039F08091873C8D7F8093873CFF24F394CF
:101890008091873C83FF19C088E00E945F090E9405
:1018A0002B0AC8010C97029730F00930110519F086
:1018B0000A30110519F487E0C82ED12C8091873C9D
:1018C000877F8093873CFF24F3948091873C84FF3B
:1018D0000CC080E10E945F090E940C0A8091873C45
:1018E0008F7E8093873CFF24F394C982DA826C2D2B
:1018F0007A818F2D90E02396CDBFDEBFCF91DF910F
:101900001F910F91FF90DF90CF90089587E090E0B6
:101910000E943B5288E090E00E94A82280E40E944E
:101920007D520895AF92BF92CF92DF92FF920F93B4
:101930001F93DF93CF9300D000D0CDB7DEB78C01DB
:101940006B015A018A309105B1F08B30910550F44A
:101950008630910579F18630910590F188309105B6
:1019600078F128C08C30910529F18C309105B8F0C0
:101970008D30910529F5C80160E070E041E150E04B
:101980000E9412190897E1F485E190E00E94414815
:101990008823B1F484E00E949909F82E12C08AE0ED
:1019A00090E00E944148882329F484E00E9499092C
:1019B000F82E01C0FF2484E00E949909F82A01C092
:1019C000FF248BE00E949909F82A81E090E00E94B0
:1019D0003B52FF20A9F080918B3C882389F485E25B
:1019E00090E00E941F5A882359F081E080938B3C3D
:1019F0000093883C1093893C83E090E00E941F5A3A
:101A000080918B3C882301F181E080938A3C809116
:101A1000883C9091893C6F2D0E94FB0B6C837D83E9
:101A20008E83DE011196FE01349683E001900D92C3
:101A30008150E1F78B81882319F401E310E004C0A1
:101A400009811A8110928B3CFF20A9F480918A3C75
:101A5000882389F080918B3C882369F410928A3C1A
:101A60000E94860C83E090E00E941F5AC801B601D4
:101A7000A5010E94951EC8012696CDBFDEBFCF915D
:101A8000DF911F910F91FF90DF90CF90BF90AF90AB
:101A900008959C018617970714F42F5F3F4FC901E3
:101AA00008959C016817790714F421503040C9014A
:101AB00008956F927F928F929F92AF92BF92CF9232
:101AC000DF92EF92FF920F931F938130910571F097
:101AD0008130910528F0029779F080E0882411C0C8
:101AE00082E08093182031E1832E0BC081E1809346
:101AF000182025E1822E05C086E1809318209AE106
:101B0000892E082F9924AA24CC247724662451C036
:101B100010E0802F612F40E050E00E94EE47D82E69
:101B2000802F612F41E050E00E94EE47E82E802F89
:101B3000612F42E050E00E94EE47F82E802F612F87
:101B400043E050E00E94EE47B82E802F612F44E022
:101B500050E00E94EE47DD2039F1CF14E0F0AE14E2
:101B600010F4FC14C0F49D1420F4EA1410F0FC14DA
:101B700090F47B1430F4D91420F0EA1410F0FC1423
:101B800050F4681688F4B71478F0D91468F0EA14A1
:101B900058F0FC1448F000931820109319209D2C45
:101BA000AE2CCF2C7B2C682E1F5F143009F0B1CFE8
:101BB0000F5F081508F4ACCF88E190E21F910F91F8
:101BC000FF90EF90DF90CF90BF90AF909F908F905D
:101BD0007F906F9008956F927F928F929F92AF92B5
:101BE000BF92CF92DF92EF92FF920F931F938130BB
:101BF000910571F08130910528F0029779F080E02D
:101C0000882411C082E080931A20B1E18B2E0BC092
:101C100081E180931A20A5E18A2E05C086E1809398
:101C20001A20FAE18F2E082FEFE19E2E7CE0A72EDE
:101C30006CE3C62E57E1752E4BE3642E51C010E0C5
:101C4000802F612F40E050E00E94EE47D82E802F79
:101C5000612F41E050E00E94EE47E82E802F612F77
:101C600042E050E00E94EE47F82E802F612F43E0C3
:101C700050E00E94EE47B82E802F612F44E050E0E4
:101C80000E94EE47DD2039F1FC14E0F0EA1410F474
:101C9000CF14C0F4D91420F4AE1410F0CF1490F483
:101CA000B71430F49D1420F0AE1410F0CF1450F49B
:101CB000861588F47B1478F09D1468F0AE1458F003
:101CC000CF1448F000931A2010931B209D2CAE2CAB
:101CD000CF2C7B2C682E1F5F143009F0B1CF0F5F23
:101CE000081508F4ACCF8AE190E21F910F91FF90A4
:101CF000EF90DF90CF90BF90AF909F908F907F90AC
:101D00006F9008950F931F93DF93CF930F92CDB7EA
:101D1000DEB78130910569F08130910528F0029796
:101D200069F080E090E00EC082E080931C2091E199
:101D300009C081E180931C2095E104C086E1809375
:101D40001C209AE1082F1DC010E010931D20802F49
:101D5000612F40E050E099830E94EE4799818823EB
:101D600061F01F5F143089F710921E2080911C20B3
:101D70008F5F80931C200F5F04C081E080931E2042
:101D800002C0091708F38CE190E20F90CF91DF9128
:101D90001F910F910895CF92DF92FF920F931F939F
:101DA000CF93DF93EC018B016B0185E0F82E8F2D33
:101DB00090E0F60161916F010E948433F394FBE09F
:101DC000FF16A9F70C0F1D1FF8016081C230D10565
:101DD000A1F0C330D10528F4209749F02197B9F438
:101DE00009C0C330D10561F0249789F40CC080E0AC
:101DF00090E00BC081E090E008C082E090E005C078
:101E000083E090E002C084E090E00E948433DF91A0
:101E1000CF911F910F91FF90DF90CF9008951F9366
:101E2000182F8FE06DE24FE050E00E947C268FE09B
:101E30006AE54CE050E00E94D9258FE068E747E072
:101E400050E00E941F27113061F0113018F012305D
:101E5000A9F40EC08FE06DE245E050E00E947C26C0
:101E60000DC08FE06AE541E050E00E94D92506C030
:101E70008FE068E743E050E00E941F271F9108951C
:101E800083E06DE74DE050E20E94D42E0895DF928A
:101E9000EF92FF920F931F93DF93CF9300D00F9297
:101EA000CDB7DEB7F82E8B0119821A821B821C82F5
:101EB0008FE067E244E023E30E94963180E168E22C
:101EC00042E150E20E94D42EFE0131969E012B5F2A
:101ED0003F4FD8018D918D018193E217F307C9F728
:101EE000D9808D2D0E947433EA808E2D0E94643338
:101EF0009C8180E02B81022F10E0082B192B80E1C0
:101F000068E4A8010E94612FB1E0FB1651F0FB16B6
:101F100020F082E0F816A1F408C08D2D0E94543301
:101F20000FC08E2D0E9444330BC08FE066E444E066
:101F300024E10E94D53180E168E4A8010E94A92D26
:101F40002496CDBFDEBFCF91DF911F910F91FF90FF
:101F5000EF90DF900895DF92EF92FF920F931F931F
:101F6000DF93CF9300D00F92CDB7DEB7F82E8B0161
:101F700019821A821B821C828FE066E444E024E10D
:101F80000E949631FE0131969E012B5F3F4FD80192
:101F90008D918D018193E217F307C9F7D9808D2DBB
:101FA0000E947433EA808E2D0E9464339C8180E00D
:101FB0002B81022F10E0082B192B80E168E4A80187
:101FC0000E94612FB1E0FB1651F0FB1620F082E079
:101FD000F816A1F408C08D2D0E9454330FC08E2D29
:101FE0000E9444330BC08FE066E444E024E10E9489
:101FF000D53180E168E4A8010E94A92D2496CDBFC7
:10200000DEBFCF91DF911F910F91FF90EF90DF9096
:102010000895882319F0813031F513C08FE060E016
:102020004DE050E00E947C268FE067E244E02FE123
:102030000E94D53180E168E242E150E20E941C2D0D
:1020400008958FE060E043E050E00E947C268FE03E
:1020500067E244E02FE10E94963180E168E242E1CC
:1020600050E20E94D42E0895CF92DF92EF92FF9219
:102070000F931F93CF93DF937C016B01FC010081D1
:102080001181FB01C081D18180E00E94C643809311
:102090008D3C81E090E00E944A5B282F90918D3C1E
:1020A00080918C3C981711F4222381F090938C3C02
:1020B000209739F40115110521F001501040CCE3AF
:1020C000D0E0219783E090E00E944A5B209789F45A
:1020D0000115110571F483E090E00E944A5BF7015D
:1020E0001082118285E090E0F6018083918381E087
:1020F00007C0F70100831183F601C083D18380E01C
:10210000DF91CF911F910F91FF90EF90DF90CF90D3
:1021100008950F931F938C010E94A5449C010430E5
:10212000110531F401960E941A430E94A5449C01B6
:10213000C9011F910F9108950F931F93CF93DF93C0
:102140008C01C0E0D0E0F801EC0FFD1F80818823F6
:1021500019F08C2F0E9401372196CB30D10599F7C9
:10216000DF91CF911F910F9108950F931F93082F27
:10217000162F0E94853586E0189FB0011124635800
:1021800010E0015F1F4F83E0A8010E94312E1F91D4
:102190000F91089588319105B1F08931910518F4B6
:1021A0000B97E1F517C08133910519F0C397B1F58D
:1021B0002CC08091903C9091913C60E040E050E0D8
:1021C0000E945B4708951092903C1092913C1092AF
:1021D0008E3C089580918F3C861739F080918E3C1B
:1021E0008F5F80938E3C60938F3C80918E3C8823E0
:1021F000A9F010928E3C8091903C9091913C019678
:102200008093903C9093913C08958091903C909164
:10221000913C01978093903C9093913C089590E07D
:1022200005C08150823008F480E19F5F9617C8F3A3
:102230000895AF92BF92CF92DF92EF92FF920F93E9
:102240001F9388E090E00E94A8220E9413770E94CA
:10225000773282E060E04FE150E20E94D42E85E0C8
:1022600060E046E250E20E94D42E8AE060E04DE257
:1022700050E20E94D42E8DE060E046E350E20E94DE
:10228000D42E82E160E04FE350E20E94D42E85E13B
:1022900060E04CE450E20E94D42E8AE290E00E947A
:1022A0004148482F82E06CE350E00E94612F8BE2AE
:1022B00090E00E944148482F85E06CE350E00E9486
:1022C000612F88E290E00E944148482F82E064E656
:1022D00050E00E94612F89E290E00E944148482F1F
:1022E00085E064E650E00E94612F0E94F2040E94A3
:1022F0000F768C0194E0159507959A95E1F70E9469
:1023000039767C0184E0F594E7948A95E1F7C7017A
:102310000E9463765C01C8010E948A766C018AE0A3
:1023200064E6A8010E94612F8DE064E6A7010E9487
:10233000612F82E164E6A6010E94612F85E164E6D7
:10234000A501D1CFDF92EF92FF920F931F93CF930E
:10235000DF93EC01062F142F8130910571F081304D
:10236000910530F08230910569F0DD24EE240EC035
:10237000F2E0DF2EE0E1EE2E09C071E1D72E64E13C
:10238000E62E04C056E1D52E49E1E42E35E0F32EC9
:10239000C130D10569F0C130D10520F0C230D1057E
:1023A00091F40CC08F2D602F412F0E94EE380BC08E
:1023B0008F2D602F412F0E94563805C08F2D602F22
:1023C000412F0E94D437112329F401500D1508F430
:1023D0000E2D14E0115082E0F80E8DE0F816C1F6D3
:1023E0002DE0F22EC130D10569F0C130D10520F0C9
:1023F000C230D10591F40CC08F2D602F412F0E9467
:10240000EE380BC08F2D602F412F0E94563805C02B
:102410008F2D602F412F0E94D437112329F40150B2
:102420000D1508F40E2D14E082E0F80E85E1F81683
:1024300011F01150D7CFDF91CF911F910F91FF90E5
:10244000EF90DF90089584E061E048E127E80E9482
:1024500096310895EF92FF920F931F93DF93CF93DE
:102460000F92CDB7DEB77C0182E090E00E94590D5B
:10247000FC0110810181E114F10429F081E0E816EA
:10248000F104D1F50DC084E061E048E127E80E9445
:10249000963182E090E0612F402F0E94A2112CC063
:1024A00084E061E048E127E80E949631612F6150A5
:1024B000623008F460E1162F1150123008F410E178
:1024C00095E0892F612F402F99830E94D4379981FD
:1024D000002339F41150163118F404E019E101C059
:1024E00004E09E5F9D3011F00150EBCF8FE061E082
:1024F00049E550E20E94D42E0F90CF91DF911F91B9
:102500000F91FF90EF900895EF92FF920F931F931A
:10251000DF93CF930F92CDB7DEB77C0181E090E0DF
:102520000E94590DFC0110810181E114F10429F090
:1025300081E0E816F104D1F50DC084E061E048E1E6
:1025400027E80E94963181E090E0612F402F0E94A1
:10255000A2112CC084E061E048E127E80E94963196
:10256000612F6150623008F460E1162F1150123073
:1025700008F410E195E0892F612F402F99830E9484
:1025800056389981002339F41150113118F404E0C0
:1025900014E101C004E09E5F9D3011F00150EBCFCB
:1025A0008FE061E049E550E20E94D42E0F90CF9178
:1025B000DF911F910F91FF90EF900895FF920F937D
:1025C0001F93CF93DF93EC0180E090E00E94590DC0
:1025D000FC011081F180C330D10509F442C0C43040
:1025E000D10530F4C130D105D1F0229700F510C0EB
:1025F000C530D10509F453C0C530D10508F440C039
:10260000C630D10509F45AC0279709F096C06BC0AF
:1026100084E061E048E127E80E9496315DC084E0F3
:1026200061E048E127E80E949631612F0FC084E005
:1026300061E048E127E80E949631612F61506230E5
:1026400008F460E16150623008F460E1615062308A
:1026500008F460E16150623008F460E180E090E0ED
:102660003EC084E061E048E127E80E94963180E0C6
:102670001150123008F410E18F5F8630C9F72CC07A
:1026800084E061E048E127E80E94963180E0115043
:10269000123008F410E18F5F8830C9F71DC084E064
:1026A00061E048E127E80E94963180E01150123045
:1026B00008F410E18F5F8A30C9F70EC084E061E052
:1026C00048E127E80E94963180E01150123008F46A
:1026D00010E18F5F8C30C9F780E090E0612F4F2DC3
:1026E0000E94A2112AC084E061E048E127E80E942C
:1026F000963180E01150123008F410E18F5F8E3077
:10270000C9F705E0802F612F4F2D0E94EE38FF2082
:1027100049F41150123020F4B4E0FB2E10E102C055
:10272000A4E0FA2E0E5F0D3011F0FA94EBCF8FE09B
:1027300061E049E550E20E94D42EDF91CF911F91D4
:102740000F91FF9008950F931F93CF93DF938C0108
:102750008091923C882379F481E08093923C0E949E
:10276000793785E090E080936820909369201092FB
:10277000933C1092943C0E94F2040E9417590E94CC
:102780009474B8010E94D75BEC010817190731F067
:102790001092923C0E9477328E010EC088E690E241
:1027A00063E97CE30E943410882331F01092923C5C
:1027B0000E94773200E010E0C801DF91CF911F91B5
:1027C0000F9108959C01FB01DA0185E090E0808380
:1027D00091831D921C9229323105B9F02A323105BC
:1027E00038F42732310559F028323105D1F40AC0C6
:1027F0002A32310569F02B32310599F40CC00E9460
:10280000353508950E94CB3B08950E94AF3B089553
:102810000E94933B089583E090E00E94B4550E948B
:102820005B3B0895CF92DF92EF92FF920F931F933D
:10283000CF93DF938C017B016A0185E090E0FB017F
:10284000808391830E949474B8010E94C75EEC015A
:102850008E32910549F08F32910549F08C32910505
:1028600051F40E94BC5707C00E94375402C00E9416
:102870001654CBE2D0E0CE018B97029758F0CE32BF
:10288000D10541F0CF32D10529F0CE01B701A60123
:102890000E94E213CE01DF91CF911F910F91FF9023
:1028A000EF90DF90CF900895EF92FF920F931F93D8
:1028B000CF93DF938C017B010E9494746AE270E0F5
:1028C0000E94E35FEC018A32910521F0B801A70173
:1028D0000E94E213CE01DF91CF911F910F91FF90E3
:1028E000EF900895EF92FF920F931F93CF93DF9392
:1028F0008C017B010E94947469E270E00E94716017
:10290000EC018932910521F0B801A7010E94E21380
:10291000CE01DF91CF911F910F91FF90EF9008951D
:10292000EF92FF920F931F93CF93DF938C017B0164
:102930000E94947468E270E00E94FF60EC018832AB
:10294000910521F0B801A7010E94E213CE01DF91A9
:10295000CF911F910F91FF90EF900895EF92FF920A
:102960000F931F93CF93DF938C017B010E9494748C
:1029700067E270E00E947A5EEC018732910521F0F7
:10298000B801A7010E94E213CE01DF91CF911F9100
:102990000F91FF90EF900895CF93DF93EC01893270
:1029A000910589F18A32910550F487329105E9F059
:1029B0008832910508F583309105D1F507C08A3238
:1029C000910541F18033910598F52BC085E090E0A9
:1029D00080936A2090936B201092953C1092963CC5
:1029E0000E943535C7E2D0E023C08AE690E265E96F
:1029F0007CE30E94AE141BC08AE690E265E97CE3AA
:102A00000E94901414C08AE690E265E97CE30E947B
:102A100072140DC08AE690E265E97CE30E945414CA
:102A200006C06AE670E245E95CE30E941214EC011C
:102A30000E94F2040E9421598AE690E265E97CE353
:102A40000E943410882311F0C0E0D0E0CE01DF9165
:102A5000CF9108959C01FB01DA0185E090E080832D
:102A600091831D921C922431310509F441C0253116
:102A70003105A8F42031310579F12131310540F4D7
:102A80002E30310519F12F30310509F045C021C034
:102A90002231310539F12331310538F520C0273194
:102AA000310579F12831310538F42531310519F135
:102AB0002631310589F522C02A31310541F12B310A
:102AC000310541F12931310539F51EC00E94DE3D45
:102AD00008950E94C53D08950E94B23D08950E9448
:102AE000993D08950E94193E08950E94063E08955A
:102AF0000E947A3D08950E94673D08950E94F33D2B
:102B000008950E941E3F08950E942C3E08950E9441
:102B10001A3D08950E94073D0895EF92FF920F938A
:102B20001F93CF93DF938C017B010E9494746BE120
:102B300070E00E948D61EC018B31910521F0B801AC
:102B4000A7010E942A15CE01DF91CF911F910F910D
:102B5000FF90EF900895EF92FF920F931F93CF9302
:102B6000DF938C017B010E9494746AE170E00E9403
:102B7000BF66EC018A31910521F0B801A7010E94DE
:102B80002A15CE01DF91CF911F910F91FF90EF9009
:102B90000895EF92FF920F931F93CF93DF938C01D1
:102BA0007B010E94947469E170E00E946F63EC0104
:102BB0000E942D45C931D10529F0CE01B801A701E8
:102BC0000E942A15CE01DF91CF911F910F91FF90A6
:102BD000EF900895EF92FF920F931F93CF93DF939F
:102BE0007C018B018091973C882319F0C8E1D0E0EB
:102BF00002C0C7E1D0E00E949474BE010E94DE686A
:102C0000EC018831910509F049C081E290E00E9411
:102C10004148882349F08DE090E00E94AF5685E05E
:102C200090E00E94AF5631C08091973C882379F4A0
:102C300081E08093973C84E090E0F701808391836A
:102C400088E790E0F801808391830E947351F80136
:102C50004081518181E164E60E94612FF801808109
:102C60009181892B21F51092973C8DE090E00E9494
:102C7000504F85E090E00E94504F0E942C5181E11E
:102C800064E642E024E10E9496318FE061E043E196
:102C900050E00E947C26C7E1D0E009C08731910551
:102CA00031F01092973CB701A8010E942A15CE017D
:102CB000DF91CF911F910F91FF90EF900895EF92C8
:102CC000FF920F931F93CF93DF938C017B010E94A0
:102CD000947466E170E00E94516AEC0186319105BE
:102CE00021F0B801A7010E942A15CE01DF91CF91F2
:102CF0001F910F91FF90EF900895EF92FF920F9325
:102D00001F93CF93DF938C017B010E94947465E144
:102D100070E00E94206DEC018531910521F0B80131
:102D2000A7010E942A15CE01DF91CF911F910F912B
:102D3000FF90EF900895EF92FF920F931F93CF9320
:102D4000DF938C017B010E94947464E170E00E9427
:102D5000A164EC018431910521F0B801A7010E9422
:102D60002A15CE01DF91CF911F910F91FF90EF9027
:102D70000895EF92FF920F931F93CF93DF938C01EF
:102D80007B010E94947463E170E00E94406EEC014C
:102D90008331910521F0B801A7010E942A15CE01C7
:102DA000DF91CF911F910F91FF90EF900895EF92D7
:102DB000FF920F931F93CF93DF938C017B010E94AF
:102DC000947462E170E00E940D6CEC018231910517
:102DD00021F0B801A7010E942A15CE01DF91CF9101
:102DE0001F910F91FF90EF900895EF92FF920F9334
:102DF0001F93CF93DF938C017B010E94947461E158
:102E000070E00E940B66EC018131910521F0B80160
:102E1000A7010E942A15CE01DF91CF911F910F913A
:102E2000FF90EF900895EF92FF920F931F93CF932F
:102E3000DF938C017B010E94947460E170E00E943A
:102E40007C6FEC018031910521F0B801A7010E944F
:102E50002A15CE01DF91CF911F910F91FF90EF9036
:102E60000895EF92FF920F931F93CF93DF938C01FE
:102E70007B010E9494746FE070E00E940871EC0185
:102E80008F30910521F0B801A7010E942A15CE01CB
:102E9000DF91CF911F910F91FF90EF900895EF92E6
:102EA000FF920F931F93CF93DF938C017B010E94BE
:102EB00094746EE070E00E94765BEC018E309105B8
:102EC00021F0B801A7010E942A15CE01DF91CF9110
:102ED0001F910F91FF90EF900895CF93DF93EC0136
:102EE0008431910509F475C085319105E0F4803194
:102EF000910509F452C08131910560F48E3091053D
:102F0000F1F18F30910508F041C08230910509F050
:102F100091C026C08231910509F44DC083319105DD
:102F200008F050C041C08831910509F467C089316B
:102F3000910548F48631910509F459C0873191050E
:102F400008F05CC04DC08A31910509F465C08A3132
:102F5000910508F45AC08B31910509F06BC063C02C
:102F600085E090E080936C2090936D201092983CC7
:102F70001092993C0E94DE3DCEE0D0E05BC08CE632
:102F800090E268E97CE30E944F1753C08CE690E220
:102F900068E97CE30E9431174CC08CE690E268E956
:102FA0007CE30E94131745C08CE690E268E97CE35D
:102FB0000E94F5163EC08CE690E268E97CE30E9430
:102FC000D71637C08CE690E268E97CE30E94B91618
:102FD00030C08CE690E268E97CE30E949B1629C031
:102FE0008CE690E268E97CE30E947D1622C08CE6C4
:102FF00090E268E97CE30E945F161BC08CE690E2D9
:1030000068E97CE30E94EA1514C08CE690E268E966
:103010007CE30E94C9150DC08CE690E268E97CE370
:103020000E94AB1506C08CE690E268E97CE30E9442
:103030008D15EC010E94F2040E941C598CE690E26E
:1030400068E97CE30E943410882331F0689711F41A
:103050000E94C752C0E0D0E0CE01DF91CF91089529
:10306000CF93DF93EC01CB01BA010E943410882387
:1030700041F080E060E045E050E00E94CB46C0E0D7
:10308000D0E0CE01DF91CF9108959C0162307105AF
:10309000D1F481E190E00E9441488093A23C8823D2
:1030A00029F41092702085E190E008C081E08093BF
:1030B000A23C85E08093702087E090E08093A03C64
:1030C0009093A13C08956231710569F48091A03C10
:1030D0009091A13C88309105C1F085319105E1F0D6
:1030E000079701F519C08091A03C9091A13C6F30E9
:1030F000710539F58830910531F08531910551F030
:10310000079781F407C00E94615186E066E840E0BD
:1031100050E006C00E94165186E066E84BE050E0A1
:103120000E94D9254091A23C8DE067E850E00E94C2
:10313000A62A409170208DE063E950E00E94A62A03
:103140000895459709F46DC06130710509F069C0B3
:103150008091A33C90E082179307E9F02093A33C71
:1031600080917020882369F48CE3809370204091D3
:10317000A23C41504093A23C8DE067E850E00E94A1
:10318000A62A409170204150409370208DE063E961
:1031900050E00E94A62A8091A03C9091A13C8830EA
:1031A0009105F9F48091A23C8823D9F58091702093
:1031B0008823B9F587E090E08093A03C9093A13CF0
:1031C00082E190E00E9441488093A23C10927020DE
:1031D00086E066E84BE050E00E94D9250E94165137
:1031E00008950797F1F48091A23C8823D1F480914F
:1031F00070208823B1F488E090E08093A03C909305
:10320000A13C81E190E00E9441488093A23C109251
:10321000702086E066E840E050E00E94D9250E94D8
:10322000615108950F931F93CF93DF93EC018B01AE
:103230004230510501F583E190E00E9441488093BE
:10324000A53C882349F41092A43C85E190E080934A
:1032500071209093722021C01092A63C81E080934F
:10326000A53C82E08093A43C87E090E080937120AD
:1032700090937220F5C04131510509F4F1C060917D
:103280007120709172204231510521F40E949B3EC1
:1032900087E0E2C06531710519F425E130E0E4C052
:1032A0004F30510599F46830710509F0D9C08D305F
:1032B000910521F08A30910509F0D2C0CE0168E075
:1032C00070E00E949B3E0E94AB51CAC04330510542
:1032D00059F46830710509F0C3C068E070E00E94DD
:1032E0009B3E0E949451BCC04130510509F0B8C0CA
:1032F0006830710571F58133910559F18091A53CD4
:10330000882339F58091A43C882309F059C087E0CF
:1033100090E0809371209093722086E190E00E946B
:1033200041488093A63C84E190E00E94414880930C
:10333000A53C82E08093A43CCE0167E070E00E944F
:103340009B3E87E064EA7CE30E94BF390E9494516F
:1033500037C067307105A1F5C133D10589F180917E
:10336000A63C882369F58091A53C882349F5809186
:10337000A43C882329F5CD30D10519F0CA30D105F8
:10338000F9F488E090E0809371209093722010927D
:10339000A63C83E190E00E9441488093A53C82E0F6
:1033A0008093A43C6091712070917220CE010E94A4
:1033B0009B3E87E064EA7CE30E94BF390E94AB51E8
:1033C00080917120909172208730910549F0CD3025
:1033D000D10519F02A9709F043C0089709F040C0B9
:1033E0008091A73C90E080179107D1F10093A73C12
:1033F0008091A43C882341F59091A53C992321F428
:103400008091A63C882329F08CE38093A43C9923E7
:1034100079F49091A63C992359F08CE38093A53CD4
:1034200091509093A63C86E064EA7CE30E94BF3909
:103430008091A53C882319F081508093A53C82E0BF
:1034400064EA7CE30E94BF398091A43C882319F090
:1034500081508093A43C81E064EA7CE30E94BF3900
:103460002091712030917220C901DF91CF911F917D
:103470000F910895EF92FF920F931F93CF93DF93D5
:10348000EC017B014230510591F40E94633E809330
:10349000AA3C9093AB3C1092A83C1092A93CCE0160
:1034A00060E070E043E050E00E94121922C14F300A
:1034B000510599F48C30910519F08930910519F472
:1034C0000E94735116C18D30910521F08A3091050B
:1034D00009F00FC10E942C510CC14530510549F42F
:1034E0000E94EC3B8091AA3C6091A83C0E94E53987
:1034F00000C14130510509F0FCC08091AA3C909177
:10350000AB3C892B09F09FC08091A83C9091A93CCD
:10351000892B09F098C0CC30D105C1F0CD30D10550
:1035200040F4C930D10591F0CA30D10509F08BC003
:103530003AC0CE31D10509F459C0CF31D10509F4D3
:1035400072C0CD30D10509F07EC02DC0CE0161E042
:1035500070E00E94964F8C0165E070E00E94964FEB
:103560000E942C51C017D10741F0C80160E070E003
:1035700043E050E00E941219BDC0CC30D10519F4CF
:10358000CDE0D0E005C0C930D10511F4CAE0D0E0EB
:10359000CE010E94EC3BCE0160E070E04FE050E0D5
:1035A0000E94121917C0CE0160E070E043E050E0C5
:1035B0000E9412190E947351CD30D10519F4CCE04C
:1035C000D0E005C0CA30D10511F4C9E0D0E0CE0189
:1035D0000E94EC3BCE010E94633E8093AA3C9093F4
:1035E000AB3C1092A83C1092A93C2DC08EE190E01B
:1035F00061E070E00E94964F8EE190E065E070E03F
:103600000E94964F0E942C518FE190E00E94633EF1
:103610008093AA3C9093AB3C1092A83C1092A93C9A
:10362000CFE1D0E010C00E9473518EE190E00E9483
:10363000633E8093AA3C9093AB3C1092A83C1092BE
:10364000A93CCEE1D0E08091AC3C9091AD3CE81635
:10365000F90639F1E092AC3CF092AD3C8091A83C87
:103660009091A93C892B91F4C133D10579F08CE379
:1036700090E08093A83C9093A93C8091AA3C9091C3
:10368000AB3C01978093AA3C9093AB3C8091A83CC3
:103690009091A93C009729F001978093A83C9093C2
:1036A000A93CCE014E97029720F1C930D10531F0E7
:1036B000CC30D10519F0C133D10589F46091A83C13
:1036C0007091A93C8091AA3C9091AB3C0E944740EC
:1036D0008BE090E06091AA3C0E94CA100AC0609101
:1036E000A83C7091A93C8091AA3C9091AB3C0E946F
:1036F00021408E01C801DF91CF911F910F91FF9062
:10370000EF9008950F931F93CF93DF93EB018A01FE
:1037100082329105A1F18332910588F48E319105B1
:10372000F1F08F31910520F44C9709F06AC062C026
:1037300080329105B9F0819709F063C01DC08432D1
:10374000910509F446C08432910508F43FC08532E2
:10375000910509F448C0869709F053C049C089E033
:1037600090E002C08CE090E060E070E042E050E069
:103770000E943A1A0E9473518CE390E03DC08FE0A2
:1037800062E045E028E70E94963181E16FE04DE577
:1037900050E20E94D42E8FE065E542E150E00E94A5
:1037A000D9258EE190E088839983F80110821182F7
:1037B0004881598181E16CE70E94AF2FF801408177
:1037C000518181E16EE80E94AF2F1BC00E94895198
:1037D00011C00E946551188219828AE090E0F801B8
:1037E000808391830EC00E9461518EE190E004C0FD
:1037F0000E94AB5185E090E088839983F8011082A4
:103800001182DF91CF911F910F910895EF92FF9256
:103810000F931F93CF93DF938C017B010E949474CD
:1038200066E270E00E94A472B801A7010E943018FD
:10383000EC018632910539F00E949451CE01B80115
:10384000A7010E94821BF80180819181F7016081AC
:103850000E94883FCE01DF91CF911F910F91FF9081
:10386000EF900895EF92FF920F931F93CF93DF9302
:103870008C017B010E94947465E270E00E94A47246
:10388000B801A7010E943018EC018532910539F08A
:103890000E941651CE01B801A7010E94821BF801B7
:1038A00080819181F70160810E94883FCE01DF9184
:1038B000CF911F910F91FF90EF900895EF92FF929B
:1038C0000F931F93CF93DF938C017B010E9494741D
:1038D00064E270E00E94A472B801A7010E9430184F
:1038E000EC018432910539F00E941A51CE01B801E1
:1038F000A7010E94821BF80180819181F7016081FC
:103900000E94883FCE01DF91CF911F910F91FF90D0
:10391000EF900895EF92FF920F931F93CF93DF9351
:103920008C017B010E94947463E270E00E94A47297
:10393000B801A7010E943018EC018332910539F0DB
:103940000E944251CE01B801A7010E94821BF801DA
:1039500080819181F70160810E94883FCE01DF91D3
:10396000CF911F910F91FF90EF900895EF92FF92EA
:103970000F931F93CF93DF938C017B010E9494746C
:1039800062E270E00E94A472B801A7010E943018A0
:10399000EC018D31910591F481E080939B3CF8011D
:1039A000C083D1838AE390E0F70180839183F8019B
:1039B000808191816AE30E94B33F1EC082329105EB
:1039C000D9F08EE062E048E028E70E9496318091CD
:1039D0009B3C882311F00E94F851CE01B801A70149
:1039E0000E94821BF80180819181F70160810E9411
:1039F000B33F10929B3C28C080919B3C8823C9F424
:103A00000E94175980919A3C8F5F80939A3C8D3722
:103A100031F481E16FE04DE550E20E941C2D809170
:103A20009A3C8A3F31F481E16FE04DE550E20E941B
:103A3000D42E80919B3C882339F0F80180819181BC
:103A4000F70160810E94883FCE01DF91CF911F91E5
:103A50000F91FF90EF900895EF92FF920F931F93B5
:103A6000CF93DF938C017B010E94947461E270E03C
:103A70000E94A472B801A7010E943018EC018132A3
:103A8000910521F0B801A7010E94821BF8018081F5
:103A90009181F70160810E94883FCE01DF91CF9133
:103AA0001F910F91FF90EF900895EF92FF920F9367
:103AB0001F93CF93DF938C017B010E94947460E28B
:103AC00070E00E94A472B801A7010E943018EC01B6
:103AD0008032910541F00E942C51CE01B801A7011E
:103AE0000E94821B07C0F80180819181F7016081EB
:103AF0000E94883FCE01DF91CF911F910F91FF90DF
:103B0000EF900895EF92FF920F931F93CF93DF935F
:103B10008C017B010E9494746CE170E00E94A4729D
:103B2000B801A7010E943018EC018C31910521F0F9
:103B3000B801A7010E94821BF80180819181F701E1
:103B400060810E94883FCE01DF91CF911F910F913C
:103B5000FF90EF900895CF92DF92EF92FF920F9334
:103B60001F93CF93DF936C017B018A010E949474B1
:103B7000B6010E94A472B701A8010E943018EC019E
:103B80004E97029760F08EE1C816D10411F40E949E
:103B90002C51CE01B701A8010E94821B10C0F70171
:103BA00080819181F80160810E94883FF8016081E5
:103BB0007181CE0141E050E00E943A1AEC01CE0141
:103BC000DF91CF911F910F91FF90EF90DF90CF90F9
:103BD0000895CF93DF93EC018032910509F44CC036
:103BE0008132910578F48D31910509F453C08E31FD
:103BF0009105D8F58130910509F18C31910509F0D5
:103C00006CC02CC08332910509F44BC084329105FD
:103C100040F481329105B9F18232910509F05DC01D
:103C200039C08532910509F44AC08532910508F4FE
:103C30003FC08632910509F050C048C085E090E051
:103C400080936E2090936F2010929E3C10929F3C28
:103C500060E00E94D43FCCE1D0E03FC08EE690E22D
:103C60006EE97CE30E94821D37C06EE670E24EE989
:103C70005CE30E94AB1D30C08EE690E26EE97CE30F
:103C80000E94551D29C08EE690E26EE97CE30E94F9
:103C90002C1D22C08EE690E26EE97CE30E94B61CE9
:103CA0001BC08EE690E26EE97CE30E948A1C14C081
:103CB0008EE690E26EE97CE30E945E1C0DC08EE60B
:103CC00090E26EE97CE30E94321C06C08EE690E230
:103CD0006EE97CE30E94061CEC010E94F20481E084
:103CE00090E00E94A82280919C3C90919D3C815044
:103CF0009D4774F010929C3C10929D3C0E9486243B
:103D000082E090E00E94F75881E090E00E941A352E
:103D100080919C3C90919D3C019680939C3C90931B
:103D20009D3CCE01DF91CF9108950F931F93CF93C8
:103D3000DF93EC01162F042F8DE060E046E020EACF
:103D40000E9496310E94FA4085E060E042E023E262
:103D50000E949631CB30D10598F4C930D10570F569
:103D6000C630D105B9F0C730D10518F4209779F0E5
:103D70002CC0C730D10599F0C830D10531F519C034
:103D8000CB30D10589F0CE30D105F8F417C00E94B0
:103D900045411BC0812F602F0E943C3C16C0812FE3
:103DA000602F0E94253C11C0812F602F0E94FC3E95
:103DB0000CC0812F602F0E94044007C0CE0160E03C
:103DC00070E045E050E00E943A1A80E090E062E145
:103DD00070E00E944518CE0160E070E042E150E0E2
:103DE0000E941219DF91CF911F910F910895CF92E8
:103DF000DF92EF92FF921F93CF93DF93EC017B0151
:103E00006A01FA01108211828B309105A8F4893081
:103E1000910508F082C08630910511F18730910537
:103E200018F4009789F0A7C08730910551F18830C8
:103E3000910509F0A0C04BC08B309105A9F18E30DF
:103E4000910508F098C071C0FB016081718180E02C
:103E500090E040E050E00E94951E0E94FC508BC014
:103E600082E090E0FB0180839183FA0140815181DF
:103E700086E090E062E070E00E94951E0E9473511F
:103E80007AC088E090E00E944148682FF701808363
:103E90001182F6014081518187E090E070E00E943C
:103EA000951E0E944D5167C089E090E00E944148F4
:103EB000682FF70180831182F601408151818BE0E8
:103EC00090E070E00E94951E0E940C5254C08BE05E
:103ED00090E00E944148F701808311828CE090E0DD
:103EE0000E944148482F50E0F60140835183F7017A
:103EF000608171816115710549F44115510531F4F5
:103F000081E090E0F6018083918335C088E090E005
:103F10000E94951E0E9489512EC082E090E00E946E
:103F20004148182F83E090E007C086E090E00E94AF
:103F30004148182F87E090E00E944148312F20E04F
:103F4000682F70E0622B732BF70160837183F60199
:103F500040815181CE010E94951ECE0160E070E04B
:103F60004FE050E00E943A1ACE0160E070E04FE06E
:103F700050E00E941219DF91CF911F91FF90EF90B6
:103F8000DF90CF900895CF92DF92EF92FF920F9340
:103F90001F93CF93DF937B016A01FA0100811181A6
:103FA000FB0160817181A8010E94920CB80141E07F
:103FB00050E00E943A1AEC01C701B6010E94341089
:103FC000882381F0C133D10569F0CE0160E070E053
:103FD00043E050E00E9412192C9711F40E942C51DA
:103FE000C7E0D0E0CE01DF91CF911F910F91FF90FC
:103FF000EF90DF90CF900895EF92FF920F931F9371
:10400000CF93DF938C017B01FB0160817181FC0107
:10401000808191810E944740F80160817181F701A0
:10402000408151818BE090E00E94920CEC01C8012C
:10403000B7010E943410882339F0E19729F00E94DB
:10404000F85128E030E002C02BE030E0C901DF91F8
:10405000CF911F910F91FF90EF900895EF92FF92F3
:104060000F931F93CF93DF938C017B01FB01608142
:104070007181FC01808191810E942140F801608161
:104080007181F7014081518187E090E00E94920C9C
:10409000EC01C801B7010E943410882329F0E19790
:1040A00019F02BE030E002C027E030E0C901DF91D9
:1040B000CF911F910F91FF90EF900895EF92FF9293
:1040C0000F931F93CF93DF938C017B01FB016081E2
:1040D0007181FC01808191810E9447408BE090E0DA
:1040E000F80160810E94CA10F80160817181F701B6
:1040F0004081518186E090E00E94920CEC01C80161
:10410000B7010E943410882361F0E19751F086E0F6
:1041100090E061E070E00E94964FEC010E942C510B
:1041200002C0C6E0D0E0CE01DF91CF911F910F9188
:10413000FF90EF900895AF92BF92CF92DF92EF92EF
:10414000FF920F931F93CF93DF935C017B016A0172
:10415000FA0100811181FB0160817181A8010E9437
:10416000920CB80141E050E00E943A1AEC01C701FC
:10417000B6010E9434108823F9F0C133D10501F152
:1041800087E190E00E944148882339F0CE0164E342
:1041900070E00E94BB32882391F0CE0160E070E0B5
:1041A00043E050E00E941219299711F40E942C510B
:1041B0001CE0A12EB12C04C0C133D10509F05E0171
:1041C000C501DF91CF911F910F91FF90EF90DF908C
:1041D000CF90BF90AF900895EF92FF920F931F93EF
:1041E000CF93DF938C017B01FB0160817181FC0126
:1041F000808191810E944740F80160817181F701BF
:104200004081518188E090E00E94920CEC01C8014D
:10421000B7010E943410882339F1E19729F10E94F7
:10422000425181E390E060E00E94CA1080E090E09B
:1042300060E042E050E00E945B4788E190E060E08F
:104240000E94CA108EE190E00E944148882349F004
:1042500081E290E00E944148882319F426E030E092
:1042600005C029E030E002C028E030E0C901DF915C
:10427000CF911F910F91FF90EF900895EF92FF92D1
:104280000F931F93CF93DF93EC018B309105B8F41C
:104290008930910508F099C08630910509F468C00D
:1042A0008730910518F4009799F0D0C087309105B8
:1042B00009F469C08830910509F0C8C07BC08B3013
:1042C000910509F46CC08E30910508F0BFC09CC008
:1042D0000E944541C0917520D09176208091AE3CDE
:1042E000882361F08091732090917420892B41F58F
:1042F00087E190E00E944148882311F581E0809396
:10430000AE3C89E090E060E070E042E050E00E9466
:104310003A1ACE0160E070E042E050E00E941219CB
:1043200080E090E062E070E00E9445180E94FC503E
:10433000CE0163E770E241EB5CE30E94F71E86C0AA
:104340000091732010917420E090B13CF090B23C49
:10435000CE0163E770E241EB5CE30E94F71E00933D
:10436000732010937420E092B13CF092B23C6EC086
:10437000809375209093762083E790E261EB7CE355
:104380000E945E200AC0809375209093762083E778
:1043900090E261EB7CE30E942E20EC0157C08093F9
:1043A00075209093762083E790E261EB7CE30E9496
:1043B000FC1FF3CF809375209093762083E790E2E3
:1043C00061EB7CE30E94EC20E8CF80937520909312
:1043D000762063E770E241EB5CE30E949B20EC01F6
:1043E0008930910539F480917520909176200A9753
:1043F00069F528C08A30910549F580917520909122
:104400007620099719F51EC0809375209093762029
:1044100063E770E241EB5CE30E94C31FEC018C3068
:10442000910539F480917520909176200D9771F463
:1044300009C08D30910551F48091752090917620BE
:104440000C9721F4C0937520D09376200E94947429
:10445000BE0143E750E221EB3CE30E94AA7361E016
:1044600070E00E942B57EC0180917520909176208E
:10447000C817D90739F0CE0163E770E241EB5CE37E
:104480000E94F71E0E94F20481E090E00E94A822A0
:104490006091B13C7091B23CCE0141E050E00E948D
:1044A00012198091B13C9091B23C61E070E00E94A1
:1044B000451880E090E061E070E00E94B44E809189
:1044C000AF3C9091B03C8A30910539F40E9486242B
:1044D00082E090E00E94F7582AC027E280319207DC
:1044E00029F480E090E00E941A3521C02EE4803249
:1044F000920759F480E060E00E94302582E090E06D
:104500000E9458440E942C4412C0815395477CF06D
:1045100060917320709174204091B13C5091B23CF5
:10452000CE010E94951E1092AF3C1092B03C80913B
:10453000AF3C9091B03C01968093AF3C9093B03CDF
:10454000CE01DF91CF911F910F91FF90EF900895D1
:104550009C018730910501F18830910540F481304C
:10456000910519F18330910509F061C05CC0883074
:10457000910529F08331910509F059C011C088E0F7
:10458000E0E4F6E085832093513A3093523A10925A
:10459000B33C1092B43C089588E0E0E4F6E08683F2
:1045A0002093513A3093523A08958091513A909124
:1045B000523A88309105D9F48091B33C9091B43C43
:1045C00001968093B33C9093B43C8153954778F126
:1045D0001092B33C1092B43C88E0E0E4F6E08683AD
:1045E00087E090E08093513A9093523A0895439730
:1045F000F1F48091B33C9091B43C01968093B33C2C
:104600009093B43C31E08139930788F0E0E4F6E020
:1046100028E02683815D974050F01092B33C1092C1
:10462000B43C258308951092B33C1092B43C089595
:10463000E0E4F6E084E0818386830895282F80FDFE
:1046400002C090E001C093E021FD945F22FD905DE7
:1046500023FD9054892F08959C01462F8DE3B901C5
:104660000E94807908959C01462F8CE3B9010E9435
:104670008079982F8151843010F481E0089580E092
:10468000963109F481E008950F931F93DF93CF9340
:104690000F92CDB7DEB786EA89838E010F5F1F4F79
:1046A000C80161E00E9433238823D1F70F90CF9196
:1046B000DF911F910F9108950F931F93DF93CF9375
:1046C0000F92CDB7DEB787EA89838E010F5F1F4F48
:1046D000C80161E00E9433238823D1F70F90CF9166
:1046E000DF911F910F9108950F931F93DF93CF9345
:1046F0000F92CDB7DEB782EE89838E010F5F1F4F19
:10470000C80161E00E9433238823D1F70F90CF9135
:10471000DF911F910F9108950F931F93DF93CF9314
:104720000F92CDB7DEB784EA89838E010F5F1F4FEA
:10473000C80161E00E9433238823D1F70F90CF9105
:10474000DF911F910F9108950F931F93DF93CF93E4
:104750000F92CDB7DEB785EA89838E010F5F1F4FB9
:10476000C80161E00E9433238823D1F70F90CF91D5
:10477000DF911F910F9108950F931F93DF93CF93B4
:1047800000D00F92CDB7DEB794EF99838A8386EF7E
:104790008B836C838E010F5F1F4FC80164E00E9402
:1047A00033238823D1F72496CDBFDEBFCF91DF918D
:1047B0001F910F9108950F931F93DF93CF9300D014
:1047C0000F92CDB7DEB795EF99838A8387EF8B83FE
:1047D0006C838E010F5F1F4FC80164E00E9433237A
:1047E0008823D1F72496CDBFDEBFCF91DF911F91F3
:1047F0000F9108950F931F93DF93CF930F92CDB72F
:10480000DEB788EF89838E010F5F1F4FC80161E01B
:104810000E9433238823D1F70F90CF91DF911F910E
:104820000F9108950F931F93DF93CF930F92CDB7FE
:10483000DEB789EF89838E010F5F1F4FC80161E0EA
:104840000E9433238823D1F70F90CF91DF911F91DE
:104850000F9108950F931F93DF93CF930F920F92B1
:10486000CDB7DEB7982F813A78F48F70898392950F
:104870009F70905F9A838E010F5F1F4FC80162E0A7
:104880000E9433238823D1F70F900F90CF91DF91AF
:104890001F910F9108950F931F93DF93CF930F9262
:1048A000CDB7DEB7982F905A893150F499838E0195
:1048B0000F5F1F4FC80161E00E9433238823D1F7A7
:1048C0000F90CF91DF911F910F910895EF92FF927A
:1048D0000F931F93082FF62E142FE22E0E944B24C5
:1048E0008F2D0E942A240E941224110F100F802F56
:1048F000612F0E94DB236F2D61506E0D8F2D0E9462
:10490000BC231F910F91FF90EF900895E0E4F6E033
:1049100088E0818384E0818385830E94742385E419
:104920009AE36BE00E9433238823C9F708952F92FE
:104930003F924F925F926F927F928F929F92AF922F
:10494000BF92CF92DF92EF92FF920F931F93DF936C
:10495000CF93CDB7DEB7C555D040CDBFDEBF3E014A
:104960000894611C711C90E5F30111929A95E9F786
:1049700050905939F0915A396296FFAF62974F2F94
:10498000252D0E946624252C3324442492E0892E70
:10499000912CC30165966FAE659766969FAF66973B
:1049A000820D931D64968EAF9FAF64972BC0F50167
:1049B00081915F018F700E941E23F80181938F0106
:1049C00064968EAD9FAD64970817190781F78DE344
:1049D000B301452D0E9480790AC0F60181916F01D3
:1049E00082958F700E941E23F70181937F01E0164C
:1049F000F10699F78DE3B301452D0E948079439428
:104A0000820C931C6296FFAD62974F1680F489E585
:104A1000C82E89E3D82EC80CD91C65968FAD659732
:104A200066969FAD66977C0156018301C9CF0E94AF
:104A3000FA23CB5ADF4FCDBFDEBFCF91DF911F915D
:104A40000F91FF90EF90DF90CF90BF90AF909F902D
:104A50008F907F906F905F904F903F902F90089530
:104A60002F923F924F925F926F927F928F929F927E
:104A7000AF92BF92CF92DF92EF92FF920F931F936C
:104A8000DF93CF93CDB7DEB7C55AD040CDBFDEBFE1
:104A90003E010894611C711C90EAF30111929A95F1
:104AA000E9F75090A739F091A839CF55DF4FF88337
:104AB000C15AD0404F2F252D0E946624252C332427
:104AC000442432E0832E912CC301CC55DF4F688201
:104AD000C45AD040CB55DF4F9883C55AD040820D81
:104AE000931DCE55DF4F88839983C25AD0402DC085
:104AF000F50181915F018F700E941E23F80181935F
:104B00008F01CE55DF4F88819981C25AD040081756
:104B1000190771F78DE3B301452D0E9480790AC012
:104B2000F60181916F0182958F700E941E23F7011B
:104B300081937F01E016F10699F78DE3B301452DCE
:104B40000E9480794394820C931CCF55DF4FF881EB
:104B5000C15AD0404F16A0F427EAC22E29E3D22E24
:104B6000C80CD91CCC55DF4F8881C45AD040CB55D6
:104B7000DF4F9881C55AD0407C0156018301C1CFD7
:104B80000E94FA23CB55DF4FCDBFDEBFCF91DF911F
:104B90001F910F91FF90EF90DF90CF90BF90AF905B
:104BA0009F908F907F906F905F904F903F902F904D
:104BB00008952F923F924F925F926F927F928F92C1
:104BC0009F92AF92BF92CF92DF92EF92FF920F939C
:104BD0001F93DF93CF93CDB7DEB7AD97CDBFDEBFC9
:104BE0008A012E010894411C511C98E2F201119295
:104BF0009A95E9F720903431F0913531F9A74F2F8C
:104C0000222D0E946624822C992429A5822F90E0CF
:104C1000FC018E9EC0018F9E900D9E9E900D1124D2
:104C2000809F5001819FB00C909FB00C112422E016
:104C300030E0A20EB31E35013324C2014CA69DA75D
:104C4000880D991D8AA79BA731C0F60181916F013C
:104C50008F700E941E23F80181938F012AA53BA526
:104C60000217130791F78DE3B201422D0E9480795C
:104C700054E3C52E51E3D52ECA0CDB1C0AC0F60145
:104C800081916F0182958F700E941E23F70181939D
:104C90007F01E016F10699F78DE3B201422D0E94E3
:104CA00080793394A80CB91C680C791CF9A53F16BF
:104CB00058F444E3C42E41E3D42EC60CD71C8CA573
:104CC0009DA57C018201CACF0E94FA23AD96CDBF7B
:104CD000DEBFCF91DF911F910F91FF90EF90DF909A
:104CE000CF90BF90AF909F908F907F906F905F908C
:104CF0004F903F902F9008952F923F924F925F9246
:104D00006F927F928F929F92AF92BF92CF92DF92DB
:104D1000EF92FF920F931F93DF93CF93CDB7DEB740
:104D2000AD97CDBFDEBF8A012E010894411C511CF6
:104D300098E2F20111929A95E9F72090662AF09193
:104D4000672AF9A74F2F222D0E946624822C9924CE
:104D500029A5822F90E0FC018E9EC0018F9E900DB0
:104D60009E9E900D1124809F5001819FB00C909FBA
:104D7000B00C112422E030E0A20EB31E3501332422
:104D8000C2014CA69DA7880D991D8AA79BA731C07B
:104D9000F60181916F018F700E941E23F8018193AB
:104DA0008F012AA53BA50217130791F78DE3B201E6
:104DB000422D0E94807976E6C72E7AE2D72ECA0C61
:104DC000DB1C0AC0F60181916F0182958F700E94F1
:104DD0001E23F70181937F01E016F10699F78DE319
:104DE000B201422D0E9480793394A80CB91C680C42
:104DF000791CF9A53F1658F466E6C62E6AE2D62E4F
:104E0000C60CD71C8CA59DA57C018201CACF0E942F
:104E1000FA23AD96CDBFDEBFCF91DF911F910F91E9
:104E2000FF90EF90DF90CF90BF90AF909F908F90CA
:104E30007F906F905F904F903F902F9008952F92AA
:104E40003F924F925F926F927F928F929F92AF921A
:104E5000BF92CF92DF92EF92FF920F931F93DF9357
:104E6000CF93CDB7DEB7AD97CDBFDEBF8A012E01A0
:104E70000894411C511C98E2F20111929A95E9F7AD
:104E800020901C27F0911D27F9A74F2F222D0E945B
:104E90006624822C992429A5822F90E0FC018E9E05
:104EA000C0018F9E900D9E9E900D1124809F5001F9
:104EB000819FB00C909FB00C112422E030E0A20E34
:104EC000B31E35013324C2014CA69DA7880D991D40
:104ED0008AA79BA731C0F60181916F018F700E9454
:104EE0001E23F80181938F012AA53BA50217130702
:104EF00091F78DE3B201422D0E948079FCE1CF2E23
:104F0000F7E2DF2ECA0CDB1C0AC0F60181916F01AB
:104F100082958F700E941E23F70181937F01E01616
:104F2000F10699F78DE3B201422D0E948079339406
:104F3000A80CB91C680C791CF9A53F1658F4ECE1D3
:104F4000CE2EE7E2DE2EC60CD71C8CA59DA57C01DB
:104F50008201CACF0E94FA23AD96CDBFDEBFCF91AA
:104F6000DF911F910F91FF90EF90DF90CF90BF9056
:104F7000AF909F908F907F906F905F904F903F90F9
:104F80002F9008952F923F924F925F926F927F924F
:104F90008F929F92AF92BF92CF92DF92EF92FF9249
:104FA0000F931F93DF93CF93CDB7DEB72F97CDBF6E
:104FB000DEBF042F2E010894411C511C9AE0F2011F
:104FC00011929A95E9F720903925F0913A25FB87BF
:104FD0004F2F222D0E946624622C772410E08B85AF
:104FE000282F30E0029FC001039F900D129F900D6B
:104FF0001124869D4001879D900C969D900C112454
:10500000E2E0F0E08E0E9F1E269DC001279D900DD0
:10501000369D900D1124809F5001819FB00C909F70
:10502000B00C1124AE0EBF1E3324C2014E869F87E2
:10503000860D971D8C879D8731C0F60181916F0188
:105040008F700E941E23F80181938F018C859D85AE
:105050000817190791F78DE3B201422D0E9480795C
:10506000B9E3CB2EB5E2DB2EC80CD91C0AC0F60181
:1050700081916F0182958F700E941E23F7018193A9
:105080007F01E016F10699F78DE3B201422D0E94EF
:1050900080793394860C971CA60CB71CFB853F16B1
:1050A00058F4A9E3CA2EA5E2DA2ECA0CDB1C8E85C1
:1050B0009F857C018201CACF0E94FA232F96CDBF23
:1050C000DEBFCF91DF911F910F91FF90EF90DF90A6
:1050D000CF90BF90AF909F908F907F906F905F9098
:1050E0004F903F902F900895FF920F931F93CF936F
:1050F000DF93F82E062FEA0110E0FE01E10FF11D0B
:10510000408140538F2D602F0E94C2278091392506
:10511000080F1F5FFE01E10FF11D8081882369F7F1
:10512000DF91CF911F910F91FF9008952F923F92A1
:105130004F925F926F927F928F929F92AF92BF92A7
:10514000CF92DF92EF92FF920F931F93DF93CF9353
:10515000CDB7DEB72F97CDBFDEBF042F2E01089449
:10516000411C511C9AE0F20111929A95E9F72090A6
:105170007C25F0917D25FB874F2F222D0E946624F0
:10518000622C772410E08B85282F30E0029FC0012D
:10519000039F900D129F900D1124869D4001879DC5
:1051A000900C969D900C1124E2E0F0E08E0E9F1E74
:1051B000269DC001279D900D369D900D1124809F46
:1051C0005001819FB00C909FB00C1124AE0EBF1EF9
:1051D0003324C2014E869F87860D971D8C879D873D
:1051E00031C0F60181916F018F700E941E23F8017A
:1051F00081938F018C859D850817190791F78DE3A1
:10520000B201422D0E9480798CE7C82E85E2D82E0B
:10521000C80CD91C0AC0F60181916F0182958F706C
:105220000E941E23F70181937F01E016F10699F792
:105230008DE3B201422D0E9480793394860C971C35
:10524000A60CB71CFB853F1658F41CE7C12E15E2CF
:10525000D12ECA0CDB1C8E859F857C018201CACFB2
:105260000E94FA232F96CDBFDEBFCF91DF911F9111
:105270000F91FF90EF90DF90CF90BF90AF909F90F5
:105280008F907F906F905F904F903F902F900895F8
:10529000FF920F931F93CF93DF93F82E062FEA010F
:1052A00010E0FE01E10FF11D408140538F2D602F72
:1052B0000E94962880917C25080F1F5FFE01E10F58
:1052C000F11D8081882369F7DF91CF911F910F91A4
:1052D000FF900895AF92BF92CF92DF92EF92FF922C
:1052E0000F931F93DF93CF93CDB7DEB72A97CDBF30
:1052F000DEBFB82EA62EFE0131968AE0DF011D9298
:105300008A95E9F76A0157FF02C0CC24DD24C60163
:1053100060E177E20E94617A6983772767FD709583
:1053200080E197E2689F8001699F100D789F100DC2
:105330001124C601801B910B68EE73E00E94617A14
:105340006A83772767FD709588EE93E0689F700108
:10535000699FF00C789FF00C1124C701800F911FFA
:10536000F601E81BF90BCF0164E670E00E94617A58
:105370006B838CE9680290011124CF01820F931F87
:105380006AE070E00E94617A6C838C2D820F801B32
:105390008E1996EF6902B0011124860F8D83FE01EC
:1053A00031969E012A5F3F4F8081805D8193E21795
:1053B000F307D1F78B2D6A2DAE014F5F5F4F0E942F
:1053C00048292A96CDBFDEBFCF91DF911F910F9163
:1053D000FF90EF90DF90CF90BF90AF900895CF9265
:1053E000DF92EF92FF920F931F93DF93CF93CDB78E
:1053F000DEB72A97CDBFDEBFD82EC62EFE0131966E
:105400008AE0DF011D928A95E9F77A0157FF02C011
:10541000EE24FF24C70168EE73E00E94617A69837D
:10542000772767FD709588EE93E0689F8001699FFC
:10543000100D789F100D1124F701E01BF10BCF0127
:1054400064E670E00E94617A6A8384E668029001F3
:105450001124CF01821B930B6AE070E00E94617AF5
:105460006B838E2D801B821B96EF6902B001112485
:10547000860F8C83FE0131969E012B5F3F4F80810A
:10548000805D8193E217F307D1F78D2D6C2DAE016E
:105490004F5F5F4F0E9448292A96CDBFDEBFCF9154
:1054A000DF911F910F91FF90EF90DF90CF900895C3
:1054B000EF92FF920F931F93DF93CF93CDB7DEB799
:1054C0002A97CDBFDEBFF82EE62E83E0483E580770
:1054D0001CF007EE13E007C0141615061CF000E0E0
:1054E00010E001C08A01C80164E670E00E94617AA0
:1054F000462FFE0131968AE0DF011D928A95E9F779
:105500002CE9620290011124C901800F911F6AE009
:1055100070E00E94617A200F86EF6802C0011124BA
:10552000280F405D4983605D6A83205D2B838F2D4A
:105530006E2DAF010E9448292A96CDBFDEBFCF91C4
:10554000DF911F910F91FF90EF9008950F931F939C
:10555000DF93CF93CDB7DEB72A97CDBFDEBF182F2D
:10556000062F443651051CF023E630E007C0141620
:1055700015061CF020E030E001C09A01C9016AE084
:1055800070E00E94617AFE0131968AE0DF011D928F
:105590008A95E9F786EF6802C0011124820F605DE9
:1055A0006983805D8A83812F602FAF010E94482923
:1055B0002A96CDBFDEBFCF91DF911F910F91089545
:1055C0002F923F924F925F926F927F928F929F9213
:1055D000AF92BF92CF92DF92EF92FF920F931F9301
:1055E000DF93CF93CDB7DEB76797CDBFDEBF142F64
:1055F000FE01319694E1DF011D929A95E9F7209022
:10560000DA25B091DB25BD8B4B2F222D0E9466241D
:10561000422C5524812F8F70A82FB0E0ED894E2F9A
:1056200050E0449DF001459DF00D549DF00D112476
:10563000612F70E0607F70706115710511F061E09D
:1056400070E0CA01880F991F9A0113E0220F331FDF
:105650001A95E1F7820F931F9C01269FC001279F97
:10566000900D369F900D1124A49F9001A59F300DA1
:10567000B49F300D1124820F931F849D4001859D9E
:10568000900C949D900C112482E090E0880E991E5D
:10569000EA9F8001EB9F100DFA9F100D11240E5F01
:1056A0001F4FCF0143E0880F991F4A95E1F7EE0F96
:1056B000FF1F8E0F9F1FDC01A69FC001A79F900DAB
:1056C000B69F900D1124080F191F33243E01089432
:1056D000611C711CF301E20DF11DEE8BFF8B31C0DB
:1056E000D5018D915D018F700E941E23F70181937A
:1056F0007F012E893F89E216F30691F78DE3B3010E
:10570000422D0E9480792AEDA22E25E2B22EA80C0D
:10571000B91C0AC0D5018D915D0182958F700E94E0
:105720001E23F60181936F01CE14DF0499F78DE3F8
:10573000B301422D0E9480793394840C951C040D92
:10574000151DFD893F1648F49AEDA92E95E2B92E54
:10575000A00EB11E63017301CCCF0E94FA2367969D
:10576000CDBFDEBFCF91DF911F910F91FF90EF90E2
:10577000DF90CF90BF90AF909F908F907F906F9071
:105780005F904F903F902F9008952F923F924F92AD
:105790005F926F927F928F929F92AF92BF92CF92C1
:1057A000DF92EF92FF920F931F93DF93CF93CDB7CA
:1057B000DEB7E097CDBFDEBF8AA76BA78A012CA713
:1057C0002E010894411C511C88E2F20111928A9525
:1057D000E9F720905536F0915636F9A78AA56BA5C2
:1057E0004F2F222D0E946624822C992429A5822FD6
:1057F00090E0FC018E9EC0018F9E900D9E9E900DAC
:105800001124809F5001819FB00C909FB00C1124F7
:1058100022E030E0A20EB31E35013324C2014FA6B0
:1058200098AB880D991D8DA79EA731C0F601819177
:105830006F018F700E941E23F80181938F012DA5A7
:105840003EA50217130791F78DE3B201422D0E9486
:10585000807995E5C92E96E3D92ECA0CDB1C0AC0C7
:10586000F60181916F0182958F700E941E23F701CE
:1058700081937F01E016F10699F78DE3B201422D85
:105880000E9480793394A80CB91C680C791CF9A586
:105890003F1658F485E5C82E86E3D82EC60CD71CD3
:1058A0008FA598A97C018201CACF2CA5203248F48B
:1058B0003BA5335F3BA78AA58F5F632F422F0E94D2
:1058C000E02A0E94FA23E096CDBFDEBFCF91DF91A0
:1058D0001F910F91FF90EF90DF90CF90BF90AF900E
:1058E0009F908F907F906F905F904F903F902F9000
:1058F00008952F923F924F925F926F927F928F9274
:105900009F92AF92BF92CF92DF92EF92FF920F934E
:105910001F93DF93CF93CDB7DEB7AD97CDBFDEBF7B
:105920008A012E010894411C511C98E2F201119247
:105930009A95E9F72090F722F091F822F9A74F2FD6
:10594000222D0E946624822C992429A5822F90E082
:10595000FC01E89DC001E99D900DF89D900D11247A
:10596000809F5001819FB00C909FB00C112428E0C3
:1059700030E0A20EB31E35013324C2014CA69DA710
:10598000880D991D8AA79BA731C0F60181916F01EF
:105990008F700E941E23F80181938F012AA53BA5D9
:1059A0000217130791F78DE3B201422D0E9480790F
:1059B00037EFC32E32E2D32ECA0CDB1C0AC0F6012D
:1059C00081916F0182958F700E941E23F701819350
:1059D0007F01E016F10699F78DE3B201422D0E9496
:1059E00080793394A80CB91C680C791CF9A53F1672
:1059F00058F427EFC22E22E2D22EC60CD71C8CA55B
:105A00009DA57C018201CACF0E94FA23AD96CDBF2D
:105A1000DEBFCF91DF911F910F91FF90EF90DF904C
:105A2000CF90BF90AF909F908F907F906F905F903E
:105A30004F903F902F900895FF920F931F93CF9315
:105A4000DF93F82E062FEA0110E0FE01E10FF11DB1
:105A5000408150E0415250408F2D602F0E94792CA0
:105A60008091F722080F1F5FFE01E10FF11D808179
:105A7000882359F7DF91CF911F910F91FF900895DF
:105A8000CF92DF92EF92FF920F931F93DF93CF930A
:105A9000CDB7DEB72A97CDBFDEBFD82EC62EFE010A
:105AA00031968AE0DF011D928A95E9F77A0157FF66
:105AB00002C0EE24FF24C70168EE73E00E94617A01
:105AC0006983772767FD709588EE93E0689F800172
:105AD000699F100D789F100D1124F701E01BF10B49
