:100000000C9425070C944B070C944B070C944B074E
:100010000C944B070C944B070C944B070C944B0718
:100020000C944B070C944B070C944B070C944B0708
:100030000C944B070C944B070C944B070C944B07F8
:100040000C944B070C944B070C944B070C944B07E8
:100050000C944B070C944B070C944B070C944B07D8
:100060000C944B070C944B070C944B070C944B07C8
:100070000C944B070C944B070C944B070C944B07B8
:100080000C944B070C944B070C944B070C944B07A8
:100090000C944B070C944B070C944B070C944B0798
:1000A0000C944B070C944B070C944B070C944B0788
:1000B0000C944B070C944B070C944B070C944B0778
:1000C0000C944B070C944B070C944B070C944B0768
:1000D0000C944B070C944B070C944B070C944B0758
:1000E0000C944B070C944B070C944B070C944B0748
:1000F0000C944B070C944B070C944B070C944B0738
:100100000C944B070C944B070C944B070C944B0727
:100110000C944B070C944B070C944B070C944B0717
:100120000C944B070C944B070C944B070C944B0707
:100130000C944B070C944B070C944B070C944B07F7
:100140000C944B070C944B070C944B070C944B07E7
:100150000C944B070C944B070C944B070C944B07D7
:100160000C944B070C944B070C944B070C944B07C7
:100170000C944B070C944B070C944B070C944B07B7
:100180000C944B070C944B070C944B070C944B07A7
:100190000C944B070C944B070C944B070C944B0797
:1001A0000C944B070C944B070C944B070C944B0787
:1001B0000C944B070C944B070C944B070C944B0777
:1001C0000C944B070C944B070C944B070C944B0767
:1001D0000C944B070C944B070C944B070C944B0757
:1001E0000C944B070C944B070C9463720C944B07C4
:1001F0000C944B079E08A108A408A708AA08AD08FC
:10020000B008B308B608B908BC08BF08C208C508DA
:10021000C808CB08CE08D108D408D708DA08DD080A
:10022000E008E308E608E908EC08EF08F208F5083A
:10023000F808FB0809090C090F0912091509180922
:100240001B091E092109240927092A092D0930093A
:100250003309360939093C093F094209450948096A
:100260004B094E095109540957095A095D0960099A
:1002700063096609300B380B400B680B680B680B81
:10028000680B680B680B680B680B680B480B280B36
:10029000680B600B680B580B500BD40FD70FBD0FBA
:1002A000D40FBF0FB50FD40FBF0F14101A10F60FD5
:1002B0001410FB0FEB0F1410FB0F4D1050103810E3
:1002C0004D103A1030104D103A106F107A106F1018
:1002D0006F105F106F106F105F1024112A1124111E
:1002E0002411061119112411061118192E192E198D
:1002F0002E192E192E191B191E1924192719271901
:1003000021192719271951190D1A0D1A0D1A0D1A2D
:100310000D1A63197A19AC19D919D9199319E11958
:10032000E119251AFA1AFA1AFA1AFA1AFA1A831A93
:10033000901AAB1AB81AB81A9E1AD71AD71ACB1B2A
:10034000D21B711BD21B7E1BD21B8B1B8E1BB71BA0
:10035000BA1BC41BC91BEF1D3E1E3E1E3E1E3E1E89
:100360003E1E3E1E3E1E3E1E3E1E3E1E3E1E3E1EAD
:100370003E1E3E1E3E1E3E1E3E1E3E1E3E1E3E1E9D
:100380003E1E3E1E3E1E3E1E3E1E3E1EFF1D1B1EF0
:10039000061E061E0D1E0D1E141E1B1E221E291ECD
:1003A000301E371E591E5B1E5D1E5F1E611E631EC2
:1003B000651E671E691E6B1E731E6D1E6F1E711EED
:1003C0006120CB20CB20CB20CB20CB20CB20CB203F
:1003D000CB20CB20CB20CB20702077207E20852007
:1003E0008C2093209A20A120A820AF20AF20B620F7
:1003F000BD20C420E922EE22FE22022306230A2386
:100400000E23122316301B30203025302A302F3097
:10041000343039303E30433055305A305F306430FC
:1004200069306E30733078307D308230F833FB3392
:100430000734FE33013407340734073407340734F4
:1004400007340734073407340734073407340734D4
:10045000073407340734F833FB33FE330134A23456
:10046000D0341235A234D03412351235123512354B
:100470001235123512351235123512351235123544
:100480001235123512351235E834FE34E834FE34B4
:1004900067366B366E36723677367B368036863602
:1004A0008C369036943698364136443649364C363A
:1004B0004F365236553658365B365E3661366436C0
:1004C000B636B836BB36BD36BF36A936AB36AF36D4
:1004D000B136B3361E3BFB3A0F3B233B003B143B8C
:1004E000293B053B193B2F3B353B0A3B6A3B473BCE
:1004F0005B3B6F3B4C3B603B753B513B653B7B3B08
:10050000813B563BB73CB33CAC3CB03CA93CA63C21
:100510009E3CA13CE03CDB3CD43CD83CD13CCE3CB6
:10052000C63CC93CD872DB72DE72E172E472E772DB
:10053000EC72EF72F572F872FB72F272FE72017376
:100540002C732F733273357338733B733E7341735F
:10055000447347734A734D735073537306731B731D
:1005600009730C730F731273157318731E73217351
:100570002473277358735B735E736173647367735B
:100580006A736D737073B342B542D442D642B842B7
:10059000BA42D842DA42BC42BE42C042C242C4421F
:1005A000DC42DE42E042E242C642C842CA42CC429B
:1005B000CE420A43D042D242E442E642E842EA4214
:1005C000EC420843EE42F042F2420043024304434D
:1005D0000643FC42FE42F442F642F842FA421A4313
:1005E0001C433B433D431F4321433F43414323437C
:1005F0002543274329432B4343434543474349432B
:100600002D432F43314333433543714337433943FC
:100610004B434D434F43514353436F43554357431C
:100620005943674369436B436D43634365435B438E
:100630005D435F43614321451445164518451A45FE
:100640001C451E45204539453B453D453F454145F7
:1006500043454545474552455445564558455A45F5
:100660005C455E4560456A456C456E457045724522
:1006700074457645784582458445864588458A4552
:100680008C458E459045214E234E2B4E324E344E96
:10069000364E384E3A4E3C4E3E4EDB4EE74EDF4E27
:1006A000D94EE74EDD4ED94EE74EE74EE74EE74EC8
:1006B000E74EE74EE74EE74EE74EE74EE74EE74E92
:1006C000E74EE74EE74EE74EE74EDB4EE74EDB4E9A
:1006D000E74EE74EDD4EDF4EE14EE34EE54E0C9425
:1006E00080360C9421730C94DA080C9451430C94CA
:1006F000813B0C94FB080C946E360C94143B0C94C8
:100700009A200C941B190C9430100C942B430C94CD
:10071000193B0C94344E0C94B3360C94F60F0C9495
:10072000DA420C9420450C9402230C94A9360C94C4
:1007300008430C94CB200C94EC420C94C8420C94CB
:100740006F100C9463430C946F1E0C948E450C94A4
:1007500024190C94061E0C94B9080C94D40F0C9414
:100760007E1B0C9463090C9439090C9429430C9456
:1007700007340C9451090C9474450C94691E0C9424
:100780003A4E0C94301E0C94B03C0C94603B0C948C
:10079000711B0C94B6360C9406230C94B3420C9443
:1007A00043430C9477360C9461730C94FB330C9494
:1007B000D4080C94BD0F0C9409090C945F100C9490
:1007C000FB0F0C94C91B0C94AB1A0C942F3B0C948C
:1007D0006B360C941B300C946B1E0C946D1E0C9499
:1007E00018190C9441360C94D0420C945F300C9440
:1007F000B73C0C944A730C94CE3C0C94141E0C948D
:1008000073300C942B4E0C9436090C94E1720C94BA
:10081000C6420C9412350C9439430C9470730C94AA
:100820001F430C94BD200C9412730C94CB1B0C949E
:10083000EE220C94D1080C94F5720C943E1E0C948C
:10084000AF200C9441430C940C090C942D430C9450
:1008500055360C94A1080C94FE330C94A93C0C94CE
:10086000FF1D0C9427430C94AC190C9485200C9418
:100870005E450C94BE420C94631E0C946E300C9436
:100880004E090C94A2340C9406730C9435730C949A
:1008900064300C94FE340C945A450C94A4080C94C7
:1008A000324E0C94C8080C9472450C94E0080C94D9
:1008B00060090C94E8420C9406110C94EF080C9417
:1008C000EA420C94D70F0C94DF4E0C9420300C9419
:1008D000591E0C942F730C944F360C94E0420C94D8
:1008E0004D100C94513B0C94FE220C9418450C9422
:1008F00000430C94E34E0C94B33C0C943F090C94CD
:1009000050100C9441450C94FA420C941A430C94E8
:10091000A8200C9453730C94F4420C9437430C9419
:100920008E1B0C9467730C942A090C94BF360C949C
:10093000DB720C94F8720C946A450C94473B0C944F
:10094000B50F0C9421430C94364E0C94BC420C947D
:10095000DD4E0C9458450C94E74E0C945B730C944C
:10096000D9190C94EF1D0C94F2080C94FB3A0C94DA
:1009700094360C94D83C0C94D8720C94CC420C94C1
:1009800044360C9472360C94E4720C9454090C9412
:10099000BB360C94C63C0C9449430C9444730C94A1
:1009A00014100C9432730C9423430C94F2420C9464
:1009B0006D430C94680B0C9459430C947B360C9447
:1009C000C4420C94F8330C94DE420C94500B0C94FB
:1009D00061430C94400B0C9443450C943B430C94A2
:1009E000251A0C94CB080C9452450C94F6420C94A6
:1009F0004D430C94653B0C94D7080C94233B0C940A
:100A0000FC420C943F450C945E360C941B730C9482
:100A100027190C9414450C9471430C941E730C9478
:100A2000380B0C94DC420C946A730C9406430C94BF
:100A300052360C9441730C941E450C94F0420C9465
:100A4000600B0C94E03C0C940E230C9418730C94E3
:100A5000FE720C94B81A0C94EB0F0C94214E0C946B
:100A6000B0080C94293B0C9469430C94A7080C948F
:100A700055430C94D4420C9442090C94E6420C94D5
:100A800018090C9401340C940D1A0C94580B0C9406
:100A9000E54E0C9448090C946F430C94AC3C0C94B8
:100AA000E8340C9490360C942C730C9435430C94CD
:100AB000F8080C94CE080C941B090C94AF360C94D7
:100AC0007D300C9434300C94EC720C9461200C94B6
:100AD0003D450C945F1E0C9450730C9421190C949A
:100AE000B6200C9425300C9424090C949E1A0C9476
:100AF000353B0C94EE420C945D430C9439300C94CD
:100B0000B5420C9458730C9425430C9427730C94A1
:100B10007E200C943E730C9464730C94E3080C9444
:100B200057090C94DD080C943E300C94E9220C9487
:100B3000F8420C9421090C9464360C945E730C9466
:100B400021450C945B430C94280B0C94BC080C942A
:100B5000651E0C9419110C947B3B0C94BA1B0C94DD
:100B60001E190C9493190C947A190C94B1360C94A8
:100B7000FE420C940F3B0C94300B0C943C090C94EB
:100B80000F730C9460450C943E4E0C9416450C94D7
:100B9000DE720C945F430C9457430C946D730C9469
:100BA00012090C9478300C9427090C9455300C944D
:100BB0005D1E0C94901A0C946E450C942D090C94A7
:100BC00056450C9443300C94EC080C94B71B0C94D1
:100BD000D94E0C940A230C9467360C9453430C940E
:100BE00066090C94D2420C94C2080C942F430C94C6
:100BF0001E3B0C949E080C94C5080C9433090C946D
:100C0000BF080C94BD360C9412230C9458360C94E7
:100C1000DB4E0C9402430C94FB720C941A450C941A
:100C2000A1200C94053B0C949E3C0C9484450C94A0
:100C300054450C948C450C94E9080C9493200C9426
:100C400047730C9404430C94AD080C94E1190C9474
:100C50001C450C94831A0C9461360C94E7720C9426
:100C6000221E0C945D090C945B1E0C94753B0C9435
:100C7000C41B0C948A450C9430090C9438730C9462
:100C8000731E0C94D13C0C9478450C944C3B0C9402
:100C90000F090C94D6420C94480B0C94AA080C949F
:100CA000371E0C942A300C9469300C94DB3C0C9465
:100CB00001730C94D21B0C9490450C946A3B0C94D9
:100CC00063190C9424730C94671E0C948C360C944A
:100CD000F2720C94D0340C9482300C9439450C94FC
:100CE000711E0C944F430C94C93C0C9431430C94EA
:100CF000A63C0C940D1E0C9409730C9451190C9481
:100D0000563B0C940A430C945C450C948B1B0C943E
:100D10002E190C943C4E0C9433430C94E2420C94E8
:100D2000F5080C94291E0C94EF720C94BF0F0C94D0
:100D3000E14E0C944B090C943B450C9488450C9463
:100D4000C4200C94D8420C9445090C941E090C94B0
:100D500067430C942A110C94E4420C941C430C94A9
:100D60005A300C946C450C94BA420C94D71A0C94DB
:100D7000611E0C94B6080C9449360C941A100C940D
:100D800015090C943F430C94384E0C9447450C9431
:100D90003A100C941B1E0C942F300C9477200C945A
:100DA000B8360C9486450C9445430C9424110C944D
:100DB00076450C94C2420C94AB360C94003B0C94D8
:100DC000A13C0C9416300C9415730C94234E0C9487
:100DD0006F3B0C944B430C948C200C945B3B0C9419
:100DE000B3080C94B8420C945A090C94CE420C945B
:100DF00086360C9470450C9498360C947A100C94AA
:100E00005B360C9470200C9482450C940C730C94FB
:100E10003B730C94CA420C944D730C94E6080C94EA
:100E2000FA1A0C9465430C9447430C94C0420C94FA
:100E30004C360C9438100C943D430C9445450C945E
:100E4000D43C0C946B430C940A3B11241FBECFEF8F
:100E5000DFE3DEBFCDBF00E00CBF18BE19BE1ABE77
:100E60001BBE1CE3A0E0B0E2E4E6F7EE00E00BBF3F
:100E700002C007900D92A433B107D9F71BBE1DE342
:100E8000A4E3BCE301C01D92AF38B107E1F70E94B3
:100E9000BD720C94B0730C940000CF93C0E2C09369
:100EA0000106C0930506811103C082E090E002C0F4
:100EB0008CE390E00E946853C093060684E190E0C2
:100EC000CF910C9468530F931F93CF93DF93C0E09F
:100ED000D0E00AE110E0C8010C2E02C0959587957C
:100EE0000A94E2F781700E944D072196C630D10521
:100EF00091F7DF91CF911F910F9108950F931F9359
:100F0000CF93DF93C0E0D0E002E110E0C8010C2EE7
:100F100002C0959587950A94E2F781700E944D076B
:100F20002196C630D10591F7DF91CF911F910F9196
:100F300008950F931F93CF93DF93C0E0D0E007E3B2
:100F400010E0C8010C2E01C0880F0A94EAF78078DF
:100F50000E944D072196C830D10599F7DF91CF91B6
:100F60001F910F9108950F931F93CF93DF93C0E0CC
:100F7000D0E001E010E0C8010C2E01C0880F0A94F7
:100F8000EAF780780E944D072196C830D10599F77D
:100F9000DF91CF911F910F9108950F931F93CF93DE
:100FA000DF93C0E0D0E001E018E0C8010C2E02C0E1
:100FB000959587950A94E2F781700E944D072196D6
:100FC000CC30D10591F7DF91CF911F910F9108950A
:100FD0000F931F93CF93DF93C0E0D0E00EEF17E0A5
:100FE000C8010C2E02C0959587950A94E2F781708E
:100FF0000E944D072196CC30D10591F7DF91CF911A
:101000001F910F9108950E94CD070E9463070E94CF
:1010100099070C94E8070E94CD070E947E070E9462
:10102000B3070C94E8070E9403080C940B08AAEC81
:10103000B1E092E09C93E82FF0E084911C92089537
:10104000E0E0F2E081E080A398E191A380A780E155
:1010500081A70895E0E4F2E081E080A380E381A32A
:101060000895E0E0F2E081E080AB88E381AB089591
:101070000F931F93CF93DF9380E20E941708C0E085
:10108000D2E08C8781E20E9417088D8784E20E945B
:10109000170800E412E0F801848785E20E9417082F
:1010A000F8018587198290E29A8382E08C8381E03F
:1010B000888311829283848380830E9420080E9407
:1010C0002A08DF91CF911F910F910C9431088091E4
:1010D00000028061809300028091060282FFFCCFB3
:1010E00080910602846080930602809114029091A0
:1010F0001502843C9940A4F48091343C9091353C95
:1011000001968093343C9093353C039711F40E94F0
:1011100060498091343C9091353C813D924024F06F
:101120001092343C1092353C08958032910508F0BD
:1011300066C0FC01E650FF4F0C94967380E090E08F
:101140005CC081E090E059C082E090E056C083E04E
:1011500090E053C084E090E050C085E090E04DC046
:1011600086E090E04AC087E090E047C088E090E0E9
:1011700044C089E090E041C08AE090E03EC08BE04E
:1011800090E03BC08CE090E038C08DE090E035C04E
:101190008EE090E032C08FE090E02FC080E190E0E0
:1011A0002CC081E190E029C082E190E026C083E17B
:1011B00090E023C084E190E020C085E190E01DC074
:1011C00086E190E01AC087E190E017C088E190E0E6
:1011D00014C089E190E011C08AE190E00EC08BE17B
:1011E00090E00BC08CE190E008C08DE190E005C07C
:1011F0008EE190E002C08FE190E00C946C090895BC
:101200008032910508F066C0FC01E65EFE4F0C944A
:10121000967380E090E05CC081E090E059C082E08D
:1012200090E056C083E090E053C084E090E050C06E
:1012300085E090E04DC086E090E04AC087E090E015
:1012400047C088E090E044C089E090E041C08AE077
:1012500090E03EC08BE090E03BC08CE090E038C076
:101260008DE090E035C08EE090E032C08FE090E0FD
:101270002FC080E190E02CC081E190E029C082E1A4
:1012800090E026C083E190E023C084E190E020C09C
:1012900085E190E01DC086E190E01AC087E190E012
:1012A00017C088E190E014C089E190E011C08AE1A4
:1012B00090E00EC08BE190E00BC08CE190E008C0A4
:1012C0008DE190E005C08EE190E002C08FE190E0FA
:1012D0000C94B80980E00895CF93DF9300D0CDB788
:1012E000DEB799838A836B8343E0BE016F5F7F4FD4
:1012F00080E50E9487712396CDBFDEBFDF91CF913D
:101300000895CF93DF93C0E0D0E06BE0CE010E9460
:101310006C098AE090E00E9471532196C032D10599
:10132000A1F7DF91CF910895CF93DF93CDB7DEB7CB
:10133000C258D109CDBFDEBF99838A83FB01DE018C
:101340001396CE018D579F4FA817B90719F0219119
:101350002D93FACF42E8BE016F5F7F4F80E50E9478
:101360008771CE57DF4FCDBFDEBFDF91CF9108959C
:10137000CF93DF931F921F92CDB7DEB799838A83F5
:1013800042E0BE016F5F7F4F80E50E94877161E0A0
:1013900080E50E94C671FC0181810F900F90DF9162
:1013A000CF910895CF93DF931F921F92CDB7DEB7F1
:1013B00099838A8342E0BE016F5F7F4F80E50E9480
:1013C000877168E080E50E94C67101960F900F90CA
:1013D000DF91CF9108950E9481090E9421470E94C8
:1013E00076430E9448410C94C1238BEC80935200B9
:1013F00088E0809350008091510083FFFCCF88EDFE
:1014000084BF83E080934000089588ED84BF8BE221
:101410008093800008950E94F5090E948E4D0E94DD
:10142000380878940E941F720E940D700E941171FA
:101430000E9486250E948C530E9474250E948C5322
:101440000E948C250E94050A0E9424410E941308D4
:101450000E945E0A0E94DA470E948C5389E190E064
:101460000E941B5581E190E00E94EC0A0E94150B3E
:101470000E9721F00E9434558823C1F30E94BB547B
:1014800082E090E00C944A54A895089560E080E6CC
:101490000E9431406FEF80E00E9431406FEF81E0A9
:1014A0000E94314060E080E20E94314060E081E2D1
:1014B0000E94314060E086E60C9431400E94574023
:1014C0000E94460A65E08FE00C943140EF92FF9253
:1014D0000F931F93CF93DF931F92CDB7DEB7E6E450
:1014E000FCE311928CE3E035F807D9F78CE20E9417
:1014F000784080FF2DC085E60E947840182F1F702D
:101500001093463C81E60E9478408093473C86E6F3
:101510000E9478408093483C93E0E12EF12CEFEF5D
:10152000EE1AFE0A092F10E0E016F10664F084E6D8
:10153000890F99830E947840F801EA5BF34C80831D
:1015400099819F5FEFCF60E08CE20E94314002C042
:101550001092463C86E49CE30F90DF91CF911F915F
:101560000F91FF90EF9008950F931F93CF93DF9308
:10157000EC011881612F85E30E943140698181E38C
:101580000E94314060E082E30E943140229605E3F0
:10159000010F112339F011506991802F811B0E9496
:1015A0003140F7CF68E080E30E9431408CE20E9436
:1015B000784082FD0BC080E30E947840807FB1F3C9
:1015C0009091453C9F5F9093453C01C080E0DF9146
:1015D000CF911F910F910895CF93DF9300D0CDB796
:1015E000DEB791E099839A838B83CE0101960E94A6
:1015F000B40A2396CDBFDEBFDF91CF910895CF937C
:10160000DF9300D01F92CDB7DEB791E099839A8324
:1016100099E09B838C83CE0101960E94B40A2496A4
:10162000CDBFDEBFDF91CF9108950E94660AFC0115
:101630002081222309F44CC0828190E0FC01319783
:10164000E331F10508F044C0E65CFE4F0C9496735C
:101650008091443C8F5F8093443C8EE090E00895FD
:101660008091443C8F5F8093443C81E090E00895FA
:101670008091443C8F5F8093443C82E090E00895E9
:101680008091443C8F5F8093443C83E090E00895D8
:101690008091443C8F5F8093443C8DE090E00895BE
:1016A0008091443C8F5F8093443C83E190E00895B7
:1016B0008091443C8F5F8093443C82E190E00895A8
:1016C0008091443C8F5F8093443C80E190E008959A
:1016D0008FE090E00895CF93DF9300D0CDB7DEB7D1
:1016E00091E099838A838EE08B83CE0101960E94DC
:1016F000B40A8AE090E00E941B550E94150B892BCA
:1017000031F40E9434558823C1F380E001C081E0A8
:101710002396CDBFDEBFDF91CF910895CF93DF93A6
:10172000EB018230910561F41092433C1092403CF1
:1017300089E190E00E941B55CE010E94EC0A83C013
:10174000019709F080C08091403C811125C00E9422
:101750003455882369F08091433C8F5F8093433CEC
:10176000853018F08AE08093403CCE010E94EC0A5C
:101770000E94150B9FEF980F923040F41092433C5B
:1017800081E08093403C86E090E02DC08D3009F0F0
:101790005AC01092433C29C0813061F50E943455F3
:1017A000882371F08091433C8F5F8093433C853068
:1017B00018F08BE08093403C86E090E00E94EC0AB9
:1017C0000E94660AFC0180818823E9F182818630CB
:1017D000D1F51092433C838180FF35C082E0809335
:1017E000403C84E090E00E94EC0A89E190E00E9495
:1017F0001B5529C0823029F50E943455882371F089
:101800008091433C8F5F8093433C853018F08CE09F
:101810008093403C84E090E00E94EC0A0E94660ABB
:10182000FC018081882379F08281843061F4838196
:101830008093413C84818093423C83E08093403C90
:1018400002C00E94455580E49CE3DF91CF9108954A
:101850008230910569F410923F3C10923C3C89E142
:1018600090E00E941B5583E090E00E94EC0A82C049
:10187000019709F07FC080913C3C811124C00E94F7
:101880003455882371F080913F3C8F5F80933F3CBB
:10189000853018F08AE080933C3C83E090E00E9421
:1018A000EC0A0E94150B833041F410923F3C81E01A
:1018B00080933C3C86E090E02DC08D3009F05AC00A
:1018C00010923F3C29C0813061F50E943455882335
:1018D00071F080913F3C8F5F80933F3C853018F0E2
:1018E0008BE080933C3C86E090E00E94EC0A0E94F2
:1018F000660AFC0180818823E9F182818630D1F576
:10190000838181FF37C010923F3C82E080933C3C52
:1019100085E090E00E94EC0A89E190E00E941B556E
:1019200029C0823029F50E943455882371F08091B6
:101930003F3C8F5F80933F3C853018F08CE0809374
:101940003C3C85E090E00E94EC0A0E94660AFC01A3
:101950008081882379F08281853061F4838180934E
:101960003D3C848180933E3C83E080933C3C02C0BC
:101970000E9445558CE39CE308958230910569F4FB
:1019800010923B3C1092383C89E190E00E941B553C
:101990008CE090E00E94EC0A28C0019731F50E948B
:1019A0003455882371F080913B3C8F5F80933B3CA2
:1019B000853018F08BE08093383C8CE090E00E94FA
:1019C000EC0A0E94660AFC018081882371F0828102
:1019D0008C3059F483818093393C848180933A3CE4
:1019E00081E08093383C0E94455588E39CE308954C
:1019F000CF92DF92EF92FF920F931F93CF93DF93DB
:101A0000CDB7DEB7C058D109CDBFDEBF823091055A
:101A100061F41092373C84E690E00E941B5583E10C
:101A200090E00E94EC0A81E01CC0019709F078C0A8
:101A30008091373C8130C1F40E943455882319F0DD
:101A40008BE08093373C0E94150B439709F068C0E8
:101A500084E690E00E941B5583E190E00E94EC0A2E
:101A600082E08093373C5CC0823009F059C000E0CE
:101A700010E0A80162E381E10E949E2BCE01019655
:101A80007C01D12CC02E0E94660AFC01208121110C
:101A900006C00E9434558823B1F38CE019C03296F9
:101AA00020E030E04191D701A20FB31F4C932F5F8C
:101AB0003F4F28303105B1F7C1100DC0D1100BC018
:101AC000FC0122812C3039F08381843921F08DE0B2
:101AD0008093373C27C084E690E00E941B5583E149
:101AE00090E00E94EC0AF8E0DF0E88E0E80EF11CBE
:101AF00090E8D912C8CFA8950F5F1F4FBE016F5F46
:101B00007F4F80E0902F0E9494090032110509F068
:101B1000B0CF84E08093373C8EE090E00E94EC0AE6
:101B20008091373CC058DF4FCDBFDEBFDF91CF91F2
:101B30001F910F91FF90EF90DF90CF900895AF929B
:101B4000BF92CF92DF92EF92FF920F931F93CF93AA
:101B5000DF93CDB7DEB72A97CDBFDEBF2AE0EDED2C
:101B6000F9E3DE01119601900D922A95E1F782309A
:101B7000910561F41092363C84E690E00E941B557A
:101B800082E190E00E94EC0A81E018C0019709F020
:101B900066C08091363C8130A1F40E943455882380
:101BA00019F08BE08093363C0E94150B429709F0A8
:101BB00056C084E690E00E941B5582E08093363C3C
:101BC0004EC0823009F04BC0E12CF12C5E018BE05D
:101BD000A80EB11CA895A70162E381E10E949E2B8B
:101BE000AFEFEA1AFA0ADE2CCC2400E010E0C801BC
:101BF0008C299D290E94D209FE013396DC012D918A
:101C0000CD012193EA15FB05C9F7CE0101960E948B
:101C1000B40A84E690E00E941B550E94660AFC010B
:101C20002081211105C00E9434558823B1F305C0DD
:101C3000085F1F4F8281823121F08CE08093363C17
:101C400010C00038110599F6F0E2EF16F10411F614
:101C500084E08093363C8EE090E00E94EC0A809114
:101C6000363C2A96CDBFDEBFDF91CF911F910F91F9
:101C7000FF90EF90DF90CF90BF90AF90089583E1F9
:101C800090E00E94B94D83E190E00E94422480E4FC
:101C90000C94E84E87E090E00E94B94D88E090E017
:101CA0000E94422480E40C94EC4E0F931F93CF9338
:101CB000DF93082F80FF0FC089E190E00E94AA42C5
:101CC000C82F0E947C42482F50E02C2F30E011E0BA
:101CD000241735070CF010E001FF13C08FE090E0EF
:101CE0000E94AA42C82F80E190E00E94AA42D0E060
:101CF000DC2FCC27C82B0E94FA49C817D9070CF44F
:101D0000126002FF13C08DE090E00E94AA42C82F2B
:101D10008EE090E00E94AA42D0E0DC2FCC27C82BB6
:101D20000E94FA498C179D070CF4146003FF09C048
:101D300063E170E08CE090E00E941F4BC19709F4D2
:101D40001860812FDF91CF911F910F91089580919D
:101D5000543C8F5F8093543C823059F40E943F0E74
:101D600041E050E061E080E090E00E9494450E94F4
:101D700060498091543C8B3F10F01092543C089580
:101D80008091533C8F5F8093533C823081F48AE191
:101D900090E00E94AA4281110E943F0E41E050E073
:101DA00062E080E090E00E9494450E94604980914A
:101DB000533C8B3F10F01092533C08958091523C5D
:101DC0008F5F8093523C823081F48AE190E00E94E0
:101DD000AA4281110E943F0E41E050E064E080E0A1
:101DE00090E00E9494450E9460498091523C8B3F54
:101DF00010F01092523C08958091513C8F5F809377
:101E0000513C823081F48BE190E00E94AA42811122
:101E10000E943F0E41E050E068E080E090E00E94C8
:101E200094450E9460498091513C8B3F10F0109284
:101E3000513C08958091503C8F5F8093503C82309C
:101E400081F48BE190E00E94AA4281110E943F0E32
:101E500041E050E060E180E090E00E9494450E9403
:101E600060498091503C8B3F10F01092503C089597
:101E7000CF93C82F80FF06C048E050E066E880E1BD
:101E80000E94782E8C2F867061F023E246E06CE28F
:101E900086E00E94932641E050E06DE286E00E94D9
:101EA000F72DC3FF0BC041E050E061E081E10E94EB
:101EB000F72D60E080E090E00E94733CC4FF0CC00E
:101EC00041E050E06AE581E10E94F72D60E082E0A8
:101ED00090E0CF910C94733CCF9108958091563C43
:101EE00081110CC082E00E94380F0E94C00E0E9437
:101EF000F04C80E18093050781E00FC0813089F4C8
:101F000086E290E00E94BE54882349F080E18093ED
:101F1000060780E28093050782E08093563C80E0CC
:101F200008958230E1F787E290E00E94BE54882352
:101F3000B1F380E2809306071092563C81E0089549
:101F4000CF93DF93EC018091553C811132C082E048
:101F50000E94380F0E94C00EFE013697E830F1054E
:101F600030F5E35BFE4F0C9496738AE090E00E949C
:101F7000AA4281111CC080E818C088E016C041E167
:101F800050E060E070E0CE010E946E16089741F4C8
:101F900085E190E00E94AA42811102C082E005C062
:101FA0000E94F04C80E101C080E28093050781E04F
:101FB00042C0813009F043C087E290E00E94BE54E5
:101FC0008823D9F1FE013697E830F10598F5EB5AF0
:101FD000FE4F0C9496738AE090E00E94AA42811111
:101FE00029C080E88093060780E422C088E08093BF
:101FF000060784E01DC041E150E060E070E0CE01E2
:102000000E946E16089759F485E190E00E94AA425A
:10201000811105C082E08093060781E009C080E15C
:102020008093060780E204C080E28093060780E187
:102030008093050782E08093553C80E034C0823075
:10204000E1F787E290E00E94BE548823B1F3FE01DD
:102050003697E830F10520F5E35AFE4F0C9496735D
:102060008AE090E00E94AA4281111AC080E416C062
:1020700084E014C041E150E060E070E0CE010E94D5
:102080006E16089741F485E190E00E94AA42811102
:1020900002C081E003C080E201C080E180930607B6
:1020A0001092553C81E0DF91CF910895FC01369765
:1020B000E830F105F8F4EB59FE4F0C94967341E1CA
:1020C00050E060E070E00E946E16089711F080E02A
:1020D000089585E190E00E94AA428111F8CF84E042
:1020E0000E94380F0E94DE0E80E10E94E84E88E0D8
:1020F0000E94E84E81E00895FF920F931F93CF93C3
:10210000DF93EC0161116093573C8091573C80FF55
:102110000FC081E00E94380F0E94A70E8091573CAB
:102120008E7F8093573C11E047E0F42E00E003C01F
:10213000FC2E0D2F10E08091573C81FF14C0C7305A
:10214000D10539F40E946E0F811107C0112359F097
:1021500004C0CE010E94A00FF7CF8091573C8D7F25
:102160008093573C11E08091573C82FF0BC0CE0119
:102170000E945610882331F08091573C8D7F8093C8
:10218000573C11E08091573C83FF15C088E00E94C6
:10219000380F0E94FC0ECE010C97029718F0299779
:1021A000229718F437E0F32E00E08091573C877FA8
:1021B0008093573C11E08091573C84FF0BC080E135
:1021C0000E94380F0E941A0F8091573C8F7E809397
:1021D000573C11E06F2D702F812FDF91CF911F9110
:1021E0000F91FF900895DF92EF92FF920F931F934C
:1021F000CF93DF93EC018B017A01FC013697E83035
:10220000F10540F5E359FE4F0C94967341E150E01F
:1022100060E070E00E946E160897E1F485E190E0BE
:102220000E94AA42811116C084E00E94550ED82E49
:1022300012C08AE090E00E94AA42811105C084E0A9
:102240000E94550ED82E01C0D12C84E00E94550E5C
:10225000D82A01C0D12C8BE00E94550ED82A81E0EB
:1022600090E00E94B94DDD20A9F080915B3C811186
:1022700011C085E290E00E94BE54882359F081E0AD
:1022800080935B3CC093593CD0935A3C83E090E0F0
:102290000E94BE5480915B3C8823A1F081E0809332
:1022A000583C6D2D8091593C90915A3C0E947C1075
:1022B000882331F0962FC92FD72F10925B3C02C094
:1022C000C2E3D0E0D11015C08091583C882389F03A
:1022D00080915B3C81110DC01092583C0E944A0EC7
:1022E00083E090E00E94BE54A701B801CE010E9495
:1022F0000019CE01DF91CF911F910F91FF90EF90C8
:10230000DF9008958831910599F018F40B97B9F092
:1023100008958133910519F0C39741F1089540E084
:1023200050E060E08091603C9091613C0C94944559
:102330001092603C1092613C10925F3C0895809135
:102340005E3C861739F080915F3C8F5F80935F3CE5
:1023500060935E3C80915F3C882389F010925F3CE3
:102360008091603C9091613C019605C08091603CF9
:102370009091613C01978093603C9093613C0895FB
:102380001F93CF93DF931F92CDB7DEB7182F6983CA
:102390000E943D3B412F50E0415F5F4F6981862F96
:1023A000880F860F880F8358682F83E00F90DF9186
:1023B000CF911F910C94EB264DEE59E36DE783E02E
:1023C0000C946C271F93CF93DF93EC0110E089915D
:1023D000882319F0812F0E94F13A1F5F1B30B9F753
:1023E000DF91CF911F910895CF93DF93EC010E946D
:1023F0006841249739F401960E943D41DF91CF91C5
:102400000C946841DF91CF910895CF92DF92EF92C3
:10241000FF920F931F93CF93DF936C017B01FC011D
:1024200000811181FB01C081D18180E00E942C419B
:1024300080935D3C81E090E00E944A5490915D3C25
:1024400020915C3C921302C0882381F090935C3C05
:10245000209739F40115110521F001501109CCE341
:10246000D0E0219783E090E00E944A54209789F4BD
:102470000115110571F483E090E00E944A54F601C1
:102480001082118285E090E0F7018083918381E0E2
:1024900007C0F60100831183F701C083D18380E078
:1024A000DF91CF911F910F91FF90EF90DF90CF9030
:1024B0000895861797070CF4019608956817790711
:1024C0000CF401970895882319F0813099F008954C
:1024D0004DE050E060E08FE00E94F72D2FE144E0F6
:1024E00067E28FE00E94572642EF59E368E280E1FD
:1024F0000C94002943E050E060E08FE00E94F72D4B
:102500002FE144E067E28FE00E94932642EF59E317
:1025100068E280E10C946C27DF92EF92FF920F93B8
:102520001F93CF93DF93CDB7DEB72597CDBFDEBF27
:10253000F82E162F19821A821B821C8224E144E095
:1025400066E48FE07D830E949326E12F7D81F72F43
:10255000DE0111969E012B5F3F4F81918D93A21753
:10256000B307D9F7D9808D2D0E940E3DEA808E2DBC
:102570000E941D3D0C8110E0102F00278B81082B3D
:10258000A80168E480E10E94C42781E0F81639F1CF
:10259000F816C0F082E0F8122FC024E144E066E4AF
:1025A0008FE00E945726A80168E480E12596CDBF00
:1025B000DEBFDF91CF911F910F91FF90EF90DF90E1
:1025C0000C9458298D2D2596CDBFDEBFDF91CF917C
:1025D0001F910F91FF90EF90DF900C942C3D8E2D6A
:1025E0002596CDBFDEBFDF91CF911F910F91FF9058
:1025F000EF90DF900C943B3D2596CDBFDEBFDF9181
:10260000CF911F910F91FF90EF90DF900895DF928F
:10261000EF92FF920F931F93CF93DF93CDB7DEB767
:102620002597CDBFDEBFF82E162F19821A821B8286
:102630001C8223E344E067E28FE07D830E949326BF
:1026400042EF59E368E280E10E946C27E12F7D812F
:10265000F72FDE0111969E012B5F3F4F81918D93E5
:10266000A217B307D9F7D9808D2D0E940E3DEA80BD
:102670008E2D0E941D3D0C8110E0102F00278B81B4
:10268000082BA80168E480E10E94C42781E0F816C5
:1026900039F1F816C0F082E0F8122FC024E144E0CE
:1026A00066E48FE00E945726A80168E480E1259641
:1026B000CDBFDEBFDF91CF911F910F91FF90EF90C3
:1026C000DF900C9458298D2D2596CDBFDEBFDF916C
:1026D000CF911F910F91FF90EF90DF900C942C3DC4
:1026E0008E2D2596CDBFDEBFDF91CF911F910F912B
:1026F000FF90EF90DF900C943B3D2596CDBFDEBF61
:10270000DF91CF911F910F91FF90EF90DF9008958F
:10271000CF93C82F4FE050E06DE28FE00E94F72D7D
:102720004CE050E06AE58FE00E94782E47E050E0F0
:1027300068E78FE00E94762DC13089F048F0C23002
:10274000A9F443E050E068E78FE0CF910C94762D38
:1027500045E050E06DE28FE0CF910C94F72D41E021
:1027600050E06AE58FE0CF910C94782ECF910895D8
:10277000CF92DF92EF92FF920F931F93CF93DF934D
:10278000EC016B017B0105E010E0F70161917F0135
:10279000C8010E949F360F5F1F4F0B301105A9F72C
:1027A000F601EC0FFD1F6081C230D10599F038F4BD
:1027B000209769F02197E9F481E090E010C0C330E0
:1027C000D10559F02497A9F484E090E008C080E096
:1027D00090E005C082E090E002C083E090E0DF91ED
:1027E000CF911F910F91FF90EF90DF90CF900C94BD
:1027F0009F36DF91CF911F910F91FF90EF90DF9067
:10280000CF9008951F93CF93DF938130910579F096
:1028100040F0029791F486E1809304201AE1C6E12A
:1028200024C082E08093042011E1C2E01EC081E157
:102830008093042015E1C1E118C010E0C0E015C08C
:10284000D093052040E050E06D2F8C2F0E9406456C
:10285000882379F0DF5FD43099F7109206208091B9
:1028600004208F5F80930420CF5FC11728F4D0E04D
:10287000E7CF81E08093062084E090E2DF91CF9162
:102880001F9108957F928F929F92AF92BF92CF92A5
:10289000DF92EF92FF920F931F93CF93DF931F92DC
:1028A000CDB7DEB78130910589F048F00297A9F4E1
:1028B00086E1809302209AE166E1862E10C082E0D4
:1028C0008093022091E1E2E08E2E09C081E18093A5
:1028D000022095E171E1872E02C090E0812C2BE36C
:1028E000922E37E1B32E1CE34CE0F42E5FE1C52EAF
:1028F000891608F050C0712C40E050E0672D882DFB
:1029000099830E940645E82E41E050E0672D882D0E
:102910000E940645D82E42E050E0672D882D0E9487
:102920000645082F43E050E0672D882D0E9406459C
:10293000A82E44E050E0672D882D0E94064599811D
:10294000EE2019F10117C0F0DF1418F41017A0F4ED
:1029500007C0EC1428F4FD1428F0101768F402C026
:10296000AB1420F0891588F4BA1478F0CE1468F00E
:10297000FD1458F0101748F0809202207092032046
:10298000982EBA2C102FFD2CCE2C739484E0781244
:10299000B3CF8394ADCF82E090E20F90DF91CF91DF
:1029A0001F910F91FF90EF90DF90CF90BF90AF906D
:1029B0009F908F907F9008957F928F929F92AF9279
:1029C000BF92CF92DF92EF92FF920F931F93CF931C
:1029D000DF931F92CDB7DEB78130910589F048F0C3
:1029E0000297A9F486E1809300209AE1F6E18F2E08
:1029F00010C082E08093002091E1B2E08B2E09C0EC
:102A000081E18093002095E1A1E18A2E02C090E04F
:102A1000812C912CB12C10E0F12CC12C891608F0DE
:102A200050C0712C40E050E0672D882D99830E94A2
:102A30000645E82E41E050E0672D882D0E940645AE
:102A4000D82E42E050E0672D882D0E940645082FC1
:102A500043E050E0672D882D0E940645A82E44E0F3
:102A600050E0672D882D0E9406459981EE2019F1CE
:102A70001017C0F0FD1418F40117A0F407C0CE140D
:102A800028F4DF1428F0011768F402C0BA1420F00B
:102A9000981688F4AB1478F0EC1468F0DF1458F052
:102AA000011748F08092002070920120982EBA2CD5
:102AB000102FFD2CCE2C739484E07812B3CF839426
:102AC000ADCF80E090E20F90DF91CF911F910F91F9
:102AD000FF90EF90DF90CF90BF90AF909F908F903E
:102AE0007F900895CF92DF92EF92FF920F931F9302
:102AF000CF93DF931F921F92CDB7DEB76C018B018E
:102B0000FB0160817181FC01808191810E949F3372
:102B1000F60160818BE090E00E948211F801408113
:102B20005181F6016081718186E090E00E94F3108E
:102B30007C01B801C6010E940512882389F0F2E3E6
:102B4000EF16F10469F061E070E086E090E00E9429
:102B50001F4B89839A830E94CF4C89819A8102C03E
:102B600086E090E00F900F90DF91CF911F910F9131
:102B7000FF90EF90DF90CF900895EF92FF920F9328
:102B80001F93CF93DF93EC018B01FB016081718177
:102B9000888199810E946E33F8014081518168815A
:102BA000798187E090E00E94F3107C01B801CE01AA
:102BB0000E940512882339F0F2E3EF16F10419F0B0
:102BC0008BE090E002C087E090E0DF91CF911F9111
:102BD0000F91FF90EF900895EF92FF920F931F9344
:102BE000CF93DF93EC018B01FB01608171818881C0
:102BF00099810E949F33F8014081518168817981D8
:102C00008BE090E00E94F3107C01B801CE010E949D
:102C10000512882349F0F2E3EF16F10429F00E942F
:102C2000644C88E090E002C08BE090E0DF91CF91AF
:102C30001F910F91FF90EF900895EF92FF920F93E5
:102C40001F93CF93DF93EC018B01FB0160817181B6
:102C5000888199810E949F33F80140815181688168
:102C6000798188E090E00E94F3107C01B801CE01E8
:102C70000E940512882331F1F2E3EF16F10411F1FD
:102C80000E94A64C60E081E390E00E94821142E045
:102C900050E060E080E090E00E94944560E088E1D0
:102CA00090E00E9482118EE190E00E94AA42882367
:102CB00061F081E290E00E94AA42811106C086E0A4
:102CC00090E005C088E090E002C089E090E0DF91EC
:102CD000CF911F910F91FF90EF9008950F931F9345
:102CE000CF93DF93EC018B014230510501F583E175
:102CF00090E00E94AA428093743C811109C0109216
:102D0000733C85E190E0809310209093112020C1C6
:102D10001092753C81E08093743C82E08093733C18
:102D200087E090E080931020909311200CC12091B7
:102D30001020309111204131510511F4C9010AC10F
:102D400042315105A9F42830310549F025313105CA
:102D500019F02730310541F467E070E002C068E007
:102D600070E0CE010E94893263E77CE387E0E9C02E
:102D70002531310509F4ECC04F30510599F4283064
:102D8000310509F0E0C08C30910509F4DCC08930D0
:102D9000910509F4D8C068E070E00E9489320E9471
:102DA000FC4CD1C04330510599F42830310509F06D
:102DB000CAC08C30910509F4C6C08930910509F468
:102DC000C2C068E070E00E9489320E941E4DBBC004
:102DD0004130510509F0B7C02830310569F582331B
:102DE000910581F18091743C811163C08091733CA5
:102DF00081115FC087E090E08093102090931120B4
:102E000086E190E00E94AA428093753C84E190E0C4
:102E10000E94AA428093743C82E08093733C67E0F6
:102E200070E0CE010E94893263E77CE387E00E9474
:102E3000E7320E941E4D3DC027303105D1F5823367
:102E4000910541F48091723C90E08017910709F060
:102E50003FC079C08091753C81112BC08091743C3A
:102E6000811127C08091733C811123C0CD30D105E1
:102E700019F0CA30D10519F588E090E08093102050
:102E8000909311201092753C83E190E00E94AA4239
:102E90008093743C82E08093733C68E070E0CE01E4
:102EA0000E94893263E77CE387E00E94E7320E9458
:102EB000FC4CCD30D10531F2CA30D10519F2E29780
:102EC00009F280911020909111200797E1F5BACF77
:102ED0000093723C8091733C811129C08091743CB5
:102EE000811114C09091753C911110C08091753C76
:102EF000882389F09CE39093743C81508093753CC7
:102F000063E77CE386E00E94E73205C09CE3909390
:102F1000733C882359F38091743C882319F08150C5
:102F20008093743C63E77CE382E00E94E732809107
:102F3000733C882319F081508093733C63E77CE3F2
:102F400081E00E94E732809110209091112002C010
:102F500085E190E0DF91CF911F910F910895CF927D
:102F6000DF92EF92FF920F931F93CF93DF936C0149
:102F70007B018A01FA0140815181FB0160817181ED
:102F80000E94F310F8016081718141E050E00E94DD
:102F90004734EC01F8016081718141E050E00E940A
:102FA0006E16B801C7010E940512882309F1C233C9
:102FB000D10509F187E190E00E94AA4281110CC07D
:102FC00043E050E060E070E0CE010E946E16299769
:102FD00061F40E94CF4C09C064E370E0CE010E940E
:102FE000D43F8111EDCFCE0107C08CE090E004C04A
:102FF000C233D105C1F7C601DF91CF911F910F9167
:10300000FF90EF90DF90CF900895EF92FF920F9393
:103010001F93CF93DF937B018A01FA014081518195
:10302000FB01608171810E94F310F8016081718160
:1030300041E050E00E944734EC01F8016081718169
:1030400041E050E00E946E16B801C7010E940512CF
:10305000882379F0C233D10571F043E050E060E09D
:1030600070E0CE010E946E162C9739F40E94CF4C6E
:1030700004C0CE0104C082E301C087E090E0DF918C
:10308000CF911F910F91FF90EF90089562307105DD
:10309000D1F481E190E00E94AA428093713C8111B9
:1030A00005C010920F2085E190E008C081E0809378
:1030B000713C85E080930F2087E090E080936F3C27
:1030C0009093703C089520916F3C3091703C6F302C
:1030D000710529F52830310539F02531310549F0E0
:1030E0002730310571F405C00E94F64C40E050E0F5
:1030F00004C00E94F94C4BE050E066E886E00E9474
:10310000782E4091713C50E067E88DE00E946A2B78
:1031100040910F2050E063E98DE00C946A2B25313B
:10312000310509F46CC06130710509F068C0209167
:103130006E3C30E028173907E9F080936E3C8091AF
:103140000F2081110DC08CE380930F204091713CC2
:1031500041504093713C50E067E88DE00E946A2B3B
:1031600040910F20415040930F2050E063E98DE0E3
:103170000E946A2B80916F3C9091703C8830910541
:10318000F1F48091713C81113AC080910F2081113E
:1031900036C087E090E080936F3C9093703C82E172
:1031A00090E00E94AA428093713C10920F204BE065
:1031B00050E066E886E00E94782E0C94F94C079760
:1031C000F1F48091713C81111AC080910F2081111E
:1031D00016C088E090E080936F3C9093703C81E152
:1031E00090E00E94AA428093713C10920F2040E030
:1031F00050E066E886E00E94782E0C94F64C089524
:103200000F931F93CF93DF931F921F92CDB7DEB71B
:103210008C01862F4A8389830E9418336A818981B1
:103220000E301105D8F4F801EB58FE4F0C9496734C
:103230000E94633D13C00E941C3210C00E943832AD
:103240000DC00E944E320AC00E946D3207C045E098
:1032500050E060E070E0C8010E94473442E150E075
:1032600060E070E0C8010F900F90DF91CF911F9147
:103270000F910C946E16DF92EF92FF920F931F93B3
:10328000CF93DF93EC017B018A01FA011082118256
:103290008E30910508F0C1C0FC01ED57FE4F0C9433
:1032A0009673FB016081718140E050E080E090E026
:1032B0000E940019DF91CF911F910F91FF90EF9025
:1032C000DF900C944B4D82E090E0FB018083918372
:1032D000FA014081518162E070E086E090E00E9456
:1032E0000019DF91CF911F910F91FF90EF90DF9028
:1032F0000C94C54C88E090E00E94AA42682F70E0D0
:10330000F70160837183F8014081518187E090E08B
:103310000E940019DF91CF911F910F91FF90EF90C4
:10332000DF900C94434C89E090E00E94AA42682F01
:1033300070E0F70160837183F801408151818BE077
:1033400090E00E940019DF91CF911F910F91FF90A3
:10335000EF90DF900C94524C8BE090E00E94AA42D8
:1033600090E0F701808391838CE090E00E94AA4274
:10337000482F50E0F80140835183F701608171814B
:103380006115710549F44115510531F481E090E072
:10339000F8018083918341C088E090E00E94001989
:1033A000DF91CF911F910F91FF90EF90DF900C94E0
:1033B0009C4C82E090E00E94AA42D82E83E090E0EC
:1033C00007C086E090E00E94AA42D82E87E090E0F5
:1033D0000E94AA426D2D70E0762F6627682BF701B8
:1033E00060837183F80140815181CE010E940019F0
:1033F00042E050E060E070E0CE010E9447344FE0D0
:1034000050E060E070E0CE01DF91CF911F910F910D
:10341000FF90EF90DF900C944734DF91CF911F9194
:103420000F91FF90EF90DF900895EF92FF920F932E
:103430001F93CF93DF93EC018E30910508F0DAC033
:10344000FC01EF56FE4F0C9496730E94633DC091B1
:103450001220D09113208091783C811122C081E00C
:103460008093783C42E050E060E070E089E090E0DA
:103470000E94473442E050E060E070E0CE010E94DC
:103480006E1662E070E080E090E00E9446180E94B4
:103490004B4D49E75CE364E170E2CE010E943B19C9
:1034A000A9C08091142090911520892B31F487E1D7
:1034B00090E00E94AA42882391F210911420E0909B
:1034C00015200091793CF0907A3C49E75CE364E197
:1034D00070E2CE010E943B1910931420E092152057
:1034E0000093793CF0927A3CCC30D10519F4CCE0D1
:1034F000D0E080C0C930D10509F47CC0602F812F95
:103500000E94B23177C086E090E0809312209093C1
:10351000132069E77CE384E190E20E9472150CC0FD
:1035200087E090E0809312209093132069E77CE37A
:1035300084E190E20E94BD15EC015CC08BE090E05C
:10354000809312209093132069E77CE384E190E25A
:103550000E94EC15F1CF88E090E0809312209093C8
:10356000132069E77CE384E190E20E941D16E4CF1A
:10357000809312209093132049E75CE364E170E2AA
:103580000E94AF17EC018930910539F48091122027
:10359000909113200A9771F529C08A30910551F551
:1035A0008091122090911320099721F51FC08093DC
:1035B00012209093132049E75CE364E170E20E94DB
:1035C0000518EC018C30910541F480911220909106
:1035D00013200D9709F08BCF09C08D30910551F460
:1035E00080911220909113200C9721F4C093122007
:1035F000D09313200E94440A81E090E00E9442246C
:103600000E94DA5529E73CE344E150E2BE010E9402
:103610009C5661E070E00E940D51EC0180911220F7
:1036200090911320C817D90739F049E75CE364E1AA
:1036300070E2CE010E943B198091763C9091773CDC
:1036400081309D47ACF01092763C1092773C0E94FE
:10365000742582E090E00E9471534091793C509132
:103660007A3C6091142070911520CE010E940019BF
:103670008091763C9091773C01968093763C909334
:10368000773CCE01DF91CF911F910F91FF90EF908A
:103690000895CF93DF93D82FC92FCB01BA010E9491
:1036A0000512882349F045E050E060E080E00E9488
:1036B0002D4680E090E002C08D2F9C2FDF91CF91AE
:1036C00008950F931F93CF93DF938B01EA014C97DB
:1036D0008C30910508F066C081569E4FFC010C9419
:1036E000967342E050E060E070E089E090E00E9474
:1036F00047340E94C54C80ED92E04FC042E050E05C
:1037000060E070E08CE090E00E9447340E94C54C7D
:1037100088E691E042C08AE590E03FC028E745E0B6
:1037200062E08FE00E94932648EF59E36FE081E169
:103730000E946C2742E150E065E58FE00E94782E00
:103740008EE190E0F8018083918318821982408194
:1037500051816CE781E10E949027488159816EE890
:1037600081E1DF91CF911F910F910C9490270E94DE
:103770009C4C11C00E94ED4CF801108211828AE02D
:1037800090E0888399830EC00E94F64C8EE190E011
:1037900004C00E94FC4C85E090E0F8018083918396
:1037A00018821982DF91CF911F910F910895EF92A6
:1037B000FF920F931F93CF93DF93EC018B010E9435
:1037C000DA556CE170E00E947757A801BE010E94B3
:1037D000491B7C018CE1E816F10429F0A801BE0127
:1037E000C7010E94611BF8016081888199810E9454
:1037F0008E35C701DF91CF911F910F91FF90EF9010
:103800000895CF92DF92EF92FF920F931F93CF9381
:10381000DF936C017B018A010E94DA55B6010E9498
:103820007757A801B7010E94491BEC014E970297F8
:1038300038F08EE1C816D104D1F40E94CF4C17C0E5
:10384000F8016081F701808191810E948E35F80135
:103850006081718141E050E0CE01DF91CF911F91F5
:103860000F91FF90EF90DF90CF900C94473425E0BC
:1038700042E066E781E10E949326A801B701CE01EC
:103880000E94611BCE01DF91CF911F910F91FF909C
:10389000EF90DF90CF900895CF92DF92EF92FF925A
:1038A0000F931F93CF93DF936C017B018A010E94DA
:1038B000DA55B6010E947757A801B7010E94491B4B
:1038C000EC018097029738F080E2C816D104D1F459
:1038D0000E94CF4C17C0F8016081F701808191816F
:1038E0000E948E35F8016081718141E050E0CE0187
:1038F000DF91CF911F910F91FF90EF90DF90CF90CC
:103900000C94473425E042E066E781E10E9493266B
:10391000A801B701CE010E94611BCE01DF91CF91BA
:103920001F910F91FF90EF90DF90CF900895EF924D
:10393000FF920F931F93CF93DF93EC018B010E94B3
:10394000DA5562E270E00E947757A801BE010E943A
:10395000491B7C0182E2E816F10429F0A801BE01AE
:10396000C7010E94611BF8016081888199810E94D2
:103970008E35C701DF91CF911F910F91FF90EF908E
:103980000895EF92FF920F931F93CF93DF93EC0173
:103990007B010E94DA5563E270E00E947757A7012D
:1039A000BE010E94491B8C018D31910581F481E09B
:1039B00080936B3C088319838AE390E0F70180834E
:1039C00091836AE3888199810E946E351CC083329D
:1039D0009105C9F028E748E062E08EE00E94932656
:1039E00080916B3C81110E94644CA701BE01C8010B
:1039F0000E94611BF7016081888199810E946E3568
:103A000010926B3C27C080916B3C811119C00E94C1
:103A1000905380916A3C8F5F80936A3C8D3731F47C
:103A200048EF59E36FE081E10E94002980916A3CF0
:103A30008A3F31F448EF59E36FE081E10E946C273F
:103A400080916B3C882331F0F701608188819981F6
:103A50000E948E35C801DF91CF911F910F91FF9089
:103A6000EF900895EF92FF920F931F93CF93DF9300
:103A70008C017B010E94DA5564E270E00E94775766
:103A8000A701B8010E94491BEC018432910539F06D
:103A90000E94A64CA701B801CE010E94611BF7014C
:103AA0006081F801808191810E948E35CE01DF9185
:103AB000CF911F910F91FF90EF900895EF92FF9299
:103AC0000F931F93CF93DF938C017B010E94DA55F4
:103AD00065E270E00E947757A701B8010E94491B78
:103AE000EC018532910539F00E94F04CA701B80134
:103AF000CE010E94611BF7016081F80180819181F4
:103B00000E948E35CE01DF91CF911F910F91FF90D2
:103B1000EF900895EF92FF920F931F93CF93DF934F
:103B20008C017B010E94DA5566E270E00E947757B3
:103B3000A701B8010E94491BEC018632910539F0BA
:103B40000E94F94CA701B801CE010E94611BF70148
:103B50006081F801808191810E948E35CE01DF91D4
:103B6000CF911F910F91FF90EF900895EF92FF92E8
:103B70000F931F93CF93DF938C017B010E94DA5543
:103B800067E270E00E947757A701B8010E94491BC5
:103B9000EC018732910539F00E941E4DA701B80152
:103BA000CE010E94611BF7016081F8018081918143
:103BB0000E948E35CE01DF91CF911F910F91FF9022
:103BC000EF900895CF93DF93EC01FC013197E7323A
:103BD000F10508F053C0E555FE4F0C94967385E04F
:103BE00090E080930D2090930E2010926C3C1092E8
:103BF0006D3C60E00E94753DCCE1D0E03FC06CE6DA
:103C00007CE38DE090E20E94D71B37C04CE65CE37A
:103C10006DE070E20E94011C30C04CE65CE36DE098
:103C200070E20E944C1C29C06CE67CE38DE090E2BF
:103C30000E94971C22C06CE67CE38DE090E20E941B
:103C4000C11C1BC06CE67CE38DE090E20E94321D3B
:103C500014C06CE67CE38DE090E20E945E1D0DC016
:103C60006CE67CE38DE090E20E948A1D06C06CE663
:103C70007CE38DE090E20E94B61DEC010E94440AB4
:103C800081E090E00E944224CE01DF91CF9108951F
:103C900025E030E0FB0120833183FA01108211829C
:103CA0000E978E309105F8F48E529E4FFC010C94C5
:103CB00096730C94B33D0C94CA3D0C94E23D0C9465
:103CC000F43D0C940C3E0C941E3E0C94303E0C942F
:103CD0004E3E0C94603E0C94723E0C94D93E0C9473
:103CE0000B3F0C94533F0895EF92FF920F931F9355
:103CF000CF93DF938C017B010E94DA556EE070E078
:103D00000E946A58EC018E30910521F0A701B8019C
:103D10000E94481ECE01DF91CF911F910F91FF901D
:103D2000EF900895EF92FF920F931F93CF93DF933D
:103D30008C017B010E94DA556FE070E00E94AE5862
:103D4000EC018F30910521F0A701B8010E94481EB7
:103D5000CE01DF91CF911F910F91FF90EF900895C9
:103D6000EF92FF920F931F93CF93DF938C017B0110
:103D70000E94DA5560E170E00E94315AEC01803116
:103D8000910521F0A701B8010E94481ECE01DF91E4
:103D9000CF911F910F91FF90EF900895EF92FF92B6
:103DA0000F931F93CF93DF938C017B010E94DA5511
:103DB00061E170E00E94A65BEC018131910521F088
:103DC000A701B8010E94481ECE01DF91CF911F913B
:103DD0000F91FF90EF900895EF92FF920F931F9332
:103DE000CF93DF938C017B010E94DA5562E170E092
:103DF0000E944D5CEC018231910521F0A701B801D0
:103E00000E94481ECE01DF91CF911F910F91FF902C
:103E1000EF900895EF92FF920F931F93CF93DF934C
:103E20008C017B010E94DA5563E170E00E944C5DD9
:103E3000EC018331910521F0A701B8010E94481ED1
:103E4000CE01DF91CF911F910F91FF90EF900895D8
:103E5000EF92FF920F931F93CF93DF938C017B011F
:103E60000E94DA5564E170E00E947F5EEC018431CB
:103E7000910521F0A701B8010E94481ECE01DF91F3
:103E8000CF911F910F91FF90EF900895EF92FF92C5
:103E90000F931F93CF93DF938C017B010E94DA5520
:103EA00065E170E00E94DD5FEC018531910521F054
:103EB000A701B8010E94481ECE01DF91CF911F914A
:103EC0000F91FF90EF900895EF92FF920F931F9341
:103ED000CF93DF938C017B010E94DA5566E170E09D
:103EE0000E94F260EC018631910521F0A701B80132
:103EF0000E94481ECE01DF91CF911F910F91FF903C
:103F0000EF900895EF92FF920F931F93CF93DF935B
:103F10007C018B018091673C811103C0C7E1D0E037
:103F200002C0C8E1D0E00E94DA55BE010E94A7623B
:103F3000EC018831910509F049C081E290E00E94CE
:103F4000AA42882349F08DE090E00E948E5185E0DE
:103F500090E00E948E5131C08091673C81110FC06A
:103F600081E08093673C84E090E0F7018083918357
:103F700088E790E0F801808391830E94C54CF801A6
:103F80004081518164E681E10E94C427F80180816B
:103F90009181892B21F51092673C8DE090E00E9481
:103FA000DE4A85E090E00E94DE4A0E94CF4C24E188
:103FB00042E064E681E10E94932643E150E061E043
:103FC0008FE00E94F72DC7E1D0E009C0873191054D
:103FD00031F01092673CA801B7010E94481ECE0143
:103FE000DF91CF911F910F91FF90EF900895EF9285
:103FF000FF920F931F93CF93DF938C017B010E945D
:10400000DA5569E170E00E940D64EC010E94824281
:10401000C931D10529F0A701B801CE010E94481E7F
:10402000CE01DF91CF911F910F91FF90EF900895F6
:10403000EF92FF920F931F93CF93DF938C017B013D
:104040000E94DA556AE170E00E942665EC018A312F
:10405000910521F0A701B8010E94481ECE01DF9111
:10406000CF911F910F91FF90EF900895EF92FF92E3
:104070000F931F93CF93DF938C017B010E94DA553E
:104080006BE170E00E940367EC018B31910521F038
:10409000A701B8010E94481ECE01DF91CF911F9168
:1040A0000F91FF90EF900895CF93DF93EC01FC0107
:1040B0003297EA31F10508F06EC0E052FE4F0C94E1
:1040C000967385E090E080930B2090930C201092E3
:1040D000683C1092693C0E94B33DCEE0D0E05BC0EA
:1040E00068E67CE38BE090E20E94741E53C068E6B1
:1040F0007CE38BE090E20E94921E4CC068E67CE379
:104100008BE090E20E94B01E45C068E67CE38BE045
:1041100090E20E94CE1E3EC068E67CE38BE090E217
:104120000E94EC1E37C068E67CE38BE090E20E94C0
:104130000A1F30C068E67CE38BE090E20E94281FF3
:1041400029C068E67CE38BE090E20E94461F22C013
:1041500068E67CE38BE090E20E94641F1BC068E687
:104160007CE38BE090E20E94821F14C068E67CE34F
:104170008BE090E20E94F71F0DC068E67CE38BE0C5
:1041800090E20E94182006C068E67CE38BE090E293
:104190000E943620EC010E94440A0E94945368E673
:1041A0007CE38BE090E20E940512882329F0689757
:1041B00029F40E94894E02C0CE0102C080E090E046
:1041C000DF91CF91089525E030E0FB01208331831A
:1041D000FA01108211828A32910589F030F4883216
:1041E000910549F0899749F008958B32910549F07E
:1041F0008C9749F008950C94653F0C9479370C9492
:1042000099370C94B43783E090E00E94024F0C94ED
:10421000C436EF92FF920F931F93CF93DF938C01DD
:104220007B010E94DA5568E270E00E94D168EC01DF
:104230008832910521F0A701B8010E94E320CE0148
:10424000DF91CF911F910F91FF90EF900895EF9222
:10425000FF920F931F93CF93DF938C017B010E94FA
:10426000DA5569E270E00E941169EC01893291052A
:1042700021F0A701B8010E94E320CE01DF91CF9188
:104280001F910F91FF90EF900895EF92FF920F937F
:104290001F93CF93DF938C017B010E94DA556AE272
:1042A00070E00E949569EC018A32910521F0A70126
:1042B000B8010E94E320CE01DF91CF911F910F91B1
:1042C000FF90EF900895EF92FF920F931F93CF937B
:1042D000DF938C017B010E94DA556BE270E00E9453
:1042E000196AEC018B32910521F0A701B8010E94F7
:1042F000E320CE01DF91CF911F910F91FF90EF90BE
:104300000895EF92FF920F931F93CF93DF93EC01E9
:104310008B017A0185E090E0FB01808391830E940C
:10432000DA55BE010E949D6AEC018F32910549F079
:104330008033910549F08D32910551F40E9430503F
:1043400007C00E94815202C00E94AA52CCE2D0E073
:10435000CE018C97029748F0CE018F97029728F0F4
:10436000A701B801CE010E94E320CE01DF91CF91D9
:104370001F910F91FF90EF900895CF93DF93EC0181
:104380008A32910591F1B0F48832910501F130F54E
:1043900083309105C1F585E090E0809309209093EA
:1043A0000A201092653C1092663C0E94653FC8E26C
:1043B000D0E029C08B329105F9F08133910518F5D1
:1043C00045E65CE369E070E20E9481211BC065E67E
:1043D0007CE389E090E20E94092114C065E67CE359
:1043E00089E090E20E9427210DC065E67CE389E028
:1043F00090E20E94452106C065E67CE389E090E2F8
:104400000E946321EC010E94440A0E94985365E6D1
:104410007CE389E090E20E940512882319F080E095
:1044200090E001C0CE01DF91CF9108950F931F93CB
:10443000CF93DF93EC018091623C81110FC081E04A
:104440008093623C0E94893B85E090E08093072046
:10445000909308201092633C1092643C0E94440A9E
:104460000E9490530E94DA55BE010E94A86B8C01F5
:10447000C817D90731F01092623C0E948C25C80100
:1044800010C063E67CE387E090E20E940512882377
:1044900039F01092623C0E948C2580E090E001C0CF
:1044A000CE01DF91CF911F910F91089527E848E148
:1044B00061E084E00C949326DF92EF92FF920F93D9
:1044C0001F93CF93DF93EC01062F142F83309105B8
:1044D00048F4FC01E651F64CE080FC01E951F64C51
:1044E000D08002C0D12CE12C35E0F32EC130D105B3
:1044F00081F048F0C230D10589F4412F602F8F2D13
:104500000E94253A0BC0412F602F8F2D0E94C23888
:1045100005C0412F602F8F2D0E948A39111105C0CF
:1045200001500E1508F40D2D14E01150F394F3947E
:104530008DE0F812DBCF2DE0F22EC130D10581F0F5
:1045400048F0C230D10589F4412F602F8F2D0E9491
:10455000253A0BC0412F602F8F2D0E94C23805C015
:10456000412F602F8F2D0E948A39111105C00150F3
:104570000E1508F40D2D14E01150F394F39485E119
:10458000F812DBCFDF91CF911F910F91FF90EF9049
:10459000DF90089590E0961731F08150823008F452
:1045A00080E19F5FF8CF08950F931F93CF93DF9320
:1045B000EC0180E090E00E94DC14FC01008111819C
:1045C000C830D10508F050C0FE01E650FE4F0C94F3
:1045D00096730E945622412F602F08C00E945622D7
:1045E00062E0802F0E94CA22412F682F80E090E075
:1045F000DF91CF911F910F910C945C220E94562263
:1046000064E0EFCF0E94562266E0EBCF0E94562274
:1046100068E0E7CF0E9456226AE0E3CF0E9456226C
:104620006CE0DFCF0E9456226EE0802F0E94CA22EB
:10463000C82FD5E0412F6C2F8D2F0E94C238111149
:1046400005C0C150C23008F4C0E114E01150DE5F73
:10465000DD3081F743E05AE361E08FE0DF91CF91F5
:104660001F910F910C946C27DF91CF911F910F91A7
:1046700008950F931F93CF93DF93EC0181E090E0B7
:104680000E94DC14FC0100811181209759F02197D0
:1046900079F50E94562262E0802F0E94CA22C82F1C
:1046A000D5E00CC00E945622412F602F81E090E09F
:1046B000DF91CF911F910F910C945C22412F6C2FB1
:1046C0008D2F0E948A39111105C0C150C13108F4E3
:1046D000C4E114E01150DE5FDD3081F743E05AE3BE
:1046E00061E08FE0DF91CF911F910F910C946C27C7
:1046F000DF91CF911F910F9108950F931F93CF9347
:10470000DF93EC0182E090E00E94DC14FC01008168
:104710001181209759F0219779F50E94562262E085
:10472000802F0E94CA22C82FD5E00CC00E945622BA
:10473000412F602F82E090E0DF91CF911F910F9188
:104740000C945C22412F6C2F8D2F0E94253A111161
:1047500005C0C150C63108F4C9E114E01150DE5F54
:10476000DD3081F743E05AE361E08FE0DF91CF91E4
:104770001F910F910C946C27DF91CF911F910F9196
:10478000089588E090E00E9442240E94366F0E94C3
:104790008C2547E05AE360E082E00E946C274EE0FF
:1047A0005AE360E085E00E946C2745E15AE360E04F
:1047B0008AE00E946C274EE15AE360E08DE00E949F
:1047C0006C2747E25AE360E082E10E946C2744E3F1
:1047D0005AE360E085E10E946C278AE290E00E9443
:1047E000AA42482F50E06CE382E00E94C4278BE28B
:1047F00090E00E94AA42482F50E06CE385E00E94BE
:10480000C42788E290E00E94AA42482F50E064E664
:1048100082E00E94C42789E290E00E94AA42482FC9
:1048200050E064E685E00E94C4270E94440A0E948A
:10483000EE6EEC0144E0D595C7954A95E1F70E94EC
:10484000886E8C0154E0159507955A95E1F7C801DB
:104850000E94416E7C01CE010E941E6E6C01AE0171
:1048600064E68AE00E94C427A80164E68DE00E9405
:10487000C427A60164E682E10E94C427A70164E67A
:1048800085E1D1CF87309105B9F038F481309105B9
:10489000B9F0039709F451C008958830910521F0CB
:1048A0008331910549F1089528E0209345068093CE
:1048B00017209093182041C028E0209346061CC082
:1048C000809117209091182088309105D1F4809123
:1048D0007B3C90917C3C019680937B3C90937C3C0C
:1048E0008133954770F110927B3C10927C3C88E0BC
:1048F0008093460687E090E08093172090931820DD
:1049000008954397F1F480917B3C90917C3C019613
:1049100080937B3C90937C3C813931E0930788F015
:1049200028E020934606813D974058F010927B3C4A
:1049300010927C3C20934506089510927B3C109287
:104940007C3C0895462FBC018CE30E94DC70982FBC
:104950008FEE890F843028F081E0963119F080E0E5
:10496000089581E00895462FBC018DE30C94DC701E
:10497000CF93DF931F92CDB7DEB790E6980F998360
:10498000893138F461E0CE0101960E94A2248111A0
:10499000F9CF0F90DF91CF910895CF93DF931F92BE
:1049A0001F92CDB7DEB7813A70F4982F9F7099832C
:1049B00082958F70805F8A8362E0CE0101960E94AB
:1049C000A2248111F9CF0F900F90DF91CF9108951C
:1049D000CF93DF931F92CDB7DEB789EF898361E074
:1049E000CE0101960E94A2248111F9CF0F90DF9190
:1049F000CF910895CF93DF931F92CDB7DEB788EFA5
:104A0000898361E0CE0101960E94A2248111F9CF31
:104A10000F90DF91CF910895CF93DF9300D01F9235
:104A2000CDB7DEB795EF99838A8387EF8B836C834D
:104A300064E0CE0101960E94A2248111F9CF249650
:104A4000CDBFDEBFDF91CF910895CF93DF9300D02C
:104A50001F92CDB7DEB794EF99838A8386EF8B835D
:104A60006C8364E0CE0101960E94A2248111F9CFEB
:104A70002496CDBFDEBFDF91CF910895CF93DF9312
:104A80001F92CDB7DEB785EA898361E0CE0101963A
:104A90000E94A2248111F9CF0F90DF91CF91089548
:104AA000CF93DF931F92CDB7DEB784EA898361E0AD
:104AB000CE0101960E94A2248111F9CF0F90DF91BF
:104AC000CF910895CF93DF931F92CDB7DEB782EEDB
:104AD000898361E0CE0101960E94A2248111F9CF61
:104AE0000F90DF91CF91089588E08093410684E094
:104AF00080934106809345060E9462256BE089E120
:104B000090E20E94A2248111F9CF0895E0E4F6E03A
:104B100084E0818386830895FF920F931F93CF9340
:104B2000DF93CDB7DEB7C055D109CDBFDEBF8E0153
:104B30000F5F1F4F80E5F80111928A95E9F780E039
:104B40000E94B82480E00E94CD240E94E82469E1FC
:104B500080E00E940C256FE980E00E94252584E317
:104B6000F82E60E5C8010E94B32460E5C8010E94E8
:104B7000B324FA94B1F70E94FA24C05BDF4FCDBF93
:104B8000DEBFDF91CF911F910F91FF900895EF92BB
:104B9000FF920F931F93CF93DF93CDB7DEB7649748
:104BA000CDBFDEBF8E010F5F1F4F84E1F801119270
:104BB0008A95E9F78FEF8983F801CE0145962FEFAB
:104BC0002193E817F907E1F780E00E94B82480E01C
:104BD0000E94CD240E94E82469E180E00E940C2517
:104BE0006FE980E00E94252524E3E22E98E0F92E6B
:104BF00064E1C8010E94B324FA94D1F7EA94B1F7B2
:104C00000E94FA246496CDBFDEBFDF91CF911F9141
:104C10000F91FF90EF900895CF93DF931F92CDB740
:104C2000DEB787EA898361E0CE0101960E94A22463
:104C30008111F9CF0F90DF91CF910895CF93DF933A
:104C40001F92CDB7DEB786EA898361E0CE01019677
:104C50000E94A2248111F9CF0F90DF91CF91089586
:104C60000F931F93CF93DF931F921F92CDB7DEB7A1
:104C7000082F162F2A8349830E94B824812F0E946F
:104C8000CD240E94E8244981642F660F600F802F95
:104C90000E940C252A816FEF620F610F812F0F9008
:104CA0000F90DF91CF911F910F910C942525DF92EA
:104CB000EF92FF920F931F93CF93DF93CDB7DEB7A1
:104CC000C05AD109CDBFDEBFE42ED22E8E010F5FB8
:104CD0001F4F90EAF80111929A95E9F79FEF998397
:104CE000F801DE01AF55BF4F9193EA17FB07E1F7DB
:104CF0002D2D4E2D0E943026F12CFE1431F06D2DFD
:104D0000C8010E94B324F394F8CF0E94FA24C0563D
:104D1000DF4FCDBFDEBFDF91CF911F910F91FF908D
:104D2000EF90DF900895DF92EF92FF920F931F9321
:104D3000CF93DF93CDB7DEB7C05AD109CDBFDEBF69
:104D4000E42ED22E8E010F5F1F4F90EAF8011192D0
:104D50009A95E9F7F801DE01AF55BF4F1192EA17B6
:104D6000FB07E1F72D2D4E2D0E943026F12CFE146D
:104D700031F06D2DC8010E94B324F394F8CF0E9446
:104D8000FA24C056DF4FCDBFDEBFDF91CF911F9118
:104D90000F91FF90EF90DF9008959091162024E0FE
:104DA00041E0992329F00E94572610921620089579
:104DB0000E94932681E0809316200895982F80FD0D
:104DC00002C080E001C083E091FD845F92FD805DC0
:104DD00093FD805408955F926F927F928F929F927D
:104DE000AF92BF92CF92DF92EF92FF920F931F93F9
:104DF000CF93DF93CDB7DEB7A897CDBFDEBF6A01F3
:104E00009E012F5F3F4F790198E2F90111929A9527
:104E1000E9F77090723750907337272D452D0E9417
:104E20003026A72CB12C579CC00111248C9D8001E9
:104E30008D9D100D9C9D100D11240658184C612C51
:104E40006514A9F14701C12CD12CCA14DB0474F4F8
:104E5000F801EC0DFD1D80818F700E94DE26F401AB
:104E600081934F01FFEFCF1ADF0AEFCF672DC70104
:104E70000E94B3246701812C912C8A149B047CF43A
:104E8000F801E80DF91D808182958F700E94DE2661
:104E9000F60181936F01FFEF8F1A9F0AEECF672D06
:104EA000C7010E94B32463940A0D1B1DC9CF0E9441
:104EB000FA24A896CDBFDEBFDF91CF911F910F914D
:104EC000FF90EF90DF90CF90BF90AF909F908F902A
:104ED0007F906F905F900895FF920F931F93CF93F1
:104EE000DF93F82E062FEA0110E0FE01E10FF11D1D
:104EF000408150E041525109602F8F2D0E94EB26D6
:104F000080917237080F1F5FFE01E10FF11D808154
:104F10008111EBCFDF91CF911F910F91FF900895F9
:104F2000CF93DF93CDB7DEB72A97CDBFDEBF282F53
:104F3000362FFE0131968AE0DF011D928A95E9F74E
:104F40004436510534F4141615062CF040E050E0B8
:104F500002C043E650E0CA016AE070E00E9482733A
:104F600080E3860F8983405DBAE06B9F401911246E
:104F70004A83AF01632F822F0E946C272A96CDBFF0
:104F8000DEBFDF91CF910895CF92DF92EF92FF9233
:104F90000F931F93CF93DF93CDB7DEB72A97CDBF83
:104FA000DEBFD82EC62E9A01CE0101967C018AE082
:104FB000F70111928A95E9F7483EF3E05F0734F470
:104FC000141615062CF020E030E002C027EE33E086
:104FD000C90164E670E00E9482738B014CE94603CC
:104FE000C001479F900D1124820F931F6AE070E06B
:104FF0000E948273409F200D11248AE0689F20192F
:105000001124005D098390E3960F9A83205D2B8322
:10501000A7016C2D8D2D0E946C272A96CDBFDEBF77
:10502000DF91CF911F910F91FF90EF90DF90CF9084
:105030000895CF92DF92EF92FF920F931F93CF9339
:10504000DF93CDB7DEB72A97CDBFDEBFD82EC62EF1
:105050008E010F5F1F4F8AE0F80111928A95E9F7E0
:105060009A0157FF02C020E030E048EEE42E43E012
:10507000F42EC901B7010E94827369836E9DF0010D
:105080006F9DF00D7E9DF00D1124C9018E1B9F0BAD
:1050900064E670E00E9482736A8374E66702A0018E
:1050A0001124CF01840F951FB901681B790BCB0127
:1050B0006AE070E00E9482736B832E1B241B7AE0EF
:1050C000679F201911242C83F8019E012B5F3F4F0D
:1050D0008081805D8193E217F307D1F7A8016C2DE1
:1050E0008D2D0E946C272A96CDBFDEBFDF91CF9118
:1050F0001F910F91FF90EF90DF90CF9008955F92F6
:105100006F927F928F929F92AF92BF92CF92DF92D7
:10511000EF92FF920F931F93CF93DF93CDB7DEB73C
:10512000A897CDBFDEBF6A019E012F5F3F4F790177
:1051300098E2F90111929A95E9F770903035509004
:105140003135272D452D0E943026A72CB12C579C98
:10515000C00111248C9D80018D9D100D9C9D100D12
:105160001124085C1A4C612C6514A9F14701C12C6B
:10517000D12CCA14DB0474F4F801EC0DFD1D808100
:105180008F700E94DE26F40181934F01FFEFCF1A4A
:10519000DF0AEFCF672DC7010E94B3246701812C7E
:1051A000912C8A149B047CF4F801E80DF91D808190
:1051B00082958F700E94DE26F60181936F01FFEFCA
:1051C0008F1A9F0AEECF672DC7010E94B324639404
:1051D0000A0D1B1DC9CF0E94FA24A896CDBFDEBFC1
:1051E000DF91CF911F910F91FF90EF90DF90CF90C3
:1051F000BF90AF909F908F907F906F905F90089539
:10520000FF920F931F93CF93DF93F82E062FEA019F
:1052100010E0FE01E10FF11D408150E041525109C3
:10522000602F8F2D0E947F2880913035080F1F5FDF
:10523000FE01E10FF11D80818111EBCFDF91CF9154
:105240001F910F91FF900895CF93DF93CDB7DEB7F5
:105250002A97CDBFDEBF282F362FFE0131968AE078
:10526000DF011D928A95E9F74436510534F414168E
:1052700015062CF040E050E002C043E650E0CA01C1
:105280006AE070E00E94827380E3860F8983405D4C
:10529000BAE06B9F401911244A83AF01632F822F1C
:1052A0000E9400292A96CDBFDEBFDF91CF910895DD
:1052B000CF92DF92EF92FF920F931F93CF93DF93E2
:1052C000CDB7DEB72A97CDBFDEBFD82EC62E9A0146
:1052D000CE0101967C018AE0F70111928A95E9F7E7
:1052E000483EF3E05F0734F4141615062CF020E076
:1052F00030E002C027EE33E0C90164E670E00E94AE
:1053000082738B014CE94603C001479F900D112425
:10531000820F931F6AE070E00E948273409F200D0D
:1053200011248AE0689F20191124005D098390E30D
:10533000960F9A83205D2B83A7016C2D8D2D0E94E3
:1053400000292A96CDBFDEBFDF91CF911F910F912B
:10535000FF90EF90DF90CF900895CF92DF92EF9281
:10536000FF920F931F93CF93DF93CDB7DEB72A97AA
:10537000CDBFDEBFD82EC62E8E010F5F1F4F8AE035
:10538000F80111928A95E9F79A0157FF02C020E0CF
:1053900030E058EEE52E53E0F52EC901B7010E942A
:1053A000827369836E9DF0016F9DF00D7E9DF00DFF
:1053B0001124C9018E1B9F0B64E670E00E9482736A
:1053C0006A8374E66702A0011124CF01840F951F40
:1053D000B901681B790BCB016AE070E00E9482730F
:1053E0006B832E1B241B7AE0679F201911242C83CA
:1053F000F8019E012B5F3F4F8081805D8193E21712
:10540000F307D1F7A8016C2D8D2D0E9400292A9653
:10541000CDBFDEBFDF91CF911F910F91FF90EF9035
:10542000DF90CF9008952F923F924F925F926F92AC
:105430007F928F929F92AF92BF92CF92DF92EF9224
:10544000FF920F931F93CF93DF93CDB7DEB766978D
:10545000CDBFDEBF542F8E010F5F1F4F94E1F801C7
:1054600011929A95E9F730904D3320904E33F42FF6
:10547000FF70FF2E232D422D5E8B0E943026A32C21
:10548000B12C822D90E0F39C90011124289FB00153
:10549000299F700D389F700D11245E89507F21E087
:1054A00030E011F420E030E04AE0429FF001439FF9
:1054B000F00D1124EA9DA001EB9D500DFA9D500DB9
:1054C0001124489F9001499F300D589F300D1124A1
:1054D000E12CF12C1D8ACB01835B9C4C6C01C20E2C
:1054E000D31E9D899215E9F14801612C712C26018A
:1054F0004E0C5F1C6A147B0474F4F201E60DF71D78
:1055000082818F700E94DE26F40181934F01FFEFAC
:105510006F1A7F0AEFCF632DC8010E94B3244801A0
:10552000412C512C36016E0C7F1C4A145B047CF418
:10553000F301E40DF51D828182958F700E94DE26B5
:10554000F40181934F01FFEF4F1A5F0AEECF632DF5
:10555000C8010E94B3248D898F5F8D8BEA0CFB1CE0
:10556000C0CF0E94FA246696CDBFDEBFDF91CF91F7
:105570001F910F91FF90EF90DF90CF90BF90AF9071
:105580009F908F907F906F905F904F903F902F9063
:1055900008955F926F927F928F929F92AF92BF9287
:1055A000CF92DF92EF92FF920F931F93CF93DF93EF
:1055B000CDB7DEB72A97CDBFDEBF142F9E012F5F78
:1055C0003F4F79019AE0F90111929A95E9F77090AD
:1055D0008F3450909034272D452D0E943026A72CD3
:1055E000B12C179DA0011124549E8001559E100DD1
:1055F000112401571B4C612C6514A9F14701C12CE2
:10560000D12CCA14DB0474F4F801EC0DFD1D828169
:105610008F700E94DE26F40181934F01FFEFCF1AB5
:10562000DF0AEFCF672DC7010E94B3246701812CE9
:10563000912C8A149B047CF4F801E80DF91D8281F9
:1056400082958F700E94DE26F60181936F01FFEF35
:105650008F1A9F0AEECF672DC7010E94B32463946F
:105660000A0D1B1DC9CF0E94FA242A96CDBFDEBFAA
:10567000DF91CF911F910F91FF90EF90DF90CF902E
:10568000BF90AF909F908F907F906F905F900895A4
:10569000FF920F931F93CF93DF93F82E062FEA010B
:1056A00010E0FE01E10FF11D40814053602F8F2D6E
:1056B0000E94C92A80918F34080F1F5FFE01E10FFD
:1056C000F11D80818111EDCFDF91CF911F910F915D
:1056D000FF900895CF93DF93CDB7DEB72A97CDBF64
:1056E000DEBF282F362FFE0131968AE0DF011D92A2
:1056F0008A95E9F74436510534F4141615062CF052
:1057000040E050E002C043E650E0CA016AE070E0C9
:105710000E94827380E3860F8983405DBAE06B9FAD
:10572000401911244A83AF01632F822F0E94482B16
:105730002A96CDBFDEBFDF91CF910895CF92DF9241
:10574000EF92FF920F931F93CF93DF93CDB7DEB706
:105750002A97CDBFDEBFD82EC62E9A01CE01019664
:105760007C018AE0F70111928A95E9F7483EF3E05F
:105770005F0734F4141615062CF020E030E002C068
:1057800027EE33E0C90164E670E00E9482738B016A
:105790004CE94603C001479F900D1124820F931FCF
:1057A0006AE070E00E948273409F200D11248AE01D
:1057B000689F20191124005D098390E3960F9A8356
:1057C000205D2B83A7016C2D8D2D0E94482B2A96DE
:1057D000CDBFDEBFDF91CF911F910F91FF90EF9072
:1057E000DF90CF900895CF92DF92EF92FF920F93C8
:1057F0001F93CF93DF93CDB7DEB72A97CDBFDEBF20
:10580000D82EC62E8E010F5F1F4F8AE0F80111922D
:105810008A95E9F79A0157FF02C020E030E068EE70
:10582000E62E63E0F62EC901B7010E9482736983F8
:105830006E9DF0016F9DF00D7E9DF00D1124C9014C
:105840008E1B9F0B64E670E00E9482736A8374E68D
:105850006702A0011124CF01840F951FB901681BB5
:10586000790BCB016AE070E00E9482736B832E1B80
:10587000241B7AE0679F201911242C83F8019E01D4
:105880002B5F3F4F8081805D8193E217F307D1F753
:10589000A8016C2D8D2D0E94482B2A96CDBFDEBF0E
:1058A000DF91CF911F910F91FF90EF90DF90CF90FC
:1058B0000895AF92BF92CF92DF92EF92FF920F9333
:1058C0001F93CF93DF93CDB7DEB72A97CDBFDEBF4F
:1058D000B82EA62E8E010F5F1F4F8AE0F80111929D
:1058E0008A95E9F79A0157FF02C020E030E0E0E135
:1058F000F7E2C901BF010E94827369836E9F700144
:105900006F9FF00C7E9FF00C1124C9018E199F0926
:10591000E8EEF3E0BF010E9482736A836E9FA001EC
:105920006F9F500D7E9F500D11246701C40ED51E30
:10593000C9018C199D0964E670E00E948273F62EFD
:105940006B83FCE96F02C00111248C199D09820F41
:10595000931F6AE070E00E9482736C832E19241BEF
:1059600074E6F79E201911248AE0689F20191124FB
:105970002D83F801CE0106962081205D2193E81742
:10598000F907D1F7A8016A2D8B2D0E94482B2A9682
:10599000CDBFDEBFDF91CF911F910F91FF90EF90B0
:1059A000DF90CF90BF90AF9008955F926F927F92FB
:1059B0008F929F92AF92BF92CF92DF92EF92FF921F
:1059C0000F931F93CF93DF93CDB7DEB72A97CDBF49
:1059D000DEBF142F9E012F5F3F4F79019AE0F9013E
:1059E00011929A95E9F77090ED345090EE34272D8E
:1059F000452D0E943026A72CB12C179DA001112403
:105A0000549E8001559E100D112403511B4C612C96
:105A10006514A9F14701C12CD12CCA14DB0474F41C
:105A2000F801EC0DFD1D82818F700E94DE26F401CD
:105A300081934F01FFEFCF1ADF0AEFCF672DC70128
:105A40000E94B3246701812C912C8A149B047CF45E
:105A5000F801E80DF91D828182958F700E94DE2683
:105A6000F60181936F01FFEF8F1A9F0AEECF672D2A
:105A7000C7010E94B32463940A0D1B1DC9CF0E9465
:105A8000FA242A96CDBFDEBFDF91CF911F910F91EF
:105A9000FF90EF90DF90CF90BF90AF909F908F904E
:105AA0007F906F905F900895FF920F931F93CF9315
:105AB000DF93F82E062FEA0110E0FE01E10FF11D41
:105AC00040814053602F8F2D0E94D52C8091ED3462
:105AD000080F1F5FFE01E10FF11D80818111EDCFE5
