:100000000C94DA010C9400020C9400020C9400028F
:100010000C9400020C9400020C9400020C94000258
:100020000C9400020C9400020C9400020C94000248
:100030000C9400020C9400020C9400020C94000238
:100040000C9400020C9400020C9400020C94000228
:100050000C9400020C9400020C9400020C94000218
:100060000C9400020C9400020C9400020C94000208
:100070000C9400020C9400020C9400020C940002F8
:100080000C9400020C9400020C9400020C940002E8
:100090000C9400020C9400020C9400020C940002D8
:1000A0000C9400020C9400020C9400020C940002C8
:1000B0000C9400020C9400020C9400020C940002B8
:1000C0000C9400020C9400020C9400020C940002A8
:1000D0000C9400020C9400020C9400020C94000298
:1000E0000C9400020C9400020C9400020C94000288
:1000F0000C9400020C9400020C9400020C94000278
:100100000C9400020C9400020C9400020C94000267
:100110000C9400020C9400020C9400020C94000257
:100120000C9400020C9400020C9400020C94000247
:100130000C9400020C9400020C9400020C94000237
:100140000C9400020C9400020C9400020C94000227
:100150000C9400020C9400020C9400020C94000217
:100160000C9400020C9400020C9400020C94000207
:100170000C9400020C9400020C9400020C940002F7
:100180000C9400020C9400020C9400020C940002E7
:100190000C9400020C9400020C9400020C940002D7
:1001A0000C9400020C9400020C9400020C940002C7
:1001B0000C9400020C9400020C9400020C940002B7
:1001C0000C9400020C9400020C9400020C940002A7
:1001D0000C9400020C9400020C9400020C94000297
:1001E0000C9400020C9400020C94CA790C94000246
:1001F0000C94000277037A037D0380038303860354
:1002000089038C038F039203950398039B039E033A
:10021000A103A403A703AA03AD03B003B303B6036A
:10022000B903BC03BF03C203C503C803CB03CE039A
:10023000D103D603E803EB03EE03F103F403F70362
:10024000FA03FD0300040304060409040C040F046C
:100250001204150418041B041E042104240427049A
:100260002A042D0430043304360439043C043F04CA
:10027000420447042E3D333D383D3D3D423D473D20
:100280004C3D533D5A3D5F3D643D6B3DF23CF73C78
:10029000FC3C013D063D0B3D103D153D1A3D1F3D0B
:1002A000243D293D054208420B420E4211421442B0
:1002B00019421C422242254228421F422B422E4212
:1002C000564259425C425F426242654268426B421A
:1002D0006E427142744277427A427D4233424542D5
:1002E000364239423C423F42424248424B424E42F1
:1002F00051428242854288428B428E4291429442D0
:1003000097429A42DB48DD4800490349DF48E1480B
:1003100006490949E348E548E748E948EB480C49FC
:100320000F4912491549ED48EF48F148F448F7489C
:100330005349FA48FD4818491B491E492149244997
:100340004E4927492A492D494249454948494B497F
:100350003C493F493049334936493949664968493A
:100360008B498E496A496C49914994496E49704953
:1003700072497449764997499A499D49A0497849F3
:100380007A497C497F498249DE4985498849A349A0
:10039000A649A949AC49AF49D949B249B549B84973
:1003A000CD49D049D349D649C749CA49BB49BE49B5
:1003B000C149C44911241FBECFEFDFE3DEBFCDBF6B
:1003C00000E00CBF18BE19BE1ABE1BBE1CE3A0E0A5
:1003D000B0E2E6EBF4EF00E00BBF02C007900D9235
:1003E000AC37B107D9F71BBE1DE3ACE7BCE301C0D6
:1003F0001D92A13DB107E1F70E94E4410C94597AA6
:100400000C9400001F93CF93DF93C0E0D6E010E27E
:100410001983882321F41D8382E090E003C01D83AB
:100420008CE390E00E94C4581E8384E190E00E9417
:10043000C458DF91CF911F9108950F931F93CF93CD
:10044000DF93C0E0D0E00EEF17E0C8010C2E02C031
:10045000959587950A94E2F781700E940202219691
:10046000CC30D10591F7DF91CF911F910F91089575
:100470000F931F93CF93DF93C0E0D0E001E018E02B
:10048000C8010C2E02C0959587950A94E2F78170F9
:100490000E9402022196CC30D10591F7DF91CF91D5
:1004A0001F910F9108950F931F93CF93DF93C0E097
:1004B000D0E001E010E0C8010C2E02C0880F991FA7
:1004C0000A94E2F780780E9402022196C830D10592
:1004D00091F7DF91CF911F910F9108950F931F9383
:1004E000CF93DF93C0E0D0E007E310E0C8010C2E0B
:1004F00002C0880F991F0A94E2F780780E940202D6
:100500002196C830D10591F7DF91CF911F910F91BE
:1005100008950F931F93CF93DF93C0E0D0E002E1E3
:1005200010E0C8010C2E02C0959587950A94E2F759
:1005300081700E9402022196C630D10591F7DF91A9
:10054000CF911F910F9108950E9438020E94890255
:100550000E9453020E941D0208950F931F93CF9390
:10056000DF93C0E0D0E00AE110E0C8010C2E02C029
:10057000959587950A94E2F781700E940202219670
:10058000C630D10591F7DF91CF911F910F9108955A
:100590000E9438020E94AD020E946E020E941D025B
:1005A00008950E94C8020E94A4020895CF93DF9389
:1005B000AAECB1E052E05C93E0E2F0E0E4911C923E
:1005C00020E032E0E901EC875C93E1E2F0E0E491C5
:1005D0001C92ED875C93E4E2F0E0E4911C9280E4ED
:1005E00092E0EC01EC875C93E5E2F0E0E4911C9290
:1005F000ED87F901118240E24283548351E0508338
:1006000019824A835C83588350A348E141A350A7D1
:1006100040E141A758A340E349A350AB88E381AB35
:10062000DF91CF910895AAECB1E092E09C93E82F7E
:10063000F0E0E4911C928E2F0895E0E0F2E091E06A
:1006400090A388E181A390A780E181A70895E0E4C9
:10065000F2E081E080A380E381A30895E0E0F2E08E
:1006600081E080AB88E381AB0895809100028061D6
:10067000809300028091060282FFFCCF80910602E7
:100680008460E0E0F2E0868380911402909115028C
:10069000845C9940CCF480917C3C90917D3C0196A7
:1006A00080937C3C90937D3C039711F40E949C4D79
:1006B00080917C3C90917D3C815D92404CF0109209
:1006C0007C3C10927D3C089510927C3C10927D3CC5
:1006D0000895FC018032910540F4E650FF4FEE0F83
:1006E000FF1F0590F491E02D199480E0089580E0BB
:1006F00090E059C081E090E056C082E090E053C0A5
:1007000083E090E050C084E090E04DC085E090E050
:100710004AC086E090E047C087E090E044C088E0AF
:1007200090E041C089E090E03EC08AE090E03BC0AC
:100730008BE090E038C08CE090E035C08DE090E038
:1007400032C08EE090E02FC08FE090E02CC080E1BE
:1007500090E029C081E190E026C082E190E023C0D2
:1007600083E190E020C084E190E01DC085E190E04D
:100770001AC086E190E017C087E190E014C088E1DC
:1007800090E011C089E190E00EC08AE190E00BC0DA
:100790008BE190E008C08CE190E005C08DE190E035
:1007A00002C08EE190E00E94AE0408958FE190E0D7
:1007B0000E94AE040895FC018032910508F06BC0E0
:1007C000E65EFE4FEE0FFF1F0590F491E02D1994A9
:1007D00080E090E059C081E090E056C082E090E077
:1007E00053C083E090E050C084E090E04DC085E0CD
:1007F00090E04AC086E090E047C087E090E044C0C7
:1008000088E090E041C089E090E03EC08AE090E05E
:100810003BC08BE090E038C08CE090E035C08DE0CC
:1008200090E032C08EE090E02FC08FE090E02CC0CE
:1008300080E190E029C081E190E026C082E190E073
:1008400023C083E190E020C084E190E01DC085E1F9
:1008500090E01AC086E190E017C087E190E014C0F4
:1008600088E190E011C089E190E00EC08AE190E05B
:100870000BC08BE190E008C08CE190E005C08DE1F9
:1008800090E002C08EE190E00E94740408958FE130
:1008900090E00E9474040895DF93CF93CDB7DEB744
:1008A000C258D040CDBFDEBF99838A8390E09E01BD
:1008B0002D5F3F4FE92FF0E0D901AE0FBF1FE60FCC
:1008C000F71F80818C939F5F9038A1F780E5BE0170
:1008D0006F5F7F4F42E80E941778CE57DF4FCDBF42
:1008E000DEBFCF91DF910895DF93CF9300D0CDB7D6
:1008F000DEB7DE011196E0E0F0E223E001900D9218
:100900002150E1F799838A836B8380E5BE016F5F95
:100910007F4F43E00E9417782396CDBFDEBFCF9173
:10092000DF910895DF93CF930F920F92CDB7DEB78B
:1009300099838A8380E5BE016F5F7F4F42E00E940A
:10094000177880E568E00E9455789C012F5F3F4F43
:10095000C9010F900F90CF91DF910895DF93CF934E
:100960000F920F92CDB7DEB799838A8380E5BE01DF
:100970006F5F7F4F42E00E94177880E561E00E9440
:100980005578FC0181810F900F90CF91DF910895F0
:10099000CF93DF93C0E0D0E0CE016BE00E947404FF
:1009A0008AE090E00E94CD582196C032D105A1F78F
:1009B000DF91CF9108958BECE0E5F0E0828388E051
:1009C000809350008091510083FFFCCF88ED84BF5D
:1009D00083E080934000089588ED84BF8BE280938C
:1009E00080000895A89508950E94C8040E94A34617
:1009F0000E94AC4A0E94CB430E94EF1008950E94CF
:100A0000DB040E94AB520E94D60278940E94827945
:100A10000E9457770E949F770E94EA220E94E8581E
:100A20000E9458240E94E8580E9449320E94F4040F
:100A300088ED84BF8BE2809380000E9420440E9456
:100A4000D1020E942C090E944B4C0E94E85889E177
:100A500090E00E94615A81E190E00E94A30604C0E8
:100A60000E947B5A882321F40E94A7050E97C1F7A4
:100A70000E94F25982E090E00E94205B089580E697
:100A800060E00E94D54280E06FEF0E94D54281E095
:100A90006FEF0E94D54280E260E00E94D54281E281
:100AA00060E00E94D54286E660E00E94D54208954B
:100AB000EF92FF920F931F93DF93CF930F92CDB7D7
:100AC000DEB7EBE8FCE311922CE3E539F207D9F746
:100AD0008CE20E94374380FF2EC085E60E94374398
:100AE000182F1F7010938B3C81E60E943743809330
:100AF0008C3C86E60E94374380938D3C93E0012F27
:100B000010E00F5F1F4F0DC0892F8C5999830E94F1
:100B10003743EBE8FCE3EE0EFF1EF701808399817B
:100B20009F5FE92EFF240E151F0574F78CE260E02D
:100B30000E94D54202C010928B3C8BE89CE30F9040
:100B4000CF91DF911F910F91FF90EF9008950E9438
:100B50005805FC018081882309F45CC082818D30B6
:100B6000C9F18E3040F4823029F1833059F181305F
:100B700009F050C017C0803109F444C0813120F41D
:100B80008E3009F047C006C08231A1F1833109F0EF
:100B900041C028C08091883C8F5F8093883C2EE0C4
:100BA00030E03AC08091883C8F5F8093883C21E0A0
:100BB00030E032C08091883C8F5F8093883C22E097
:100BC00030E02AC08091883C8F5F8093883C23E08E
:100BD00030E022C08091883C8F5F8093883C2DE07C
:100BE00030E01AC08091883C8F5F8093883C23E17D
:100BF00030E012C08091883C8F5F8093883C22E176
:100C000030E00AC08091883C8F5F8093883C20E16F
:100C100030E002C02FE030E0C9010895FF920F9349
:100C20001F93CF93DF938C01FC01F08085E36F2D40
:100C30000E94D54281E3F80161810E94D54282E39E
:100C400060E00E94D542E80100E007C0FA94802FDE
:100C50008A5C69810E94D5420F5F2196FF20B1F71F
:100C600080E368E00E94D54224C080E30E943743BD
:100C7000807F31F01092893C10928A3C81E023C041
:100C80008091893C90918A3CF3E0893E9F0764F013
:100C90001092893C10928A3C8DE390E060E070E015
:100CA0000E94EE3982E00FC001968093893C9093B8
:100CB0008A3C8CE20E94374382FFD7CF1092893C56
:100CC00010928A3C80E0DF91CF911F910F91FF90AD
:100CD0000895DF93CF9300D0CDB7DEB791E099832D
:100CE0008A838EE08B83CE0101960E940E068AE0F5
:100CF00090E00E94615A06C00E947B5A882311F03E
:100D000080E005C00E94A705892BB1F381E02396FE
:100D1000CDBFDEBFCF91DF910895DF93CF9300D099
:100D20000F92CDB7DEB791E099839A8399E09B83C8
:100D30008C83CE0101960E940E062496CDBFDEBFA5
:100D4000CF91DF910895DF93CF9300D0CDB7DEB779
:100D500091E099839A838B83CE0101960E940E06BF
:100D60002396CDBFDEBFCF91DF910895CF92DF9262
:100D7000FF920F931F93DF93CF93CDB7DEB7C05889
:100D8000D040CDBFDEBF8230910561F410927F3C30
:100D900084E690E00E94615A83E190E00E94A306FD
:100DA00081E01CC0019709F07BC080917F3C8130BD
:100DB000C1F40E947B5A882319F08BE080937F3C1A
:100DC0000E94A705439709F06BC084E690E00E945B
:100DD000615A83E190E00E94A30682E080937F3C09
:100DE0005FC0823009F05CC000E010E06E01089442
:100DF000C11CD11C81E162E3A8010E942A2AFF24C0
:100E000006C00E947B5A882311F08CE026C00E9405
:100E10005805AC01FC018081882399F3DA018F2DFC
:100E200090E0F601E80FF91F9C01285F3F4F2C0D61
:100E30003D1D12968C91129781931196E217F3073C
:100E4000C1F7002369F4FF2059F4FA0182818C3044
:100E500039F08381843921F08DE080937F3C22C07A
:100E600084E690E00E94615A83E190E00E94A3062C
:100E7000F8E0FF0E80E8F81651F6A8950F5F1F4FB7
:100E800080E0902FB6010E944C040032110509F059
:100E9000B1CF84E080937F3C8EE090E00E94A30677
:100EA00080917F3CC058DF4FCDBFDEBFCF91DF9137
:100EB0001F910F91FF90DF90CF900895CF93DF9314
:100EC000EB0182309105D9F41092833C61307105B9
:100ED00060F06330710528F06330710531F482E011
:100EE00001C081E08093803C02C01092803C89E187
:100EF00090E00E94615ACE010E94A306C2C00197F1
:100F000009F0BFC09091803C892F8150823008F059
:100F10003FC00E947B5A8823B1F08091833C8F5F51
:100F20008093833C853010F08AE0A6C08091803C9D
:100F3000823019F483E090E004C0813021F482E033
:100F400090E00E94A3060E94A705833031F08D3007
:100F5000E1F0823009F095C006C08091803C82307B
:100F600091F484E005C08091803C813061F483E09D
:100F70008093803C86E090E00E94A30689E190E0A7
:100F80000E94615A7EC08DE077C01092833CF6CFFC
:100F9000892F83508230C8F50E947B5A882369F0DC
:100FA0008091833C8F5F8093833C853010F08BE091
:100FB00063C086E090E00E94A3060E945805FC01F1
:100FC0008081882309F45DC08281863009F059C090
:100FD0001092833C8381982F80FF0AC08091803CCF
:100FE000833031F485E08093803C84E090E0C4CF8E
:100FF00091FF47C08091803C843009F042C086E078
:101000008093803C85E090E0B7CF95509230B8F562
:101010000E947B5A8823B1F08091833C8F5F80933C
:10102000833C853010F08CE027C08091803C853077
:1010300019F484E090E004C0863021F485E090E06B
:101040000E94A3060E945805FC0180818823C9F0F4
:101050008281843041F483818093813C84818093B8
:10106000823C87E009C0853061F483818093813CB4
:1010700084818093823C88E08093803C02C00E94FF
:101080008B5A80E89CE3DF91CF91089582309105DF
:1010900069F41092873C1092843C89E190E00E94B0
:1010A000615A8CE090E00E94A30628C0019731F5B8
:1010B0000E947B5A882371F08091873C8F5F8093D8
:1010C000873C853018F08BE08093843C8CE090E086
:1010D0000E94A3060E945805FC018081882371F0BC
:1010E00082818C3059F483818093853C8481809304
:1010F000863C81E08093843C0E948B5A84E89CE388
:1011000008956F927F928F929F92AF92BF92CF92EB
:10111000DF92FF920F931F93DF93CF93CDB7DEB78C
:101120002A97CDBFDEBFDE011196E3E0F0E22AE0B0
:1011300001900D922150E1F78230910561F41092F7
:101140007E3C84E690E00E94615A82E190E00E9439
:10115000A30681E018C0019709F06BC080917E3C26
:101160008130A1F40E947B5A882319F08BE0809390
:101170007E3C0E94A705429709F05BC084E690E0A0
:101180000E94615A82E080937E3C53C0823009F015
:1011900050C000E010E023E0622E712C6C0E7D1E2A
:1011A0009BE0892E912C8C0E9D1E5E010894A11C43
:1011B000B11CA89581E162E3A8010E942A2A0F5F71
:1011C0001F4FD02ECC24FF248F2D90E08C299D29F9
:1011D0000E949204DC01F3018D918193E815F905D9
:1011E000D9F7C5010E940E0684E690E00E94615A7C
:1011F00004C00E947B5A882349F40E945805FC01D0
:1012000080818823B1F38281823121F08CE0809348
:101210007E3C11C088E0F80E80E8F816A9F600328E
:10122000110539F684E080937E3C8EE090E00E94C8
:10123000A30680917E3C2A96CDBFDEBFCF91DF9181
:101240001F910F91FF90DF90CF90BF90AF909F9034
:101250008F907F906F9008950E9469430E943F0590
:101260008FE065E00E94D5420895CF93DF93C82FA9
:10127000D0E080FF06C080E166E848E050E00E94D0
:10128000AB25CE0186709070892B61F086E06CE210
:1012900046E023E20E94683186E06DE241E050E0E2
:1012A0000E944E26C3FF0BC081E161E041E050E0A7
:1012B0000E944E2680E090E060E00E94BA34C4FFB5
:1012C0000BC081E16AE541E050E00E944E2682E0D9
:1012D00090E060E00E94BA34DF91CF910895EF92E0
:1012E000FF920F931F93CF93DF93C82F80FD02C00F
:1012F000EE240FC089E190E00E94CD48082F0E94A3
:10130000E045EE2490E010E00817190714F4EE24ED
:10131000E394C1FF19C08FE090E00E94CD48F82E01
:1013200080E190E00E94CD48082F0E94C24E3F2DE0
:1013300020E010E0202B312B281739071CF482E025
:10134000E82A02C08DEFE822C2FF19C08DE090E0CC
:101350000E94CD48F82E8EE090E00E94CD48082FE4
:101360000E94C24E3F2D20E010E0202B312B82172F
:1013700093071CF484E0E82A02C08BEFE822C3FF45
:101380000DC08CE090E063E170E00E942250C097B5
:1013900019F488E0E82A02C087EFE8228E2DDF9159
:1013A000CF911F910F91FF90EF90089583E190E00E
:1013B0000E94C75283E190E00E947A2280E40E945A
:1013C000055308958091953C8F5F8093953C8230C2
:1013D00089F48BE190E00E94CD48882311F00E94AF
:1013E000D60980E090E060E141E050E00E94E747EC
:1013F0000E949C4D8091953C8B3F10F01092953C43
:1014000008958091963C8F5F8093963C823089F45A
:101410008BE190E00E94CD48882311F00E94D6090C
:1014200080E090E068E041E050E00E94E7470E94E1
:101430009C4D8091963C8B3F10F01092963C089505
:101440008091973C8F5F8093973C823089F48AE14A
:1014500090E00E94CD48882311F00E94D60980E0D8
:1014600090E064E041E050E00E94E7470E949C4D1C
:101470008091973C8B3F10F01092973C08958A30F2
:10148000910591F08B30910548F486309105D1F0AB
:101490008630910510F1089700F114C08D30910548
:1014A00088F08D309105C9F460E070E041E150E0D2
:1014B0000E94C118089799F485E190E00E94CD48F8
:1014C000882369F484E00E9435090E94200A80E1A3
:1014D0000E94055388E00E94055381E0089580E052
:1014E00008958091983C8F5F8093983C823089F476
:1014F0008AE190E00E94CD48882311F00E94D6092D
:1015000080E090E062E041E050E00E94E7470E9406
:101510009C4D8091983C8B3F10F01092983C089520
:10152000CF93DF93EC0180919A3C882309F043C06C
:1015300082E00E9435090E94710ACA30D10501F18A
:10154000CB30D10548F4C830D105C1F0C930D10540
:1015500060F5269771F529C0CC30D10531F1CC303A
:10156000D10520F0CD30D10521F50AC08AE090E008
:101570000E94CD488823E9F480E818C088E016C0AE
:10158000CE0160E070E041E150E00E94C118089790
:1015900041F485E190E00E94CD48882311F482E077
:1015A00005C00E94A65180E101C080E2E0E0F7E0C2
:1015B000858381E058C0813009F058C08EE390E007
:1015C0000E94F559882309F499C0CA30D10549F120
:1015D000CB30D10550F4C830D105E9F0C930D10580
:1015E000D8F5269709F03EC037C0CC30D105A1F11F
:1015F000CC30D10520F0CD30D105A1F512C08AE064
:1016000090E00E94CD48882369F5E0E0F7E080E8AB
:10161000868380E426C0E0E0F7E088E0868384E00B
:1016200020C0CE0160E070E041E150E00E94C118AE
:10163000089761F485E190E00E94CD48882331F459
:10164000E0E0F7E082E0868381E00BC0E0E0F7E0D5
:1016500080E1868380E205C0E0E0F7E080E28683F7
:1016600080E1858382E080939A3C48C0823009F013
:1016700045C08EE390E00E94F559882309F43EC0EE
:10168000CA30D10501F1CB30D10548F4C830D105BD
:10169000C1F0C930D10550F5269761F527C0CC308F
:1016A000D10521F1CC30D10520F0CD30D10511F597
:1016B0000AC08AE090E00E94CD488823D9F480E4F3
:1016C00016C084E014C0CE0160E070E041E150E05B
:1016D0000E94C118089741F485E190E00E94CD482E
:1016E000882311F481E003C080E201C080E1E0E0E2
:1016F000F7E0868310929A3C81E001C080E0DF91A0
:10170000CF91089580919B3C882369F482E00E94E8
:1017100035090E94710A0E94A65180E1E0E0F7E0DD
:10172000858381E00FC0813089F487E290E00E94D8
:10173000F5598823D9F0E0E0F7E080E1868380E284
:10174000858382E080939B3C80E00895823071F431
:101750008EE390E00E94F559882341F080E2E0E0BA
:10176000F7E0868310929B3C81E0089580E0089525
:101770008091993C8F5F8093993C823059F40E940C
:10178000D60980E090E061E041E050E00E94E74748
:101790000E949C4D8091993C8B3F10F01092993C97
:1017A0000895CF92DF92FF920F931F93DF93CF9311
:1017B00000D0CDB7DEB78C01662311F060939C3C5E
:1017C00080919C3C80FD03C06801FF240FC081E034
:1017D0000E9435090E94B80B80919C3C8E7F8093BB
:1017E0009C3CFF24F39497E0C92ED12C80919C3C23
:1017F00081FF14C00730110519F40E94820B03C049
:10180000C8010E94900A882311F4FF2039F08091CA
:101810009C3C8D7F80939C3CFF24F39480919C3C66
:1018200082FF0CC0C8010E943F0A882339F08091D2
:101830009C3C8D7F80939C3CFF24F39480919C3C46
:1018400083FF19C088E00E9435090E94010AC8017F
:101850000C97029730F00930110519F00A30110584
:1018600019F487E0C82ED12C80919C3C877F80930F
:101870009C3CFF24F39480919C3C84FF0CC080E14D
:101880000E9435090E94E20980919C3C8F7E8093E2
:101890009C3CFF24F394C982DA826C2D7A818F2DCF
:1018A00090E02396CDBFDEBFCF91DF911F910F91C6
:1018B000FF90DF90CF90089587E090E00E94C7529C
:1018C00088E090E00E947A2280E40E940953089503
:1018D000AF92BF92CF92DF92FF920F931F93DF934D
:1018E000CF9300D000D0CDB7DEB78C016B015A0189
:1018F0008A309105B1F08B30910550F48630910516
:1019000079F18630910590F18830910578F128C001
:101910008C30910529F18C309105B8F08D3091050E
:1019200029F5C80160E070E041E150E00E94C11873
:101930000897E1F485E190E00E94CD488823B1F456
:1019400084E00E946F09F82E12C08AE090E00E94A5
:10195000CD48882329F484E00E946F09F82E01C045
:10196000FF2484E00E946F09F82A01C0FF248BE065
:101970000E946F09F82A81E090E00E94C752FF2080
:10198000A9F08091A03C882389F486E290E00E942F
:10199000F559882359F081E08093A03C00939D3C49
:1019A00010939E3C83E090E00E94F5598091A03C0A
:1019B000882301F181E080939F3C80919D3C909130
:1019C0009E3C6F2D0E94D10B6C837D838E83DE0144
:1019D0001196FE01349683E001900D928150E1F75B
:1019E0008B81882319F401E310E004C009811A8176
:1019F0001092A03CFF20A9F480919F3C882389F09D
:101A00008091A03C882369F410929F3C0E945C0C5A
:101A100083E090E00E94F559C801B601A5010E943B
:101A2000461EC8012696CDBFDEBFCF91DF911F9124
:101A30000F91FF90DF90CF90BF90AF9008959C01E1
:101A40008617970714F42F5F3F4FC90108959C0133
:101A50006817790714F421503040C90108956F9236
:101A60007F928F929F92AF92BF92CF92DF92EF922E
:101A7000FF920F931F938130910571F08130910592
:101A800028F0029779F080E0882411C082E08093EA
:101A9000182031E1832E0BC081E18093182025E1CD
:101AA000822E05C086E1809318209AE1892E082FA6
:101AB0009924AA24CC247724662451C010E0802FD6
:101AC000612F40E050E00E947A48D82E802F612F8D
:101AD00041E050E00E947A48E82E802F612F42E0DA
:101AE00050E00E947A48F82E802F612F43E050E0AA
:101AF0000E947A48B82E802F612F44E050E00E9467
:101B00007A48DD2039F1CF14E0F0AE1410F4FC1463
:101B1000C0F49D1420F4EA1410F0FC1490F47B142B
:101B200030F4D91420F0EA1410F0FC1450F46816C4
:101B300088F4B71478F0D91468F0EA1458F0FC145B
:101B400048F000931820109319209D2CAE2CCF2C18
:101B50007B2C682E1F5F143009F0B1CF0F5F081582
:101B600008F4ACCF88E190E21F910F91FF90EF90C5
:101B7000DF90CF90BF90AF909F908F907F906F90AD
:101B800008956F927F928F929F92AF92BF92CF9261
:101B9000DF92EF92FF920F931F938130910571F0C6
:101BA0008130910528F0029779F080E0882411C0F7
:101BB00082E080931A20B1E18B2E0BC081E18093EB
:101BC0001A20A5E18A2E05C086E180931A20FAE149
:101BD0008F2E082FEFE19E2E7CE0A72E6CE3C62E01
:101BE00057E1752E4BE3642E51C010E0802F612F1A
:101BF00040E050E00E947A48D82E802F612F41E0CB
:101C000050E00E947A48E82E802F612F42E050E099
:101C10000E947A48F82E802F612F43E050E00E9406
:101C20007A48B82E802F612F44E050E00E947A4815
:101C3000DD2039F1FC14E0F0EA1410F4CF14C0F404
:101C4000D91420F4AE1410F0CF1490F4B71430F47B
:101C50009D1420F0AE1410F0CF1450F4861588F4C3
:101C60007B1478F09D1468F0AE1458F0CF1448F04F
:101C700000931A2010931B209D2CAE2CCF2C7B2C74
:101C8000682E1F5F143009F0B1CF0F5F081508F4FC
:101C9000ACCF8AE190E21F910F91FF90EF90DF901F
:101CA000CF90BF90AF909F908F907F906F9008954E
:101CB0000F931F93DF93CF930F92CDB7DEB7813091
:101CC000910569F08130910528F0029769F080E074
:101CD00090E00EC082E080931C2091E109C081E178
:101CE00080931C2095E104C086E180931C209AE13A
:101CF000082F1DC010E010931D20802F612F40E0A1
:101D000050E099830E947A489981882361F01F5F8F
:101D1000143089F710921E2080911C208F5F8093D1
:101D20001C200F5F04C081E080931E2002C00917B1
:101D300008F38CE190E20F90CF91DF911F910F910A
:101D40000895CF92DF92FF920F931F93CF93DF936B
:101D5000EC018B016B0185E0F82E8F2D90E0F601F0
:101D600061916F010E945633F394FBE0FF16A9F7CF
:101D70000C0F1D1FF8016081C230D105A1F0C330E6
:101D8000D10528F4209749F02197B9F409C0C33050
:101D9000D10561F0249789F40CC080E090E00BC07D
:101DA00081E090E008C082E090E005C083E090E030
:101DB00002C084E090E00E945633DF91CF911F91E2
:101DC0000F91FF90DF90CF9008951F93182F8FE011
:101DD0006DE24FE050E00E944E268FE06AE54CE055
:101DE00050E00E94AB258FE068E747E050E00E949A
:101DF000F126113061F0113018F01230A9F40EC044
:101E00008FE06DE245E050E00E944E260DC08FE06D
:101E10006AE541E050E00E94AB2506C08FE068E72C
:101E200043E050E00E94F1261F91089583E06DE7A2
:101E30004DE050E20E94A62E0895DF92EF92FF92AD
:101E40000F931F93DF93CF9300D00F92CDB7DEB7E0
:101E5000F82E8B0119821A821B821C828FE067E2A6
:101E600044E023E30E94683180E168E242E150E20D
:101E70000E94A62EFE0131969E012B5F3F4FD80196
:101E80008D918D018193E217F307C9F7D9808D2DCC
:101E90000E944633EA808E2D0E9436339C8180E07A
:101EA0002B81022F10E0082B192B80E168E4A80198
:101EB0000E94332FB1E0FB1651F0FB1620F082E0B8
:101EC000F816A1F408C08D2D0E9426330FC08E2D68
:101ED0000E9416330BC08FE066E444E024E10E94C8
:101EE000A73180E168E4A8010E947B2D2496CDBF34
:101EF000DEBFCF91DF911F910F91FF90EF90DF90A8
:101F00000895DF92EF92FF920F931F93DF93CF9389
:101F100000D00F92CDB7DEB7F82E8B0119821A824E
:101F20001B821C828FE066E444E024E10E94683159
:101F3000FE0131969E012B5F3F4FD8018D918D019F
:101F40008193E217F307C9F7D9808D2D0E9446339C
:101F5000EA808E2D0E9436339C8180E02B81022FF7
:101F600010E0082B192B80E168E4A8010E94332FB0
:101F7000B1E0FB1651F0FB1620F082E0F816A1F458
:101F800008C08D2D0E9426330FC08E2D0E9416335F
:101F90000BC08FE066E444E024E10E94A73180E1B9
:101FA00068E4A8010E947B2D2496CDBFDEBFCF91AF
:101FB000DF911F910F91FF90EF90DF90089588239C
:101FC00019F0813031F513C08FE060E04DE050E052
:101FD0000E944E268FE067E244E02FE10E94A73185
:101FE00080E168E242E150E20E94EE2C08958FE029
:101FF00060E043E050E00E944E268FE067E244E05C
:102000002FE10E94683180E168E242E150E20E94E3
:10201000A62E0895CF92DF92EF92FF920F931F9317
:10202000CF93DF937C016B01FC0100811181FB01E7
:10203000C081D18180E00E9452448093A23C81E023
:1020400090E00E94205B282F9091A23C8091A13CBF
:10205000981711F4222381F09093A13C209739F432
:102060000115110529F001501040CCE3D0E0219773
:1020700083E090E00E94205B209789F40115110510
:1020800071F483E090E00E94205BF70110821182DE
:1020900085E090E0F6018083918381E007C0F7013D
:1020A00000831183F601C083D18380E0DF91CF915B
:1020B0001F910F91FF90EF90DF90CF9008950F93B5
:1020C0001F938C010E9431459C010430110531F4AD
:1020D00001960E94A6430E9431459C01C9011F91AF
:1020E0000F9108950F931F93CF93DF938C01C0E05E
:1020F000D0E0F801EC0FFD1F8081882319F08C2FB0
:102100000E94EA362196CB30D10599F7DF91CF9125
:102110001F910F9108950F931F93082F162F0E9460
:102120006E3586E0189FB0011124635810E0015FFE
:102130001F4F83E0A8010E94032E1F910F91089565
:1021400088319105B1F08931910518F40B97E1F5CB
:1021500017C08133910519F0C397B1F52CC0809158
:10216000A53C9091A63C60E040E050E00E94E7472B
:1021700008951092A53C1092A63C1092A33C08959D
:102180008091A43C861739F08091A33C8F5F8093A7
:10219000A33C6093A43C8091A33C8823A9F01092B7
:1021A000A33C8091A53C9091A63C01968093A53CD0
:1021B0009093A63C08958091A53C9091A63C0197F0
:1021C0008093A53C9093A63C089590E005C0815073
:1021D000823008F480E19F5F9617C8F30895AF92AC
:1021E000BF92CF92DF92EF92FF920F931F9388E0FE
:1021F00090E00E947A220E94E4760E94493282E0B6
:1022000060E04FE150E20E94A62E85E060E046E2E9
:1022100050E20E94A62E8AE060E04DE250E20E9469
:10222000A62E8DE060E046E350E20E94A62E82E1F9
:1022300060E04FE350E20E94A62E85E160E04CE4AE
:1022400050E20E94A62E8AE290E00E94CD48482FDC
:1022500082E06CE350E00E94332F8BE290E00E941A
:10226000CD48482F85E06CE350E00E94332F88E290
:1022700090E00E94CD48482F82E064E650E00E9442
:10228000332F89E290E00E94CD48482F85E064E634
:1022900050E00E94332F0E94F2040E94FA758C01D4
:1022A00094E0159507959A95E1F70E941A767C01BE
:1022B00084E0F594E7948A95E1F7C7010E943A76A5
:1022C0005C01C8010E9461766C018AE064E6A801A5
:1022D0000E94332F8DE064E6A7010E94332F82E134
:1022E00064E6A6010E94332F85E164E6A501D1CF03
:1022F000DF92EF92FF920F931F93CF93DF93EC0146
:10230000062F142F8130910571F08130910530F046
:102310008230910569F0DD24EE240EC0F2E0DF2E5C
:10232000E0E1EE2E09C071E1D72E64E1E62E04C093
:1023300056E1D52E49E1E42E35E0F32EC130D1052A
:1023400069F0C130D10520F0C230D10591F40CC044
:102350008F2D602F412F0E94D7380BC08F2D602FFB
:10236000412F0E943F3805C08F2D602F412F0E94C2
:10237000BD37112329F401500D1508F40E2D14E07A
:10238000115082E0F80E8DE0F816C1F62DE0F22E25
:10239000C130D10569F0C130D10520F0C230D1057E
:1023A00091F40CC08F2D602F412F0E94D7380BC0A5
:1023B0008F2D602F412F0E943F3805C08F2D602F39
:1023C000412F0E94BD37112329F401500D1508F447
:1023D0000E2D14E082E0F80E85E1F81611F0115090
:1023E000D7CFDF91CF911F910F91FF90EF90DF90AA
:1023F000089584E061E048E127E80E94683108958B
:10240000EF92FF920F931F93DF93CF930F92CDB76D
:10241000DEB77C0182E090E00E942F0DFC0110816C
:102420000181E114F10429F081E0E816F104D1F50D
:102430000DC084E061E048E127E80E94683182E055
:1024400090E0612F402F0E9478112CC084E061E061
:1024500048E127E80E946831612F6150623008F43A
:1024600060E1162F1150123008F410E195E0892F29
:10247000612F402F99830E94BD379981002339F441
:102480001150163118F404E019E101C004E09E5F18
:102490009D3011F00150EBCF8FE061E049E550E253
:1024A0000E94A62E0F90CF91DF911F910F91FF9068
:1024B000EF900895EF92FF920F931F93DF93CF93C6
:1024C0000F92CDB7DEB77C0181E090E00E942F0D26
:1024D000FC0110810181E114F10429F081E0E8168A
:1024E000F104D1F50DC084E061E048E127E80E94E5
:1024F000683181E090E0612F402F0E9478112CC05C
:1025000084E061E048E127E80E946831612F615072
:10251000623008F460E1162F1150123008F410E117
:1025200095E0892F612F402F99830E943F38998130
:10253000002339F41150113118F404E014E101C002
:1025400004E09E5F9D3011F00150EBCF8FE061E021
:1025500049E550E20E94A62E0F90CF91DF911F9186
:102560000F91FF90EF900895FF920F931F93CF93D9
:10257000DF93EC0180E090E00E942F0DFC011081C0
:10258000F180C330D10509F442C0C430D10530F424
:10259000C130D105D1F0229700F510C0C530D1056A
:1025A00009F453C0C530D10508F440C0C630D10588
:1025B00009F45AC0279709F096C06BC084E061E027
:1025C00048E127E80E9468315DC084E061E048E1AD
:1025D00027E80E946831612F0FC084E061E048E184
:1025E00027E80E946831612F6150623008F460E191
:1025F0006150623008F460E16150623008F460E1DB
:102600006150623008F460E180E090E03EC084E018
:1026100061E048E127E80E94683180E01150123003
:1026200008F410E18F5F8630C9F72CC084E061E0C8
:1026300048E127E80E94683180E01150123008F428
:1026400010E18F5F8830C9F71DC084E061E048E188
:1026500027E80E94683180E01150123008F410E140
:102660008F5F8A30C9F70EC084E061E048E127E857
:102670000E94683180E01150123008F410E18F5F41
:102680008C30C9F780E090E0612F4F2D0E947811C7
:102690002AC084E061E048E127E80E94683180E0D8
:1026A0001150123008F410E18F5F8E30C9F705E049
:1026B000802F612F4F2D0E94D738FF2049F41150F1
:1026C000123020F4B4E0FB2E10E102C0A4E0FA2E98
:1026D0000E5F0D3011F0FA94EBCF8FE061E049E529
:1026E00050E20E94A62EDF91CF911F910F91FF9093
:1026F00008950F931F93CF93DF938C018091A73C94
:10270000882379F481E08093A73C0E94623785E0BA
:1027100090E080936820909369201092A83C1092DA
:10272000A93C0E94F2040E94ED580E947F74B801F7
:102730000E94AD5BEC010817190731F01092A73C1D
:102740000E9449328E010EC088E690E268EA7CE37E
:102750000E940A10882331F01092A73C0E9449324F
:1027600000E010E0C801DF91CF911F910F91089513
:102770009C01FB01DA0185E090E0808391831D924A
:102780001C9229323105B9F02A32310538F427324A
:10279000310559F028323105B1F40AC02A32310529
:1027A00069F02B32310579F40CC00E941E35089572
:1027B0000E94573C08950E943B3C08950E941F3C94
:1027C00008950E94E73B0895CF92DF92EF92FF9227
:1027D0000F931F93CF93DF938C017B016A0185E0F8
:1027E00090E0FB01808391830E947F74B8010E9476
:1027F0009D5EEC018E32910549F08F32910549F0D2
:102800008C32910551F40E948A5507C00E94D5541C
:1028100002C00E94B454CBE2D0E0CE018B97029765
:1028200058F0CE32D10541F0CF32D10529F0CE019A
:10283000B701A6010E94B813CE01DF91CF911F917D
:102840000F91FF90EF90DF90CF900895EF92FF925D
:102850000F931F93CF93DF938C017B010E947F74B2
:102860006AE270E00E94CE5FEC018A32910521F0AD
:10287000B801A7010E94B813CE01DF91CF911F913B
:102880000F91FF90EF900895EF92FF920F931F9397
:10289000CF93DF938C017B010E947F7469E270E02B
:1028A0000E945C60EC018932910521F0B801A7011A
:1028B0000E94B813CE01DF91CF911F910F91FF902D
:1028C000EF900895EF92FF920F931F93CF93DF93B2
:1028D0008C017B010E947F7468E270E00E94EA60D4
:1028E000EC018832910521F0B801A7010E94B813CC
:1028F000CE01DF91CF911F910F91FF90EF9008953E
:10290000EF92FF920F931F93CF93DF938C017B0184
:102910000E947F7467E270E00E94505EEC01873293
:10292000910521F0B801A7010E94B813CE01DF91F3
:10293000CF911F910F91FF90EF900895CF93DF9368
:10294000EC018932910589F18A32910550F4873280
:102950009105E9F08832910508F583309105D1F5AC
:1029600007C08A32910541F18033910598F52BC05B
:1029700085E090E080936A2090936B201092AA3CAF
:102980001092AB3C0E941E35C7E2D0E023C08AE61D
:1029900090E26AEA7CE30E9480141BC08AE690E21F
:1029A0006AEA7CE30E94621414C08AE690E26AEA52
:1029B0007CE30E9444140DC08AE690E26AEA7CE35C
:1029C0000E94261406C06AE670E24AEA5CE30E94AE
:1029D000E413EC010E94F2040E94F7588AE690E2A8
:1029E0006AEA7CE30E940A10882311F0C0E0D0E07C
:1029F000CE01DF91CF9108959C01FB01DA0185E0C2
:102A000090E0808391831D921C922431310509F45A
:102A100041C025313105A8F42031310579F121314A
:102A2000310540F42E30310519F12F30310509F010
:102A300045C021C02231310539F12331310538F546
:102A400020C02731310579F12831310538F425319D
:102A5000310519F12631310589F522C02A313105B8
:102A600041F12B31310541F12931310539F51EC0D4
:102A70000E946A3E08950E94513E08950E943E3E83
:102A800008950E94253E08950E94A53E08950E9443
:102A9000923E08950E94063E08950E94F33D0895D7
:102AA0000E947F3E08950E94AA3F08950E94B83E6A
:102AB00008950E94A63D08950E94933D0895EF92C7
:102AC000FF920F931F93CF93DF938C017B010E94A2
:102AD0007F746BE170E00E947861EC018B319105AD
:102AE00021F0B801A7010E94FC14CE01DF91CF9123
:102AF0001F910F91FF90EF900895EF92FF920F9327
:102B00001F93CF93DF938C017B010E947F746AE156
:102B100070E00E94AA66EC018A31910521F0B801AB
:102B2000A7010E94FC14CE01DF91CF911F910F915C
:102B3000FF90EF900895EF92FF920F931F93CF9322
:102B4000DF938C017B010E947F7469E170E00E9439
:102B50005A63EC010E94B945C931D10529F0CE0173
:102B6000B801A7010E94FC14CE01DF91CF911F9103
:102B70000F91FF90EF900895EF92FF920F931F93A4
:102B8000CF93DF937C018B018091AC3C882319F0BB
:102B9000C8E1D0E002C0C7E1D0E00E947F74BE016E
:102BA0000E94C968EC018831910509F049C081E2B1
:102BB00090E00E94CD48882349F08DE090E00E948B
:102BC0000F5685E090E00E940F5631C08091AC3CDA
:102BD000882379F481E08093AC3C84E090E0F701B5
:102BE0008083918388E790E0F801808391830E943D
:102BF000FF51F8014081518181E164E60E94332F49
:102C0000F80180819181892B21F51092AC3C8DE0F7
:102C100090E00E94DC4F85E090E00E94DC4F0E9433
:102C2000B85181E164E642E024E10E9468318FE01E
:102C300061E043E150E00E944E26C7E1D0E009C0C8
:102C40008731910531F01092AC3CB701A8010E9488
:102C5000FC14CE01DF91CF911F910F91FF90EF9067
:102C60000895EF92FF920F931F93CF93DF938C0100
:102C70007B010E947F7466E170E00E943C6AEC0177
:102C80008631910521F0B801A7010E94FC14CE0104
:102C9000DF91CF911F910F91FF90EF900895EF92E8
:102CA000FF920F931F93CF93DF938C017B010E94C0
:102CB0007F7465E170E00E940B6DEC018531910538
:102CC00021F0B801A7010E94FC14CE01DF91CF9141
:102CD0001F910F91FF90EF900895EF92FF920F9345
:102CE0001F93CF93DF938C017B010E947F7464E17B
:102CF00070E00E948C64EC018431910521F0B801F0
:102D0000A7010E94FC14CE01DF91CF911F910F917A
:102D1000FF90EF900895EF92FF920F931F93CF9340
:102D2000DF938C017B010E947F7463E170E00E945D
:102D30002B6EEC018331910521F0B801A7010E94AF
:102D4000FC14CE01DF91CF911F910F91FF90EF9076
:102D50000895EF92FF920F931F93CF93DF938C010F
:102D60007B010E947F7462E170E00E94F86BEC01CD
:102D70008231910521F0B801A7010E94FC14CE0117
:102D8000DF91CF911F910F91FF90EF900895EF92F7
:102D9000FF920F931F93CF93DF938C017B010E94CF
:102DA0007F7461E170E00E94F665EC01813191056C
:102DB00021F0B801A7010E94FC14CE01DF91CF9150
:102DC0001F910F91FF90EF900895EF92FF920F9354
:102DD0001F93CF93DF938C017B010E947F7460E18E
:102DE00070E00E94676FEC018031910521F0B8011D
:102DF000A7010E94FC14CE01DF91CF911F910F918A
:102E0000FF90EF900895EF92FF920F931F93CF934F
:102E1000DF938C017B010E947F746FE070E00E9461
:102E2000F370EC018F30910521F0B801A7010E94E9
:102E3000FC14CE01DF91CF911F910F91FF90EF9085
:102E40000895EF92FF920F931F93CF93DF938C011E
:102E50007B010E947F746EE070E00E944C5BEC018D
:102E60008E30910521F0B801A7010E94FC14CE011B
:102E7000DF91CF911F910F91FF90EF900895CF9325
:102E8000DF93EC018431910509F475C0853191051A
:102E9000E0F48031910509F452C08131910560F46C
:102EA0008E309105F1F18F30910508F041C08230EC
:102EB000910509F091C026C08231910509F44DC0F9
:102EC0008331910508F050C041C08831910509F463
:102ED00067C08931910548F48631910509F459C0DC
:102EE0008731910508F05CC04DC08A31910509F425
:102EF00065C08A31910508F45AC08B31910509F0FB
:102F00006BC063C085E090E080936C2090936D204F
:102F10001092AD3C1092AE3C0E946A3ECEE0D0E0F2
:102F20005BC08CE690E26DEA7CE30E94211753C0FF
:102F30008CE690E26DEA7CE30E9403174CC08CE6BD
:102F400090E26DEA7CE30E94E51645C08CE690E2D3
:102F50006DEA7CE30E94C7163EC08CE690E26DEA03
:102F60007CE30E94A91637C08CE690E26DEA7CE310
:102F70000E948B1630C08CE690E26DEA7CE30E94E2
:102F80006D1629C08CE690E26DEA7CE30E944F1634
:102F900022C08CE690E26DEA7CE30E9431161BC0F1
:102FA0008CE690E26DEA7CE30E94BC1514C08CE6CE
:102FB00090E26DEA7CE30E949B150DC08CE690E2E6
:102FC0006DEA7CE30E947D1506C08CE690E26DEA16
:102FD0007CE30E945F15EC010E94F2040E94F2580B
:102FE0008CE690E26DEA7CE30E940A10882331F0BF
:102FF000689711F40E945353C0E0D0E0CE01DF91F6
:10300000CF910895CF93DF93EC01CB01BA010E94D9
:103010000A10882341F080E060E045E050E00E9423
:103020005747C0E0D0E0CE01DF91CF9108959C01D9
:1030300062307105D1F481E190E00E94CD48809327
:10304000B53C882329F41092722085E190E008C0F5
:1030500081E08093B53C85E08093722087E090E02A
:1030600080937020909371200895809170209091AA
:1030700071206231710549F40E94A3348091B53CFE
:10308000609172200E94A8390895459709F478C08C
:103090006130710509F074C08091B63C9091B73CE5
:1030A0008217930739F12093B63C3093B73C809157
:1030B0007220882389F48CE3809372208091B53C40
:1030C000882319F081508093B53C4091B53C8DE048
:1030D00067E850E00E94782A80917220882319F0D6
:1030E000815080937220409172208DE063E950E01E
:1030F0000E94782A809170209091712088309105EB
:10310000F9F48091B53C8823D9F580917220882309
:10311000B9F587E090E0809370209093712082E170
:1031200090E00E94CD488093B53C1092722086E0DA
:1031300066E84BE050E00E94AB250E94A251089542
:103140000797F1F48091B53C8823D1F480917220E7
:103150008823B1F488E090E08093702090937120F0
:1031600081E190E00E94CD488093B53C109272209E
:1031700086E066E840E050E00E94AB250E94ED51F9
:1031800008950F931F93CF93DF93EC018B0142308F
:10319000510501F583E190E00E94CD488093B93C50
:1031A000882349F41092B83C85E190E08093732025
:1031B0009093742021C01092BA3C81E08093B93C76
:1031C00082E08093B83C87E090E0809373209093F6
:1031D0007420F8C04131510509F4F4C060917320A6
:1031E000709174204231510521F40E94273F87E0FD
:1031F000E5C06531710519F425E130E0E7C04F30D5
:10320000510599F46830710509F0DCC08D309105E5
:1032100021F08A30910509F0D5C0CE0168E070E058
:103220000E94273F0E943752CDC04330510559F4C8
:103230006830710509F0C6C068E070E00E94273F61
:103240000E942052BFC04130510509F0BBC0683018
:10325000710571F58133910559F18091B93C88234D
:1032600039F58091B83C882309F059C087E090E097
:10327000809373209093742086E190E00E94CD4863
:103280008093BA3C84E190E00E94CD488093B93CA1
:1032900082E08093B83CCE0167E070E00E94273F57
:1032A00087E068EB7CE30E94B8390E94205237C067
:1032B00067307105A1F5C133D10589F18091BA3C20
:1032C000882369F58091B93C882349F58091B83C01
:1032D000882329F5CD30D10519F0CA30D105F9F48C
:1032E00088E090E080937320909374201092BA3C11
:1032F00083E190E00E94CD488093B93C82E08093C6
:10330000B83C6091732070917420CE010E94273FD9
:1033100087E068EB7CE30E94B8390E9437528091C5
:103320007320909174208730910549F0CD30D105FC
:1033300019F02A9709F046C0089709F043C0809118
:10334000BB3C9091BC3C80179107E1F10093BB3CE2
:103350001093BC3C8091B83C882341F59091B93CD6
:10336000992321F48091BA3C882329F08CE380933F
:10337000B83C992379F49091BA3C992359F08CE3A5
:103380008093B93C91509093BA3C86E068EB7CE323
:103390000E94B8398091B93C882319F081508093FC
:1033A000B93C82E068EB7CE30E94B8398091B83C7C
:1033B000882319F081508093B83C81E068EB7CE36E
:1033C0000E94B8392091732030917420C901DF9197
:1033D000CF911F910F910895EF92FF920F931F933A
:1033E000CF93DF93EC017B014230510559F40E94E9
:1033F000EF3E8093BF3C9093C03C1092BD3C109236
:10340000BE3C28C14F30510551F48C30910521F05C
:103410008930910509F01EC10E94FF511BC1433044
:10342000510551F48C30910521F08930910509F056
:1034300011C10E94B8510EC14530510549F40E9496
:10344000783C8091BF3C6091BD3C0E94DE3902C156
:103450004130510509F0FEC08091BF3C9091C03CC5
:10346000892B09F09FC08091BD3C9091BE3C892B77
:1034700009F098C0CC30D105C1F0CD30D10540F471
:10348000C930D10591F0CA30D10509F08BC03AC0DE
:10349000CE31D10509F459C0CF31D10509F472C03C
:1034A000CD30D10509F07EC02DC0CE0161E070E0C5
:1034B0000E9422508C0165E070E00E9422500E9420
:1034C000B851C017D10741F0C80160E070E043E097
:1034D00050E00E94C118BFC0CC30D10519F4CDE036
:1034E000D0E005C0C930D10511F4CAE0D0E0CE016A
:1034F0000E94783CCE0160E070E04FE050E00E9416
:10350000C11817C0CE0160E070E043E050E00E94B7
:10351000C1180E94FF51CD30D10519F4CCE0D0E0A4
:1035200005C0CA30D10511F4C9E0D0E0CE010E9437
:10353000783CCE010E94EF3E8093BF3C9093C03C0C
:103540001092BD3C1092BE3C2DC08EE190E061E037
:1035500070E00E9422508EE190E065E070E00E94F1
:1035600022500E94B8518FE190E00E94EF3E80937C
:10357000BF3C9093C03C1092BD3C1092BE3CCFE14A
:10358000D0E010C00E94FF518EE190E00E94EF3E1B
:103590008093BF3C9093C03C1092BD3C1092BE3CC7
:1035A000CEE1D0E08091C13C9091C23CE816F90692
:1035B00049F1E092C13CF092C23C8091BD3C9091B7
:1035C000BE3C892BA1F4C133D10589F08CE390E096
:1035D0008093BD3C9093BE3C8091BF3C9091C03C99
:1035E000009729F001978093BF3C9093C03C809155
:1035F000BD3C9091BE3C009729F001978093BD3C63
:103600009093BE3CCE014E97029720F1C930D10570
:1036100031F0CC30D10519F0C133D10589F4609176
:10362000BD3C7091BE3C8091BF3C9091C03C0E94DB
:10363000D3408BE090E06091BF3C0E94A0100AC094
:103640006091BD3C7091BE3C8091BF3C9091C03C6C
:103650000E94AD408E01C801DF91CF911F910F9163
:10366000FF90EF9008950F931F93CF93DF93EB019B
:103670008A0182329105A1F18332910588F48E315D
:103680009105F1F08F31910520F44C9709F06AC053
:1036900062C080329105B9F0819709F063C01DC006
:1036A0008432910509F446C08432910508F43FC084
:1036B0008532910509F448C0869709F053C049C086
:1036C00089E090E002C08CE090E060E070E042E0D1
:1036D00050E00E94EC190E94FF518CE390E03DC045
:1036E0008FE062E045E028E70E94683181E16FE009
:1036F0004DE550E20E94A62E8FE065E542E150E0E4
:103700000E94AB258EE190E088839983F8011082B6
:1037100011824881598181E16CE70E94812FF80173
:103720004081518181E16EE80E94812F1BC00E947F
:10373000155211C00E94F151188219828AE090E05E
:10374000F801808391830EC00E94ED518EE190E0DC
:1037500004C00E94375285E090E088839983F80185
:1037600010821182DF91CF911F910F910895EF92F6
:10377000FF920F931F93CF93DF938C017B010E94E5
:103780007F7466E270E00E948F72B801A7010E9408
:103790000218EC018632910539F00E942052CE01C8
:1037A000B801A7010E94331BF80180819181F701C4
:1037B00060810E941440CE01DF91CF911F910F9143
:1037C000FF90EF900895EF92FF920F931F93CF9386
:1037D000DF938C017B010E947F7465E270E00E94A0
:1037E0008F72B801A7010E940218EC018532910581
:1037F00039F00E94A251CE01B801A7010E94331BEB
:10380000F80180819181F70160810E941440CE010E
:10381000DF91CF911F910F91FF90EF900895EF925C
:10382000FF920F931F93CF93DF938C017B010E9434
:103830007F7464E270E00E948F72B801A7010E9459
:103840000218EC018432910539F00E94A651CE0194
:10385000B801A7010E94331BF80180819181F70113
:1038600060810E941440CE01DF91CF911F910F9192
:10387000FF90EF900895EF92FF920F931F93CF93D5
:10388000DF938C017B010E947F7463E270E00E94F1
:103890008F72B801A7010E940218EC0183329105D2
:1038A00039F00E94CE51CE01B801A7010E94331B0E
:1038B000F80180819181F70160810E941440CE015E
:1038C000DF91CF911F910F91FF90EF900895EF92AC
:1038D000FF920F931F93CF93DF938C017B010E9484
:1038E0007F7462E270E00E948F72B801A7010E94AB
:1038F0000218EC018D31910591F481E08093B03C88
:10390000F801C083D1838AE390E0F701808391833B
:10391000F801808191816AE30E943F401EC082329B
:103920009105D9F08EE062E048E028E70E94683116
:103930008091B03C882311F00E948452CE01B801DE
:10394000A7010E94331BF80180819181F7016081FA
:103950000E943F401092B03C28C08091B03C882328
:10396000C9F40E94ED588091AF3C8F5F8093AF3CCB
:103970008D3731F481E16FE04DE550E20E94EE2C8D
:103980008091AF3C8A3F31F481E16FE04DE550E238
:103990000E94A62E8091B03C882339F0F8018081E6
:1039A0009181F70160810E941440CE01DF91CF9197
:1039B0001F910F91FF90EF900895EF92FF920F9358
:1039C0001F93CF93DF938C017B010E947F7461E290
:1039D00070E00E948F72B801A7010E940218EC01EA
:1039E0008132910521F0B801A7010E94331BF80133
:1039F00080819181F70160810E941440CE01DF91A6
:103A0000CF911F910F91FF90EF900895EF92FF9249
:103A10000F931F93CF93DF938C017B010E947F74E0
:103A200060E270E00E948F72B801A7010E94021844
:103A3000EC018032910541F00E94B851CE01B801ED
:103A4000A7010E94331B07C0F80180819181F70113
:103A500060810E941440CE01DF91CF911F910F91A0
:103A6000FF90EF900895EF92FF920F931F93CF93E3
:103A7000DF938C017B010E947F746CE170E00E94F7
:103A80008F72B801A7010E940218EC018C319105D8
:103A900021F0B801A7010E94331BF80180819181B8
:103AA000F70160810E941440CE01DF91CF911F91F8
:103AB0000F91FF90EF900895CF92DF92EF92FF92D7
:103AC0000F931F93CF93DF936C017B018A010E94B8
:103AD0007F74B6010E948F72B701A8010E9402187C
:103AE000EC014E97029760F08EE1C816D10411F4F4
:103AF0000E94B851CE01B701A8010E94331B10C02B
:103B0000F70180819181F80160810E941440F801E1
:103B100060817181CE0141E050E00E94EC19EC011E
:103B2000CE01DF91CF911F910F91FF90EF90DF9029
:103B3000CF900895CF93DF93EC018032910509F483
:103B40004CC08132910578F48D31910509F453C050
:103B50008E319105D8F58130910509F18C319105AF
:103B600009F06CC02CC08332910509F44BC084323B
:103B7000910540F481329105B9F18232910509F045
:103B80005DC039C08532910509F44AC0853291057E
:103B900008F43FC08632910509F050C048C085E066
:103BA00090E080936E2090936F201092B33C10921F
:103BB000B43C60E00E946040CCE1D0E03FC08EE6C3
:103BC00090E263EB7CE30E94331D37C06EE670E247
:103BD00043EB5CE30E945C1D30C08EE690E263EB39
:103BE0007CE30E94061D29C08EE690E263EB7CE335
:103BF0000E94DD1C22C08EE690E263EB7CE30E9413
:103C0000671C1BC08EE690E263EB7CE30E943B1CCA
:103C100014C08EE690E263EB7CE30E940F1C0DC0A3
:103C20008EE690E263EB7CE30E94E31B06C08EE627
:103C300090E263EB7CE30E94B71BEC010E94F2046C
:103C400081E090E00E947A228091B13C9091B23C58
:103C500081509D4774F01092B13C1092B23C0E948A
:103C6000582482E090E00E94CD5881E090E00E94CC
:103C700003358091B13C9091B23C01968093B13C68
:103C80009093B23CCE01DF91CF9108950F931F9393
:103C9000CF93DF93EC01162F042F8DE060E046E018
:103CA00020EA0E9468310E94864185E060E042E09F
:103CB00023E20E946831CB30D10598F4C930D10598
:103CC00070F5C630D105B9F0C730D10518F420978A
:103CD00079F02CC0C730D10599F0C830D10531F545
:103CE00019C0CB30D10589F0CE30D105F8F417C01A
:103CF0000E94D1411BC0812F602F0E94C83C16C07A
:103D0000812F602F0E94B13C11C0812F602F0E9433
:103D1000883F0CC0812F602F0E94904007C0CE01C9
:103D200060E070E045E050E00E94EC1980E090E037
:103D300062E170E00E941718CE0160E070E042E19D
:103D400050E00E94C118DF91CF911F910F9108950B
:103D5000CF92DF92EF92FF921F93CF93DF93EC010C
:103D60007B016A018B309105A8F48930910508F038
:103D70008CC08630910519F18730910518F40097B1
:103D800089F0BAC08730910571F18830910509F04A
:103D9000B3C055C08B309105E1F18E30910508F02C
:103DA000ABC073C0FB0160817181FA014081518118
:103DB00080E090E00E94461E0E9488519DC0FA015A
:103DC0001082118282E090E0FB0180839183FA01EE
:103DD0004081518186E090E062E070E00E94461EE2
:103DE0000E94FF5189C0FA011082118288E090E0A0
:103DF0000E94CD48682FF70180831182F60140812F
:103E0000518187E090E070E00E94461E0E94D951E7
:103E100073C0FA011082118289E090E00E94CD48BF
:103E2000682FF70180831182F601408151818BE078
:103E300090E070E00E94461E0E9498525DC08BE0A8
:103E400090E00E94CD48F701808311828CE090E0E1
:103E50000E94CD48482F50E0F60140835183F7017E
:103E6000608171816115710549F44115510531F485
:103E700081E090E0F601808391833EC088E090E08D
:103E80000E94461E0E94155237C0F6011082118210
:103E9000CE010997029740F482E090E00E94CD485D
:103EA000182F83E090E007C086E090E00E94CD48A4
:103EB000182F87E090E00E94CD48312F20E090E05D
:103EC000282B392BF70120833183F7016081718121
:103ED000F60140815181CE010E94461ECE0160E074
:103EE00070E04FE050E00E94EC19CE0160E070E01D
:103EF0004FE050E00E94C118DF91CF911F91FF90D9
:103F0000EF90DF90CF900895CF92DF92EF92FF92E3
:103F10000F931F93CF93DF937B016A01FA01008116
:103F20001181FB0160817181A8010E94680CB801B8
:103F300041E050E00E94EC19EC01C701B6010E947B
:103F40000A10882381F0C133D10569F0CE0160E009
:103F500070E043E050E00E94C1182C9711F40E94D9
:103F6000B851C7E0D0E0CE01DF91CF911F910F9102
:103F7000FF90EF90DF90CF900895EF92FF920F9314
:103F80001F93CF93DF938C017B01FB0160817181D3
:103F9000FC01808191810E94D340F8016081718190
:103FA000F701408151818BE090E00E94680CEC01A8
:103FB000C801B7010E940A10882339F0E19729F05F
:103FC0000E94845228E030E002C02BE030E0C901BA
:103FD000DF91CF911F910F91FF90EF900895EF9295
:103FE000FF920F931F93CF93DF938C017B01FB0113
:103FF00060817181FC01808191810E94AD40F80156
:1040000060817181F7014081518187E090E00E94D9
:10401000680CEC01C801B7010E940A10882329F03E
:10402000E19719F02BE030E002C027E030E0C90151
:10403000DF91CF911F910F91FF90EF900895EF9234
:10404000FF920F931F93CF93DF938C017B01FB01B2
:1040500060817181FC01808191810E94D3408BE05D
:1040600090E0F80160810E94A010F80160817181E8
:10407000F7014081518186E090E00E94680CEC01DC
:10408000C801B7010E940A10882361F0E19751F03E
:1040900086E090E061E070E00E942250EC010E9416
:1040A000B85102C0C6E0D0E0CE01DF91CF911F91A0
:1040B0000F91FF90EF900895AF92BF92CF92DF9251
:1040C000EF92FF920F931F93CF93DF935C017B01DD
:1040D0006A01FA0100811181FB0160817181A801EF
:1040E0000E94680CB80141E050E00E94EC19EC011C
:1040F000C701B6010E940A108823F9F0C133D10527
:1041000001F187E190E00E94CD48882339F0CE018B
:1041100064E370E00E948D32882391F0CE0160E06C
:1041200070E043E050E00E94C118299711F40E940A
:10413000B8511CE0A12EB12C04C0C133D10509F047
:104140005E01C501DF91CF911F910F91FF90EF901C
:10415000DF90CF90BF90AF900895EF92FF920F93B2
:104160001F93CF93DF938C017B01FB0160817181F1
:10417000FC01808191810E94D340F80160817181AE
:10418000F7014081518188E090E00E94680CEC01C9
:10419000C801B7010E940A10882339F1E19729F17B
:1041A0000E94CE5181E390E060E00E94A01080E088
:1041B00090E060E042E050E00E94E74788E190E054
:1041C00060E00E94A0108EE190E00E94CD4888231C
:1041D00049F081E290E00E94CD48882319F426E05E
:1041E00030E005C029E030E002C028E030E0C9013D
:1041F000DF91CF911F910F91FF90EF900895EF9273
:10420000FF920F931F93CF93DF93EC018B309105B7
:10421000B8F48930910508F0AAC08630910509F4F8
:1042200079C08730910518F4009799F0E1C0873084
:10423000910509F47AC08830910509F0D9C08CC085
:104240008B30910509F47DC08E30910508F0D0C007
:10425000ADC00E94D141C0917720D091782080914B
:10426000C33C882361F08091752090917620892B42
:1042700041F587E190E00E94CD48882311F581E067
:104280008093C33C89E090E060E070E042E050E061
:104290000E94EC19CE0160E070E042E050E00E9424
:1042A000C11880E090E062E070E00E9417180E9460
:1042B0008851CE0165E770E246EC5CE30E94A81EDF
:1042C00097C0E090752010917620F090C63C009148
:1042D000C73CCE0165E770E246EC5CE30E94A81E95
:1042E000E092752010937620F092C63C0093C73C74
:1042F000CE010C97029708F47BC0C930D10509F4B0
:1043000077C0CA30D10509F473C08E2D6F2D0E947D
:10431000DE396EC0809377209093782085E790E215
:1043200066EC7CE30E941F200AC080937720909364
:10433000782085E790E266EC7CE30E94EF1FEC01B9
:1043400057C0809377209093782085E790E266ECC1
:104350007CE30E94BD1FF3CF809377209093782059
:1043600085E790E266EC7CE30E94AD20E8CF809385
:1043700077209093782065E770E246EC5CE30E943A
:104380005C20EC018930910539F48091772090917F
:1043900078200A9769F528C08A30910549F58091FF
:1043A000772090917820099719F51EC08093772087
:1043B0009093782065E770E246EC5CE30E94841FEE
:1043C000EC018C30910539F4809177209091782020
:1043D0000D9771F409C08D30910551F480917720CB
:1043E000909178200C9721F4C0937720D093782077
:1043F0000E947F74BE0145E750E226EC3CE30E9438
:10440000957361E070E00E948C57EC0180917720F9
:1044100090917820C817D90739F0CE0165E770E28E
:1044200046EC5CE30E94A81E0E94F20481E090E04A
:104430000E947A226091C63C7091C73CCE0141E057
:1044400050E00E94C1188091C63C9091C73C61E049
:1044500070E00E94171880E090E061E070E00E9438
:10446000404F8091C43C9091C53C8A30910539F40D
:104470000E94582482E090E00E94CD582AC027E292
:104480008031920729F480E090E00E94033521C03A
:104490002EE48032920759F480E060E00E94022509
:1044A00082E090E00E94E4440E94B84412C081532C
:1044B00095477CF060917520709176204091C63CC4
:1044C0005091C73CCE010E94461E1092C43C1092EF
:1044D000C53C8091C43C9091C53C01968093C43CFE
:1044E0009093C53CCE01DF91CF911F910F91FF902A
:1044F000EF9008959C018730910501F18830910576
:1045000040F48130910519F18330910509F061C0C3
:104510005CC08830910529F08331910509F059C0BC
:1045200011C088E0E0E4F6E0858320935F3A3093A1
:10453000603A1092C83C1092C93C089588E0E0E4CB
:10454000F6E0868320935F3A3093603A0895809135
:104550005F3A9091603A88309105D9F48091C83CD7
:104560009091C93C01968093C83C9093C93C81537B
:10457000954778F11092C83C1092C93C88E0E0E47D
:10458000F6E0868387E090E080935F3A9093603A0C
:1045900008954397F1F48091C83C9091C93C0196ED
:1045A0008093C83C9093C93C31E08139930788F0EF
:1045B000E0E4F6E028E02683815D974050F0109219
:1045C000C83C1092C93C258308951092C83C1092B3
:1045D000C93C0895E0E4F6E084E081838683089591
:1045E000282F80FD02C090E001C093E021FD945F80
:1045F00022FD905D23FD9054892F08959C01462F44
:104600008DE3B9010E94517908959C01462F8CE3F6
:10461000B9010E945179982F8151843010F481E0C2
:10462000089580E0963109F481E008950F931F9377
:10463000DF93CF930F92CDB7DEB786EA89838E01E1
:104640000F5F1F4FC80161E00E9405238823D1F747
:104650000F90CF91DF911F910F9108950F931F93AA
:10466000DF93CF930F92CDB7DEB787EA89838E01B0
:104670000F5F1F4FC80161E00E9405238823D1F717
:104680000F90CF91DF911F910F9108950F931F937A
:10469000DF93CF930F92CDB7DEB782EE89838E0181
:1046A0000F5F1F4FC80161E00E9405238823D1F7E7
:1046B0000F90CF91DF911F910F9108950F931F934A
:1046C000DF93CF930F92CDB7DEB784EA89838E0153
:1046D0000F5F1F4FC80161E00E9405238823D1F7B7
:1046E0000F90CF91DF911F910F9108950F931F931A
:1046F000DF93CF930F92CDB7DEB785EA89838E0122
:104700000F5F1F4FC80161E00E9405238823D1F786
:104710000F90CF91DF911F910F9108950F931F93E9
:10472000DF93CF9300D00F92CDB7DEB794EF99838C
:104730008A8386EF8B836C838E010F5F1F4FC801C6
:1047400064E00E9405238823D1F72496CDBFDEBF05
:10475000CF91DF911F910F9108950F931F93DF93D6
:10476000CF9300D00F92CDB7DEB795EF99838A83B0
:1047700087EF8B836C838E010F5F1F4FC80164E04E
:104780000E9405238823D1F72496CDBFDEBFCF91A9
:10479000DF911F910F9108950F931F93DF93CF9394
:1047A0000F92CDB7DEB788EF89838E010F5F1F4F61
:1047B000C80161E00E9405238823D1F70F90CF91B3
:1047C000DF911F910F9108950F931F93DF93CF9364
:1047D0000F92CDB7DEB789EF89838E010F5F1F4F30
:1047E000C80161E00E9405238823D1F70F90CF9183
:1047F000DF911F910F9108950F931F93DF93CF9334
:104800000F920F92CDB7DEB7982F813A78F48F7060
:10481000898392959F70905F9A838E010F5F1F4FDF
:10482000C80162E00E9405238823D1F70F900F9002
:10483000CF91DF911F910F9108950F931F93DF93F5
:10484000CF930F92CDB7DEB7982F905A893150F49D
:1048500099838E010F5F1F4FC80161E00E940523FD
:104860008823D1F70F90CF91DF911F910F91089579
:10487000EF92FF920F931F93082FF62E142FE22E24
:104880000E941D248F2D0E94FC230E94E423110FFF
:10489000100F802F612F0E94AD236F2D61506E0D80
:1048A0008F2D0E948E231F910F91FF90EF900895FE
:1048B000E0E4F6E088E0818384E0818385830E94E0
:1048C000462383E59AE36BE00E9405238823C9F71A
:1048D00008952F923F924F925F926F927F928F92A4
:1048E0009F92AF92BF92CF92DF92EF92FF920F937F
:1048F0001F93DF93CF93CDB7DEB7C555D040CDBF63
:10490000DEBF3E010894611C711C90E5F301119219
:104910009A95E9F750906739F09168396296FFAF40
:1049200062974F2F252D0E943824252C33244424B0
:1049300092E0892E912CC30165966FAE65976696BD
:104940009FAF6697820D931D64968EAF9FAF64975D
:104950002BC0F50181915F018F700E94F022F80158
:1049600081938F0164968EAD9FAD649708171907E8
:1049700081F78DE3B301452D0E9451790AC0F601FC
:1049800081916F0182958F700E94F022F7018193CF
:104990007F01E016F10699F78DE3B301452D0E94E2
:1049A00051794394820C931C6296FFAD62974F1627
:1049B00080F487E6C82E89E3D82EC80CD91C6596EA
:1049C0008FAD659766969FAD66977C015601830112
:1049D000C9CF0E94CC23CB5ADF4FCDBFDEBFCF91D2
:1049E000DF911F910F91FF90EF90DF90CF90BF90DC
:1049F000AF909F908F907F906F905F904F903F907F
:104A00002F9008952F923F924F925F926F927F92D4
:104A10008F929F92AF92BF92CF92DF92EF92FF92CE
:104A20000F931F93DF93CF93CDB7DEB7C55AD04016
:104A3000CDBFDEBF3E010894611C711C90EAF301FA
:104A400011929A95E9F75090B539F091B639CF5552
:104A5000DF4FF883C15AD0404F2F252D0E943824B4
:104A6000252C3324442432E0832E912CC301CC55D1
:104A7000DF4F6882C45AD040CB55DF4F9883C55A68
:104A8000D040820D931DCE55DF4F88839983C25A43
:104A9000D0402DC0F50181915F018F700E94F022FE
:104AA000F80181938F01CE55DF4F88819981C25AD9
:104AB000D0400817190771F78DE3B301452D0E9407
:104AC00051790AC0F60181916F0182958F700E9421
:104AD000F022F70181937F01E016F10699F78DE34B
:104AE000B301452D0E9451794394820C931CCF55FC
:104AF000DF4FF881C15AD0404F16A0F425EBC22EEB
:104B000029E3D22EC80CD91CCC55DF4F8881C45A5A
:104B1000D040CB55DF4F9881C55AD0407C0156011B
:104B20008301C1CF0E94CC23CB55DF4FCDBFDEBF69
:104B3000CF91DF911F910F91FF90EF90DF90CF9079
:104B4000BF90AF909F908F907F906F905F904F90AD
:104B50003F902F9008952F923F924F925F926F92C5
:104B60007F928F929F92AF92BF92CF92DF92EF92FD
:104B7000FF920F931F93DF93CF93CDB7DEB7AD971F
:104B8000CDBFDEBF8A012E010894411C511C98E262
:104B9000F20111929A95E9F720904231F091433158
:104BA000F9A74F2F222D0E943824822C992429A561
:104BB000822F90E0FC018E9EC0018F9E900D9E9EE4
:104BC000900D1124809F5001819FB00C909FB00CDC
:104BD000112422E030E0A20EB31E35013324C201BD
:104BE0004CA69DA7880D991D8AA79BA731C0F601E9
:104BF00081916F018F700E94F022F80181938F01E3
:104C00002AA53BA50217130791F78DE3B201422DA8
:104C10000E94517952E4C52E51E3D52ECA0CDB1CFB
:104C20000AC0F60181916F0182958F700E94F02277
:104C3000F70181937F01E016F10699F78DE3B20148
:104C4000422D0E9451793394A80CB91C680C791C30
:104C5000F9A53F1658F442E4C42E41E3D42EC60C05
:104C6000D71C8CA59DA57C018201CACF0E94CC23B4
:104C7000AD96CDBFDEBFCF91DF911F910F91FF9019
:104C8000EF90DF90CF90BF90AF909F908F907F90EC
:104C90006F905F904F903F902F9008952F923F928A
:104CA0004F925F926F927F928F929F92AF92BF923C
:104CB000CF92DF92EF92FF920F931F93DF93CF93E8
:104CC000CDB7DEB7AD97CDBFDEBF8A012E01089408
:104CD000411C511C98E2F20111929A95E9F720903B
:104CE000742AF091752AF9A74F2F222D0E9438249B
:104CF000822C992429A5822F90E0FC018E9EC00170
:104D00008F9E900D9E9E900D1124809F5001819F3B
:104D1000B00C909FB00C112422E030E0A20EB31E24
:104D200035013324C2014CA69DA7880D991D8AA781
:104D30009BA731C0F60181916F018F700E94F02214
:104D4000F80181938F012AA53BA50217130791F75C
:104D50008DE3B201422D0E94517974E7C72E7AE2A9
:104D6000D72ECA0CDB1C0AC0F60181916F01829517
:104D70008F700E94F022F70181937F01E016F10607
:104D800099F78DE3B201422D0E9451793394A80C1A
:104D9000B91C680C791CF9A53F1658F464E7C62EB7
:104DA0006AE2D62EC60CD71C8CA59DA57C0182017B
:104DB000CACF0E94CC23AD96CDBFDEBFCF91DF918D
:104DC0001F910F91FF90EF90DF90CF90BF90AF9029
:104DD0009F908F907F906F905F904F903F902F901B
:104DE00008952F923F924F925F926F927F928F928F
:104DF0009F92AF92BF92CF92DF92EF92FF920F936A
:104E00001F93DF93CF93CDB7DEB7AD97CDBFDEBF96
:104E10008A012E010894411C511C98E2F201119262
:104E20009A95E9F720902A27F0912B27F9A74F2F81
:104E3000222D0E943824822C992429A5822F90E0CB
:104E4000FC018E9EC0018F9E900D9E9E900D1124A0
:104E5000809F5001819FB00C909FB00C112422E0E4
:104E600030E0A20EB31E35013324C2014CA69DA72B
:104E7000880D991D8AA79BA731C0F60181916F010A
:104E80008F700E94F022F80181938F012AA53BA523
:104E90000217130791F78DE3B201422D0E94517959
:104EA000FAE2CF2EF7E2DF2ECA0CDB1C0AC0F601B5
:104EB00081916F0182958F700E94F022F70181939A
:104EC0007F01E016F10699F78DE3B201422D0E94B1
:104ED00051793394A80CB91C680C791CF9A53F16BC
:104EE00058F4EAE2CE2EE7E2DE2EC60CD71C8CA5E3
:104EF0009DA57C018201CACF0E94CC23AD96CDBF77
:104F0000DEBFCF91DF911F910F91FF90EF90DF9067
:104F1000CF90BF90AF909F908F907F906F905F9059
:104F20004F903F902F9008952F923F924F925F9213
:104F30006F927F928F929F92AF92BF92CF92DF92A9
:104F4000EF92FF920F931F93DF93CF93CDB7DEB70E
:104F50002F97CDBFDEBF042F2E010894411C511C9A
:104F60009AE0F20111929A95E9F720903B25F09191
:104F70003C25FB874F2F222D0E943824622C77245A
:104F800010E08B85282F30E0029FC001039F900D19
:104F9000129F900D1124869D4001879D900C969D37
:104FA000900C1124E2E0F0E08E0E9F1E269DC001C1
:104FB000279D900D369D900D1124809F5001819F5B
:104FC000B00C909FB00C1124AE0EBF1E3324C20152
:104FD0004E869F87860D971D8C879D8731C0F60171
:104FE00081916F018F700E94F022F80181938F01EF
:104FF0008C859D850817190791F78DE3B201422D25
:105000000E945179BBE3CB2EB5E2DB2EC80CD91C34
:105010000AC0F60181916F0182958F700E94F02283
:10502000F70181937F01E016F10699F78DE3B20154
:10503000422D0E9451793394860C971CA60CB71C04
:10504000FB853F1658F4ABE3CA2EA5E2DA2ECA0C54
:10505000DB1C8E859F857C018201CACF0E94CC23F8
:105060002F96CDBFDEBFCF91DF911F910F91FF90A3
:10507000EF90DF90CF90BF90AF909F908F907F90F8
:105080006F905F904F903F902F900895FF920F93F5
:105090001F93CF93DF93F82E062FEA0110E0FE0155
:1050A000E10FF11D408140538F2D602F0E94942706
:1050B00080913B25080F1F5FFE01E10FF11D8081EC
:1050C000882369F7DF91CF911F910F91FF90089589
:1050D0002F923F924F925F926F927F928F929F9208
:1050E000AF92BF92CF92DF92EF92FF920F931F93F6
:1050F000DF93CF93CDB7DEB72F97CDBFDEBF042FA1
:105100002E010894411C511C9AE0F20111929A95CB
:10511000E9F720907E25F0917F25FB874F2F222DE8
:105120000E943824622C772410E08B85282F30E0F1
:10513000029FC001039F900D129F900D1124869D28
:105140004001879D900C969D900C1124E2E0F0E0C8
:105150008E0E9F1E269DC001279D900D369D900DA1
:105160001124809F5001819FB00C909FB00C11249E
:10517000AE0EBF1E3324C2014E869F87860D971D3B
:105180008C879D8731C0F60181916F018F700E94DD
:10519000F022F80181938F018C859D8508171907EE
:1051A00091F78DE3B201422D0E9451798EE7C82E0E
:1051B00085E2D82EC80CD91C0AC0F60181916F0176
:1051C00082958F700E94F022F70181937F01E01693
:1051D000F10699F78DE3B201422D0E945179339483
:1051E000860C971CA60CB71CFB853F1658F41EE7CF
:1051F000C12E15E2D12ECA0CDB1C8E859F857C0149
:105200008201CACF0E94CC232F96CDBFDEBFCF91A3
:10521000DF911F910F91FF90EF90DF90CF90BF90A3
:10522000AF909F908F907F906F905F904F903F9046
:105230002F900895FF920F931F93CF93DF93F82E33
:10524000062FEA0110E0FE01E10FF11D40814053FD
:105250008F2D602F0E94682880917E25080F1F5F88
:10526000FE01E10FF11D8081882369F7DF91CF9165
:105270001F910F91FF900895AF92BF92CF92DF924E
:10528000EF92FF920F931F93DF93CF93CDB7DEB7CB
:105290002A97CDBFDEBFB82EA62EFE0131968AE03A
:1052A000DF011D928A95E9F76A0157FF02C0CC24FD
:1052B000DD24C60160E177E20E94327A69837727B4
:1052C00067FD709580E197E2689F8001699F100DEE
:1052D000789F100D1124C601801B910B68EE73E0BE
:1052E0000E94327A6A83772767FD709588EE93E093
:1052F000689F7001699FF00C789FF00C1124C70122
:10530000800F911FF601E81BF90BCF0164E670E0F6
:105310000E94327A6B838CE9680290011124CF01DC
:10532000820F931F6AE070E00E94327A6C838C2DAA
:10533000820F801B8E1996EF6902B0011124860F2F
:105340008D83FE0131969E012A5F3F4F8081805DF3
:105350008193E217F307D1F78B2D6A2DAE014F5FD2
:105360005F4F0E941A292A96CDBFDEBFCF91DF91F1
:105370001F910F91FF90EF90DF90CF90BF90AF9073
:105380000895CF92DF92EF92FF920F931F93DF93D6
:10539000CF93CDB7DEB72A97CDBFDEBFD82EC62EAE
:1053A000FE0131968AE0DF011D928A95E9F77A01C4
:1053B00057FF02C0EE24FF24C70168EE73E00E948D
:1053C000327A6983772767FD709588EE93E0689F4E
:1053D0008001699F100D789F100D1124F701E01BCB
:1053E000F10BCF0164E670E00E94327A6A8384E6B2
:1053F000680290011124CF01821B930B6AE070E0D8
:105400000E94327A6B838E2D801B821B96EF69027D
:10541000B0011124860F8C83FE0131969E012B5F13
:105420003F4F8081805D8193E217F307D1F78D2D87
:105430006C2DAE014F5F5F4F0E941A292A96CDBF97
:10544000DEBFCF91DF911F910F91FF90EF90DF9022
:10545000CF900895EF92FF920F931F93DF93CF9316
:10546000CDB7DEB72A97CDBFDEBFF82EE62E83E09C
:10547000483E58071CF007EE13E007C01416150647
:105480001CF000E010E001C08A01C80164E670E091
:105490000E94327A462FFE0131968AE0DF011D928A
:1054A0008A95E9F72CE9620290011124C901800F65
:1054B000911F6AE070E00E94327A200F86EF680246
:1054C000C0011124280F405D4983605D6A83205D1F
:1054D0002B838F2D6E2DAF010E941A292A96CDBFE6
:1054E000DEBFCF91DF911F910F91FF90EF90089554
:1054F0000F931F93DF93CF93CDB7DEB72A97CDBF1E
:10550000DEBF182F062F443651051CF023E630E08D
:1055100007C0141615061CF020E030E001C09A0107
:10552000C9016AE070E00E94327AFE0131968AE099
:10553000DF011D928A95E9F786EF6802C001112408
:10554000820F605D6983805D8A83812F602FAF0148
:105550000E941A292A96CDBFDEBFCF91DF911F91FD
:105560000F9108952F923F924F925F926F927F9288
:105570008F929F92AF92BF92CF92DF92EF92FF9263
:105580000F931F93DF93CF93CDB7DEB76797CDBF50
:10559000DEBF142FFE01319694E1DF011D929A9532
:1055A000E9F72090E825B091E925BD8B4B2F222DFE
:1055B0000E943824422C5524812F8F70A82FB0E0F0
:1055C000ED894E2F50E0449DF001459DF00D549D16
:1055D000F00D1124612F70E0607F7070611571050E
:1055E00011F061E070E0CA01880F991F9A0113E081
:1055F000220F331F1A95E1F7820F931F9C01269FFC
:10560000C001279F900D369F900D1124A49F9001FB
:10561000A59F300DB49F300D1124820F931F849DE0
:105620004001859D900C949D900C112482E090E0A7
:10563000880E991EEA9F8001EB9F100DFA9F100DB6
:1056400011240E5F1F4FCF0143E0880F991F4A9529
:10565000E1F7EE0FFF1F8E0F9F1FDC01A69FC00119
:10566000A79F900DB69F900D1124080F191F33248A
:105670003E010894611C711CF301E20DF11DEE8BDB
:10568000FF8B31C0D5018D915D018F700E94F0229A
:10569000F70181937F012E893F89E216F30691F786
:1056A0008DE3B301422D0E94517928EEA22E25E20E
:1056B000B22EA80CB91C0AC0D5018D915D0182954E
:1056C0008F700E94F022F60181936F01CE14DF04E7
:1056D00099F78DE3B301422D0E9451793394840CE4
:1056E000951C040D151DFD893F1648F498EEA92E52
:1056F00095E2B92EA00EB11E63017301CCCF0E94BA
:10570000CC236796CDBFDEBFCF91DF911F910F9164
:10571000FF90EF90DF90CF90BF90AF909F908F90D1
:105720007F906F905F904F903F902F9008952F92B1
:105730003F924F925F926F927F928F929F92AF9221
:10574000BF92CF92DF92EF92FF920F931F93DF935E
:10575000CF93CDB7DEB7E097CDBFDEBF8AA76BA7EB
:105760008A012CA72E010894411C511C88E2F201E9
:1057700011928A95E9F720906336F0916436F9A783
:105780008AA56BA54F2F222D0E943824822C9924A4
:1057900029A5822F90E0FC018E9EC0018F9E900D66
:1057A0009E9E900D1124809F5001819FB00C909F70
:1057B000B00C112422E030E0A20EB31E35013324D8
:1057C000C2014FA698AB880D991D8DA79EA731C029
:1057D000F60181916F018F700E94F022F801819390
:1057E0008F012DA53EA50217130791F78DE3B20196
:1057F000422D0E94517993E6C92E96E3D92ECA0C08
:10580000DB1C0AC0F60181916F0182958F700E94A6
:10581000F022F70181937F01E016F10699F78DE3FD
:10582000B201422D0E9451793394A80CB91C680C26
:10583000791CF9A53F1658F483E6C82E86E3D82EC6
:10584000C60CD71C8FA598A97C018201CACF2CA5B4
:10585000203248F43BA5335F3BA78AA58F5F632FB7
:10586000422F0E94B22A0E94CC23E096CDBFDEBF19
:10587000CF91DF911F910F91FF90EF90DF90CF902C
:10588000BF90AF909F908F907F906F905F904F9060
:105890003F902F9008952F923F924F925F926F9278
:1058A0007F928F929F92AF92BF92CF92DF92EF92B0
:1058B000FF920F931F93DF93CF93CDB7DEB7AD97D2
:1058C000CDBFDEBF8A012E010894411C511C98E215
:1058D000F20111929A95E9F72090F922F091FA22BB
:1058E000F9A74F2F222D0E943824822C992429A514
:1058F000822F90E0FC01E89DC001E99D900DF89D8C
:10590000900D1124809F5001819FB00C909FB00C8E
:10591000112428E030E0A20EB31E35013324C20169
:105920004CA69DA7880D991D8AA79BA731C0F6019B
:1059300081916F018F700E94F022F80181938F0195
:105940002AA53BA50217130791F78DE3B201422D5B
:105950000E94517939EFC32E32E2D32ECA0CDB1CE0
:105960000AC0F60181916F0182958F700E94F0222A
:10597000F70181937F01E016F10699F78DE3B201FB
:10598000422D0E9451793394A80CB91C680C791CE3
:10599000F9A53F1658F429EFC22E22E2D22EC60CEA
:1059A000D71C8CA59DA57C018201CACF0E94CC2367
:1059B000AD96CDBFDEBFCF91DF911F910F91FF90CC
:1059C000EF90DF90CF90BF90AF909F908F907F909F
:1059D0006F905F904F903F902F900895FF920F939C
:1059E0001F93CF93DF93F82E062FEA0110E0FE01FC
:1059F000E10FF11D408150E0415250408F2D602F4A
:105A00000E944B2C8091F922080F1F5FFE01E10FCD
:105A1000F11D8081882359F7DF91CF911F910F915C
:105A2000FF900895CF92DF92EF92FF920F931F9312
:105A3000DF93CF93CDB7DEB72A97CDBFDEBFD82E89
:105A4000C62EFE0131968AE0DF011D928A95E9F7A4
:105A50007A0157FF02C0EE24FF24C70168EE73E00D
:105A60000E94327A6983772767FD709588EE93E00C
:105A7000689F8001699F100D789F100D1124F70118
:105A8000E01BF10BCF0164E670E00E94327A6A837A
:105A900084E6680290011124CF01821B930B6AE017
:105AA00070E00E94327A6B838E2D801B821B96EFF2
:105AB0006902B0011124860F8C83FE0131969E018C
:105AC0002B5F3F4F8081805D8193E217F307D1F711
:105AD0008D2D6C2DAE014F5F5F4F0E94EE2C2A96EC
