:100000000C94AA010C94D0010C94D0010C94D00152
:100010000C94D0010C94D0010C94D0010C94D0011C
:100020000C94D0010C94D0010C94D0010C94D0010C
:100030000C94D0010C94D0010C94D0010C94D001FC
:100040000C94D0010C94D0010C94D0010C94D001EC
:100050000C94D0010C94D0010C94D0010C94D001DC
:100060000C94D0010C94D0010C94D0010C94D001CC
:100070000C94D0010C94D0010C94D0010C94D001BC
:100080000C94D0010C94D0010C94D0010C94D001AC
:100090000C94D0010C94D0010C94D0010C94D0019C
:1000A0000C94D0010C94D0010C94D0010C94D0018C
:1000B0000C94D0010C94D0010C94D0010C94D0017C
:1000C0000C94D0010C94D0010C94D0010C94D0016C
:1000D0000C94D0010C94D0010C94D0010C94D0015C
:1000E0000C94D0010C94D0010C94D0010C94D0014C
:1000F0000C94D0010C94D0010C94D0010C94D0013C
:100100000C94D0010C94D0010C94D0010C94D0012B
:100110000C94D0010C94D0010C94D0010C94D0011B
:100120000C94D0010C94D0010C94D0010C94D0010B
:100130000C94D0010C94D0010C94D0010C94D001FB
:100140000C94D0010C94D0010C94D0010C94D001EB
:100150000C94D0010C94D0010C94D0010C94D001DB
:100160000C94D0010C94D0010C94D0010C94D001CB
:100170000C94D0010C94D0010C94D0010C94D001BB
:100180000C94D0010C94D0010C94D0010C94D001AB
:100190000C94D0010C94D0010C94D0010C94D0019B
:1001A0000C94D0010C94D0010C94D0010C94D0018B
:1001B0000C94D0010C94D0010C94D0010C94D0017B
:1001C0000C94D0010C94D0010C94D0010C94D0016B
:1001D0000C94D0010C94D0010C94D0010C94D0015B
:1001E0000C94D0010C94D0010C94E5790C94D001BE
:1001F0000C94D00147034A034D03500353035603A5
:1002000059035C035F036203650368036B036E03BA
:100210007103740377037A037D03800383038603EA
:1002200089038C038F039203950398039B039E031A
:10023000A103A603B803BB03BE03C103C403C703E2
:10024000CA03CD03D003D303D603D903DC03DF03F2
:10025000E203E503E803EB03EE03F103F403F70322
:10026000FA03FD0300040304060409040C040F044C
:1002700012041704753D7A3D7F3D843D893D8E3DD6
:10028000933D9A3DA13DA63DAB3DB23D393D3E3D3E
:10029000433D483D4D3D523D573D5C3D613D663DD2
:1002A0006B3D703DFB48FD4820492349FF4801490B
:1002B0002649294903490549074909490B492C4958
:1002C0002F49324935490D490F49114914491749F8
:1002D00073491A491D4938493B493E4941494449F6
:1002E0006E4947494A494D496249654968496B49E0
:1002F0005C495F495049534956495949864988499B
:10030000AB49AE498A498C49B149B4498E499049B3
:10031000924994499649B749BA49BD49C049984953
:100320009A499C499F49A249FE49A549A849C34900
:10033000C649C949CC49CF49F949D249D549D849D3
:10034000ED49F049F349F649E749EA49DB49DE4915
:10035000E149E44911241FBECFEFDFE3DEBFCDBF8B
:1003600000E00CBF18BE19BE1ABE1BBE1CE3A0E005
:10037000B0E2ECEEF4EF00E00BBF02C007900D928C
:10038000A238B107D9F71BBE1DE3A2E8BCE301C048
:100390001D92A93DB107E1F70E9442420C94747A84
:1003A0000C9400001F93CF93DF93C0E0D6E010E2DF
:1003B0001983882321F41D8382E090E003C01D830C
:1003C0008CE390E00E9408591E8384E190E00E9433
:1003D0000859DF91CF911F9108950F931F93CF93E9
:1003E000DF93C0E0D0E00EEF17E0C8010C2E02C092
:1003F000959587950A94E2F781700E94D201219623
:10040000CC30D10591F7DF91CF911F910F910895D5
:100410000F931F93CF93DF93C0E0D0E001E018E08B
:10042000C8010C2E02C0959587950A94E2F7817059
:100430000E94D2012196CC30D10591F7DF91CF9166
:100440001F910F9108950F931F93CF93DF93C0E0F7
:10045000D0E001E010E0C8010C2E02C0880F991F07
:100460000A94E2F780780E94D2012196C830D10523
:1004700091F7DF91CF911F910F9108950F931F93E3
:10048000CF93DF93C0E0D0E007E310E0C8010C2E6B
:1004900002C0880F991F0A94E2F780780E94D20167
:1004A0002196C830D10591F7DF91CF911F910F911F
:1004B00008950F931F93CF93DF93C0E0D0E002E144
:1004C00010E0C8010C2E02C0959587950A94E2F7BA
:1004D00081700E94D2012196C630D10591F7DF913B
:1004E000CF911F910F9108950E9408020E94590216
:1004F0000E9423020E94ED0108950F931F93CF9352
:10050000DF93C0E0D0E00AE110E0C8010C2E02C089
:10051000959587950A94E2F781700E94D201219601
:10052000C630D10591F7DF91CF911F910F910895BA
:100530000E9408020E947D020E943E020E94ED017C
:1005400008950E9498020E9474020895CF93DF9349
:10055000AAECB1E052E05C93E0E2F0E0E4911C929E
:1005600020E032E0E901EC875C93E1E2F0E0E49125
:100570001C92ED875C93E4E2F0E0E4911C9280E44D
:1005800092E0EC01EC875C93E5E2F0E0E4911C92F0
:10059000ED87F901118240E24283548351E0508398
:1005A00019824A835C83588350A348E141A350A732
:1005B00040E141A758A340E349A350AB88E381AB96
:1005C000DF91CF910895AAECB1E092E09C93E82FDF
:1005D000F0E0E4911C928E2F0895E0E0F2E091E0CB
:1005E00090A388E181A390A780E181A70895E0E42A
:1005F000F2E081E080A380E381A30895E0E0F2E0EF
:1006000081E080AB88E381AB089580910002806136
:10061000809300028091060282FFFCCF8091060247
:100620008460E0E0F2E086838091140290911502EC
:10063000845C9940CCF48091823C9091833C0196FB
:100640008093823C9093833C039711F40E94CF4D9A
:100650008091823C9091833C815D92404CF010925D
:10066000823C1092833C08951092823C1092833C0D
:100670000895FC018032910540F4E650FF4FEE0FE3
:10068000FF1F0590F491E02D199480E0089580E01B
:1006900090E059C081E090E056C082E090E053C005
:1006A00083E090E050C084E090E04DC085E090E0B1
:1006B0004AC086E090E047C087E090E044C088E010
:1006C00090E041C089E090E03EC08AE090E03BC00D
:1006D0008BE090E038C08CE090E035C08DE090E099
:1006E00032C08EE090E02FC08FE090E02CC080E11F
:1006F00090E029C081E190E026C082E190E023C033
:1007000083E190E020C084E190E01DC085E190E0AD
:100710001AC086E190E017C087E190E014C088E13C
:1007200090E011C089E190E00EC08AE190E00BC03A
:100730008BE190E008C08CE190E005C08DE190E095
:1007400002C08EE190E00E947E0408958FE190E067
:100750000E947E040895FC018032910508F06BC070
:10076000E65EFE4FEE0FFF1F0590F491E02D199409
:1007700080E090E059C081E090E056C082E090E0D7
:1007800053C083E090E050C084E090E04DC085E02D
:1007900090E04AC086E090E047C087E090E044C027
:1007A00088E090E041C089E090E03EC08AE090E0BF
:1007B0003BC08BE090E038C08CE090E035C08DE02D
:1007C00090E032C08EE090E02FC08FE090E02CC02F
:1007D00080E190E029C081E190E026C082E190E0D4
:1007E00023C083E190E020C084E190E01DC085E15A
:1007F00090E01AC086E190E017C087E190E014C055
:1008000088E190E011C089E190E00EC08AE190E0BB
:100810000BC08BE190E008C08CE190E005C08DE159
:1008200090E002C08EE190E00E94440408958FE1C0
:1008300090E00E9444040895DF93CF93CDB7DEB7D4
:10084000C258D040CDBFDEBF99838A8390E09E011D
:100850002D5F3F4FE92FF0E0D901AE0FBF1FE60F2C
:10086000F71F80818C939F5F9038A1F780E5BE01D0
:100870006F5F7F4F42E80E943278CE57DF4FCDBF87
:10088000DEBFCF91DF910895DF93CF9300D0CDB736
:10089000DEB7DE011196E0E0F0E223E001900D9278
:1008A0002150E1F799838A836B8380E5BE016F5FF6
:1008B0007F4F43E00E9432782396CDBFDEBFCF91B9
:1008C000DF910895DF93CF930F920F92CDB7DEB7EC
:1008D00099838A8380E5BE016F5F7F4F42E00E946B
:1008E000327880E568E00E9470789C012F5F3F4F6E
:1008F000C9010F900F90CF91DF910895DF93CF93AF
:100900000F920F92CDB7DEB799838A8380E5BE013F
:100910006F5F7F4F42E00E94327880E561E00E9485
:100920007078FC0181810F900F90CF91DF91089535
:10093000CF93DF93C0E0D0E0CE016BE00E9444048F
:100940008AE090E00E9411592196C032D105A1F7AA
:10095000DF91CF9108958BECE0E5F0E0828388E0B1
:10096000809350008091510083FFFCCF88ED84BFBD
:1009700083E080934000089588ED84BF8BE28093EC
:1009800080000895A89508950E9498040E94C34687
:100990000E94CC4A0E94EC430E94D11008950E940C
:1009A000AB040E94BA520E94A60278940E949D79DC
:1009B0000E9472770E94BA770E94F7220E942E59F5
:1009C0000E9465240E942E590E9456320E94C4043F
:1009D00088ED84BF8BE2809380000E9440440E9497
:1009E000A1020E94FC080E946B4C0E942E5989E1D2
:1009F00090E00E94A85A81E190E00E94730604C032
:100A00000E94C25A882321F40E9477050E97C1F7ED
:100A10000E94395A82E090E00E94675B089580E668
:100A200060E00E94F64280E06FEF0E94F64281E0B3
:100A30006FEF0E94F64280E260E00E94F64281E29F
:100A400060E00E94F64286E660E00E94F642089569
:100A5000EF92FF920F931F93DF93CF930F92CDB737
:100A6000DEB7E1E9FCE311922CE3EB39F207D9F7A9
:100A70008CE20E94584380FF2EC085E60E945843B6
:100A8000182F1F701093913C81E60E945843809369
:100A9000923C86E60E9458438093933C93E0012F5A
:100AA00010E00F5F1F4F0DC0892F8C5999830E9452
:100AB0005843E1E9FCE3EE0EFF1EF70180839981C4
:100AC0009F5FE92EFF240E151F0574F78CE260E08E
:100AD0000E94F64202C01092913C81E99CE30F9083
:100AE000CF91DF911F910F91FF90EF9008950E9499
:100AF0002805FC018081882309F45CC082818D3047
:100B0000C9F18E3040F4823029F1833059F18130BF
:100B100009F050C017C0803109F444C0813120F47D
:100B20008E3009F047C006C08231A1F1833109F04F
:100B300041C028C080918E3C8F5F80938E3C2EE018
:100B400030E03AC080918E3C8F5F80938E3C21E0F4
:100B500030E032C080918E3C8F5F80938E3C22E0EB
:100B600030E02AC080918E3C8F5F80938E3C23E0E2
:100B700030E022C080918E3C8F5F80938E3C2DE0D0
:100B800030E01AC080918E3C8F5F80938E3C23E1D1
:100B900030E012C080918E3C8F5F80938E3C22E1CA
:100BA00030E00AC080918E3C8F5F80938E3C20E1C4
:100BB00030E002C02FE030E0C9010895FF920F93AA
:100BC0001F93CF93DF938C01FC01F08085E36F2DA1
:100BD0000E94F64281E3F80161810E94F64282E3BD
:100BE00060E00E94F642E80100E007C0FA94802F1E
:100BF0008A5C69810E94F6420F5F2196FF20B1F75F
:100C000080E368E00E94F64224C080E30E945843DB
:100C1000807F31F010928F3C1092903C81E023C095
:100C200080918F3C9091903CF3E0893E9F0764F067
:100C300010928F3C1092903C8DE390E060E070E069
:100C40000E942D3A82E00FC0019680938F3C9093D2
:100C5000903C8CE20E94584382FFD7CF10928F3C89
:100C60001092903C80E0DF91CF911F910F91FF9007
:100C70000895DF93CF9300D0CDB7DEB791E099838D
:100C80008A838EE08B83CE0101960E94DE058AE086
:100C900090E00E94A85A06C00E94C25A882311F010
:100CA00080E005C00E947705892BB1F381E023968F
:100CB000CDBFDEBFCF91DF910895DF93CF9300D0FA
:100CC0000F92CDB7DEB791E099839A8399E09B8329
:100CD0008C83CE0101960E94DE052496CDBFDEBF37
:100CE000CF91DF910895DF93CF9300D0CDB7DEB7DA
:100CF00091E099839A838B83CE0101960E94DE0551
:100D00002396CDBFDEBFCF91DF910895CF92DF92C2
:100D1000FF920F931F93DF93CF93CDB7DEB7C058E9
:100D2000D040CDBFDEBF8230910561F41092853C8A
:100D300084E690E00E94A85A83E190E00E94730646
:100D400081E01CC0019709F07BC08091853C813017
:100D5000C1F40E94C25A882319F08BE08093853C2D
:100D60000E947705439709F06BC084E690E00E94EB
:100D7000A85A83E190E00E94730682E08093853C4C
:100D80005FC0823009F05CC000E010E06E010894A2
:100D9000C11CD11C81E162E3A8010E94372AFF2413
:100DA00006C00E94C25A882311F08CE026C00E941F
:100DB0002805AC01FC018081882399F3DA018F2D8D
:100DC00090E0F601E80FF91F9C01285F3F4F2C0DC2
:100DD0003D1D12968C91129781931196E217F3079D
:100DE000C1F7002369F4FF2059F4FA0182818C30A5
:100DF00039F08381843921F08DE08093853C22C0D5
:100E000084E690E00E94A85A83E190E00E94730675
:100E1000F8E0FF0E80E8F81651F6A8950F5F1F4F17
:100E200080E0902FB6010E941C040032110509F0E9
:100E3000B1CF84E08093853C8EE090E00E94730601
:100E40008091853CC058DF4FCDBFDEBFCF91DF9191
:100E50001F910F91FF90DF90CF900895CF93DF9374
:100E6000EB0182309105D9F41092893C6130710513
:100E700060F06330710528F06330710531F482E071
:100E800001C081E08093863C02C01092863C89E1DB
:100E900090E00E94A85ACE010E947306C2C001973A
:100EA00009F0BFC09091863C892F8150823008F0B4
:100EB0003FC00E94C25A8823B1F08091893C8F5F65
:100EC0008093893C853010F08AE0A6C08091863CF2
:100ED000823019F483E090E004C0813021F482E094
:100EE00090E00E9473060E947705833031F08D30C8
:100EF000E1F0823009F095C006C08091863C8230D6
:100F000091F484E005C08091863C813061F483E0F7
:100F10008093863C86E090E00E94730689E190E031
:100F20000E94A85A7EC08DE077C01092893CF6CF0F
:100F3000892F83508230C8F50E94C25A882369F0F5
:100F40008091893C8F5F8093893C853010F08BE0E5
:100F500063C086E090E00E9473060E942805FC01B1
:100F60008081882309F45DC08281863009F059C0F0
:100F70001092893C8381982F80FF0AC08091863C23
:100F8000833031F485E08093863C84E090E0C4CFE8
:100F900091FF47C08091863C843009F042C086E0D2
:100FA0008093863C85E090E0B7CF95509230B8F5BD
:100FB0000E94C25A8823B1F08091893C8F5F809350
:100FC000893C853010F08CE027C08091863C8530CC
:100FD00019F484E090E004C0863021F485E090E0CC
:100FE0000E9473060E942805FC0180818823C9F0B5
:100FF0008281843041F483818093873C8481809313
:10100000883C87E009C0853061F483818093873C08
:1010100084818093883C88E08093863C02C00E9453
:10102000D25A86E89CE3DF91CF91089582309105F2
:1010300069F410928D3C10928A3C89E190E00E9404
:10104000A85A8CE090E00E94730628C0019731F501
:101050000E94C25A882371F080918D3C8F5F8093EB
:101060008D3C853018F08BE080938A3C8CE090E0DA
:101070000E9473060E942805FC018081882371F07C
:1010800082818C3059F4838180938B3C848180935E
:101090008C3C81E080938A3C0E94D25A8AE89CE38F
:1010A00008956F927F928F929F92AF92BF92CF924C
:1010B000DF92FF920F931F93DF93CF93CDB7DEB7ED
:1010C0002A97CDBFDEBFDE011196E3E0F0E22AE011
:1010D00001900D922150E1F78230910561F4109258
:1010E000843C84E690E00E94A85A82E190E00E944D
:1010F000730681E018C0019709F06BC08091843CB1
:101100008130A1F40E94C25A882319F08BE08093A9
:10111000843C0E947705429709F05BC084E690E02A
:101120000E94A85A82E08093843C53C0823009F028
:1011300050C000E010E023E0622E712C6C0E7D1E8A
:101140009BE0892E912C8C0E9D1E5E010894A11CA3
:10115000B11CA89581E162E3A8010E94372A0F5FC4
:101160001F4FD02ECC24FF248F2D90E08C299D2959
:101170000E946204DC01F3018D918193E815F90569
:10118000D9F7C5010E94DE0584E690E00E94A85AC6
:1011900004C00E94C25A882349F40E942805FC0119
:1011A00080818823B1F38281823121F08CE08093A9
:1011B000843C11C088E0F80E80E8F816A9F60032E9
:1011C000110539F684E08093843C8EE090E00E9423
:1011D00073068091843C2A96CDBFDEBFCF91DF910C
:1011E0001F910F91FF90DF90CF90BF90AF909F9095
:1011F0008F907F906F9008950E948A430E940F0500
:101200008FE065E00E94F6420895CF93DF93C82FE8
:10121000D0E080FF06C080E166E848E050E00E9430
:10122000B825CE0186709070892B61F086E06CE263
:1012300046E023E20E94753186E06DE241E050E035
:101240000E945B26C3FF0BC081E161E041E050E0FA
:101250000E945B2680E090E060E00E94D134C4FFF1
:101260000BC081E16AE541E050E00E945B2682E02C
:1012700090E060E00E94D134DF91CF910895EF9229
:10128000FF920F931F93CF93DF93C82F80FD02C06F
:10129000EE240FC089E190E00E94ED48082F0E94E3
:1012A0000046EE2490E010E00817190714F4EE242D
:1012B000E394C1FF19C08FE090E00E94ED48F82E42
:1012C00080E190E00E94ED48082F0E94F64E3F2DED
:1012D00020E010E0202B312B281739071CF482E086
:1012E000E82A02C08DEFE822C2FF19C08DE090E02D
:1012F0000E94ED48F82E8EE090E00E94ED48082F05
:101300000E94F64E3F2D20E010E0202B312B82175B
:1013100093071CF484E0E82A02C08BEFE822C3FFA5
:101320000DC08CE090E063E170E00E943450C09703
:1013300019F488E0E82A02C087EFE8228E2DDF91B9
:10134000CF911F910F91FF90EF90089583E190E06E
:101350000E94D65283E190E00E94872280E40E949E
:101360001453089580919B3C8F5F80939B3C823007
:1013700089F48BE190E00E94ED48882311F00E94EF
:10138000A60980E090E060E141E050E00E9407485B
:101390000E94CF4D80919B3C8B3F10F010929B3C64
:1013A000089580919C3C8F5F80939C3C823089F4AF
:1013B0008BE190E00E94ED48882311F00E94A6097D
:1013C00080E090E068E041E050E00E9407480E9421
:1013D000CF4D80919C3C8B3F10F010929C3C089527
:1013E00080919D3C8F5F80939D3C823089F48AE19F
:1013F00090E00E94ED48882311F00E94A60980E049
:1014000090E064E041E050E00E9407480E94CF4D28
:1014100080919D3C8B3F10F010929D3C08958A3046
:10142000910591F08B30910548F486309105D1F00B
:101430008630910510F1089700F114C08D309105A8
:1014400088F08D309105C9F460E070E041E150E032
:101450000E94D318089799F485E190E00E94ED4826
:10146000882369F484E00E9405090E94F00980E164
:101470000E94145388E00E94145381E0089580E094
:10148000089580919E3C8F5F80939E3C823089F4CA
:101490008AE190E00E94ED48882311F00E94A6099D
:1014A00080E090E062E041E050E00E9407480E9446
:1014B000CF4D80919E3C8B3F10F010929E3C089542
:1014C000CF93DF93EC018091A03C882309F043C0C7
:1014D00082E00E9405090E94410ACA30D10501F14B
:1014E000CB30D10548F4C830D105C1F0C930D105A1
:1014F00060F5269771F529C0CC30D10531F1CC309B
:10150000D10520F0CD30D10521F50AC08AE090E068
:101510000E94ED488823E9F480E818C088E016C0EE
:10152000CE0160E070E041E150E00E94D3180897DE
:1015300041F485E190E00E94ED48882311F482E0B7
:1015400005C00E94B55180E101C080E2E0E0F7E013
:10155000858381E058C0813009F058C08EE390E067
:101560000E943C5A882309F499C0CA30D10549F138
:10157000CB30D10550F4C830D105E9F0C930D105E0
:10158000D8F5269709F03EC037C0CC30D105A1F17F
:10159000CC30D10520F0CD30D105A1F512C08AE0C4
:1015A00090E00E94ED48882369F5E0E0F7E080E8EC
:1015B000868380E426C0E0E0F7E088E0868384E06C
:1015C00020C0CE0160E070E041E150E00E94D318FD
:1015D000089761F485E190E00E94ED48882331F49A
:1015E000E0E0F7E082E0868381E00BC0E0E0F7E036
:1015F00080E1868380E205C0E0E0F7E080E2868358
:1016000080E1858382E08093A03C48C0823009F06D
:1016100045C08EE390E00E943C5A882309F43EC006
:10162000CA30D10501F1CB30D10548F4C830D1051D
:10163000C1F0C930D10550F5269761F527C0CC30EF
:10164000D10521F1CC30D10520F0CD30D10511F5F7
:101650000AC08AE090E00E94ED488823D9F480E433
:1016600016C084E014C0CE0160E070E041E150E0BB
:101670000E94D318089741F485E190E00E94ED485C
:10168000882311F481E003C080E201C080E1E0E042
:10169000F7E086831092A03C81E001C080E0DF91FA
:1016A000CF9108958091A13C882369F482E00E9443
:1016B00005090E94410A0E94B55180E1E0E0F7E08F
:1016C000858381E00FC0813089F487E290E00E9439
:1016D0003C5A8823D9F0E0E0F7E080E1868380E29D
:1016E000858382E08093A13C80E00895823071F48C
:1016F0008EE390E00E943C5A882341F080E2E0E0D3
:10170000F7E086831092A13C81E0089580E008957F
:1017100080919F3C8F5F80939F3C823059F40E9460
:10172000A60980E090E061E041E050E00E940748B7
:101730000E94CF4D80919F3C8B3F10F010929F3CB8
:101740000895CF92DF92FF920F931F93DF93CF9371
:1017500000D0CDB7DEB78C01662311F06093A23CB8
:101760008091A23C80FD03C06801FF240FC081E08E
:101770000E9405090E94880B8091A23C8E7F809375
:10178000A23CFF24F39497E0C92ED12C8091A23C77
:1017900081FF14C00730110519F40E94520B03C0D9
:1017A000C8010E94600A882311F4FF2039F080915B
:1017B000A23C8D7F8093A23CFF24F3948091A23CB5
:1017C00082FF0CC0C8010E940F0A882339F0809163
:1017D000A23C8D7F8093A23CFF24F3948091A23C95
:1017E00083FF19C088E00E9405090E94D109C80141
:1017F0000C97029730F00930110519F00A301105E5
:1018000019F487E0C82ED12C8091A23C877F809369
:10181000A23CFF24F3948091A23C84FF0CC080E1A1
:101820000E9405090E94B2098091A23C8F7E80939C
:10183000A23CFF24F394C982DA826C2D7A818F2D29
:1018400090E02396CDBFDEBFCF91DF911F910F9126
:10185000FF90DF90CF90089587E090E00E94D652ED
:1018600088E090E00E94872280E40E941853089547
:10187000AF92BF92CF92DF92FF920F931F93DF93AD
:10188000CF9300D000D0CDB7DEB78C016B015A01E9
:101890008A309105B1F08B30910550F48630910576
:1018A00079F18630910590F18830910578F128C062
:1018B0008C30910529F18C309105B8F08D3091056F
:1018C00029F5C80160E070E041E150E00E94D318C2
:1018D0000897E1F485E190E00E94ED488823B1F497
:1018E00084E00E943F09F82E12C08AE090E00E9436
:1018F000ED48882329F484E00E943F09F82E01C0B6
:10190000FF2484E00E943F09F82A01C0FF248BE0F5
:101910000E943F09F82A81E090E00E94D652FF2001
:10192000A9F08091A63C882389F486E290E00E9489
:101930003C5A882359F081E08093A63C0093A33C55
:101940001093A43C83E090E00E943C5A8091A63C16
:10195000882301F181E08093A53C8091A33C909184
:10196000A43C6F2D0E94A10B6C837D838E83DE01CE
:101970001196FE01349683E001900D928150E1F7BB
:101980008B81882319F401E310E004C009811A81D6
:101990001092A63CFF20A9F48091A53C882389F0F1
:1019A0008091A63C882369F41092A53C0E942C0CDF
:1019B00083E090E00E943C5AC801B601A5010E9454
:1019C000521EC8012696CDBFDEBFCF91DF911F9179
:1019D0000F91FF90DF90CF90BF90AF9008959C0142
:1019E0008617970714F42F5F3F4FC90108959C0194
:1019F0006817790714F421503040C90108956F9297
:101A00007F928F929F92AF92BF92CF92DF92EF928E
:101A1000FF920F931F938130910571F081309105F2
:101A200028F0029779F080E0882411C082E080934A
:101A3000182031E1832E0BC081E18093182025E12D
:101A4000822E05C086E1809318209AE1892E082F06
:101A50009924AA24CC247724662451C010E0802F36
:101A6000612F40E050E00E949A48D82E802F612FCD
:101A700041E050E00E949A48E82E802F612F42E01A
:101A800050E00E949A48F82E802F612F43E050E0EA
:101A90000E949A48B82E802F612F44E050E00E94A7
:101AA0009A48DD2039F1CF14E0F0AE1410F4FC14A4
:101AB000C0F49D1420F4EA1410F0FC1490F47B148C
:101AC00030F4D91420F0EA1410F0FC1450F4681625
:101AD00088F4B71478F0D91468F0EA1458F0FC14BC
:101AE00048F000931820109319209D2CAE2CCF2C79
:101AF0007B2C682E1F5F143009F0B1CF0F5F0815E3
:101B000008F4ACCF88E190E21F910F91FF90EF9025
:101B1000DF90CF90BF90AF909F908F907F906F900D
:101B200008956F927F928F929F92AF92BF92CF92C1
:101B3000DF92EF92FF920F931F938130910571F026
:101B40008130910528F0029779F080E0772411C068
:101B500082E080931A20B1E17B2E0BC081E180935B
:101B60001A20A5E17A2E05C086E180931A20FAE1B9
:101B70007F2E082FEBE36E2E7FE1972E6CE0A62ED2
:101B80005CE3C52E47E1842E51C010E0802F612F09
:101B900040E050E00E949A48D82E802F612F41E00B
:101BA00050E00E949A48E82E802F612F42E050E0DA
:101BB0000E949A48F82E802F612F43E050E00E9447
:101BC0009A48B82E802F612F44E050E00E949A4836
:101BD000DD2039F1FC14E0F0EA1410F4CF14C0F465
:101BE000D91420F4AE1410F0CF1490F4B81430F4DB
:101BF0009D1420F0AE1410F0CF1450F4861588F424
:101C00008B1478F09D1468F0AE1458F0CF1448F09F
:101C100000931A2010931B20682E9D2CAE2CCF2CE5
:101C20008B2C1F5F143009F0B1CF0F5F071508F43C
:101C3000ACCF8AE190E21F910F91FF90EF90DF907F
:101C4000CF90BF90AF909F908F907F906F900895AE
:101C50000F931F93DF93CF930F92CDB7DEB78130F1
:101C6000910569F08130910528F0029769F080E0D4
:101C700090E00EC082E080931C2091E109C081E1D8
:101C800080931C2095E104C086E180931C209AE19A
:101C9000082F1DC010E010931D20802F612F40E001
:101CA00050E099830E949A489981882361F01F5FD0
:101CB000143089F710921E2080911C208F5F809332
:101CC0001C200F5F04C081E080931E2002C0091712
:101CD00008F38CE190E20F90CF91DF911F910F916B
:101CE0000895CF92DF92FF920F931F93CF93DF93CC
:101CF000EC018B016B0185E0F82E8F2D90E0F60151
:101D000061916F010E946D33F394FBE0FF16A9F718
:101D10000C0F1D1FF8016081C230D105A1F0C33046
:101D2000D10528F4209749F02197B9F409C0C330B0
:101D3000D10561F0249789F40CC080E090E00BC0DD
:101D400081E090E008C082E090E005C083E090E090
:101D500002C084E090E00E946D33DF91CF911F912B
:101D60000F91FF90DF90CF9008951F93182F8FE071
:101D70006DE24FE050E00E945B268FE06AE54CE0A8
:101D800050E00E94B8258FE068E747E050E00E94ED
:101D9000FE26113061F0113018F01230A9F40EC097
:101DA0008FE06DE245E050E00E945B260DC08FE0C1
:101DB0006AE541E050E00E94B82506C08FE068E780
:101DC00043E050E00E94FE261F91089583E06DE7F6
:101DD0004DE050E20E94B32E0895DF92EF92FF9201
:101DE0000F931F93DF93CF9300D00F92CDB7DEB741
:101DF000F82E8B0119821A821B821C828FE067E207
:101E000044E023E30E94753180E168E242E150E260
:101E10000E94B32EFE0131969E012B5F3F4FD801E9
:101E20008D918D018193E217F307C9F7D9808D2D2C
:101E30000E945D33EA808E2D0E944D339C8180E0AC
:101E40002B81022F10E0082B192B80E168E4A801F8
:101E50000E94402FB1E0FB1651F0FB1620F082E00B
:101E6000F816A1F408C08D2D0E943D330FC08E2DB1
:101E70000E942D330BC08FE066E444E024E10E9411
:101E8000B43180E168E4A8010E94882D2496CDBF7A
:101E9000DEBFCF91DF911F910F91FF90EF90DF9008
:101EA0000895DF92EF92FF920F931F93DF93CF93EA
:101EB00000D00F92CDB7DEB7F82E8B0119821A82AF
:101EC0001B821C828FE066E444E024E10E947531AD
:101ED000FE0131969E012B5F3F4FD8018D918D0100
:101EE0008193E217F307C9F7D9808D2D0E945D33E6
:101EF000EA808E2D0E944D339C8180E02B81022F41
:101F000010E0082B192B80E168E4A8010E94402F03
:101F1000B1E0FB1651F0FB1620F082E0F816A1F4B8
:101F200008C08D2D0E943D330FC08E2D0E942D3391
:101F30000BC08FE066E444E024E10E94B43180E10C
:101F400068E4A8010E94882D2496CDBFDEBFCF9102
:101F5000DF911F910F91FF90EF90DF9008958823FC
:101F600019F0813031F513C08FE060E04DE050E0B2
:101F70000E945B268FE067E244E02FE10E94B431CB
:101F800080E168E242E150E20E94FB2C08958FE07C
:101F900060E043E050E00E945B268FE067E244E0AF
:101FA0002FE10E94753180E168E242E150E20E9437
:101FB000B32E0895CF92DF92EF92FF920F931F936B
:101FC000CF93DF937C016B01FC0100811181FB0148
:101FD000C081D18180E00E9472448093A83C81E05E
:101FE00090E00E94675B282F9091A83C8091A73CCD
:101FF000981711F4222381F09093A73C209739F48D
:102000000115110529F001501040CCE3D0E02197D3
:1020100083E090E00E94675B209789F40115110529
:1020200071F483E090E00E94675BF70110821182F7
:1020300085E090E0F6018083918381E007C0F7019D
:1020400000831183F601C083D18380E0DF91CF91BB
:102050001F910F91FF90EF90DF90CF9008950F9315
:102060001F938C010E9451459C010430110531F4ED
:1020700001960E94C7430E9451459C01C9011F91CE
:102080000F9108950F931F93CF93DF938C01C0E0BE
:10209000D0E0F801EC0FFD1F8081882319F08C2F10
:1020A0000E9401372196CB30D10599F7DF91CF916E
:1020B0001F910F9108950F931F93082F162F0E94C1
:1020C000853586E0189FB0011124635810E0015F48
:1020D0001F4F83E0A8010E94102E1F910F910895B9
:1020E00088319105C1F08931910520F40B9709F0F1
:1020F0004DC01AC08133910521F0C39709F046C045
:102100003CC08091AD3C9091AE3C60E040E050E03E
:102110000E94074808951092AD3C1092AE3C109278
:10212000A93C1092AA3C08958091AB3C9091AC3CA4
:102130008617970769F08091A93C9091AA3C019677
:102140008093A93C9093AA3C6093AB3C7093AC3CC9
:102150008091A93C9091AA3C18161906BCF41092E3
:10216000A93C1092AA3C8091AD3C9091AE3C019666
:102170008093AD3C9093AE3C08958091AD3C90919E
:10218000AE3C01978093AD3C9093AE3C089590E0B7
:1021900005C08150823008F480E19F5F9617C8F334
:1021A0000895AF92BF92CF92DF92EF92FF920F937A
:1021B0001F9388E090E00E9487220E94FF760E9491
:1021C000563282E060E04FE150E20E94B32E85E09B
:1021D00060E046E250E20E94B32E8AE060E04DE209
:1021E00050E20E94B32E8DE060E046E350E20E9490
:1021F000B32E82E160E04FE350E20E94B32E85E10E
:1022000060E04CE450E20E94B32E8AE290E00E942B
:10221000ED48482F82E06CE350E00E94402F8BE2B3
:1022200090E00E94ED48482F85E06CE350E00E946A
:10223000402F88E290E00E94ED48482F82E064E65B
:1022400050E00E94402F89E290E00E94ED48482F24
:1022500085E064E650E00E94402F0E94C2040E9484
:1022600015768C0194E0159507959A95E1F70E94F3
:1022700035767C0184E0F594E7948A95E1F7C7010F
:102280000E9455765C01C8010E947C766C018AE050
:1022900064E6A8010E94402F8DE064E6A7010E9439
:1022A000402F82E164E6A6010E94402F85E164E6AA
:1022B000A501D1CFDF92EF92FF920F931F93CF939F
:1022C000DF93EC01062F142F8130910571F08130DE
:1022D000910530F08230910569F0DD24EE240EC0C6
:1022E000F2E0DF2EE0E1EE2E09C071E1D72E64E1CD
:1022F000E62E04C056E1D52E49E1E42E35E0F32E5A
:10230000C130D10569F0C130D10520F0C230D1050E
:1023100091F40CC08F2D602F412F0E9416390BC0F5
:102320008F2D602F412F0E947E3805C08F2D602F8A
:10233000412F0E94FC37112329F401500D1508F498
:102340000E2D14E0115082E0F80E8DE0F816C1F663
:102350002DE0F22EC130D10569F0C130D10520F059
:10236000C230D10591F40CC08F2D602F412F0E94F7
:1023700016390BC08F2D602F412F0E947E3805C06B
:102380008F2D602F412F0E94FC37112329F401501B
:102390000D1508F40E2D14E082E0F80E85E1F81614
:1023A00011F01150D7CFDF91CF911F910F91FF9076
:1023B000EF90DF90089584E061E048E127E80E9413
:1023C00075310895EF92FF920F931F93DF93CF9390
:1023D0000F92CDB7DEB77C0182E090E00E94FF0C47
:1023E000FC0110810181E114F10429F081E0E8167B
:1023F000F104D1F50DC084E061E048E127E80E94D6
:10240000753182E090E0612F402F0E945A112CC05C
:1024100084E061E048E127E80E947531612F615056
:10242000623008F460E1162F1150123008F410E108
:1024300095E0892F612F402F99830E94FC37998165
:10244000002339F41150163118F404E019E101C0E9
:1024500004E09E5F9D3011F00150EBCF8FE061E012
:1024600049E550E20E94B32E0F90CF91DF911F916A
:102470000F91FF90EF900895EF92FF920F931F93AB
:10248000DF93CF930F92CDB7DEB77C0181E090E070
:102490000E94FF0CFC0110810181E114F10429F07C
:1024A00081E0E816F104D1F50DC084E061E048E177
:1024B00027E80E94753181E090E0612F402F0E9453
:1024C0005A112CC084E061E048E127E80E94753190
:1024D000612F6150623008F460E1162F1150123004
:1024E00008F410E195E0892F612F402F99830E9415
:1024F0007E389981002339F41150113118F404E029
:1025000014E101C004E09E5F9D3011F00150EBCF5B
:102510008FE061E049E550E20E94B32E0F90CF9129
:10252000DF911F910F91FF90EF900895FF920F930D
:102530001F93CF93DF93EC0180E090E00E94FF0CAB
:10254000FC011081F180C330D10509F442C0C430D0
:10255000D10530F4C130D105D1F0229700F510C07B
:10256000C530D10509F453C0C530D10508F440C0C9
:10257000C630D10509F45AC0279709F096C06BC040
:1025800084E061E048E127E80E9475315DC084E0A5
:1025900061E048E127E80E947531612F0FC084E0B7
:1025A00061E048E127E80E947531612F6150623097
:1025B00008F460E16150623008F460E1615062301B
:1025C00008F460E16150623008F460E180E090E07E
:1025D0003EC084E061E048E127E80E94753180E078
:1025E0001150123008F410E18F5F8630C9F72CC00B
:1025F00084E061E048E127E80E94753180E01150F5
:10260000123008F410E18F5F8830C9F71DC084E0F4
:1026100061E048E127E80E94753180E011501230F6
:1026200008F410E18F5F8A30C9F70EC084E061E0E2
:1026300048E127E80E94753180E01150123008F41B
:1026400010E18F5F8C30C9F780E090E0612F4F2D53
:102650000E945A112AC084E061E048E127E80E9404
:10266000753180E01150123008F410E18F5F8E3028
:10267000C9F705E0802F612F4F2D0E941639FF20EA
:1026800049F41150123020F4B4E0FB2E10E102C0E6
:10269000A4E0FA2E0E5F0D3011F0FA94EBCF8FE02C
:1026A00061E049E550E20E94B32EDF91CF911F9186
:1026B0000F91FF9008950F931F93CF93DF938C0199
:1026C0008091AF3C882379F481E08093AF3C0E94F5
:1026D000793785E090E080936F209093702010927E
:1026E000B03C1092B13C0E94C2040E9433590E9437
:1026F0009A74B8010E94F45BEC010817190731F0D5
:102700001092AF3C0E9456328E010EC08FE690E2CE
:1027100060EB7CE30E94DA0F882331F01092AF3C2B
:102720000E94563200E010E0C801DF91CF911F9166
:102730000F9108959C01FB01DA0185E090E0808310
:1027400091831D921C9229323105B9F02A3231054C
:1027500038F42732310559F028323105B1F40AC076
:102760002A32310569F02B32310579F40CC00E9410
:10277000353508950E94963C08950E947A3C08954C
:102780000E945E3C08950E94263C0895CF92DF92FD
:10279000EF92FF920F931F93CF93DF938C017B01F6
:1027A0006A0185E090E0FB01808391830E949A7426
:1027B000B8010E94E45EEC018E32910549F08F323F
:1027C000910549F08C32910551F40E94C95507C01A
:1027D0000E94145502C00E94F354CBE2D0E0CE0117
:1027E0008B97029758F0CE32D10541F0CF32D10508
:1027F00029F0CE01B701A6010E949A13CE01DF9104
:10280000CF911F910F91FF90EF90DF90CF9008959F
:10281000EF92FF920F931F93CF93DF938C017B0175
:102820000E949A746AE270E00E941560EC018A329C
:10283000910521F0B801A7010E949A13CE01DF9102
:10284000CF911F910F91FF90EF900895EF92FF921B
:102850000F931F93CF93DF938C017B010E949A7497
:1028600069E270E00E94A360EC018932910521F0D9
:10287000B801A7010E949A13CE01DF91CF911F9159
:102880000F91FF90EF900895EF92FF920F931F9397
:10289000CF93DF938C017B010E949A7468E270E011
:1028A0000E943161EC018832910521F0B801A70145
:1028B0000E949A13CE01DF91CF911F910F91FF904B
:1028C000EF900895EF92FF920F931F93CF93DF93B2
:1028D0008C017B010E949A7467E270E00E94975E0F
:1028E000EC018732910521F0B801A7010E949A13EB
:1028F000CE01DF91CF911F910F91FF90EF9008953E
:10290000CF93DF93EC018932910589F18A329105E9
:1029100050F487329105E9F08832910508F583304B
:102920009105D1F507C08A32910541F180339105B7
:1029300098F52BC085E090E08093712090937220F1
:102940001092B23C1092B33C0E943535C7E2D0E001
:1029500023C081E790E262EB7CE30E9462141BC01B
:1029600081E790E262EB7CE30E94441414C081E7AB
:1029700090E262EB7CE30E9426140DC081E790E2B6
:1029800062EB7CE30E94081406C061E770E242EB50
:102990005CE30E94C613EC010E94C2040E943D59F0
:1029A00081E790E262EB7CE30E94DA0F882311F06A
:1029B000C0E0D0E0CE01DF91CF9108959C01FB01F2
:1029C000DA0185E090E0808391831D921C9224318E
:1029D000310509F441C025313105A8F42031310514
:1029E00079F12131310540F42E30310519F12F30C4
:1029F000310509F045C021C02231310539F12331BB
:102A0000310538F520C02731310579F128313105FC
:102A100038F42531310519F12631310589F522C007
:102A20002A31310541F12B31310541F1293131058F
:102A300039F51EC00E94B13E08950E94983E089547
:102A40000E94853E08950E946C3E08950E94EC3ECF
:102A500008950E94D93E08950E944D3E08950E9417
:102A60003A3E08950E94C63E08950E94104008957F
:102A70000E941A3F08950E94ED3D08950E94DA3D9C
:102A80000895EF92FF920F931F93CF93DF938C01E2
:102A90007B010E949A746BE170E00E94BF61EC01BF
:102AA0008B31910521F0B801A7010E94DE14CE01FF
:102AB000DF91CF911F910F91FF90EF900895EF92CA
:102AC000FF920F931F93CF93DF938C017B010E94A2
:102AD0009A746AE170E00E94F166EC018A31910516
:102AE00021F0B801A7010E94DE14CE01DF91CF9141
:102AF0001F910F91FF90EF900895EF92FF920F9327
:102B00001F93CF93DF938C017B010E949A7469E13C
:102B100070E00E94A163EC010E94D945C931D10542
:102B200029F0CE01B801A7010E94DE14CE01DF9189
:102B3000CF911F910F91FF90EF900895EF92FF9228
:102B40000F931F93CF93DF937C018B018091B43C53
:102B5000882319F0C8E1D0E002C0C7E1D0E00E94AC
:102B60009A74BE010E941069EC018831910509F048
:102B700049C081E290E00E94ED48882349F08DE051
:102B800090E00E944E5685E090E00E944E5631C083
:102B90008091B43C882379F481E08093B43C84E054
:102BA00090E0F7018083918388E790E0F8018083CB
:102BB00091830E940E52F8014081518181E164E6C7
:102BC0000E94402FF80180819181892B21F510927C
:102BD000B43C8DE090E00E94EE4F85E090E00E94D2
:102BE000EE4F0E94C75181E164E642E024E10E9479
:102BF00075318FE061E043E150E00E945B26C7E160
:102C0000D0E009C08731910531F01092B43CB70192
:102C1000A8010E94DE14CE01DF91CF911F910F9188
:102C2000FF90EF900895EF92FF920F931F93CF9331
:102C3000DF938C017B010E949A7466E170E00E9430
:102C4000836AEC018631910521F0B801A7010E9449
:102C5000DE14CE01DF91CF911F910F91FF90EF9085
:102C60000895EF92FF920F931F93CF93DF938C0100
:102C70007B010E949A7465E170E00E94526DEC0144
:102C80008531910521F0B801A7010E94DE14CE0123
:102C9000DF91CF911F910F91FF90EF900895EF92E8
:102CA000FF920F931F93CF93DF938C017B010E94C0
:102CB0009A7464E170E00E94D364EC018431910560
:102CC00021F0B801A7010E94DE14CE01DF91CF915F
:102CD0001F910F91FF90EF900895EF92FF920F9345
:102CE0001F93CF93DF938C017B010E949A7463E161
:102CF00070E00E94726EEC018331910521F0B80101
:102D0000A7010E94DE14CE01DF91CF911F910F9198
:102D1000FF90EF900895EF92FF920F931F93CF9340
:102D2000DF938C017B010E949A7462E170E00E9443
:102D30003F6CEC018231910521F0B801A7010E949E
:102D4000DE14CE01DF91CF911F910F91FF90EF9094
:102D50000895EF92FF920F931F93CF93DF938C010F
:102D60007B010E949A7461E170E00E943D66EC0173
:102D70008131910521F0B801A7010E94DE14CE0136
:102D8000DF91CF911F910F91FF90EF900895EF92F7
:102D9000FF920F931F93CF93DF938C017B010E94CF
:102DA0009A7460E170E00E94AE6FEC018031910591
:102DB00021F0B801A7010E94DE14CE01DF91CF916E
:102DC0001F910F91FF90EF900895EF92FF920F9354
:102DD0001F93CF93DF938C017B010E949A746FE065
:102DE00070E00E943A71EC018F30910521F0B8013A
:102DF000A7010E94DE14CE01DF91CF911F910F91A8
:102E0000FF90EF900895EF92FF920F931F93CF934F
:102E1000DF938C017B010E949A746EE070E00E9447
:102E2000935BEC018E30910521F0B801A7010E945F
:102E3000DE14CE01DF91CF911F910F91FF90EF90A3
:102E40000895CF93DF93EC018431910509F475C0A7
:102E500085319105E0F48031910509F452C081314A
:102E6000910560F48E309105F1F18F30910508F0F5
:102E700041C08230910509F091C026C08231910590
:102E800009F44DC08331910508F050C041C088312C
:102E9000910509F467C08931910548F4863191059F
:102EA00009F459C08731910508F05CC04DC08A31E2
:102EB000910509F465C08A31910508F45AC08B3137
:102EC000910509F06BC063C085E090E080937320AA
:102ED000909374201092B53C1092B63C0E94B13E83
:102EE000CEE0D0E05BC083E790E265EB7CE30E943C
:102EF000031753C083E790E265EB7CE30E94E5167D
:102F00004CC083E790E265EB7CE30E94C71645C0A6
:102F100083E790E265EB7CE30E94A9163EC083E75D
:102F200090E265EB7CE30E948B1637C083E790E26A
:102F300065EB7CE30E946D1630C083E790E265EBA1
:102F40007CE30E944F1629C083E790E265EB7CE3A7
:102F50000E94311622C083E790E265EB7CE30E9479
:102F600013161BC083E790E265EB7CE30E949E157D
:102F700014C083E790E265EB7CE30E947D150DC0F1
:102F800083E790E265EB7CE30E945F1506C083E770
:102F900090E265EB7CE30E944115EC010E94C204C3
:102FA0000E94385983E790E265EB7CE30E94DA0FD8
:102FB000882331F0689711F40E946553C0E0D0E097
:102FC000CE01DF91CF910895CF93DF93EC01CB0138
:102FD000BA010E94DA0F882341F080E060E045E00A
:102FE00050E00E947747C0E0D0E0CE01DF91CF9162
:102FF00008959C016230710529F581E190E00E94FD
:10300000ED4890E08093BC3C9093BD3C892B39F413
:103010001092792010927A2085E190E00EC081E034
:1030200090E08093BC3C9093BD3C85E090E0809321
:10303000792090937A2087E090E080937720909396
:1030400078200895809177209091782062317105E1
:1030500069F40E94BA346091792070917A2080914D
:10306000BC3C9091BD3C0E94E7390895459709F416
:1030700099C06130710509F095C08091BE3C909176
:10308000BF3C82179307B1F12093BE3C3093BF3C05
:103090008091792090917A20892BC9F48CE390E07B
:1030A0008093792090937A208091BC3C9091BD3C94
:1030B000009729F001978093BC3C9093BD3C4091D0
:1030C000BC3C5091BD3C8DE067E80E94852A809110
:1030D000792090917A20009729F0019780937920A8
:1030E00090937A204091792050917A208DE063E985
:1030F0000E94852A809177209091782088309105D0
:1031000049F58091BC3C9091BD3C892B09F04AC0A7
:103110008091792090917A20892B09F043C087E033
:1031200090E0809377209093782082E190E00E9455
:10313000ED488093BC3C1092BD3C109279201092D7
:103140007A2086E066E84BE050E00E94B8250E94B5
:10315000B1510895079731F58091BC3C9091BD3CE9
:10316000892B01F58091792090917A20892BD1F4D7
:1031700088E090E0809377209093782081E190E040
:103180000E94ED488093BC3C1092BD3C1092792087
:1031900010927A2086E066E840E050E00E94B82570
:1031A0000E94FC5108950F931F93CF93DF93EC017E
:1031B0008B014230510501F583E190E00E94ED481A
:1031C0008093C13C882349F41092C03C85E190E093
:1031D00080937B2090937C2021C01092C23C81E0A0
:1031E0008093C13C82E08093C03C87E090E0809374
:1031F0007B2090937C20F8C04131510509F4F4C044
:1032000060917B2070917C204231510521F40E9415
:10321000893F87E0E5C06531710519F425E130E0AB
:10322000E7C04F30510599F46830710509F0DCC0F2
:103230008D30910521F08A30910509F0D5C0CE017D
:1032400068E070E00E94893F0E944652CDC0433042
:10325000510559F46830710509F0C6C068E070E0A6
:103260000E94893F0E942F52BFC04130510509F092
:10327000BBC06830710571F58133910559F18091BA
:10328000C13C882339F58091C03C882309F059C09E
:1032900087E090E080937B2090937C2086E190E013
:1032A0000E94ED488093C23C84E190E00E94ED488A
:1032B0008093C13C82E08093C03CCE0167E070E027
:1032C0000E94893F87E060EC7CE30E94F7390E940E
:1032D0002F5237C067307105A1F5C133D10589F18F
:1032E0008091C23C882369F58091C13C882349F5CF
:1032F0008091C03C882329F5CD30D10519F0CA3022
:10330000D105F9F488E090E080937B2090937C20B5
:103310001092C23C83E190E00E94ED488093C13C52
:1033200082E08093C03C60917B2070917C20CE0134
:103330000E94893F87E060EC7CE30E94F7390E949D
:10334000465280917B2090917C208730910549F0F6
:10335000CD30D10519F02A9709F046C0089709F039
:1033600043C08091C33C9091C43C80179107E1F128
:103370000093C33C1093C43C8091C03C882341F52A
:103380009091C13C992321F48091C23C882329F07B
:103390008CE38093C03C992379F49091C23C9923AB
:1033A00059F08CE38093C13C91509093C23C86E0ED
:1033B00060EC7CE30E94F7398091C13C882319F0CE
:1033C00081508093C13C82E060EC7CE30E94F7393D
:1033D0008091C03C882319F081508093C03C81E0EB
:1033E00060EC7CE30E94F73920917B2030917C20B7
:1033F000C901DF91CF911F910F910895EF92FF9234
:103400000F931F93CF93DF938C017B0142305105C3
:1034100059F40E94513F8093C73C9093C83C10924E
:10342000C53C1092C63C2EC14F30510551F48C3032
:10343000910521F08930910509F024C10E940E52B6
:1034400021C14330510551F48C30910521F0893070
:10345000910509F017C10E94C75114C145305105AB
:1034600069F40E94B73C6091C53C7091C63C809164
:10347000C73C9091C83C0E941D3A04C1413051059F
:1034800009F000C18091C73C9091C83C892B09F09C
:103490009FC08091C53C9091C63C892B09F098C093
:1034A0000C301105C1F00D30110540F40930110543
:1034B00091F00A30110509F08BC03AC00E311105A8
:1034C00009F459C00F31110509F472C00D3011050E
:1034D00009F07EC02DC0C80161E070E00E94345048
:1034E000EC0165E070E00E9434500E94C7510C1757
:1034F0001D0741F0CE0160E070E043E050E00E9423
:10350000D318C1C00C30110519F40DE010E005C04E
:103510000930110511F40AE010E0C8010E94B73C1F
:10352000C80160E070E04FE050E00E94D31817C07F
:10353000C80160E070E043E050E00E94D3180E94B0
:103540000E520D30110519F40CE010E005C00A30E0
:10355000110511F409E010E0C8010E94B73CC80150
:103560000E94513F8093C73C9093C83C1092C53C49
:103570001092C63C2DC08EE190E061E070E00E94A8
:1035800034508EE190E065E070E00E9434500E947B
:10359000C7518FE190E00E94513F8093C73C9093C8
:1035A000C83C1092C53C1092C63C0FE110E010C020
:1035B0000E940E528EE190E00E94513F8093C73CE2
:1035C0009093C83C1092C53C1092C63C0EE110E0AE
:1035D0008091C93C9091CA3CE816F90649F1E09205
:1035E000C93CF092CA3C8091C53C9091C63C892B65
:1035F000A1F40133110589F08CE390E08093C53C80
:103600009093C63C8091C73C9091C83C009729F0AC
:1036100001978093C73C9093C83C8091C53C9091A2
:10362000C63C009729F001978093C53C9093C63C17
:10363000C8014E97029730F10930110531F00C3076
:10364000110519F00133110599F46091C53C709191
:10365000C63C8091C73C9091C83C0E94F440609168
:10366000C73C7091C83C8BE090E00E9470100AC08B
:103670006091C53C7091C63C8091C73C9091C83C1C
:103680000E94CE40E801CE01DF91CF911F910F91B2
:10369000FF90EF900895EF92FF920F931F93CF93B7
:1036A000DF93EC018B017A0181329105E1F18232E5
:1036B0009105A0F48D31910509F461C08E31910519
:1036C00028F48C31910509F095C08CC08E3191059C
:1036D000E9F08032910509F08DC01BC0843291055C
:1036E00009F46EC08532910540F482329105F1F003
:1036F0008332910509F07EC060C08532910509F4DE
:103700006AC08632910509F075C06AC089E090E010
:1037100002C08CE090E060E070E042E050E00E9487
:10372000FE190E940E528CE390E05EC08FE062E0D2
:1037300045E028E70E94753181E16FE04DE550E2F8
:103740000E94B32E8FE065E542E150E00E94B8256B
:103750008EE190E0F80180839183F701108211825D
:10376000F8014081518181E16CE70E948E2FF701C1
:103770004081518181E16EE80E948E2F3BC00E9402
:10378000A7528FE062E045E028E70E94753181E1B1
:1037900068E848E650E20E94B32EF801C083D18366
:1037A0008BE390E0F70180839183F8018081918120
:1037B0006BE370E00E947A401DC00E94245212C048
:1037C0000E940052F801108211828AE090E0F70115
:1037D000808391830FC00E94FC518EE190E004C071
:1037E0000E94465285E090E0F80180839183F701C2
:1037F00010821182DF91CF911F910F91FF90EF9076
:103800000895EF92FF920F931F93CF93DF938C0154
:103810007B010E949A7466E270E00E94D672B80141
:10382000A7010E94E417EC018632910539F00E944D
:103830002F52CE01B801A7010E944B1BCE01DF9190
:10384000CF911F910F91FF90EF900895EF92FF920B
:103850000F931F93CF93DF938C017B010E949A7487
:1038600065E270E00E94D672B801A7010E94E417D9
:10387000EC018532910539F00E94B151CE01B801B9
:10388000A7010E944B1BCE01DF91CF911F910F9199
:10389000FF90EF900895EF92FF920F931F93CF93B5
:1038A000DF938C017B010E949A7464E270E00E94B5
:1038B000D672B801A7010E94E417EC018432910589
:1038C00039F00E94B551CE01B801A7010E944B1BEF
:1038D000CE01DF91CF911F910F91FF90EF9008954E
:1038E000EF92FF920F931F93CF93DF938C017B0195
:1038F0000E949A7463E270E00E94D672B801A70138
:103900000E94E417EC018332910539F00E94DD51E9
:10391000CE01B801A7010E944B1BCE01DF91CF91D0
:103920001F910F91FF90EF900895CF92DF92EF9249
:10393000FF920F931F93CF93DF93EC017B016A01FA
:103940000E949A74BE010E94D672B701A6010E941D
:10395000E4178C018C179D07C9F08D31910561F03A
:103960008FE062E045E028E70E94753181E16DE378
:103970004AE650E20E94B32E6D9711F40E949352D2
:10398000C801B701A6010E944B1B1CC082329105E1
:10399000C9F40E9433598091B73C8F5F8093B73C44
:1039A0008D3731F481E16FE04DE550E20E94FB2C50
:1039B0008091B73C8A3F31F481E16FE04DE550E200
:1039C0000E94B32EC801DF91CF911F910F91FF90FC
:1039D000EF90DF90CF900895EF92FF920F931F9397
:1039E000CF93DF938C017B010E949A7461E270E0B7
:1039F0000E94D672B801A7010E94E417EC0181323F
:103A0000910521F0B801A7010E944B1BCE01DF9167
:103A1000CF911F910F91FF90EF900895EF92FF9239
:103A20000F931F93CF93DF938C017B010E949A74B5
:103A300060E270E00E94D672B801A7010E94E4170C
:103A4000EC018032910539F00E94C751CE01B801D6
:103A5000A7010E944B1BCE01DF91CF911F910F91C7
:103A6000FF90EF900895EF92FF920F931F93CF93E3
:103A7000DF938C017B010E949A746CE170E00E94DC
:103A8000D672B801A7010E94E417EC018C319105B0
:103A900021F0B801A7010E944B1BCE01DF91CF910D
:103AA0001F910F91FF90EF900895CF92DF92EF92C8
:103AB000FF920F931F93CF93DF937C016B018A01D9
:103AC0000E949A74B7010E94D672B601A8010E94A2
:103AD000E417EC014E97029760F08EE1E816F104CE
:103AE00011F40E94C751CE01B601A8010E944B1BE0
:103AF00009C0F80160817181CE0141E050E00E946F
:103B0000FE19EC01CE01DF91CF911F910F91FF9033
:103B1000EF90DF90CF900895CF93DF93EC01803248
:103B2000910509F44DC08132910578F48D319105EC
:103B300009F454C08E319105E0F58130910509F109
:103B40008C31910509F06EC02DC08332910509F4C6
:103B50004DC08432910540F481329105C1F1823229
:103B6000910509F05FC03AC08532910509F44CC057
:103B70008532910508F441C08632910509F052C0A2
:103B80004AC085E090E08093752090937620109253
:103B9000BA3C1092BB3C60E070E00E949C40CCE1DB
:103BA000D0E040C085E790E26AEB7CE30E94331DE1
:103BB00038C065E770E24AEB5CE30E94551D31C0F6
:103BC00085E790E26AEB7CE30E940E1D2AC085E740
:103BD00090E26AEB7CE30E94EC1C23C0CE0165E717
:103BE00070E24AEB5CE30E94951C1BC085E790E203
:103BF0006AEB7CE30E94701C14C085E790E26AEBDC
:103C00007CE30E944B1C0DC085E790E26AEB7CE3ED
:103C10000E94261C06C085E790E26AEB7CE30E94C6
:103C2000011CEC010E94C20481E090E00E94872206
:103C3000C232D105A9F06091BA3C7091BB3C809131
:103C40007520909176200E94D43781E090E061E069
:103C500070E00E94744FCE0161E070E00E94CB578B
:103C60008091B83C9091B93C81509D4774F010927E
:103C7000B83C1092B93C0E94652482E090E00E941A
:103C8000115981E090E00E941A358091B83C9091E2
:103C9000B93C01968093B83C9093B93CCE01DF913A
:103CA000CF910895EF92FF920F931F93CF93DF93DD
:103CB000EC018B017A018DE060E046E020EA0E9491
:103CC00075310E94DE4185E060E042E023E20E941F
:103CD0007531CB30D10598F4C930D10570F5C630B7
:103CE000D105B9F0C730D10518F4209779F02CC070
:103CF000C730D10599F0C830D10531F519C0CB30A6
:103D0000D10589F0CE30D105F8F417C00E942F42BA
:103D10001BC0C801B7010E940B3D16C0C801B70106
:103D20000E94F03C11C0C801B7010E94EA3F0CC0DC
:103D3000C801B7010E94FF3E07C0CE0160E070E0FD
:103D400045E050E00E94FE1980E090E062E170E002
:103D50000E94F917CE0160E070E042E150E00E945D
:103D6000D318DF91CF911F910F91FF90EF9008959D
:103D7000CF92DF92EF92FF921F93CF93DF93EC01EC
:103D80007B016A018B309105A8F48930910508F018
:103D90008CC08630910519F18730910518F4009791
:103DA00089F0BAC08730910571F18830910509F02A
:103DB000B3C055C08B309105E1F18E30910508F00C
:103DC000ABC073C0FB0160817181FA0140815181F8
:103DD00080E090E00E94521E0E9497519DC0FA011F
:103DE0001082118282E090E0FB0180839183FA01CE
:103DF0004081518186E090E062E070E00E94521EB6
:103E00000E940E5289C0FA011082118288E090E06F
:103E10000E94ED48682FF70180831182F6014081EE
:103E2000518187E090E070E00E94521E0E94E851AC
:103E300073C0FA011082118289E090E00E94ED487F
:103E4000682FF70180831182F601408151818BE058
:103E500090E070E00E94521E0E94A7525DC08BE06D
:103E600090E00E94ED48F701808311828CE090E0A1
:103E70000E94ED48482F50E0F60140835183F7013E
:103E8000608171816115710549F44115510531F465
:103E900081E090E0F601808391833EC088E090E06D
:103EA0000E94521E0E94245237C0F60110821182D5
:103EB000CE010997029740F482E090E00E94ED481D
:103EC000182F83E090E007C086E090E00E94ED4864
:103ED000182F87E090E00E94ED48312F20E090E01D
:103EE000282B392BF70120833183F7016081718101
:103EF000F60140815181CE010E94521ECE0160E048
:103F000070E04FE050E00E94FE19CE0160E070E0EA
:103F10004FE050E00E94D318DF91CF911F91FF90A6
:103F2000EF90DF90CF900895CF92DF92EF92FF92C3
:103F30000F931F93CF93DF937B016A01FA010081F6
:103F40001181FB0160817181A8010E94380CB801C8
:103F500041E050E00E94FE19EC01C701B6010E9449
:103F6000DA0F882381F0C133D10569F0CE0160E01A
:103F700070E043E050E00E94D3182C9711F40E94A7
:103F8000C751C7E0D0E0CE01DF91CF911F910F91D3
:103F9000FF90EF90DF90CF900895EF92FF920F93F4
:103FA0001F93CF93DF938C017B01FB0160817181B3
:103FB000FC01808191810E94F440F801608171814F
:103FC000F701408151818BE090E00E94380CEC01B8
:103FD000C801B7010E94DA0F882339F0E19729F070
:103FE0000E94935228E030E002C02BE030E0C9018B
:103FF000DF91CF911F910F91FF90EF900895EF9275
:10400000FF920F931F93CF93DF938C017B01FB01F2
:1040100060817181FC01808191810E94CE40F80114
:1040200060817181F7014081518187E090E00E94B9
:10403000380CEC01C801B7010E94DA0F882329F07F
:10404000E19719F02BE030E002C027E030E0C90131
:10405000DF91CF911F910F91FF90EF900895EF9214
:10406000FF920F931F93CF93DF938C017B01FB0192
:1040700060817181FC01808191810E94F440F8018E
:10408000608171818BE090E00E947010F801608186
:104090007181F7014081518186E090E00E94380CE7
:1040A000EC01C801B7010E94DA0F882361F0E197A3
:1040B00051F086E090E061E070E00E943450EC0145
:1040C0000E94C75102C0C6E0D0E0CE01DF91CF917F
:1040D0001F910F91FF90EF900895AF92BF92CF92F2
:1040E000DF92EF92FF920F931F93CF93DF935C01C8
:1040F0007B016A01FA0100811181FB0160817181FC
:10410000A8010E94380CB80141E050E00E94FE195D
:10411000EC01C701B6010E94DA0F8823F9F0C13320
:10412000D10501F187E190E00E94ED48882339F044
:10413000CE0164E370E00E949A32882391F0CE01B0
:1041400060E070E043E050E00E94D318299711F43A
:104150000E94C7511CE0A12EB12C04C0C133D1056F
:1041600009F05E01C501DF91CF911F910F91FF9082
:10417000EF90DF90CF90BF90AF900895EF92FF92B5
:104180000F931F93CF93DF938C017B01FB01608121
:104190007181FC01808191810E94F440F80160816D
:1041A0007181F7014081518188E090E00E94380CD4
:1041B000EC01C801B7010E94DA0F882349F1E197A9
:1041C00039F10E94DD5181E390E060E070E00E94EF
:1041D000701080E090E060E042E050E00E9407480C
:1041E00088E190E060E070E00E9470108EE190E065
:1041F0000E94ED48882349F081E290E00E94ED485A
:10420000882319F426E030E005C029E030E002C040
:1042100028E030E0C901DF91CF911F910F91FF900D
:10422000EF900895EF92FF920F931F93CF93DF9338
:10423000EC018B309105B8F48930910508F0AAC0E3
:104240008630910509F479C08730910518F40097FC
:1042500099F0E1C08730910509F47AC08830910562
:1042600009F0D9C08CC08B30910509F47DC08E3027
:10427000910508F0D0C0ADC00E942F42C0917F20B0
:10428000D09180208091CB3C882361F080917D206B
:1042900090917E20892B41F587E190E00E94ED48C6
:1042A000882311F581E08093CB3C89E090E060E0C9
:1042B00070E042E050E00E94FE19CE0160E070E044
:1042C00042E050E00E94D31880E090E062E070E0AD
:1042D0000E94F9170E949751CE016DE770E24EECF3
:1042E0005CE30E94B81E97C0E0907D20F0907E2095
:1042F0000091CE3C1091CF3CCE016DE770E24EECC8
:104300005CE30E94B81EE0927D20F0927E20009334
:10431000CE3C1093CF3CCE010C97029708F47BC0A3
:10432000C930D10509F477C0CA30D10509F473C08A
:10433000C701B8010E941D3A6EC080937F20909300
:1043400080208DE790E26EEC7CE30E942F200AC073
:1043500080937F20909380208DE790E26EEC7CE349
:104360000E94FF1FEC0157C080937F209093802014
:104370008DE790E26EEC7CE30E94CD1FF3CF80933B
:104380007F20909380208DE790E26EEC7CE30E948A
:10439000BE20E8CF80937F20909380206DE770E26D
:1043A0004EEC5CE30E946D20EC018930910539F4FC
:1043B00080917F20909180200A9769F528C08A30EB
:1043C000910549F580917F2090918020099719F5FA
:1043D0001EC080937F20909380206DE770E24EECAA
:1043E0005CE30E94941FEC018C30910539F48091BC
:1043F0007F20909180200D9771F409C08D30910538
:1044000051F480917F20909180200C9721F4C093EB
:104410007F20D09380200E949A74BE014DE750E225
:104420002EEC3CE30E94AF7361E070E00E94CB573A
:10443000EC0180917F2090918020C817D90739F036
:10444000CE016DE770E24EEC5CE30E94B81E0E9464
:10445000C20481E090E00E9487226091CE3C70917E
:10446000CF3CCE0141E050E00E94D3188091CE3C79
:104470009091CF3C61E070E00E94F91780E090E0FD
:1044800061E070E00E94744F8091CC3C9091CD3CF3
:104490008A30910539F40E94652482E090E00E9400
:1044A000115924C027E28031920729F480E090E07E
:1044B0000E941A351BC02EE48032920729F480E056
:1044C00060E00E94762412C0815395477CF0609191
:1044D0007D2070917E204091CE3C5091CF3CCE010A
:1044E0000E94521E1092CC3C1092CD3C8091CC3C4C
:1044F0009091CD3C01968093CC3C9093CD3CCE01E5
:10450000DF91CF911F910F91FF90EF9008959C0143
:104510008730910501F18830910540F48130910593
:1045200019F18330910509F061C05CC088309105B4
:1045300029F08331910509F059C011C088E0E0E409
:10454000F6E085832093673A3093683A1092D03C26
:104550001092D13C089588E0E0E4F6E08683209351
:10456000673A3093683A08958091673A9091683A33
:1045700088309105D9F48091D03C9091D13C01963E
:104580008093D03C9093D13C8153954778F1109221
:10459000D03C1092D13C88E0E0E4F6E0868387E0EE
:1045A00090E08093673A9093683A08954397F1F4C6
:1045B0008091D03C9091D13C01968093D03C9093D7
:1045C000D13C31E08139930788F0E0E4F6E028E05F
:1045D0002683815D974050F01092D03C1092D13CE0
:1045E000258308951092D03C1092D13C0895E0E4C8
:1045F000F6E084E0818386830895282F80FD02C041
:1046000090E001C093E021FD945F22FD905D23FDC9
:104610009054892F08959C01462F8DE3B9010E9483
:104620006C7908959C01462F8CE3B9010E946C7946
:10463000982F8151843010F481E0089580E0963104
:1046400009F481E008950F931F93DF93CF930F92A6
:10465000CDB7DEB786EA89838E010F5F1F4FC80191
:1046600061E00E9412238823D1F70F90CF91DF9150
:104670001F910F9108950F931F93DF93CF930F9284
:10468000CDB7DEB787EA89838E010F5F1F4FC80160
:1046900061E00E9412238823D1F70F90CF91DF9120
:1046A0001F910F9108950F931F93DF93CF930F9254
:1046B000CDB7DEB782EE89838E010F5F1F4FC80131
:1046C00061E00E9412238823D1F70F90CF91DF91F0
:1046D0001F910F9108950F931F93DF93CF930F9224
:1046E000CDB7DEB784EA89838E010F5F1F4FC80103
:1046F00061E00E9412238823D1F70F90CF91DF91C0
:104700001F910F9108950F931F93DF93CF930F92F3
:10471000CDB7DEB785EA89838E010F5F1F4FC801D1
:1047200061E00E9412238823D1F70F90CF91DF918F
:104730001F910F9108950F931F93DF93CF9300D094
:104740000F92CDB7DEB794EF99838A8386EF8B8380
:104750006C838E010F5F1F4FC80164E00E9412231B
:104760008823D1F72496CDBFDEBFCF91DF911F9173
:104770000F9108950F931F93DF93CF9300D00F9263
:10478000CDB7DEB795EF99838A8387EF8B836C83F0
:104790008E010F5F1F4FC80164E00E94122388231F
:1047A000D1F72496CDBFDEBFCF91DF911F910F913E
:1047B00008950F931F93DF93CF930F92CDB7DEB77A
:1047C00088EF89838E010F5F1F4FC80161E00E944F
:1047D00012238823D1F70F90CF91DF911F910F9172
:1047E00008950F931F93DF93CF930F92CDB7DEB74A
:1047F00089EF89838E010F5F1F4FC80161E00E941E
:1048000012238823D1F70F90CF91DF911F910F9141
:1048100008950F931F93DF93CF930F920F92CDB70D
:10482000DEB7982F813A78F48F70898392959F70C4
:10483000905F9A838E010F5F1F4FC80162E00E9454
:1048400012238823D1F70F900F90CF91DF911F9102
:104850000F9108950F931F93DF93CF930F92CDB7CE
:10486000DEB7982F905A893150F499838E010F5FEB
:104870001F4FC80161E00E9412238823D1F70F90D7
:10488000CF91DF911F910F910895EF92FF920F93B7
:104890001F93082FF62E142FE22E0E942A248F2D0C
:1048A0000E9409240E94F123110F100F802F612F05
:1048B0000E94BA236F2D61506E0D8F2D0E949B2395
:1048C0001F910F91FF90EF900895E0E4F6E088E0EB
:1048D000818384E0818385830E9453238BE59AE35F
:1048E0006BE00E9412238823C9F708952F923F920C
:1048F0004F925F926F927F928F929F92AF92BF92F0
:10490000CF92DF92EF92FF920F931F93DF93CF939B
:10491000CDB7DEB7C555D040CDBFDEBF3E01089450
:10492000611C711C90E5F30111929A95E9F7509082
:104930006F39F09170396296FFAF62974F2F252D36
:104940000E944524252C3324442492E0892E912C66
:10495000C30165966FAE659766969FAF6697820DA9
:10496000931D64968EAF9FAF64972BC0F501819124
:104970005F018F700E94FD22F80181938F01649680
:104980008EAD9FAD64970817190781F78DE3B301CA
:10499000452D0E946C790AC0F60181916F018295C4
:1049A0008F700E94FD22F70181937F01E016F106CE
:1049B00099F78DE3B301452D0E946C794394820CE5
:1049C000931C6296FFAD62974F1680F48FE6C82E57
:1049D00089E3D82EC80CD91C65968FAD659766966D
:1049E0009FAD66977C0156018301C9CF0E94D923F0
:1049F000CB5ADF4FCDBFDEBFCF91DF911F910F911B
:104A0000FF90EF90DF90CF90BF90AF909F908F90EE
:104A10007F906F905F904F903F902F9008952F92CE
:104A20003F924F925F926F927F928F929F92AF923E
:104A3000BF92CF92DF92EF92FF920F931F93DF937B
:104A4000CF93CDB7DEB7C55AD040CDBFDEBF3E0154
:104A50000894611C711C90EAF30111929A95E9F790
:104A60005090BD39F091BE39CF55DF4FF883C15A10
:104A7000D0404F2F252D0E944524252C332444243B
:104A800032E0832E912CC301CC55DF4F6882C45A8B
:104A9000D040CB55DF4F9883C55AD040820D931D2F
:104AA000CE55DF4F88839983C25AD0402DC0F5017F
:104AB00081915F018F700E94FD22F80181938F0127
:104AC000CE55DF4F88819981C25AD0400817190707
:104AD00071F78DE3B301452D0E946C790AC0F60190
:104AE00081916F0182958F700E94FD22F701819361
:104AF0007F01E016F10699F78DE3B301452D0E9481
:104B00006C794394820C931CCF55DF4FF881C15AC6
:104B1000D0404F16A0F42DEBC22E29E3D22EC80CA4
:104B2000D91CCC55DF4F8881C45AD040CB55DF4FBC
:104B30009881C55AD0407C0156018301C1CF0E94A3
:104B4000D923CB55DF4FCDBFDEBFCF91DF911F9172
:104B50000F91FF90EF90DF90CF90BF90AF909F901C
:104B60008F907F906F905F904F903F902F9008951F
:104B70002F923F924F925F926F927F928F929F926D
:104B8000AF92BF92CF92DF92EF92FF920F931F935B
:104B9000DF93CF93CDB7DEB7AD97CDBFDEBF8A0130
:104BA0002E010894411C511C98E2F20111929A9531
:104BB000E9F720904A31F0914B31F9A74F2F222D80
:104BC0000E944524822C992429A5822F90E0FC0183
:104BD0008E9EC0018F9E900D9E9E900D1124809FF1
:104BE0005001819FB00C909FB00C112422E030E066
:104BF000A20EB31E35013324C2014CA69DA7880D19
:104C0000991D8AA79BA731C0F60181916F018F7012
:104C10000E94FD22F80181938F012AA53BA502176E
:104C2000130791F78DE3B201422D0E946C795AE48B
:104C3000C52E51E3D52ECA0CDB1C0AC0F6018191AA
:104C40006F0182958F700E94FD22F70181937F0191
:104C5000E016F10699F78DE3B201422D0E946C79BE
:104C60003394A80CB91C680C791CF9A53F1658F4AC
:104C70004AE4C42E41E3D42EC60CD71C8CA59DA5B6
:104C80007C018201CACF0E94D923AD96CDBFDEBF81
:104C9000CF91DF911F910F91FF90EF90DF90CF9018
:104CA000BF90AF909F908F907F906F905F904F904C
:104CB0003F902F9008952F923F924F925F926F9264
:104CC0007F928F929F92AF92BF92CF92DF92EF929C
:104CD000FF920F931F93DF93CF93CDB7DEB7AD97BE
:104CE000CDBFDEBF8A012E010894411C511C98E201
:104CF000F20111929A95E9F720907C2AF0917D2A91
:104D0000F9A74F2F222D0E944524822C992429A5F2
:104D1000822F90E0FC018E9EC0018F9E900D9E9E82
:104D2000900D1124809F5001819FB00C909FB00C7A
:104D3000112422E030E0A20EB31E35013324C2015B
:104D40004CA69DA7880D991D8AA79BA731C0F60187
:104D500081916F018F700E94FD22F80181938F0174
:104D60002AA53BA50217130791F78DE3B201422D47
:104D70000E946C797CE7C72E7AE2D72ECA0CDB1C26
:104D80000AC0F60181916F0182958F700E94FD2209
:104D9000F70181937F01E016F10699F78DE3B201E7
:104DA000422D0E946C793394A80CB91C680C791CB4
:104DB000F9A53F1658F46CE7C62E6AE2D62EC60C4B
:104DC000D71C8CA59DA57C018201CACF0E94D92346
:104DD000AD96CDBFDEBFCF91DF911F910F91FF90B8
:104DE000EF90DF90CF90BF90AF909F908F907F908B
:104DF0006F905F904F903F902F9008952F923F9229
:104E00004F925F926F927F928F929F92AF92BF92DA
:104E1000CF92DF92EF92FF920F931F93DF93CF9386
:104E2000CDB7DEB7AD97CDBFDEBF8A012E010894A6
:104E3000411C511C98E2F20111929A95E9F72090D9
:104E40003227F0913327F9A74F2F222D0E944524B6
:104E5000822C992429A5822F90E0FC018E9EC0010E
:104E60008F9E900D9E9E900D1124809F5001819FDA
:104E7000B00C909FB00C112422E030E0A20EB31EC3
:104E800035013324C2014CA69DA7880D991D8AA720
:104E90009BA731C0F60181916F018F700E94FD22A6
:104EA000F80181938F012AA53BA50217130791F7FB
:104EB0008DE3B201422D0E946C79F2E3CF2EF7E22E
:104EC000DF2ECA0CDB1C0AC0F60181916F018295AE
:104ED0008F700E94FD22F70181937F01E016F10699
:104EE00099F78DE3B201422D0E946C793394A80C9E
:104EF000B91C680C791CF9A53F1658F4E2E3CE2ED4
:104F0000E7E2DE2EC60CD71C8CA59DA57C01820194
:104F1000CACF0E94D923AD96CDBFDEBFCF91DF911E
:104F20001F910F91FF90EF90DF90CF90BF90AF90C7
:104F30009F908F907F906F905F904F903F902F90B9
:104F400008952F923F924F925F926F927F928F922D
:104F50009F92AF92BF92CF92DF92EF92FF920F9308
:104F60001F93DF93CF93CDB7DEB72F97CDBFDEBFB3
:104F7000042F2E010894411C511C9AE0F201119259
:104F80009A95E9F720904325F0914425FB874F2F10
:104F9000222D0E944524622C772410E08B85282F37
:104FA00030E0029FC001039F900D129F900D1124CD
:104FB000869D4001879D900C969D900C1124E2E007
:104FC000F0E08E0E9F1E269DC001279D900D369D00
:104FD000900D1124809F5001819FB00C909FB00CC8
:104FE0001124AE0EBF1E3324C2014E869F87860D4C
:104FF000971D8C879D8731C0F60181916F018F705D
:105000000E94FD22F80181938F018C859D850817F0
:10501000190791F78DE3B201422D0E946C79B3E438
:10502000CB2EB5E2DB2EC80CD91C0AC0F60181914B
:105030006F0182958F700E94FD22F70181937F019D
:10504000E016F10699F78DE3B201422D0E946C79CA
:105050003394860C971CA60CB71CFB853F1658F49E
:10506000A3E4CA2EA5E2DA2ECA0CDB1C8E859F852E
:105070007C018201CACF0E94D9232F96CDBFDEBF0B
:10508000CF91DF911F910F91FF90EF90DF90CF9024
:10509000BF90AF909F908F907F906F905F904F9058
:1050A0003F902F900895FF920F931F93CF93DF931C
:1050B000F82E062FEA0110E0FE01E10FF11D4081FC
:1050C00040538F2D602F0E94A12780914325080F08
:1050D0001F5FFE01E10FF11D8081882369F7DF91D9
:1050E000CF911F910F91FF9008952F923F924F9271
:1050F0005F926F927F928F929F92AF92BF92CF9268
:10510000DF92EF92FF920F931F93DF93CF93CDB770
:10511000DEB72F97CDBFDEBF042F2E010894411CB0
:10512000511C9AE0F20111929A95E9F72090862598
:10513000F0918725FB874F2F222D0E944524622C5A
:10514000772410E08B85282F30E0029FC001039F59
:10515000900D129F900D1124869D4001879D900C0B
:10516000969D900C1124E2E0F0E08E0E9F1E269D8D
:10517000C001279D900D369D900D1124809F5001F8
:10518000819FB00C909FB00C1124AE0EBF1E332433
:10519000C2014E869F87860D971D8C879D8731C0E3
:1051A000F60181916F018F700E94FD22F8018193B9
:1051B0008F018C859D850817190791F78DE3B20142
:1051C000422D0E946C7986E8C82E85E2D82EC80C44
:1051D000D91C0AC0F60181916F0182958F700E94DF
:1051E000FD22F70181937F01E016F10699F78DE327
:1051F000B201422D0E946C793394860C971CA60C48
:10520000B71CFB853F1658F416E8C12E15E2D12EC7
:10521000CA0CDB1C8E859F857C018201CACF0E944F
:10522000D9232F96CDBFDEBFCF91DF911F910F9174
:10523000FF90EF90DF90CF90BF90AF909F908F90B6
:105240007F906F905F904F903F902F900895FF92C6
:105250000F931F93CF93DF93F82E062FEA0110E0F0
:10526000FE01E10FF11D408140538F2D602F0E9400
:10527000752880918625080F1F5FFE01E10FF11D43
:105280008081882369F7DF91CF911F910F91FF9063
:105290000895AF92BF92CF92DF92EF92FF920F9359
:1052A0001F93DF93CF93CDB7DEB72A97CDBFDEBF75
:1052B000B82EA62EFE0131968AE0DF011D928A9556
:1052C000E9F76A0157FF02C0CC24DD24C60160E182
:1052D00077E20E944D7A6983772767FD709580E1B8
:1052E00097E2689F8001699F100D789F100D11242F
:1052F000C601801B910B68EE73E00E944D7A6A83B1
:10530000772767FD709588EE93E0689F7001699F2D
:10531000F00C789FF00C1124C701800F911FF6014B
:10532000E81BF90BCF0164E670E00E944D7A6B83B5
:105330008CE9680290011124CF01820F931F6AE06B
:1053400070E00E944D7A6C838C2D820F801B8E1929
:1053500096EF6902B0011124860F8D83FE0131960C
:105360009E012A5F3F4F8081805D8193E217F307A2
:10537000D1F78B2D6A2DAE014F5F5F4F0E94272919
:105380002A96CDBFDEBFCF91DF911F910F91FF9085
:10539000EF90DF90CF90BF90AF900895CF92DF92C3
:1053A000EF92FF920F931F93DF93CF93CDB7DEB7AA
:1053B0002A97CDBFDEBFD82EC62EFE0131968AE0D9
:1053C000DF011D928A95E9F77A0157FF02C0EE24AA
:1053D000FF24C70168EE73E00E944D7A6983772746
:1053E00067FD709588EE93E0689F8001699F100DBE
:1053F000789F100D1124F701E01BF10BCF0164E63B
:1054000070E00E944D7A6A8384E66802900111245C
:10541000CF01821B930B6AE070E00E944D7A6B8390
:105420008E2D801B821B96EF6902B0011124860F1E
:105430008C83FE0131969E012B5F3F4F8081805D02
:105440008193E217F307D1F78D2D6C2DAE014F5FDD
:105450005F4F0E9427292A96CDBFDEBFCF91DF91F3
:105460001F910F91FF90EF90DF90CF900895EF92F2
:10547000FF920F931F93DF93CF93CDB7DEB72A9799
:10548000CDBFDEBFF82EE62E83E0483E58071CF065
:1054900007EE13E007C0141615061CF000E010E03C
:1054A00001C08A01C80164E670E00E944D7A462F6F
:1054B000FE0131968AE0DF011D928A95E9F72CE919
:1054C000620290011124C901800F911F6AE070E00F
:1054D0000E944D7A200F86EF6802C0011124280F28
:1054E000405D4983605D6A83205D2B838F2D6E2D27
:1054F000AF010E9427292A96CDBFDEBFCF91DF9151
:105500001F910F91FF90EF9008950F931F93DF93DA
:10551000CF93CDB7DEB72A97CDBFDEBF182F062FAA
:10552000443651051CF023E630E007C0141615067A
:105530001CF020E030E001C09A01C9016AE070E08F
:105540000E944D7AFE0131968AE0DF011D928A9514
:10555000E9F786EF6802C0011124820F605D69835C
:10556000805D8A83812F602FAF010E9427292A96B0
:10557000CDBFDEBFCF91DF911F910F9108952F9284
:105580003F924F925F926F927F928F929F92AF92D3
:10559000BF92CF92DF92EF92FF920F931F93DF9310
:1055A000CF93CDB7DEB76797CDBFDEBF142FFE0117
:1055B000319694E1DF011D929A95E9F72090F0254C
:1055C000B091F125BD8B4B2F222D0E944524422CFA
:1055D0005524812F8F70A82FB0E0ED894E2F50E019
:1055E000449DF001459DF00D549DF00D1124612F57
:1055F00070E0607F70706115710511F061E070E01E
:10560000CA01880F991F9A0113E0220F331F1A95C0
:10561000E1F7820F931F9C01269FC001279F900DE9
:10562000369F900D1124A49F9001A59F300DB49F2B
:10563000300D1124820F931F849D4001859D900C95
:10564000949D900C112482E090E0880E991EEA9FB0
:105650008001EB9F100DFA9F100D11240E5F1F4F5C
:10566000CF0143E0880F991F4A95E1F7EE0FFF1F26
:105670008E0F9F1FDC01A69FC001A79F900DB69FB4
:10568000900D1124080F191F33243E010894611C4A
:10569000711CF301E20DF11DEE8BFF8B31C0D501C2
:1056A0008D915D018F700E94FD22F70181937F0132
:1056B0002E893F89E216F30691F78DE3B301422D5F
:1056C0000E946C7920EFA22E25E2B22EA80CB91C04
:1056D0000AC0D5018D915D0182958F700E94FD22D7
:1056E000F60181936F01CE14DF0499F78DE3B301C6
:1056F000422D0E946C793394840C951C040D151D69
:10570000FD893F1648F490EFA92E95E2B92EA00E20
:10571000B11E63017301CCCF0E94D9236796CDBF20
:10572000DEBFCF91DF911F910F91FF90EF90DF903F
:10573000CF90BF90AF909F908F907F906F905F9031
:105740004F903F902F9008952F923F924F925F92EB
:105750006F927F928F929F92AF92BF92CF92DF9281
:10576000EF92FF920F931F93DF93CF93CDB7DEB7E6
:10577000E097CDBFDEBF8AA76BA78A012CA72E01B9
:105780000894411C511C88E2F20111928A95E9F7B4
:1057900020906B36F0916C36F9A78AA56BA54F2F38
:1057A000222D0E944524822C992429A5822F90E045
:1057B000FC018E9EC0018F9E900D9E9E900D112427
:1057C000809F5001819FB00C909FB00C112422E06B
:1057D00030E0A20EB31E35013324C2014FA698ABB0
:1057E000880D991D8DA79EA731C0F60181916F018B
:1057F0008F700E94FD22F80181938F012DA53EA597
:105800000217130791F78DE3B201422D0E946C79C4
:105810009BE6C92E96E3D92ECA0CDB1C0AC0F60102
:1058200081916F0182958F700E94FD22F701819313
:105830007F01E016F10699F78DE3B201422D0E9437
:105840006C793394A80CB91C680C791CF9A53F1627
:1058500058F48BE6C82E86E3D82EC60CD71C8FA52D
:1058600098A97C018201CACF2CA5203248F43BA51F
:10587000335F3BA78AA58F5F632F422F0E94BF2A09
:105880000E94D923E096CDBFDEBFCF91DF911F915B
:105890000F91FF90EF90DF90CF90BF90AF909F90CF
:1058A0008F907F906F905F904F903F902F900895D2
:1058B0002F923F924F925F926F927F928F929F9220
:1058C000AF92BF92CF92DF92EF92FF920F931F930E
:1058D000DF93CF93CDB7DEB7AD97CDBFDEBF8A01E3
:1058E0002E010894411C511C98E2F20111929A95E4
:1058F000E9F720900123F0910223F9A74F2F222DE1
:105900000E944524822C992429A5822F90E0FC0135
:10591000E89DC001E99D900DF89D900D1124809F98
:105920005001819FB00C909FB00C112428E030E012
:10593000A20EB31E35013324C2014CA69DA7880DCB
:10594000991D8AA79BA731C0F60181916F018F70C5
:105950000E94FD22F80181938F012AA53BA5021721
:10596000130791F78DE3B201422D0E946C7931E06B
:10597000C32E33E2D32ECA0CDB1C0AC0F601819180
:105980006F0182958F700E94FD22F70181937F0144
:10599000E016F10699F78DE3B201422D0E946C7971
:1059A0003394A80CB91C680C791CF9A53F1658F45F
:1059B00021E0C22E23E2D22EC60CD71C8CA59DA5B9
:1059C0007C018201CACF0E94D923AD96CDBFDEBF34
:1059D000CF91DF911F910F91FF90EF90DF90CF90CB
:1059E000BF90AF909F908F907F906F905F904F90FF
:1059F0003F902F900895FF920F931F93CF93DF93C3
:105A0000F82E062FEA0110E0FE01E10FF11D4081A2
:105A100050E0415250408F2D602F0E94582C8091B1
:105A20000123080F1F5FFE01E10FF11D8081882314
:105A300059F7DF91CF911F910F91FF900895CF9269
:105A4000DF92EF92FF920F931F93DF93CF93CDB727
:105A5000DEB72A97CDBFDEBFD82EC62EFE01319607
:105A60008AE0DF011D928A95E9F77A0157FF02C0AB
:105A7000EE24FF24C70168EE73E00E944D7A69832B
:105A8000772767FD709588EE93E0689F8001699F96
:105A9000100D789F100D1124F701E01BF10BCF01C1
:105AA00064E670E00E944D7A6A8384E668029001A1
:105AB0001124CF01821B930B6AE070E00E944D7AA3
:105AC0006B838E2D801B821B96EF6902B00111241F
:105AD000860F8C83FE0131969E012B5F3F4F8081A4
